:02000002D0002C
:1040000000400D00745F0D00000006000C0005016B
:0840100004017E050000000020
:04401800705B0D00CC
:10401C0009480A49884208B505D0094A824202D0AB
:10402C00121A01F005FD0748074A0021121A01F087
:10403C000AFD014808BD00BF54E30320E05E0D00FB
:10404C00C0E30320C0E30320F0E7032070B500F0C9
:10405C00ABFC074C074BE41AA40800251E46A542EE
:10406C0004D056F8253098470135F8E770BD00BFED
:10407C00DC5E0D00945E0D0000F016B808B500F083
:10408C001BF8BDE8084000F05DBC00F02BBA00F056
:10409C0031BA00F02FBA0078B0FA80F040097047BE
:1040AC000123037070470000024B0121188801F0B6
:1040BC00F3BA00BF54E3032030B51E4D89B0012183
:1040CC00288801F0FAFA50213C2001F024F90A2248
:1040DC00014604A800F03FFB174B049A1B788DF89F
:1040EC00003016493C2302A800F0BAFD039C7CB1B9
:1040FC006368013B63605BB9236820469B68984703
:10410C00A368013BA3601BB923682046DB68984772
:10411C0047F2305000F0C8FB0021288801F0CDFA9E
:10412C0040F6B83000F0C0FB04A800F0BCFA09B0AF
:10413C0030BD00BF54E30320C4E30320845B0D00B7
:10414C00024B01221A7000F019B800BFC4E303201F
:10415C0000F014B800F012B800F010B808B5024B1B
:10416C001B689B68019308BD6802030008B5024BED
:10417C001B68DB68019308BD6802030008B5024B9D
:10418C001B681B68019308BD2C02030008B5024B89
:10419C001B689B68019308BD2C02030008B5024BF9
:1041AC001B68DB68019308BD2C02030008B5024BA9
:1041BC001B681B69019308BD2C02030008B5024B58
:1041CC001B68DB69019308BD3002030008B5024B84
:1041DC001B681B6A019308BD3002030008B5024B33
:1041EC001B685B68019308BD1802030008B5024BFD
:1041FC001B685B69019308BD1802030008B5024BEC
:10420C001B689B68019308BD4802030008B5024B6C
:10421C001B681B69019308BD4802030008B5024BDB
:10422C001B685B69019308BD4802030008B5024B8B
:10423C001B681B6B019308BD4802030008B5024BB9
:10424C001B685B6C019308BD4802030008B5024B68
:10425C001B685B69019308BD6402030008B5024B3F
:10426C001B681B68019308BD3C02030008B5024B98
:10427C001B68DB68019308BD3C02030008B5024BC8
:10428C001B681B69019308BD3C02030008B5024B77
:10429C001B685B69019308BD3C02030008B5024B27
:1042AC001B689B69019308BD3C02030008B5024BD7
:1042BC001B68DB69019308BD3C02030008B5024B87
:1042CC001B681B6A019308BD3C02030008B5024B36
:1042DC001B689B6A019308BD3C02030008B5024BA6
:1042EC001B681B6A019308BD2802030008B5024B2A
:1042FC001B685B6A019308BD2802030008B5024BDA
:10430C001B689B6A019308BD2802030008B5024B89
:10431C001B68DB6A019308BD2802030008B5024B39
:10432C001B681B6B019308BD2802030008B5024BE8
:10433C001B685B6B019308BD2802030008B5024B98
:10434C001B681B6C019308BD2802030008B5024BC7
:10435C001B681B68019308BD4C02030008B5024B97
:10436C001B681B69019308BD4C02030008B5024B86
:10437C001B685B69019308BD4C02030008B5024B36
:10438C001B689B69019308BD4C02030008B5024BE6
:10439C001B68DB69019308BD4C02030008B5024B96
:1043AC001B681B6A019308BD4C02030008B5024B45
:1043BC001B685B68019308BD2002030008B5024B23
:1043CC001B685B69019308BD2002030008B5024B12
:1043DC001B68DB6C019308BD2002030008B5024B7F
:1043EC001B685B6D019308BD2002030008B5034BED
:1043FC001B68D3F88830019308BD0000200203002D
:10440C0008B5034B1B68D3F89430019308BD00002A
:10441C002002030008B5024B1B685B68019308BDC2
:10442C004002030008B5024B1B689B68019308BD52
:10443C004002030008B5024B1B68DB68019308BD02
:10444C004002030008B5024B1B681B69019308BDB1
:10445C004002030008B5024B1B685B69019308BD61
:10446C004002030008B5024B1B689B69019308BD11
:10447C004002030008B5024B1B68DB69019308BDC1
:10448C004002030008B5024B1B681B6A019308BD70
:10449C004002030008B5024B1B681B6B019308BD5F
:1044AC004002030008B5024B1B685B6B019308BD0F
:1044BC004002030008B5024B1B685B69019308BD01
:1044CC004402030008B5024B1B681B6A019308BD2C
:1044DC004402030008B5024B1B68DB6B019308BD5B
:1044EC004402030008B5024B1B681B68019308BD0E
:1044FC001C02030008B5024B1B685B68019308BDE6
:10450C001C02030008B5024B1B689B68019308BD95
:10451C001C02030008B5024B1B68DB6A019308BD43
:10452C001C02030008B5024B1B681B6B019308BDF2
:10453C001C020300002211464068FFF7A3BF0022B3
:10454C0011464068FFF7AEBF00224068FFF7A2BFDC
:10455C00002281F001014068FFF78CBF00231A464E
:10456C0019464068FFF77EBF00231A46194640687B
:10457C00FFF770BF002211464068FFF763BF0022AF
:10458C0011464068FFF74EBF002202214068FFF73A
:10459C0051BF00231A464068FFF73CBF024B032271
:1045AC005A60024A1A607047C8E30320945B0D00FE
:1045BC00704710B51021044601F0DFF8204610BDFD
:1045CC0070B5084B0360044600250E4640F80C5F9E
:1045DC00FFF72CFE30462671FFF7F0FDA560204654
:1045EC0070BD00BFC85B0D000079FFF7EFBD000088
:1045FC00044B00204FF6FF72187058809A80FFF71A
:10460C00D5BE00BFD0E3032010B5044601F0A1FADB
:10461C00013823182046984206D20278197800F8FF
:10462C00011B03F80129F6E710BD70B50C46911E6D
:10463C00222920D82546294610B9234430220EE0E1
:10464C00B0FBF2F602FB1600C1B205F8011B0928FB
:10465C0094BF3031573105F8011C3046EBE79942D5
:10466C0002D201F8012BFAE7002320460B70FFF76A
:10467C00CBFF204670BD002070BD38B5031E0C4624
:10468C0015460BDAB3F1004F4FF02D0214BF584210
:10469C00184601230A702A46194400E00123FFF74B
:1046AC00C4FF204638BD10B504460068FFF722FF52
:1046BC00204610BD10B50446006808B1FFF71AFF7C
:1046CC0000232360A360636010BD38B504460D461B
:1046DC0000680131FFF716FF10B184E821000120BA
:1046EC0038BD10B50368044613B143688B4207D23A
:1046FC002046FFF7EAFF20B1A3680BB922681370BC
:10470C00012010BD70B50E46114604461546FFF744
:10471C00E8FF18B92046FFF7CDFF09E02A463146DD
:10472C00A560206801F084F92268A3680021D154A7
:10473C00204670BD38B505460C4641B1084601F01F
:10474C0008FA214602462846FFF7DCFF01E0FFF796
:10475C00B1FF284638BD10B5044600238AB023604B
:10476C006360A3602373084601A9FFF786FF01A9C4
:10477C002046FFF7DFFF20460AB010BD10B50368D6
:10478C0004469B689847A368013BA3602BB9236838
:10479C002046DB68BDE81040184710BD0B6803606D
:1047AC0013B15A6801325A60704710B5044600685C
:1047BC0028B14368013B43600BB9FFF7DFFF20468C
:1047CC0010BD0000024800230360FFF737BD00BF97
:1047DC00D8E30320F8B506460D468F180024BD42D9
:1047EC000CD0336815F8011B9B683046984700289D
:1047FC0001DB0444F3E7002C08BF04462046F8BD57
:10480C0070B505460C46084649B101F0A2F92B6873
:10481C00024621462846DB68BDE87040184770BD4B
:10482C0003689B68184730B58BB00B4600218DF898
:10483C002410012A98BF0A220DF12304B3FBF2F5D0
:10484C0005FB123303F0FF03092B94BF30333733CE
:10485C00DBB2214604F801392B46002DEED1FFF7CF
:10486C00CFFF0BB030BD10B42AB903685DF8044B10
:10487C009B68C9B21847D2B25DF8044BFFF7D3BF9F
:10488C00FFF7F1BF014B024A1A607047DCE30320CB
:10489C00435C0D00024B1A68024B1A60704700BF54
:1048AC0058E30320E0E303200021FFF787BD10B598
:1048BC008368044613B1032201469847204610BD75
:1048CC0010B50446FFF7F3FF204610BD13B50B4699
:1048DC00044603C88DE8030093E8030084E8030052
:1048EC009DE8030083E8030002B010BD0348044AAE
:1048FC0004490023836000F03BBF00BFE4E30320C6
:10490C00C0E30320CD480D0008B50C4B33B100F0CB
:10491C00F9FB03681B699847002809DC084B63B155
:10492C0000F072FC03681B699847002803DC08BD83
:10493C00AFF30080F2E7AFF3008008BD0000000089
:10494C000000000008B5FFF7DFFFFFF74FFC014B3D
:10495C00186008BD34E7032007B5002300931A46FE
:10496C006FF07701FFF74CFD03B05DF804FB00001E
:10497C0007B543880A2B08D0502B09D1094B1B686B
:10498C003BB103B05DF804EB1847FFF7E5FF06E019
:10499C00002300931A466FF07701FFF731FD03B047
:1049AC005DF804FBF4E3032010B5FFF717FC044695
:1049BC0001F052F8074B13B12046AFF300800021F1
:1049CC000448FFF787FD00210348BDE81040FFF7BE
:1049DC000DBD00BF000000007D490D007047002098
:1049EC00704710B51021044600F0C7FE204610BDDC
:1049FC0008B508B1FFF7F5FF08BD0022026010B53D
:104A0C004FF69C728280B1F9044084808A800268DF
:104A1C000C6804600A6010BD10B504460068FFF70E
:104A2C0069FD204610BD38B5C468F4B12378022B5B
:104A3C0003D104F10C00FFF7EFFF656835B1284690
:104A4C00FFF735FF1021284600F097FEA56835B119
:104A5C002846FFF72CFF1021284600F08EFE20463A
:104A6C001421BDE8384000F088BE38BD13B50446AB
:104A7C0091E8050000234B600B602060626001A888
:104A8C0001930093FFF791FE204602B010BDF7B5DD
:104A9C000C4602AD54F8043B45F8083D06460F465B
:104AAC0001A82146FFF77AFE29463046FFF7DEFFC4
:104ABC0001A8FFF77AFE2046FFF777FE384608215B
:104ACC0000F05BFE304603B0F0BD000038B50023AB
:104ADC000446036010200D46FFF7D7FA28B10123D6
:104AEC0043608360024B0360C5602060204638BD84
:104AFC00E45C0D00826810B50AB900F040FEC36892
:104B0C00BDE81040184708B5006800F11001FFF728
:104B1C00F1FF08BD826810B50AB900F030FEC36819
:104B2C00BDE81040184708B5006800F11001FFF708
:104B3C00F1FF08BD38B5002383608B6804460D4631
:104B4C002BB102229847EB68E360AB68A360204668
:104B5C0038BD0000F0B589B004686846FFF74DFF1A
:104B6C0000238DF808304FF00202D4E84F3F002BA1
:104B7C0003D1C4E8412F0029F7D102D08DF80830B9
:104B8C0063E014F10C0503D069462846FFF735FFA6
:104B9C00BFF35F8F01236370002004F10803BFF3A0
:104BAC005F8F53E8006F43E80002002AF9D1BFF38E
:104BBC005F8F002E49D0FFF709FC20B12946304603
:104BCC00FFF798FF3AE0314602A8FFF7B3FFE06821
:104BDC00B4F9105008B100F0A1FF06901020ADF808
:104BEC001C50FFF752FA0546E8B1002787601820E1
:104BFC00FFF74BFA044688B10146876002A8FFF71D
:104C0C0065FE049BA268A360059B049206A9E2685A
:104C1C00E36004F110000592FFF7EFFE0D4BEB6023
:104C2C000D4B2C60AB6006A8FFF7F6FE02A8FFF751
:104C3C003EFE002229460948FFF7D0FB3046FFF71D
:104C4C0036FE1021304600F098FD6846FFF7E4FE72
:104C5C0009B0F0BD134B0D00894D0D0061520D00D4
:104C6C002DE9F04F8BB006460F46904699469DF8BD
:104C7C0050A0FFF71FFC07AD834630BB4FF62E73D9
:104C8C00059005A92846ADF81830FFF7B6FE14209C
:104C9C00FFF7FBF9044658B102230370012343705C
:104CAC00C0F804B0C0F808B029460C30FFF7A5FED8
:104CBC003046214640F8044BFFF708FF2846FFF723
:104CCC00ABFE05A8FFF7A8FE52E000240C2314202D
:104CDC006C60AC600793FFF7D8F9014618B104700B
:104CEC0044704460846004A80391FFF7EFFE224BEC
:104CFC0008930820FFF7C9F9044628B1039B40F834
:104D0C00043B04A9FFF74AFD00955FFA8AF34A4673
:104D1C00414638460994FFF7D5FB20B9039B5B78D5
:104D2C0003F0FF0283B1039B059304A906A8FFF7C8
:104D3C0035FD05A93046FFF799FE06A8FFF735FDAE
:104D4C0004A8FFF732FD13E04FF69C7305A903A8E6
:104D5C000592ADF81830FFF7FDFE05A8FFF75CFED5
:104D6C0005A80999FFF793FE06A8FFF71EFDDAE7E1
:104D7C0030460BB0BDE8F08FF94E0D00022AF8B5A5
:104D8C00044606D0032A17D0012A22D10B680360EF
:104D9C001FE018200E68FFF778F9054650B1314630
:104DAC00FFF7C8FE3069B6F9147008B100F0B6FE12
:104DBC002861AF8225600CE0046854B104F1100046
:104DCC00FFF72AFE2046FFF772FD1821204600F05F
:104DDC00D4FC0020F8BD38B5002383608B680446F2
:104DEC000D462BB102229847EB68E360AB68A360D9
:104DFC00204638BD022A70B5044606D0032A11D0CD
:104E0C00012A18D10B68036015E014200E68FFF717
:104E1C003CF9054620B13146FFF7DDFF337C2B749E
:104E2C00256008E0046834B12046FFF740FD1421EA
:104E3C00204600F0A2FC002070BD0000F0B500235D
:104E4C0087B00C46BFF35F8F50E8006F40E800322C
:104E5C00002AF9D1BFF35F8F002E3FD01846FFF721
:104E6C00B5FA074620B121463046FFF753FE2EE037
:104E7C00314601A8FFF7AFFF23788DF814301020CE
:104E8C00FFF703F90546D0B187601420FFF7FDF852
:104E9C00044678B18760014601A8FFF717FD039B14
:104EAC00A268A360049B0392E268E3609DF814304F
:104EBC00049223740A4BEB600A4B2C60AB6001A884
:104ECC00FFF7F5FC002229460748FFF787FA304622
:104EDC00FFF7EDFC1021304600F04FFC07B0F0BDA1
:104EEC00334B0D00014E0D0061520D0030B585B0F5
:104EFC0004460D4668461146FFF7C9FD7CB124B245
:104F0C0028460DB100F00AFE029002A96846ADF8E1
:104F1C000C40FFF71FFE02A8FFF77EFD1DE0009876
:104F2C008DF808404FF00102D0E84F3FA34203D167
:104F3C00C0E8412F0029F7D102D08DF808300CE0E1
:104F4C0010F10C014FF0010318BF0373BFF35F8F17
:104F5C00043000F8033CFFF771FF01A8FFF725FCB4
:104F6C0005B030BD704710B51821044600F005FCA3
:104F7C00204610BDF0B5037D062B8DB00E4600F11A
:104F8C0004074FF0000402D000F1080518E00CAD46
:104F9C00394605F8304D2F232A460A20FFF756F9DB
:104FAC00284600F0D6FD33680246DB6829463046B9
:104FBC0098470FE024B12E213046FFF731FC044412
:104FCC0015F8011D0A223046FFF75AFCBD42044475
:104FDC00F0D120460DB0F0BD10B5054B04461122A2
:104FEC0040F8043B002100F02EFD204610BD00BF10
:104FFC00005D0D000346074A10B543F8042B01F180
:10500C00100251F8044B43F8044B9142F9D10A7841
:10501C001A7010BD005D0D0010B59DF8084044EAF3
:10502C00032343EA024242EA01610423416003750F
:10503C0010BD37B50D788B784A78C9780091294620
:10504C00FFF7EAFF03B030BD41747047704708B5F5
:10505C000021007CFFF792F930EA200028BF4FF0C6
:10506C00FF3008BD08B50121007CFFF787F930EA55
:10507C00200028BF4FF0FF3008BD08B5007CFFF7BB
:10508C0075F920EAE07008BD08B5007CFFF766F9F9
:10509C0020EAE07008BD007CFFF780B910B5142140
:1050AC00044600F06AFB204610BD38B50446007C6F
:1050BC000D46FFF75BF9002801DC607C28B129461E
:1050CC00207CFFF763F920EAE07038BD10B5044688
:1050DC00002363604FF47A73A360054B23600123B4
:1050EC000846217463741146FFF730F9204610BD51
:1050FC00145D0D0010B514220446002100F0A3FC31
:10510C00204610BD30B50E4D87B001A8FFF7F2FF59
:10511C00296811F0010410D12846FEF7BCFF60B1DC
:10512C0001AA21460748FFF7D1FF2846FEF7B8FF32
:10513C00054A0649034800F01BFB024807B030BD86
:10514C00F8E30320FCE30320C0E3032059500D00D7
:10515C0070474174704708B5007CFFF7B7F820EA38
:10516C00E07008BD08B5007CFFF788F820EAE07015
:10517C0008BD08B5007CFFF791F830EA200028BF85
:10518C004FF0FF3008BD08B5007CFFF77FF830EA20
:10519C00200028BF4FF0FF3008BD007CFFF786B819
:1051AC0010B51421044600F0E8FA204610BD70B585
:1051BC00457C04460E4625B9007CFFF787F800288D
:1051CC0005DD3146207CBDE87040FFF74FB828461E
:1051DC0070BD000010B504460846114600226260FE
:1051EC004FF47A72A260054A226001222074627424
:1051FC001A46FFF733F8204610BD00BF445D0D0082
:10520C00007CFFF75BB8000038B50C4D296811F035
:10521C00010411D12846FEF73EFF68B1084A094B3C
:10522C0009482146FFF7D6FF2846FEF739FF074A03
:10523C000749054800F09CFA034838BDA8E4032050
:10524C00ACE4032024E4032010E40320C0E3032097
:10525C005D510D0010B5836804460BB900F08FFA50
:10526C00C3689847A3681BB1032221462046984780
:10527C0020461021BDE8104000F07FBA7047F8B509
:10528C00064615460C468F18BC4206D0336814F8F7
:10529C00011B9B6830469847F6E72846F8BD00226C
:1052AC00007CFFF71BB80021007CFFF71FB8002122
:1052BC00007CFFF723B80021007CFFF727B8002102
:1052CC00007CFFF72BB810B51421044600F055FAFA
:1052DC00204610BD10B504464FF47A730846A360FF
:1052EC000021044B207461602360FFF727F82046EF
:1052FC0010BD00BF745D0D000021007CFFF716B8D7
:10530C0010B5044630B100F0CFFB90FBF4F303FB77
:10531C00140010BD10BD884210B5044604DA081AFA
:10532C00FFF7EEFF204410BD10BD0022114640686F
:10533C00FFF7A8B8002211464068FFF7B3B8002267
:10534C004068FFF7A7B8002281F001014068FFF721
:10535C0091B800231A4601214068FFF783B8002357
:10536C001A4619464068FFF775B800221146406886
:10537C00FFF768B8002211464068FFF753B80022C7
:10538C0002214068FFF756B800231A464068FFF721
:10539C0041B838B5054688B104684CB1A3681BB157
:1053AC0003222146204698471021204600F0E5F9BB
:1053BC0028461421BDE8384000F0DFB938BD10B1E3
:1053CC0003685B681847704710B503680446BBB1A7
:1053DC005868FEF713FF78B923685A7C12B95868DD
:1053EC00FEF714FF23685868FEF718FF20680023A7
:1053FC00236028B1FFF7CDFF206808B1FFF7C9FF84
:10540C00204610BD38B50C4B03600446D0F8CC01D7
:10541C0008B1FEF73EFED4F8C45135B12846FFF76B
:10542C00D3FF0421284600F0A8F9A06808B1FFF7C3
:10543C00C6FF204638BD00BF9C5D0D0038B50E4C34
:10544C000E4B23600025022304F5E4706360A56015
:10545C00C4F8C451C4F8C851FEF7F0FE084BC4F8A8
:10546C00CC5184F8D05123602046064A0649BDE849
:10547C00384000F07DB900BF30E50320045E0D001C
:10548C009C5D0D00C0E3032011540D000022114659
:10549C004068FEF7D7BF002211464068FEF7F2BF06
:1054AC00002211464068FEF7FDBF00224068FEF75F
:1054BC00F1BF002281F001014068FEF7DBBF002341
:1054CC001A4619464068FEF7CDBF00231A46194606
:1054DC004068FEF7BFBF002211464068FEF7A2BF2E
:1054EC00002202214068FEF7A5BF00231A4640683F
:1054FC00FEF790BF024B04225A60024A1A607047B2
:10550C0004E70320D05D0D0000231A464068FEF727
:10551C0081BF002202214068FEF78CBF0022114699
:10552C004068FEF77FBF002211464068FEF78ABF35
:10553C0000231A4619464068FEF78CBF00231A4612
:10554C0019464068FEF78EBF002281F001014068C9
:10555C00FEF790BF00224068FEF79CBF0022114668
:10556C004068FEF79FBF002211464068FEF78ABFD5
:10557C002DE9F043002495B016460D460746FFF77B
:10558C002BFD214620220CA8009400F05CFA40234D
:10559C000C9321466B460CAA3046FEF7E7FD0446F9
:1055AC00002844D1024601216868FEF74BFF022116
:1055BC00804622466868FEF745FF009E81462146DC
:1055CC00002E34D0002932D17368022B02D00A2B62
:1055DC0009D02AE0B8F1000F27D0716938460431A0
:1055EC00FFF727FD20E0B9F1000F1ED074691122DE
:1055FC0001A800F028FA06238DF8143001AD04F14F
:10560C0008031834186859682A4603C20833A342A1
:10561C001546F7D101A906A807ADFFF7EBFC0FCD96
:10562C003C1D0FC42B6823700121F669C8E7009854
:10563C00FEF794FD384615B0BDE8F083024B034AE3
:10564C001A6000225A6070470CE70320045E0D00BC
:10565C0010B504460F48FEF7C7FF28B1A4F10B03A1
:10566C00022B01D8002010BD00F062F8FFF744FEB9
:10567C0008B1012CF6D9FFF7C7FDFFF7C1FD18B132
:10568C00A4F10903012BEDD9232C8CBF00200120A0
:10569C0010BD00BF14E70320232838B504460D467F
:1056AC000AD8FF2908D0FFF7D3FF28B12946204696
:1056BC00BDE83840FEF76ABD38BD38B504460D4626
:1056CC00FEF76CFDFF2810D0062804D84D2323FAD2
:1056DC0000F0C30709D42046FFF7BAFF28B12946CA
:1056EC002046BDE83840FEF761BD38BD70B50C4CA6
:1056FC000C4E0D4D00212046FEF762FF20460B4C50
:10570C003246294600F034F801212046FEF758FFB6
:10571C00324629462046BDE8704000F029B800BF4B
:10572C0014E70320C0E30320BD450D0024E703204C
:10573C0038B50B4D296811F001040FD12846FEF73E
:10574C00AAFC58B121460748FFF7C4FD2846FEF7CE
:10575C00A7FC054A0549034800F00AF8014838BD82
:10576C0038E703203CE70320C0E3032089520D00F7
:10577C000B460146184600F04DB9FEF788BC08B53B
:10578C00FEF7C8FE184B1A68D1075CBF01221A60DD
:10579C00164B1A68D2075CBF01221A60144B1A68A8
:1057AC00D0075CBF01221A60124B1A68D1075CBF8C
:1057BC0001221A60104B1A68D2075CBF01221A60D2
:1057CC000E4B1A68D0075CBF01221A600C4B1A688A
:1057DC00D1075CBF01221A600A4B1A68D2075CBF62
:1057EC0001221A60704700BF6CE7032068E70320B2
:1057FC0064E7032060E703205CE7032058E70320FD
:10580C0054E7032050E70320244B1A68D0075CBFF1
:10581C0001221A60224B1A68D1075CBF01221A6060
:10582C00204B1A68D2075CBF01221A601E4B1A6803
:10583C00D0075CBF01221A601C4B1A68D1075CBFF1
:10584C0001221A601A4B1A68D2075CBF01221A6037
:10585C00184B1A68D0075CBF01221A60164B1A68E5
:10586C00D1075CBF01221A60144B1A68D2075CBFC7
:10587C0001221A60124B1A68D0075CBF01221A6011
:10588C00104B1A68D1075CBF01221A600E4B1A68C4
:10589C00D2075CBF01221A60704700BF9CE703204F
:1058AC0098E7032094E7032090E703208CE703207C
:1058BC0088E7032084E7032080E703207CE70320AC
:1058CC0078E7032074E7032070E70320244B1A6861
:1058DC00D0075CBF01221A60224B1A68D1075CBF4B
:1058EC0001221A60204B1A68D2075CBF01221A6091
:1058FC001E4B1A68D0075CBF01221A601C4B1A6839
:10590C00D1075CBF01221A601A4B1A68D2075CBF20
:10591C0001221A60184B1A68D0075CBF01221A606A
:10592C00164B1A68D1075CBF01221A60144B1A6817
:10593C00D2075CBF01221A60124B1A68D0075CBFF9
:10594C0001221A60104B1A68D1075CBF01221A6041
:10595C000E4B1A68D2075CBF01221A60704700BF59
:10596C00CCE70320C8E70320C4E70320C0E70320EB
:10597C00BCE70320B8E70320B4E70320B0E703201B
:10598C00ACE70320A8E70320A4E70320A0E703204B
:10599C00184B1A68D1075CBF01221A60164B1A68A3
:1059AC00D2075CBF01221A60144B1A68D0075CBF87
:1059BC0001221A60124B1A68D1075CBF01221A60CF
:1059CC00104B1A68D2075CBF01221A600E4B1A6882
:1059DC00D0075CBF01221A600C4B1A68D1075CBF60
:1059EC0001221A600A4B1A68D2075CBF01221A60A6
:1059FC00704700BFECE70320E8E70320E4E703204F
:105A0C00E0E70320DCE70320D8E70320D4E70320FA
:105A1C00D0E7032010B5054C13462CB10A460146BD
:105A2C000220AFF3008010BD204610BD0000000026
:105A3C0010B5431E0A44914204D011F8014B03F8EF
:105A4C00014FF8E710BD02440346934202D003F81D
:105A5C00011BFAE77047000038B5124B1C68A36BAA
:105A6C000546D3B91820FEF73DFD43F20E33A06373
:105A7C0003804AF6CD33438041F2342383804EF2C7
:105A8C006D63C3804DF6EC630381052343810B23C7
:105A9C00838101220023C0E90423A36B00221D6132
:105AAC005A6138BDBCE30320194B10B51C68A36BBD
:105ABC00D3B91820FEF716FD43F20E33A063038012
:105ACC004AF6CD33438041F2342383804EF26D632A
:105ADC00C3804DF6EC630381052343810B23838143
:105AEC0001220023C0E90423A16B0A4C0B6948690D
:105AFC00094A5C4302FB0040A3FB0223013203442E
:105B0C0043F10003C1E9042323F0004010BD00BFA2
:105B1C00BCE303202DF451582D7F954C024B0146CC
:105B2C00186800F003B800BFBCE3032070B506464C
:105B3C0008460C4600F00DF8451C29463046FEF789
:105B4C00F1FC064618B12A462146FFF771FF304694
:105B5C0070BD034613F8012B002AFBD1181A01382B
:105B6C00704700001D400D0059400D0085400D0090
:105B7C0089400D000000000074656D70000000008D
:105B8C0000000000000000009F450D0095450D0031
:105B9C008B450D0081450D0075450D0069450D00C7
:105BAC005D450D0055450D004B450D0041450D0063
:105BBC007D550D000000000000000000BD450D00EB
:105BCC00BF450D00626175640053657269616C00BC
:105BDC0053657269616C3100747970650070617223
:105BEC00616D00636D6400696400686E64007374B9
:105BFC00726D0066696C74006C766C00616464484C
:105C0C00616E646C65720072656D6F766548616E6D
:105C1C00646C657200656E756D48616E646C65725E
:105C2C0073004A534F4E53747265616D4C6F6748E5
:105C3C00616E646C65720061707000253031307576
:105C4C0020005D20002564002C200028293A20002B
:105C5C00205B00636F6465203D200025690064654E
:105C6C007461696C73203D20000D0A0066006C6E37
:105C7C0000666E00636F64650064657461696C0036
:105C8C006E6F6E6500747261636500696E666F009D
:105C9C007761726E006572726F720070616E69630B
:105CAC0000616C6C005A00252B3033643A2530327D
:105CBC00750025592D256D2D25645425483A254D03
:105CCC003A2553257A0061736374696D6500000091
:105CDC000000000000000000E9490D00EF490D0034
:105CEC00334A0D00FD490D00EB490D00000000008A
:105CFC0000000000814F0D00714F0D00734F0D001F
:105D0C00000000000000000059500D00A9500D00CB
:105D1C00B7500D00E1470D0095500D005B500D0084
:105D2C0071500D00A3500D0087500D0055500D0003
:105D3C0000000000000000005D510D00AD510D0091
:105D4C00BB510D00E1470D0071510D0093510D0039
:105D5C007F510D00A7510D005F510D0063510D00D7
:105D6C00000000000000000089520D00D3520D000D
:105D7C00AB520D008B520D00B3520D00BB520D00F7
:105D8C00C3520D00CB520D000000000000000000BB
:105D9C0095530D008B530D0081530D0077530D005F
:105DAC006B530D005F530D0053530D004B530D00FF
:105DBC0041530D0037530D007D550D0000000000C0
:105DCC0000000000F7540D00ED540D00E3540D00DD
:105DDC0099540D00D7540D00CB540D00BF540D0039
:105DEC00B7540D00AD540D00A3540D007D550D009E
:105DFC00000000000000000015550D001F550D009F
:105E0C0029550D0033550D003D550D0049550D001C
:105E1C0055550D0061550D0069550D0073550D005C
:105E2C007D550D0000000000000000000000000087
:105E3C000000000000000000000000000000000056
:105E4C000000000000000000000000000000000046
:105E5C000000000000000000000000000000000036
:105E6C000000000000000000000000000000000026
:105E7C000000000000000000000000000000000016
:105E8C0000000000430000004D410D005D410D007D
:105E9C0061410D0065410D00A9450D00FD450D004A
:105EAC00D1470D0091480D00A1480D00F9480D0097
:105EBC0049540D0001550D0049560D00F9560D00C1
:105ECC0091570D0015580D00D9580D009D590D0016
:045EDC0000000000C2
:105EE00007000000D25C0D0000000000305E0D00D5
:105EF000505E0D00705E0D0000000000000000000C
:105F00000000000000000000905E0D000000000096
:105F10000000000000000000000000000000000081
:105F20000000000000000000000000000000000071
:105F30000000000000000000000000000000000061
:0C5F400000000000000000005CE30320F3
:105F4C00FFFFFFFF00000102030405060708090A12
:105F5C000B0C0D0E0F101112131415161718191A0D
:085F6C001B1C1D1E1F20280054
:045F74007856341215
:04000003D000401CCD
:00000001FF
