:02000002D0002C
:1040000000400D002C5F0D00000006000C000501B3
:0840100004017E050000000020
:044018001C5B0D0020
:10401C0009480A49884208B505D0094A824202D0AB
:10402C00121A01F015FD0748074A0021121A01F077
:10403C001AFD014808BD00BF3CE30320905E0D0053
:10404C00B0E30320B0E30320F0E7032070B500F0E9
:10405C00B7FC074C074BE41AA40800251E46A542E2
:10406C0004D056F8253098470135F8E770BD00BFED
:10407C00905E0D00545E0D0000F016B808B500F00F
:10408C00E5F8BDE8084000F069BC00F015BB00F095
:10409C001BBB00F019BB0078B0FA80F040097047E8
:1040AC0001230370704700002DE9F843554D564C21
:1040BC00564F2888564E012101F0E6FA012120883E
:1040CC0001F0E2FA0021388801F0DEFA3088012193
:1040DC0001F0DAFA3088012101F0E7FA0121208899
:1040EC0001F0E3FA4FF4FA6000F0EAFB00212088BB
:1040FC0001F0DBFA0121288801F0D7FA4FF4FA70AD
:10410C0000F0DEFB388801F0E9FA8146C82000F0A7
:10411C00D7FB388801F0E2FA06464FF4967000F0AF
:10412C00CFFB0121208801F0C0FA642000F0C8FB0D
:10413C000021208801F0B9FA642000F0C1FB0121B4
:10414C00208801F0B2FA642000F0BAFB002120882C
:10415C0001F0ABFA642000F0B3FB0121208801F0E0
:10416C00A4FA4FF4FA6000F0ABFB0021208801F0B8
:10417C009CFA388801F0B2FA8046C82000F0A0FB07
:10418C00388801F0ABFA05464FF47A7000F098FBD2
:10419C000121208801F089FA642000F091FB0021B4
:1041AC00208801F082FA642000F08AFB012120882B
:1041BC0001F07BFA642000F083FB0021208801F0E1
:1041CC0074FA642000F07CFB0121208801F06DFA68
:1041DC00642000F075FB0021208801F066FA0D4B7D
:1041EC000D49022209EB0600454490FBF2F01860E1
:1041FC0095FBF2F30B60034493FBF2F3074A136055
:10420C00BDE8F883BCE303203CE3032044E3032034
:10421C0040E30320B8E30320C4E30320B4E303200A
:10422C0038B5046805467CB16368013B63605BB9D3
:10423C00236820469B689847A368013BA3601BB981
:10424C0023682046DB689847284638BD7FB5244B49
:10425C00244C188801F042FA234B1B6898421EDD4F
:10426C002378002B39D0214B214A1B7821498DF81A
:10427C00003002A83C23204D00F0FEFC03A8FFF701
:10428C00CFFF0121288801F010FA4FF4FA7000F0EA
:10429C0017FB0021288801F008FA00231CE026787F
:1042AC00DEB9124B154A1B7812498DF8003002A862
:1042BC003C23114D00F0E0FC03A8FFF7B1FF0121F6
:1042CC00288801F0F2F94FF4FA7000F0F9FA31464F
:1042DC00288801F0EAF90123237004B070BD00BFF7
:1042EC0044E30320C0E30320B4E30320C1E3032031
:1042FC00305B0D00375B0D003CE30320425B0D008F
:10430C00024B01221A7000F013B800BFC1E3032066
:10431C0008B5024B1B689B68019308BD680203003B
:10432C0008B5024B1B68DB68019308BD68020300EB
:10433C0008B5024B1B681B68019308BD2C020300D7
:10434C0008B5024B1B685B68019308BD2C02030087
:10435C0008B5024B1B689B68019308BD2C02030037
:10436C0008B5024B1B68DB68019308BD2C020300E7
:10437C0008B5024B1B681B69019308BD2C02030096
:10438C0008B5024B1B681B6B019308BD2C02030084
:10439C0008B5024B1B68DB69019308BD30020300B2
:1043AC0008B5024B1B681B6A019308BD3002030061
:1043BC0008B5024B1B685B68019308BD180203002B
:1043CC0008B5024B1B685B69019308BD180203001A
:1043DC0008B5024B1B689B68019308BD480203009B
:1043EC0008B5024B1B681B69019308BD480203000A
:1043FC0008B5024B1B685B69019308BD48020300BA
:10440C0008B5024B1B681B6B019308BD48020300E7
:10441C0008B5024B1B685B6C019308BD4802030096
:10442C0008B5024B1B685B69019308BD640203006D
:10443C0008B5024B1B681B68019308BD3C020300C6
:10444C0008B5024B1B68DB68019308BD3C020300F6
:10445C0008B5024B1B681B69019308BD3C020300A5
:10446C0008B5024B1B685B69019308BD3C02030055
:10447C0008B5024B1B689B69019308BD3C02030005
:10448C0008B5024B1B68DB69019308BD3C020300B5
:10449C0008B5024B1B681B6A019308BD3C02030064
:1044AC0008B5024B1B689B6A019308BD3C020300D4
:1044BC0008B5024B1B681B6A019308BD2802030058
:1044CC0008B5024B1B685B6A019308BD2802030008
:1044DC0008B5024B1B689B6A019308BD28020300B8
:1044EC0008B5024B1B68DB6A019308BD2802030068
:1044FC0008B5024B1B681B6B019308BD2802030017
:10450C0008B5024B1B685B6B019308BD28020300C6
:10451C0008B5024B1B681B6C019308BD28020300F5
:10452C0008B5024B1B681B68019308BD4C020300C5
:10453C0008B5024B1B681B69019308BD4C020300B4
:10454C0008B5024B1B685B69019308BD4C02030064
:10455C0008B5024B1B689B69019308BD4C02030014
:10456C0008B5024B1B68DB69019308BD4C020300C4
:10457C0008B5024B1B681B6A019308BD4C02030073
:10458C0008B5024B1B685B68019308BD2002030051
:10459C0008B5024B1B685B69019308BD2002030040
:1045AC0008B5024B1B68DB6C019308BD20020300AD
:1045BC0008B5024B1B685B6D019308BD200203001C
:1045CC0008B5034B1B68D3F88830019308BD000075
:1045DC002002030008B5034B1B68D3F894300193F9
:1045EC0008BD00002002030008B5024B1B685B6885
:1045FC00019308BD4002030008B5024B1B689B6881
:10460C00019308BD4002030008B5024B1B68DB6830
:10461C00019308BD4002030008B5024B1B681B69DF
:10462C00019308BD4002030008B5024B1B685B698F
:10463C00019308BD4002030008B5024B1B689B693F
:10464C00019308BD4002030008B5024B1B68DB69EF
:10465C00019308BD4002030008B5024B1B681B6A9E
:10466C00019308BD4002030008B5024B1B681B6B8D
:10467C00019308BD4002030008B5024B1B685B6B3D
:10468C00019308BD4002030008B5024B1B685B692F
:10469C00019308BD4402030008B5024B1B681B6A5A
:1046AC00019308BD4402030008B5024B1B68DB6B89
:1046BC00019308BD4402030008B5024B1B681B683C
:1046CC00019308BD1C02030008B5024B1B685B6814
:1046DC00019308BD1C02030008B5024B1B68DB6A82
:1046EC00019308BD1C02030008B5024B1B681B6B31
:1046FC00019308BD1C020300002211464068FFF71D
:10470C00ABBF002211464068FFF7B6BF00224068DD
:10471C00FFF7AABF002281F001014068FFF794BFA8
:10472C0000231A4619464068FFF786BF00231A4635
:10473C0019464068FFF778BF002211464068FFF722
:10474C006BBF002211464068FFF756BF00220221C2
:10475C004068FFF759BF00231A464068FFF744BF73
:10476C00024B03225A60024A1A607047C8E30320C6
:10477C00545B0D00704710B51021044601F00DF884
:10478C00204610BD70B5084B0360044600250E464C
:10479C0040F80C5FFFF734FE30462671FFF7F8FD4A
:1047AC00A560204670BD00BF885B0D000079FFF747
:1047BC00F7BD0000044B00204FF6FF7218705880B4
:1047CC009A80FFF7DDBE00BFD0E303200B680360C7
:1047DC0013B15A6801325A60704700000248002336
:1047EC000360FFF715BE00BFD8E30320F8B50646FB
:1047FC000D468F180024BD420CD0336815F8011BF0
:10480C009B6830469847002801DB0444F3E7002CF2
:10481C0008BF04462046F8BD70B505460C46084650
:10482C0049B101F06CF92B68024621462846DB6839
:10483C00BDE87040184770BD03689B68184730B5D9
:10484C008BB00B4600218DF82410012A98BF0A2248
:10485C000DF12304B3FBF2F505FB123303F0FF0358
:10486C00092B94BF30333733DBB2214604F80139BE
:10487C002B46002DEED1FFF7CFFF0BB030BD10B49F
:10488C002AB903685DF8044B9B68C9B21847D2B2C9
:10489C005DF8044BFFF7D3BFFFF7F1BF014B024AA2
:1048AC001A607047DCE30320035C0D00024B1A68AE
:1048BC00024B1A60704700BF48E30320E0E303207B
:1048CC000021FFF765BE10B58368044613B10322BF
:1048DC0001469847204610BD10B50446FFF7F3FF7C
:1048EC00204610BD13B50B46044603C88DE80300E3
:1048FC0093E8030084E803009DE8030083E80300C9
:10490C0002B010BD0348044A04490023836000F040
:10491C003FBF00BFE4E30320B0E30320E5480D00F4
:10492C0008B50C4B33B100F0F9FB03681B699847D1
:10493C00002809DC084B63B100F072FC03681B69AA
:10494C009847002803DC08BDAFF30080F2E7AFF313
:10495C00008008BD000000000000000008B5FFF753
:10496C00DFFFFFF72DFD014B186008BD34E7032076
:10497C0007B5002300931A466FF07701FFF72AFE64
:10498C0003B05DF804FB000007B543880A2B08D080
:10499C00502B09D1094B1B683BB103B05DF804EBFC
:1049AC001847FFF7E5FF06E0002300931A466FF067
:1049BC007701FFF70FFE03B05DF804FBF4E303206F
:1049CC0010B5FFF7F5FC044601F056F8074B13B190
:1049DC002046AFF3008000210448FFF765FE00215C
:1049EC000348BDE81040FFF7EBBD00BF000000001E
:1049FC0095490D0070470020704710B510210446F2
:104A0C0000F0CBFE204610BD08B508B1FFF7F5FF4E
:104A1C0008BD0022026010B54FF69C728280B1F97D
:104A2C00044084808A8002680C6804600A6010BDAF
:104A3C0010B504460068FFF747FE204610BD38B598
:104A4C00C468F4B12378022B03D104F10C00FFF7F6
:104A5C00EFFF656835B12846FFF735FF1021284672
:104A6C0000F09BFEA56835B12846FFF72CFF1021FE
:104A7C00284600F092FE20461421BDE8384000F094
:104A8C008CBE38BD13B5044691E8050000234B607D
:104A9C000B602060626001A801930093FFF7C0FBDC
:104AAC00204602B010BDF7B50C4602AD54F8043BDD
:104ABC0045F8083D06460F4601A82146FFF786FE3D
:104ACC0029463046FFF7DEFF01A8FFF7A9FB204679
:104ADC00FFF7A6FB3846082100F05FFE304603B016
:104AEC00F0BD000038B500230446036010200D46CD
:104AFC00FFF7CBFA28B1012343608360024B0360BC
:104B0C00C5602060204638BDA45C0D00826810B5DD
:104B1C000AB900F044FEC368BDE81040184708B558
:104B2C00006800F11001FFF7F1FF08BD826810B5B5
:104B3C000AB900F034FEC368BDE81040184708B548
:104B4C00006800F11001FFF7F1FF08BD38B5002334
:104B5C0083608B6804460D462BB102229847EB68A4
:104B6C00E360AB68A360204638BD0000F0B589B0A7
:104B7C0004686846FFF74DFF00238DF808304FF0AE
:104B8C000202D4E84F3F002B03D1C4E8412F002987
:104B9C00F7D102D08DF8083063E014F10C0503D086
:104BAC0069462846FFF735FFBFF35F8F012363701B
:104BBC00002004F10803BFF35F8F53E8006F43E854
:104BCC000002002AF9D1BFF35F8F002E49D0FFF706
:104BDC00E7FC20B129463046FFF798FF3AE0314612
:104BEC0002A8FFF7B3FFE068B4F9105008B100F069
:104BFC006BFF06901020ADF81C50FFF746FA0546E7
:104C0C00E8B1002787601820FFF73FFA044688B107
:104C1C000146876002A8FFF765FE049BA268A360AB
:104C2C00059B049206A9E268E36004F1100005926A
:104C3C00FFF7EFFE0D4BEB600D4B2C60AB6006A845
:104C4C00FFF7F6FE02A8FFF73EFE002229460948B0
:104C5C00FFF7AEFC3046FFF736FE1021304600F071
:104C6C009CFD6846FFF7E4FE09B0F0BD2B4B0D0030
:104C7C00A14D0D0079520D002DE9F04F8BB0064679
:104C8C000F46904699469DF850A0FFF7FDFC07ADE6
:104C9C00834630BB4FF62E73059005A92846ADF818
:104CAC001830FFF7B6FE1420FFF7EFF9044658B1A1
:104CBC000223037001234370C0F804B0C0F808B09D
:104CCC0029460C30FFF7A5FE3046214640F8044B30
:104CDC00FFF708FF2846FFF7ABFE05A8FFF7A8FE75
:104CEC0052E000240C2314206C60AC600793FFF797
:104CFC00CCF9014618B1047044704460846004A877
:104D0C000391FFF7EFFE224B08930820FFF7BDF944
:104D1C00044628B1039B40F8043B04A9FFF756FD59
:104D2C0000955FFA8AF34A46414638460994FFF7E4
:104D3C00B3FC20B9039B5B7803F0FF0283B1039BA8
:104D4C00059304A906A8FFF741FD05A93046FFF716
:104D5C0099FE06A8FFF764FA04A8FFF761FA13E0BE
:104D6C004FF69C7305A903A80592ADF81830FFF710
:104D7C00FDFE05A8FFF75CFE05A80999FFF793FE59
:104D8C0006A8FFF74DFADAE730460BB0BDE8F08F16
:104D9C00114F0D00022AF8B5044606D0032A17D08D
:104DAC00012A22D10B6803601FE018200E68FFF760
:104DBC006CF9054650B13146FFF7C8FE3069B6F9BB
:104DCC00147008B100F080FE2861AF8225600CE001
:104DDC00046854B104F11000FFF72AFE2046FFF7D7
:104DEC0072FD1821204600F0D8FC0020F8BD38B523
:104DFC00002383608B6804460D462BB10222984732
:104E0C00EB68E360AB68A360204638BD022A70B53E
:104E1C00044606D0032A11D0012A18D10B6803606E
:104E2C0015E014200E68FFF730F9054620B1314625
:104E3C00FFF7DDFF337C2B74256008E0046834B188
:104E4C002046FFF740FD1421204600F0A6FC002070
:104E5C0070BD0000F0B5002387B00C46BFF35F8F28
:104E6C0050E8006F40E80032002AF9D1BFF35F8FA1
:104E7C00002E3FD01846FFF793FB074620B1214682
:104E8C003046FFF753FE2EE0314601A8FFF7AFFF87
:104E9C0023788DF814301020FFF7F7F80546D0B1C1
:104EAC0087601420FFF7F1F8044678B1876001465B
:104EBC0001A8FFF717FD039BA268A360049B039254
:104ECC00E268E3609DF81430049223740A4BEB60A3
:104EDC000A4B2C60AB6001A8FFF7F5FC00222946B9
:104EEC000748FFF765FB3046FFF7EDFC1021304615
:104EFC0000F053FC07B0F0BD4B4B0D00194E0D00EC
:104F0C0079520D0030B585B004460D466846114601
:104F1C00FFF7C9FD7CB124B228460DB100F0D4FDD9
:104F2C00029002A96846ADF80C40FFF71FFE02A8DC
:104F3C00FFF77EFD1DE000988DF808404FF0010250
:104F4C00D0E84F3FA34203D1C0E8412F0029F7D14D
:104F5C0002D08DF808300CE010F10C014FF0010379
:104F6C0018BF0373BFF35F8F043000F8033CFFF7E7
:104F7C0071FF01A8FFF754F905B030BD704710B5AB
:104F8C001821044600F009FC204610BDF0B5037D45
:104F9C00062B8DB00E4600F104074FF0000402D032
:104FAC0000F1080518E00CAD394605F8304D2F23FB
:104FBC002A460A20FFF734FA284600F0A0FD336891
:104FCC000246DB682946304698470FE024B12E2173
:104FDC003046FFF731FC044415F8011D0A22304617
:104FEC00FFF75AFCBD420444F0D120460DB0F0BD91
:104FFC0010B5054B0446112240F8043B002100F08B
:10500C0032FD204610BD00BFC05C0D000346074AB0
:10501C0010B543F8042B01F1100251F8044B43F87E
:10502C00044B9142F9D10A781A7010BDC05C0D0086
:10503C0010B59DF8084044EA032343EA024242EAD1
:10504C00016104234160037510BD37B50D788B7871
:10505C004A78C97800912946FFF7EAFF03B030BDC2
:10506C0041747047704708B50021007CFFF770FA57
:10507C0030EA200028BF4FF0FF3008BD08B50121F1
:10508C00007CFFF765FA30EA200028BF4FF0FF30B4
:10509C0008BD08B5007CFFF753FA20EAE07008BDA4
:1050AC0008B5007CFFF744FA20EAE07008BD007CEC
:1050BC00FFF75EBA10B51421044600F06EFB2046D3
:1050CC0010BD38B50446007C0D46FFF739FA0028B0
:1050DC0001DC607C28B12946207CFFF741FA20EAEC
:1050EC00E07038BD10B50446002363604FF47A734A
:1050FC00A360054B23600123084621746374114699
:10510C00FFF70EFA204610BDD45C0D0010B514222A
:10511C000446002100F0A7FC204610BD30B50E4D12
:10512C0087B001A8FFF7F2FF296811F0010410D134
:10513C002846FEF7B0FF60B101AA21460748FFF7E9
:10514C00D1FF2846FEF7ACFF054A0649034800F09C
:10515C001FFB024807B030BDF8E30320FCE303203B
:10516C00B0E3032071500D0070474174704708B5CF
:10517C00007CFFF795F920EAE07008BD08B5007CCB
:10518C00FFF766F920EAE07008BD08B5007CFFF770
:10519C006FF930EA200028BF4FF0FF3008BD08B58A
:1051AC00007CFFF75DF930EA200028BF4FF0FF309C
:1051BC0008BD007CFFF764B910B51421044600F05B
:1051CC00ECFA204610BD70B5457C04460E4625B958
:1051DC00007CFFF765F9002805DD3146207CBDE831
:1051EC007040FFF72DB9284670BD000010B504467D
:1051FC0008461146002262604FF47A72A260054A9A
:10520C0022600122207462741A46FFF711F92046BD
:10521C0010BD00BF045D0D00007CFFF739B9000024
:10522C0038B50C4D296811F0010411D12846FEF750
:10523C0032FF68B1084A094B09482146FFF7D6FFEF
:10524C002846FEF72DFF074A0749054800F0A0FA4B
:10525C00034838BDA8E40320ACE4032024E4032075
:10526C0010E40320B0E3032075510D0010B58368E2
:10527C0004460BB900F093FAC3689847A3681BB1B6
:10528C00032221462046984720461021BDE81040B5
:10529C0000F083BA7047F8B5064615460C468F18D1
:1052AC00BC4206D0336814F8011B9B683046984703
:1052BC00F6E72846F8BD0022007CFFF7F9B800217C
:1052CC00007CFFF7FDB80021007CFFF701B900213D
:1052DC00007CFFF705B90021007CFFF709B910B578
:1052EC001421044600F059FA204610BD10B50446AE
:1052FC004FF47A730846A3600021044B207461605C
:10530C002360FFF705F9204610BD00BF345D0D008A
:10531C000021007CFFF7F4B8002211464068FFF72B
:10532C009BB9002211464068FFF7A6B900224068DD
:10533C00FFF79AB9002281F001014068FFF784B9A8
:10534C0000231A4601214068FFF776B900231A465C
:10535C0019464068FFF768B9002211464068FFF70C
:10536C005BB9002211464068FFF746B900220221C2
:10537C004068FFF749B900231A464068FFF734B973
:10538C0038B5054688B104684CB1A3681BB103223B
:10539C002146204698471021204600F0FEF9284669
:1053AC001421BDE8384000F0F8B938BD10B10368DD
:1053BC005B681847704710B503680446BBB1586862
:1053CC00FFF706F878B923685A7C12B95868FFF7CA
:1053DC0007F823685868FFF70BF820680023236050
:1053EC0028B1FFF7CDFF206808B1FFF7C9FF2046B1
:1053FC0010BD000038B50C4B03600446D0F8CC014E
:10540C0008B1FEF746FED4F8C45135B12846FFF773
:10541C00D2FF0421284600F0C0F9A06808B1FFF7BC
:10542C00C5FF204638BD00BF5C5D0D0038B50E4C85
:10543C000E4B23600025022304F5E4706360A56025
:10544C00C4F8C451C4F8C851FEF7E2FF084BC4F8C5
:10545C00CC5184F8D05123602046064A0649BDE859
:10546C00384000F095B900BF30E50320C45D0D0055
:10547C005C5D0D00B0E3032001540D0000221146C9
:10548C004068FFF7C9B8002211464068FFF7E4B83E
:10549C00002211464068FFF7EFB800224068FFF782
:1054AC00E3B8002281F001014068FFF7CDB800237A
:1054BC001A4619464068FFF7BFB800231A4619462A
:1054CC004068FFF7B1B8002211464068FFF794B866
:1054DC00002202214068FFF797B800231A46406863
:1054EC00FFF782B8024B04225A60024A1A607047D6
:1054FC0004E70320905D0D0000231A464068FFF777
:10550C0073B8002202214068FFF77EB800221146D2
:10551C004068FFF771B8002211464068FFF77CB86D
:10552C0000231A4619464068FFF77EB800231A4636
:10553C0019464068FFF780B8002281F001014068ED
:10554C00FFF782B800224068FFF78EB800221146A0
:10555C004068FFF791B8002211464068FFF77CB80D
:10556C002DE9F043002495B016460D460746FFF78B
:10557C003FFD214620220CA8009400F074FA402331
:10558C000C9321466B460CAA3046FEF7C9FE044626
:10559C00002844D1024601216868FFF73DF802213A
:1055AC00804622466868FFF737F8009E8146214600
:1055BC00002E34D0002932D17368022B02D00A2B72
:1055CC0009D02AE0B8F1000F27D0716938460431B0
:1055DC00FFF73BFD20E0B9F1000F1ED074691122DA
:1055EC0001A800F040FA06238DF8143001AD04F147
:1055FC0008031834186859682A4603C20833A342B2
:10560C001546F7D101A906A807ADFFF7FFFC0FCD92
:10561C003C1D0FC42B6823700121F669C8E7009864
:10562C00FEF776FE384615B0BDE8F083024B034A10
:10563C001A6000225A6070470CE70320C45D0D000D
:10564C0010B504460F48FFF7B1F828B1A4F10B03CD
:10565C00022B01D8002010BD00F07AF8FFF758FE9D
:10566C0008B1012CF6D9FFF7DBFDFFF7D5FD18B11A
:10567C00A4F10903012BEDD9232C8CBF00200120B0
:10568C0010BD00BF14E70320232838B504460D468F
:10569C000AD8FF2908D0FFF7D3FF28B129462046A6
:1056AC00BDE83840FEF754BE38BD38B504460D464B
:1056BC00FEF756FEFF2810D0062804D84D2323FAF7
:1056CC0000F0C30709D42046FFF7BAFF28B12946DA
:1056DC002046BDE83840FEF74BBE38BD0D2810B54E
:1056EC0004469CBF0E34A4B22046FFF7A9FF50B16C
:1056FC0003212046FEF724FE032804D12046BDE8F2
:10570C001040FEF73DBE002010BD000070B50C4CE3
:10571C000C4E0D4D00212046FFF734F820460B4C63
:10572C003246294600F034F801212046FFF72AF8CA
:10573C00324629462046BDE8704000F029B800BF2B
:10574C0014E70320B0E3032081470D0024E7032076
:10575C0038B50B4D296811F001040FD12846FEF71E
:10576C009AFC58B121460748FFF7C0FD2846FEF7C2
:10577C0097FC054A0549034800F00AF8014838BD72
:10578C0038E703203CE70320B0E30320A1520D00CF
:10579C000B460146184600F04DB9FEF778BC08B52B
:1057AC00FEF79AFF184B1A68D1075CBF01221A60EA
:1057BC00164B1A68D2075CBF01221A60144B1A6888
:1057CC00D0075CBF01221A60124B1A68D1075CBF6C
:1057DC0001221A60104B1A68D2075CBF01221A60B2
:1057EC000E4B1A68D0075CBF01221A600C4B1A686A
:1057FC00D1075CBF01221A600A4B1A68D2075CBF42
:10580C0001221A60704700BF6CE7032068E7032091
:10581C0064E7032060E703205CE7032058E70320DC
:10582C0054E7032050E70320244B1A68D0075CBFD1
:10583C0001221A60224B1A68D1075CBF01221A6040
:10584C00204B1A68D2075CBF01221A601E4B1A68E3
:10585C00D0075CBF01221A601C4B1A68D1075CBFD1
:10586C0001221A601A4B1A68D2075CBF01221A6017
:10587C00184B1A68D0075CBF01221A60164B1A68C5
:10588C00D1075CBF01221A60144B1A68D2075CBFA7
:10589C0001221A60124B1A68D0075CBF01221A60F1
:1058AC00104B1A68D1075CBF01221A600E4B1A68A4
:1058BC00D2075CBF01221A60704700BF9CE703202F
:1058CC0098E7032094E7032090E703208CE703205C
:1058DC0088E7032084E7032080E703207CE703208C
:1058EC0078E7032074E7032070E70320244B1A6841
:1058FC00D0075CBF01221A60224B1A68D1075CBF2B
:10590C0001221A60204B1A68D2075CBF01221A6070
:10591C001E4B1A68D0075CBF01221A601C4B1A6818
:10592C00D1075CBF01221A601A4B1A68D2075CBF00
:10593C0001221A60184B1A68D0075CBF01221A604A
:10594C00164B1A68D1075CBF01221A60144B1A68F7
:10595C00D2075CBF01221A60124B1A68D0075CBFD9
:10596C0001221A60104B1A68D1075CBF01221A6021
:10597C000E4B1A68D2075CBF01221A60704700BF39
:10598C00CCE70320C8E70320C4E70320C0E70320CB
:10599C00BCE70320B8E70320B4E70320B0E70320FB
:1059AC00ACE70320A8E70320A4E70320A0E703202B
:1059BC00184B1A68D1075CBF01221A60164B1A6883
:1059CC00D2075CBF01221A60144B1A68D0075CBF67
:1059DC0001221A60124B1A68D1075CBF01221A60AF
:1059EC00104B1A68D2075CBF01221A600E4B1A6862
:1059FC00D0075CBF01221A600C4B1A68D1075CBF40
:105A0C0001221A600A4B1A68D2075CBF01221A6085
:105A1C00704700BFECE70320E8E70320E4E703202E
:105A2C00E0E70320DCE70320D8E70320D4E70320DA
:105A3C00D0E7032010B5054C13462CB10A4601469D
:105A4C000220AFF3008010BD204610BD0000000006
:105A5C0010B5431E0A44914204D011F8014B03F8CF
:105A6C00014FF8E710BD02440346934202D003F8FD
:105A7C00011BFAE77047000038B5124B1C68A36B8A
:105A8C000546D3B91820FEF717FE43F20E33A06378
:105A9C0003804AF6CD33438041F2342383804EF2A7
:105AAC006D63C3804DF6EC630381052343810B23A7
:105ABC00838101220023C0E90423A36B00221D6112
:105ACC005A6138BDACE30320024B0146186800F064
:105ADC0003B800BFACE3032070B5064608460C467D
:105AEC0000F00DF8451C29463046FEF7FDFD064634
:105AFC0018B12A462146FFF7ABFF304670BD03466E
:105B0C0013F8012B002AFBD1181A0138704700003A
:105B1C001D400D0059400D0085400D0089400D00C1
:105B2C0000000000696E74616374006265616D53FE
:105B3C0074617475730062726F6B656E00000000A7
:105B4C00000000000000000063470D0059470D00E5
:105B5C004F470D0045470D0039470D002D470D00EF
:105B6C0021470D0019470D000F470D0005470D008B
:105B7C006D550D00000000000000000081470D0075
:105B8C0083470D00626175640053657269616C0036
:105B9C0053657269616C3100747970650070617263
:105BAC00616D00636D6400696400686E64007374F9
:105BBC00726D0066696C74006C766C00616464488C
:105BCC00616E646C65720072656D6F766548616EAE
:105BDC00646C657200656E756D48616E646C65729F
:105BEC0073004A534F4E53747265616D4C6F674826
:105BFC00616E646C657200617070002530313075B7
:105C0C0020005D20002564002C200028293A20006B
:105C1C00205B00636F6465203D200025690064658E
:105C2C007461696C73203D20000D0A0066006C6E77
:105C3C0000666E00636F64650064657461696C0076
:105C4C006E6F6E6500747261636500696E666F00DD
:105C5C007761726E006572726F720070616E69634B
:105C6C0000616C6C005A00252B3033643A253032BD
:105C7C00750025592D256D2D25645425483A254D43
:105C8C003A2553257A0061736374696D65000000D1
:105C9C000000000000000000014A0D00074A0D0042
:105CAC004B4A0D00154A0D00034A0D000000000080
:105CBC0000000000994F0D00894F0D008B4F0D0017
:105CCC00000000000000000071500D00C1500D00DC
:105CDC00CF500D00F9470D00AD500D0073500D0065
:105CEC0089500D00BB500D009F500D006D500D00E4
:105CFC00000000000000000075510D00C5510D00A2
:105D0C00D3510D00F9470D0089510D00AB510D0019
:105D1C0097510D00BF510D0077510D007B510D00B7
:105D2C000000000000000000A1520D00EB520D001D
:105D3C00C3520D00A3520D00CB520D00D3520D00D7
:105D4C00DB520D00E3520D000000000000000000CB
:105D5C0083530D0079530D006F530D0065530D00E7
:105D6C0059530D004D530D0041530D0039530D0087
:105D7C002F530D0025530D006D550D000000000034
:105D8C0000000000E7540D00DD540D00D3540D004D
:105D9C0089540D00C7540D00BB540D00AF540D00B9
:105DAC00A7540D009D540D0093540D006D550D001E
:105DBC00000000000000000005550D000F550D00FF
:105DCC0019550D0023550D002D550D0039550D009D
:105DDC0045550D0051550D0059550D0063550D00DD
:105DEC006D550D00000000000000000000000000D8
:105DFC000000000000000000000000000000000097
:105E0C000000000000000000000000000000000086
:105E1C000000000000000000000000000000000076
:105E2C000000000000000000000000000000000066
:105E3C000000000000000000000000000000000056
:105E4C0000000000430000000D430D006D470D00E5
:105E5C00C1470D00E9470D00A9480D00B9480D00D8
:105E6C0011490D0039540D00F1540D0039560D0037
:105E7C0019570D00B1570D0035580D00F9580D008C
:045E8C00BD590D00EF
:105E9000070000000E00000013000000925C0D00DF
:105EA00000000000F05D0D00105E0D00305E0D0082
:105EB00000000000000000000000000000000000E2
:105EC000505E0D0000000000000000000000000017
:105ED00000000000000000000000000000000000C2
:105EE00000000000000000000000000000000000B2
:105EF00000000000000000000000000000000000A2
:045F00004CE303204B
:105F0400FFFFFFFF00000102030405060708090A5A
:105F14000B0C0D0E0F101112131415161718191A55
:085F24001B1C1D1E1F2028009C
:045F2C00785634125D
:04000003D000401CCD
:00000001FF
