:02000002B0004C
:1040000000400B000C4F0B00000006000C000502E6
:084010000401A30F00000000F1
:044018003C4C0B0011
:10401C0009480A49884208B505D0094A824202D0AB
:10402C00121A00F053FD0748074A0021121A00F03B
:10403C005BFD014808BD00BF70E60320784E0B0005
:10404C00DCE60320DCE60320EDE7032070B5074E29
:10405C00074C00F087FAA41BA4080025AC4200D141
:10406C0070BD56F8043B98470135F7E7304E0B000E
:10407C00504E0B0000F013B808B500F011F8BDE875
:10408C00084000F027BA00F029B900F02FB90078E9
:10409C00B0FA80F0400970470123037070477047F5
:1040AC007047000008B5024B1B689B68019308BD64
:1040BC006802030008B5024B1B68DB68019308BD5E
:1040CC006802030008B5024B1B685B68019308BDCE
:1040DC001802030008B5024B1B685B69019308BD0D
:1040EC001802030008B5024B1B685B6C019308BDFA
:1040FC004802030008B5024B1B685B69019308BDBD
:10410C006402030008B5024B1B68DB68019308BD11
:10411C003C02030008B5024B1B681B69019308BDE8
:10412C003C02030008B5024B1B685B69019308BD98
:10413C003C02030008B5024B1B689B69019308BD48
:10414C003C02030008B5024B1B68DB69019308BDF8
:10415C003C02030008B5024B1B689B6A019308BD27
:10416C003C02030008B5024B1B681B6C019308BD95
:10417C003C02030008B5024B1B681B68019308BD89
:10418C004C02030008B5024B1B681B69019308BD68
:10419C004C02030008B5024B1B685B69019308BD18
:1041AC004C02030008B5024B1B689B69019308BDC8
:1041BC004C02030008B5024B1B68DB69019308BD78
:1041CC004C02030008B5024B1B681B6A019308BD27
:1041DC004C02030008B5024B1B685B68019308BDD9
:1041EC002002030008B5034B1B68D3F888300193F9
:1041FC0008BD00002002030008B5034B1B68D3F870
:10420C009430019308BD00002002030008B5024B56
:10421C001B685B68019308BD4002030008B5024BA4
:10422C001B689B68019308BD4002030008B5024B54
:10423C001B68DB68019308BD4002030008B5024B04
:10424C001B681B69019308BD4002030008B5024BB3
:10425C001B685B69019308BD4002030008B5024B63
:10426C001B689B69019308BD4002030008B5024B13
:10427C001B68DB69019308BD4002030008B5024BC3
:10428C001B681B6A019308BD4002030008B5024B72
:10429C001B681B6B019308BD4002030008B5024B61
:1042AC001B685B6B019308BD4002030008B5024B11
:1042BC001B681B6C019308BD4002030008B5024B40
:1042CC001B685B6C019308BD4002030008B5024BF0
:1042DC001B68DB6B019308BD4402030008B5024B5D
:1042EC001B681B68019308BD1C02030008B5024B38
:1042FC001B685B68019308BD1C02030008B5024BE8
:10430C001B681B6C019308BD1C02030008B5024B13
:10431C001B685B6C019308BD1C0203000022406803
:10432C001146FFF7ABBF002240681146FFF7B6BF3E
:10433C0040680022FFF7AABF4068002281F001010B
:10434C00FFF794BF002340681A461946FFF786BF53
:10435C00002340681A461946FFF778BF00224068D0
:10436C001146FFF76BBF002240681146FFF756BF9E
:10437C00406800220221FFF759BF002340681A460B
:10438C00FFF744BF024B03225A60024A1A6070477F
:10439C00DCE60320584C0B00054B02221A60054B3F
:1043AC00054A9A600020C3E90000FFF713BF00BF65
:1043BC00F0E60320E4E603200000FFFF02480023A0
:1043CC000360FFF78FBE00BFF4E60320F8B5064686
:1043DC000D468F180024BD420CD0336815F8011B14
:1043EC009B6830469847031E01DB1C44F3E7002C06
:1043FC0008BF1C462046F8BD13B50446084659B103
:10440C00019100F0A7FB23680199DB680246204666
:10441C0002B0BDE81040184702B010BD03689B689D
:10442C00184730B58BB00023012A8DF8243098BF83
:10443C000A2209AC0D46B1FBF2F101FB125303F059
:10444C00FF03092B94BF30333733DBB2AA4204F895
:10445C00013DEFD92146FFF7CFFF0BB030BD000077
:10446C00014B024A1A607047F8E603208C4C0B0093
:10447C00024B1A68024B1A60704700BF70E60320AB
:10448C00FCE60320014B00229A60704700E70320F2
:10449C00014B1860704700BF74E6032008B50B4B46
:1044AC0043B100F063F903681B699847002801DDEC
:1044BC00AFF30080064B43B100F0DCFA03681B69D4
:1044CC009847002801DDAFF3008008BD0000000014
:1044DC000000000008B5FFF7E1FFFFF7FBFD014B03
:1044EC00186008BD58E703200548064A064908B578
:1044FC00121A00F0EBFA054B054A1A6008BD00BF12
:10450C0000F4032004F40320744E0B0000F4032089
:10451C001E1C279A07B5002300931A466FF07701EB
:10452C00FFF76AFE03B05DF804FB000007B5438893
:10453C000A2B08D0502B0BD1094B1B684BB103B085
:10454C005DF804EB1847FFF7E5FF03B05DF804FBDB
:10455C00002300931A466FF07701FFF74DFEF4E746
:10456C0014E7032010B512480021FFF7CFFE114BC2
:10457C001A68114B9A42114B0CBF012200221A707F
:10458C0001D0FFF7B1FFFFF79DFD044600F0B4FA30
:10459C000B4B13B12046AFF3008000210848FFF706
:1045AC0095FEBDE8104007480021FFF71BBE00BF79
:1045BC009D440B0000F403201E1C279A10E70320D7
:1045CC000000000039450B00704710B51821044657
:1045DC00FFF75BFD204610BDF0B5037D062B8DB0BB
:1045EC000E4600F104074FF0000412D000F108054C
:1045FC0015F8011D0A223046FFF713FFAF420444A1
:10460C0019D0002CF4D02E213046FFF707FF0444BC
:10461C00EEE72F236A4639460A208DF80040FFF753
:10462C0069FD684600F096FA33680246DB68694615
:10463C0030469847044620460DB0F0BD10B5054BEA
:10464C000446112240F8043B002100F04DFA2046AC
:10465C0010BD00BFB44C0B000346074A10B543F81D
:10466C00042B01F1100251F8044B43F8044B914216
:10467C00F9D10A781A7010BDB44C0B0010B59DF826
:10468C00084044EA032343EA024242EA016104235C
:10469C004160037510BD000007B5064B0360CB7875
:1046AC0000938B784A780978FFF7E8FF03B05DF840
:1046BC0004FB00BFB44C0B0041747047704770474B
:1046CC0008B50021007CFFF76DFD40EAE07008BDE5
:1046DC0008B50121007CFFF765FD40EAE07008BDDC
:1046EC0008B5007CFFF756FD20EAE07008BD08B560
:1046FC00007CFFF747FD20EAE07008BD13B50446C7
:10470C00007C0191FFF746FD0028019901DC607CDB
:10471C0020B1207CFFF74EFD20EAE07002B010BD06
:10472C00007CFFF74FBD10B514210446FFF7ADFC1C
:10473C00204610BD10B54FF47A730446084600218C
:10474C00C4E90113044B23600123207463741146E4
:10475C00FFF710FD204610BDC84C0B0010B51422FD
:10476C000446002100F0C0F9204610BD10B50F4CD6
:10477C0088B003A8FFF7F2FF2178BFF35B8F11F02D
:10478C0001010FD120460191FFF781FC019948B13D
:10479C0003AA0748FFF7CEFF2046FFF77DFC05482C
:1047AC0000F08EF9024808B010BD00BF18E70320D6
:1047BC001CE70320C9460B0070474174704708B5CD
:1047CC00007CFFF7C7FC20EAE07008BD08B5007C50
:1047DC00FFF7A0FC20EAE07008BD08B5007CFFF7ED
:1047EC00A9FC40EAE07008BD08B5007CFFF79AFC14
:1047FC0040EAE07008BD007CFFF7A4BC37B5457CEF
:10480C0004462DB1207C03B0BDE83040FFF77ABCE4
:10481C00007C0191FFF79EFC00280199F2DC2846F0
:10482C0003B030BD10B514210446FFF72EFC204612
:10483C0010BD000010B54FF47A73044608461146BB
:10484C000022C4E90123044B236001232074637408
:10485C00FFF788FC204610BDF84C0B000022406886
:10486C001146FFF7EBBC002240681146FFF706BD6E
:10487C00002240681146FFF711BD40680022FFF787
:10488C0005BD4068002281F00101FFF7EFBC002359
:10489C0040681A461946FFF7E1BC002340681A46E7
:1048AC001946FFF7D3BC002240681146FFF7B6BC8F
:1048BC00406800220221FFF7B9BC002340681A4669
:1048CC00FFF7A4BC024B04225A60024A1A607047DC
:1048DC0030E70320284D0B00002340681A46FFF7F1
:1048EC0095BC406800220221FFF7A0BC0022406862
:1048FC001146FFF793BC002240681146FFF79EBC9F
:10490C00002340681A461946FFF7A0BC00234068F4
:10491C001A461946FFF7A2BC40680021FFF7C6BC37
:10492C0040680021FFF7CABC4068002281F00101F9
:10493C00FFF79CBC40680022FFF7A8BC002240682F
:10494C001146FFF7ABBC002240681146FFF796BC3E
:10495C002DE9F04395B014460D460746FFF76EFE61
:10496C0000211C220DA8009100F0BEF840230C93EE
:10497C0020466B460CAA0021FFF79CFB044600283E
:10498C004BD1024601216868FFF758FC0221804692
:10499C0022466868FFF752FC009E81462146002E95
:1049AC003BD0002939D17368022B03D00A2B11D0CC
:1049BC00F669F4E7B8F1000FFAD0716906A8043172
:1049CC0007ADFFF769FE0FCD3C1D0FC42B6823709C
:1049DC004146EDE7B9F1000FEAD07469102201A845
:1049EC0000F082F806238DF8143001AD04F10803B1
:1049FC001834186859682A4603C20833A34215466E
:104A0C00F7D101A906A807ADFFF726FE0FCD3C1D77
:104A1C000FC42B6823704946CAE70098FFF742FB86
:104A2C00384615B0BDE8F083024B034A1A600022E9
:104A3C005A60704738E70320644D0B007047000044
:104A4C0038B5044614252A46002100F04DF825807F
:104A5C004025074925812846258200F02FF8044976
:104A6C006060284600F02AF8E060204638BD00BFA0
:104A7C00984D0B0030B50E4D2978BFF35B8F11F0BC
:104A8C00010487B011D12846FFF701FB68B101A8DA
:104A9C00FFF7D6FF01AA21460648FFF7CBFE2846B2
:104AAC00FFF7FAFA044800F00BF8024807B030BDE3
:104ABC0040E7032044E70320494A0B00FFF7E3BA21
:104ACC00002301461A46184600F04CB80A4491429D
:104ADC0000F1FF3300D1704710B511F8014B03F80A
:104AEC00014F9142F9D110BD02440346934200D1CB
:104AFC00704703F8011BF9E738B5104B1D68AB6B19
:104B0C000446B3B91820FFF7E9FB0246A86320B9A5
:104B1C000B4B0C484221FFF7F1FB0B490B4BC0E947
:104B2C0000130B4B83600B23838100210120C2E90E
:104B3C000401AB6B00221C615A6138BD74E6032082
:104B4C00994D0B00B04D0B000E33CDAB34126DE60E
:104B5C00ECDE0500034613F8012B002AFBD1181AD2
:104B6C00013870472DE9F843DFF8B8800646D8F8CD
:104B7C0000001F460D46914600F056F8254B1C6868
:104B8C0034B9254C1C60254B13B11B68C4F8883014
:104B9C0063681F2B07DDD8F8000000F047F84FF0D2
:104BAC00FF30BDE8F8834EB3D4F8880088B91C4BAD
:104BBC0023B9D8F8000000F038F8F0E74FF484700F
:104BCC00FFF78CFB0028F4D00023C0E94033C4F875
:104BDC008800636840F8239001229A4000EB83011F
:104BEC00D0F800311343C0F80031022EC1F88070A8
:104BFC0002BFD0F804311343C0F804316368D8F80D
:104C0C0000005A1C0233626044F8235000F00EF886
:104C1C000020C6E7E8E703205CE703200000000063
:104C2C00E9420B00D8E6032070477047704700003C
:104C3C001D400B0059400B0081400B0085400B00C0
:104C4C0000000000000000000000000087430B0083
:104C5C007D430B0073430B0069430B005D430B005A
:104C6C0051430B0025490B002D490B0045430B000C
:104C7C003D430B0033430B0029430B005D490B00F4
:104C8C006170700025592D256D2D25645425483AE9
:104C9C00254D3A2553257A0061736374696D65005F
:104CAC000000000000000000E5450B00D5450B009E
:104CBC00D7450B000000000000000000CB460B00A5
:104CCC0033470B0009470B00D9430B00FB460B0085
:104CDC00CD460B00DD460B002D470B00ED460B00BF
:104CEC00C5460B000000000000000000C5470B008B
:104CFC0031480B0009480B00D9430B00D9470B0076
:104D0C00F5470B00E7470B0003480B00C7470B00A8
:104D1C00CB470B000000000000000000C7480B0050
:104D2C00BD480B00B3480B0069480B00A7480B00AB
:104D3C009B480B0025490B002D490B008F480B009D
:104D4C0087480B007D480B0073480B005D490B0036
:104D5C000000000000000000E5480B00EF480B00CD
:104D6C00F9480B0003490B000D490B0019490B00C6
:104D7C0025490B002D490B0035490B0041490B000F
:104D8C0049490B0053490B005D490B000052454546
:104D9C004E54206D616C6C6F632073756363656535
:104DAC00646564002F6D6E742F776F726B73706116
:104DBC0063652F776F726B73706163652F47434325
:104DCC002D31302D706970656C696E652F6A656E5A
:104DDC006B696E732D4743432D31302D70697065AF
:104DEC006C696E652D34385F32303230313132348B
:104DFC005F313630363138303634312F7372632FA1
:104E0C006E65776C69622F6E65776C69622F6C6961
:104E1C0062632F7374646C69622F72616E642E63AB
:104E2C000000000091430B00A5430B00C9430B008D
:104E3C006D440B007D440B0091440B00D1480B00DA
:044E4C00354A0B00D8
:104E5000040000001400000003000000474E55004D
:104E6000B4CCA1E447E5E6F7DC3A1F523182463381
:044E7000255A06C9F0
:044E7400000000003A
:104E7800A44C0B0078E603200000000000000000AE
:104E8800000000000000000000000000000000001A
:104E9800000000000000000000000000000000000A
:104EA80000000000000000000000000000000000FA
:104EB80000000000000000000000000000000000EA
:104EC80000000000000000000000000000000000DA
:0C4ED8000000000000000000ECE70320D8
:104EE400FFFFFFFF00000102030405060708090A8B
:104EF4000B0C0D0E0F101112131415161718191A86
:084F04001B1C1D1E1F202800CC
:044F0C00785634128D
:04000003B000401CED
:00000001FF
