:02000002B0004C
:1040000000400B00BC710B00000006000C00050214
:084010000401A50F00000000EF
:04401800586E0B00D3
:10401C0009480A49884208B505D0094A824202D0AB
:10402C00121A02F03BFE0748074A0021121A02F04E
:10403C0043FE014808BD00BF88E5032020710B003A
:10404C00FCE50320FCE50320EDE7032070B5074EEB
:10405C00074C01F043F9A41BA4080025AC4200D185
:10406C0070BD56F8043B98470135F7E7C4700B0058
:10407C00E8700B0000F016B808B500F03BF8BDE88E
:10408C00084001F0E3B800F0E1BD00F0DFBD00F046
:10409C00E5BD0078B0FA80F0400970470123037049
:1040AC00704700001FB5114B114C1888012101F00D
:1040BC00F3FE204600F0FCF940F29B134FF48052C3
:1040CC00CDE901324FF4C873009304220323204638
:1040DC001F2100F0A7FA20460A2100F013FA002154
:1040EC00204604B0BDE8104000F016BA88E5032065
:1040FC001CE6032030B54F4891B000F0BFF900F03A
:10410C007BFB00284CD04C4D00F004FC2C68041BAD
:10411C0000F000FC2860204602F0A6F8474B002275
:10412C0002F00CF90B4602464549002002F030FA29
:10413C0002F0BEFBDFED437A434B00EE100AB4EE07
:10414C00E70AF1EE10FA18601FD5F3EE047AB4EE1C
:10415C00E70AF1EE10FA18DD3C4A3D491378FCEE03
:10416C00C07A17EE900AC854013303F0030313709E
:10417C0000231A4611F8010B0132D2B20344042A6F
:10418C004FEAA303F6D1334A136006210CA800F0C2
:10419C0044FF31480CA900F013FF0CA800F094FE6A
:1041AC002E4908A800F0DBFE0A22502104A800F0DA
:1041BC0021FF04A908A800F061FF294900F06AFF5B
:1041CC000A22044632210CA800F014FF0CA9204648
:1041DC0000F054FF234900F05DFF234B02681B786D
:1041EC008DF8003021493C2302A801F0D5F9039C3D
:1041FC007CB16368013B63605BB9236820469B68B4
:10420C009847A368013BA3601BB923682046DB6871
:10421C0098470CA800F058FE04A800F055FE08A81A
:10422C0000F052FE47F2305011B0BDE8304000F0C3
:10423C00E1BF00BF1CE6032018E6032000408F40BE
:10424C0000004E4000007F4304E6032024E60320D8
:10425C0025E6032000E6032008E603206C6E0B0025
:10426C00756E0B007C6E0B00FCE503207E6E0B0064
:10427C0008B5064B064801221A7000F00DF80A2208
:10428C00BDE808400348114600F0B4BEFCE503202D
:10429C001CE6032008E60320704738B50C4615468B
:1042AC0001F066FE214601F0BDFC01F061FE0368E1
:1042BC0029469B68984701F05BFE01F0BBFC01F0BE
:1042CC0057FE0122214601F0AAFC01F051FE0368C1
:1042DC001B69984728B101F04BFE03685B6998474E
:1042EC00C0B238BD04225721FFF7D7BF0622572191
:1042FC00FFF7D3BF2DE9F7430746FFF7F7FF044657
:10430C003846FFF7EFFF844200F09B80041B48BF48
:10431C0020347E79DFF8348101F02AFE572101F038
:10432C0081FC01F025FE036807219B68984701F08A
:10433C001FFE01F07FFC664306EB4606002E40F3A1
:10434C008180202EC3BF7D7905EB450320253546A2
:10435C00C4BFB5FBF3F55D4301F00AFE2A465721B5
:10436C0001F05DFC761B4FF00009002DE6DD98F89E
:10437C0030308DF80790013303F0030388F83030A8
:10438C0001F0F6FD03685B6998478DF8060001F0B3
:10439C00EFFD03685B6998478DF8050001F0E8FDB7
:1043AC0003685B6998478DF80400019B98F83020EE
:1043BC00C3F3110348F822307B79012B1CD901F08F
:1043CC00D7FD03685B6998478DF8060001F0D0FDB6
:1043DC0003685B6998478DF8050001F0C9FD036817
:1043EC005B69984798F830308DF80400019A0433D3
:1043FC00C2F3110248F823207B79022B1CD901F05F
:10440C00B7FD03685B6998478DF8060001F0B0FDB5
:10441C0003685B6998478DF8050001F0A9FD0368F6
:10442C005B69984798F830308DF80400019A08338E
:10443C00C2F3110248F823207B79A3EB83031D44BC
:10444C0093E70024A0B203B0BDE8F0832CE6032070
:10445C0070B505460E4600F05DFA044600F05AFAB7
:10446C00001BB04208D82846FFF744FF012804D0AF
:10447C00012000F0BFFEF1E7002070BD08B5FA2165
:10448C00FFF7E6FF28B1034A92F83030043352F8B4
:10449C00230008BD2CE60320FF225721FFF7FDBEA9
:1044AC0010B5FE2257210446FFF7F7FEA07110BD90
:1044BC0010B5044601F05CFD01F082FB2046FFF7CD
:1044CC00EBFF2046FFF7ECFF012010BD37B515467A
:1044DC001C46019101F04CFD019901F0A3FB01F088
:1044EC0047FD036829469B68984701F041FD036826
:1044FC0021469B68984701F03BFD03B0BDE8304076
:10450C0001F098BB0B460C225721FFF7DFBF0B467F
:10451C000D225721FFF7DABF0B460E225721FFF76A
:10452C00D5BF0B4610225721FFF7D0BF10B5002383
:10453C00044604225721FFF7C9FF20460023052219
:10454C005721FFF7C3FF20460023BDE81040062289
:10455C005721FFF7BBBF2DE9F0410C4617460A4621
:10456C00572105461E46FFF798FE384046EA0003E1
:10457C00224628465721BDE8F041FFF7A7BF38B5C2
:10458C00BF22402309210546FFF7E5FF00F0C2F9E1
:10459C00044600F0BFF9001B63280AD809225721F2
:1045AC002846FFF77AFE430603D5012000F022FED1
:1045BC00EFE738BD0B46F8220921FFF7CCBF0B46BD
:1045CC009F220A21FFF7C7BF0B46E3220A21FFF700
:1045DC00C2BF0B46FC220A21FFF7BDBF01391346AF
:1045EC00032914D8DFE801F002060B0EF822112182
:1045FC00FFF7B1BF1B0103F0F0038F22F7E7F8229E
:10460C001221F5E71B0103F0F0038F22F8E7704746
:10461C000B461F220821FFF79EBF1023EF22082113
:10462C00FFF799BF2DE9F0471546DDE90879DDF86C
:10463C0028A0044688461E46FFF7A1FF012D49D14C
:10464C0000212046FFF7E4FF2046FFF7E6FF032E8C
:10465C0054D107212046FFF7ADFFBAF5805F667194
:10466C0051DA00212046FFF7AAFF632F58DC002106
:10467C002046FFF7A9FFB9F1750F71DC0021204628
:10468C00FFF7A7FF41462046FFF73CFF4146204677
:10469C00FFF73DFF41462046FFF73EFF41462046CF
:1046AC00FFF73FFF012211462046FFF797FF012E2F
:1046BC000BD9022211462046FFF790FF022E04D0A0
:1046CC00032211462046FFF789FF2046BDE8F0473C
:1046DC00FFF72CBF022D01D12021B2E7042D01D10F
:1046EC004021AEE7082D01D16021AAE7102D01D1A0
:1046FC008021A6E7202DF3D1A021A2E7022E0CBF2A
:10470C0003210221A6E7BAF5005F01DA2021A9E70F
:10471C00BAF5804F01DA4021A4E7A2D16021A1E7CC
:10472C00C72F01DC0421A3E7B7F5C87F01DA082104
:10473C009EE7B7F5487F01DA0C2199E7B7F57A7F48
:10474C0001DA102194E7B7F5C86F01DA14218FE76D
:10475C00B7F5486F01DA18218AE788D11C2187E761
:10476C00B9F1D60F01DC012189E7B9F5CD7F01DC68
:10477C00022184E740F29B1399457FF47FAF03211C
:10478C007DE70368C3EBC13103EB2113036043F3F3
:10479C00CF307047F0B5154E15493378154F21F8C9
:1047AC001300A3F10B0202F01F02A3F1160E31F954
:1047BC001200002200030EEB02049D1A04F01F04E9
:1047CC0005F01F0531F8144031F8155037F802CBBD
:1047DC0001322C440B2A1CFB0400ECD1013303F0F6
:1047EC001F03337040F3CF30F0BD00BFB2E603209F
:1047FC006AE60320866E0B0038B52C4D2C4C2B88AA
:10480C00238082B211462B48FFF7BBFF2A4B18803E
:10481C00101A00B2FFF7BEFF2388B4F900102880ED
:10482C0023EA0003DB0B254C02461AD0244B254906
:10483C00B3F900300B802449B1F9000023491B1A4D
:10484C000880012140F2D2302180153B204983425F
:10485C004FF000040C808CBF00200120184B1A80F4
:10486C0038BD0029CCBF01200020002AC8BF002081
:10487C0038B12380164B01211980134B00201A806C
:10488C00EEE7B4F900308A42D4BF002303F00103F1
:10489C00002BE3D10E4BB3F900308A42ACBF00239E
:1048AC0003F00103002BE8D1DAE700BF60E6032038
:1048BC0062E60320ACE6032068E60320B4E603209E
:1048CC0064E603208CE5032066E603208EE50320D6
:1048DC00B0E6032008B5024B1B689B68019308BD2A
:1048EC006802030008B5024B1B68DB68019308BD26
:1048FC006802030008B5024B1B689B68019308BD56
:10490C002C02030008B5024B1B685B68019308BDC1
:10491C001802030008B5024B1B685B69019308BDC4
:10492C001802030008B5024B1B685B6C019308BDB1
:10493C004802030008B5024B1B685B69019308BD74
:10494C006402030008B5024B1B68DB68019308BDC9
:10495C003C02030008B5024B1B681B69019308BDA0
:10496C003C02030008B5024B1B685B69019308BD50
:10497C003C02030008B5024B1B689B69019308BD00
:10498C003C02030008B5024B1B68DB69019308BDB0
:10499C003C02030008B5024B1B681B6A019308BD5F
:1049AC003C02030008B5024B1B689B6A019308BDCF
:1049BC003C02030008B5024B1B681B6C019308BD3D
:1049CC003C02030008B5024B1B68DB68019308BD71
:1049DC002802030008B5024B1B689B69019308BDB4
:1049EC002802030008B5024B1B68DB69019308BD64
:1049FC002802030008B5024B1B681B6A019308BD13
:104A0C002802030008B5024B1B685B6A019308BDC2
:104A1C002802030008B5024B1B689B6A019308BD72
:104A2C002802030008B5024B1B68DB6A019308BD22
:104A3C002802030008B5024B1B681B6B019308BDD1
:104A4C002802030008B5024B1B685B6B019308BD81
:104A5C002802030008B5024B1B681B6C019308BDB0
:104A6C002802030008B5024B1B681B6D019308BD9F
:104A7C002802030008B5024B1B68DB69019308BDD3
:104A8C003002030008B5024B1B681B6A019308BD7A
:104A9C003002030008B5024B1B681B68019308BD6C
:104AAC004C02030008B5024B1B681B69019308BD3F
:104ABC004C02030008B5024B1B685B69019308BDEF
:104ACC004C02030008B5024B1B689B69019308BD9F
:104ADC004C02030008B5024B1B68DB69019308BD4F
:104AEC004C02030008B5024B1B681B6A019308BDFE
:104AFC004C02030008B5024B1B685B68019308BDB0
:104B0C002002030008B5024B1B685B69019308BDCA
:104B1C002002030008B5024B1B68DB6C019308BD37
:104B2C002002030008B5024B1B685B6D019308BDA6
:104B3C002002030008B5034B1B68D3F8883001939F
:104B4C0008BD00002002030008B5034B1B68D3F816
:104B5C009430019308BD00002002030008B5024BFD
:104B6C001B685B68019308BD4002030008B5024B4B
:104B7C001B689B68019308BD4002030008B5024BFB
:104B8C001B68DB68019308BD4002030008B5024BAB
:104B9C001B681B69019308BD4002030008B5024B5A
:104BAC001B685B69019308BD4002030008B5024B0A
:104BBC001B689B69019308BD4002030008B5024BBA
:104BCC001B68DB69019308BD4002030008B5024B6A
:104BDC001B681B6A019308BD4002030008B5024B19
:104BEC001B681B6B019308BD4002030008B5024B08
:104BFC001B685B6B019308BD4002030008B5024BB8
:104C0C001B681B6C019308BD4002030008B5024BE6
:104C1C001B685B6C019308BD4002030008B5024B96
:104C2C001B685B69019308BD4402030008B5024B85
:104C3C001B681B6A019308BD4402030008B5024BB4
:104C4C001B68DB6B019308BD4402030008B5024BE3
:104C5C001B681B68019308BD1C02030008B5024BBE
:104C6C001B685B68019308BD1C02030008B5024B6E
:104C7C001B689B68019308BD1C02030008B5024B1E
:104C8C001B68DB6A019308BD1C02030008B5024BCC
:104C9C001B681B6B019308BD1C02030008B5024B7B
:104CAC001B681B6C019308BD1C02030008B5024B6A
:104CBC001B685B6C019308BD1C020300002240685A
:104CCC001146FFF783BF002240681146FFF78EBFE5
:104CDC0040680022FFF782BF4068002281F001018A
:104CEC00FFF76CBF002340681A461946FFF75EBFFA
:104CFC00002340681A461946FFF750BF002240684F
:104D0C001146FFF743BF002240681146FFF72EBF44
:104D1C00406800220221FFF731BF002340681A4689
:104D2C00FFF71CBF024B03225A60024A1A607047FD
:104D3C00B8E60320A86E0B0010B504460846217097
:104D4C00FFF798FE00236360204610BD054B02223E
:104D5C001A60054B054A9A600020C3E90000FFF772
:104D6C00C9BE00BFCCE60320C0E603200000FFFF55
:104D7C0010B5044601F0FBFF01382318204683428E
:104D8C0006D90278197800F8011B03F80129F6E717
:104D9C0010BD70B50C46911E22291DD8254630B980
:104DAC00234430229D4210D205F8012BFAE7B0FBC8
:104DBC00F2F602FB1600C1B2092894BF303157310C
:104DCC00C9B205F8011B3046E9E7002320462B70D9
:104DDC00FFF7CEFF204670BD0020FCE738B5031E60
:104DEC000C4615460EDAB3F1004F4FF02D0214BFEE
:104DFC005842184601230A702A461944FFF7C9FF86
:104E0C00204638BD0123F9E72DE9F14F57EC106B23
:104E1C0080460C4610EE100A00220023394601F0A1
:104E2C00FFFC28B107F100431F462D2304F8013B7A
:104E3C0000234FF001090A22D9B2884503D902FB9D
:104E4C0009F90133F8E7484601F00EFA32463B46C1
:104E5C0001F074FA06460F4601F092FD8A460546AB
:104E6C008B4601F035FA02460B463046394601F0C6
:104E7C00ADF8144B002201F0E7FC10B101354AF1FA
:104E8C00000B4A462846D317594601F061FD012311
:104E9C00154621460A22FFF77CFFB8F1000F0ED011
:104EAC00204601F064FF2E23211823540A22434686
:104EBC000131284601B0BDE8F04FFFF76ABF01B0E1
:104ECC00BDE8F08F0000E03F10B504460068FFF726
:104EDC00C5FE204610BD10B50446006808B1FFF7AA
:104EEC00BDFE0023C4E90133236010BD38B5044670
:104EFC000D4600680131FFF7B9FE10B1C4E9000599
:104F0C00012038BD10B50368044623B143688B42B9
:104F1C0001D3012010BD2046FFF7E8FF0028F9D08F
:104F2C00A368002BF5D122681370F2E737B50D4654
:104F3C00114601920446FFF7E5FF019A28B9204675
:104F4C00FFF7C9FF204603B030BDA2602946206898
:104F5C0001F0A4FE2268A3680021D154F2E70023DB
:104F6C0013B5C0E9003304468360037341B10846AE
:104F7C00019101F0FCFE019902462046FFF7D6FF95
:104F8C00204602B010BD38B5054600680C4668B125
:104F9C006A688B689A4207D3096801F0C3FEA3685C
:104FAC00AB600023A36038BDFFF758FE23682B606D
:104FBC0063686B60A368AB600023C4E90033F1E75E
:104FCC00884210B5044601D0FFF7DDFF204610BD26
:104FDC0013B5044659B10846019101F0C8FE019978
:104FEC0002462046FFF7A2FF204602B010BDFFF795
:104FFC0072FFF9E710B504468AB00023C4E9003308
:10500C00A3602373084601A9FFF7E8FE01A9204617
:10501C00FFF7DEFF20460AB010BD30B50446002372
:10502C008BB0C4E90033A360237310EE100ACDB229
:10503C0001F02CF941EC100B01A92846FFF7E4FE16
:10504C0001A92046FFF7C4FF20460BB030BD70B558
:10505C0005460E4609B9002070BD6AB18468144437
:10506C002146FFF74FFF0028F5D02868AB68314682
:10507C00184401F057FEAC600120EDE710B58A68CA
:10508C0009680446FFF7E3FF10B92046FFF723FF3A
:10509C00204610BD13B5044629B92046FFF71BFF67
:1050AC00204602B010BD0846019101F060FE019946
:1050BC0002462046FFF7CBFF0028EED0F0E710B5F4
:1050CC008368044613B1032201469847204610BD5D
:1050DC0010B54368013B0446436063B903689B68A1
:1050EC009847A368013BA3602BB923682046DB6873
:1050FC00BDE81040184710BD10B50446006808B153
:10510C00FFF7E6FF204610BD13B50B460246D0E96B
:10511C0000016C4684E8030093E8030082E8030076
:10512C0094E8030083E8030002B010BD024800239A
:10513C000360FFF7F7BB00BFD0E60320F8B50646C7
:10514C000D468F180024BD420CD0336815F8011B96
:10515C009B6830469847031E01DB1C44F3E7002C88
:10516C0008BF1C462046F8BD13B50446084659B185
:10517C00019101F0FCFD23680199DB680246204691
:10518C0002B0BDE81040184702B010BD03689B6820
:10519C00184730B58BB00023012A8DF8243098BF06
:1051AC000A2209AC0D46B1FBF2F101FB125303F0DC
:1051BC00FF03092B94BF30333733DBB2AA4204F818
:1051CC00013DEFD92146FFF7CFFF0BB030BD0000FA
:1051DC00014B024A1A607047D4E60320DC6E0B00C8
:1051EC00024B1A68024B1A60704700BF90E503200F
:1051FC00D8E603200021FFF785BC0000014B0022FC
:10520C009A607047DCE60320014B1860704700BFC2
:10521C0094E5032008B50B4B43B100F0FBFB03688E
:10522C001B699847002801DDAFF30080064B43B1A2
:10523C0000F05EFE03681B699847002801DDAFF3A0
:10524C00008008BD000000000000000008B5FFF75A
:10525C00E1FFFFF75FFB014B186008BD40E703203F
:10526C000548064A064908B5121A01F017FD054B08
:10527C00054A1A6008BD00BF00F4032004F40320A3
:10528C001C710B0000F403201E1C279A07B5002389
:10529C0000931A466FF07701FFF756FC03B05DF8E8
:1052AC0004FB000007B543880A2B08D0502B0BD108
:1052BC00094B1B684BB103B05DF804EB1847FFF7C3
:1052CC00E5FF03B05DF804FB002300931A466FF072
:1052DC007701FFF739FCF4E7F0E6032010B512482C
:1052EC000021FFF7E3FC114B1A68114B9A42114B4A
:1052FC000CBF012200221A7001D0FFF7B1FFFFF79B
:10530C0001FB044601F0E0FC0B4B13B12046AFF35C
:10531C00008000210848FFF791FCBDE810400748C9
:10532C000021FFF707BC00BF15520B0000F403204F
:10533C001E1C279AECE6032000000000B1520B0063
:10534C0070470020704710B510210446FEF79FFEF1
:10535C00204610BD08B5FFF7F6FF08BD30B500229A
:10536C004FF69C74026084808D888C800C688580DC
:10537C0004600A6030BD10B504460068FFF76EFC8F
:10538C00204610BD38B5C468F4B12378022B03D184
:10539C0004F10C00FFF7EFFF656835B12846FFF705
:1053AC008EFE10212846FEF772FEA56835B1284600
:1053BC00FFF785FE10212846FEF769FE20461421D2
:1053CC00BDE83840FEF763BE38BD0B6803604B6820
:1053DC00436013B15A6801325A60704737B50446BE
:1053EC0068460D46FFF7F1FF009B019A236062604F
:1053FC00002301A801930093FFF77EFE35B1281D11
:10540C00FFF77AFE08212846FEF741FE204603B03E
:10541C0030BD826810B50AB900F0D0FDBDE810406F
:10542C00C368184708B5006800F11001FFF7F1FFD9
:10543C0008BD826810B50AB900F0C0FDBDE8104087
:10544C00C368184708B5006800F11001FFF7F1FFB9
:10545C0008BD000038B500230446036010200D463B
:10546C00FEF711FE28B10123C0E90133024B0360A2
:10547C00C5602060204638BD046F0B0038B5002392
:10548C0083608B6804460D462BB102229847EB686B
:10549C00E360AB68A360204638BD0000F0B589B06E
:1054AC0004686846FFF75AFF4FF00203D4E84F2F09
:1054BC00002A03D1C4E8413F0029F7D125D104F1DA
:1054CC000C0569462846FFF749FFBFF35B8F0123A4
:1054DC006370002004F10803BFF35B8F53E8006F87
:1054EC0043E80002002AF9D1BFF35B8F6EB1FFF7DE
:1054FC0011FB78B129463046FFF78BFF3046FFF79A
:10550C00DEFD10213046FEF7C2FD6846FFF733FF83
:10551C0009B0F0BD314602A8FFF7B0FFE068B4F95E
:10552C00105008B101F006FC06901020ADF81C508C
:10553C00FEF7A9FD0546E8B1002787601820FEF7A5
:10554C00A2FD044688B10146876002A8FFF7DCFD86
:10555C00049BA268A360059B049206A9E268E36021
:10556C0004F110000592FFF7F9FE084BEB60084BB5
:10557C002C60AB6006A8FFF7FEFE02A8FFF79FFDAC
:10558C00002229460348FFF7CDFAB7E731540B0048
:10559C00B5560B00115B0B002DE9F04F8BB0054697
:1055AC009DF850A00F4690469946FFF737FB07AE83
:1055BC00834638BB4FF62E73059005A93046ADF8DF
:1055CC001830FFF7CBFE1420FEF75DFD044648B102
:1055DC00022303700123C0E901BB437031460C3038
:1055EC00FFF7BCFE2846214640F8044BFFF732FF7C
:1055FC003046FFF7C0FE05A8FFF7BDFE28460BB0EE
:10560C00BDE8F08F0C2300241420CDE90844079347
:10561C00FEF739FD014618B1C0E90144047044702D
:10562C0004A80391FFF716FF1E4B08930820FEF702
:10563C002AFD044610B103A9FFF7C7FE00965FFAD6
:10564C008AF34A46414638460994FFF7EFFAB8B94F
:10565C00039B5B7803F0FF0293B94FF69C7305A98B
:10566C0003A80592ADF81830FFF718FF05A8FFF74F
:10567C0082FE05A80999FFF7B1FE06A8FFF73CFDCD
:10568C0003A905A8FFF7A1FE059B069A2B606A608B
:10569C00002306A806930593FFF72EFD04A8FFF739
:1056AC002BFDABE731570B00012AF8B5054603D1AA
:1056BC000B6803600020F8BD022A10D0032AF9D130
:1056CC000468002CF6D004F11000FFF754FE2046BD
:1056DC00FFF7F5FC18212046FEF7D9FCEAE7182065
:1056EC000E68FEF7D0FC044650B13146FFF7C6FEFB
:1056FC003069B6F9147008B101F01CFB2061A78267
:10570C002C60D7E738B5002383608B6804460D46C0
:10571C002BB102229847EB68E360AB68A36020468C
:10572C0038BD0000F0B589B004460D4601A81146FD
:10573C00FFF754FEA4B124B21DB1284601F0FAFAC9
:10574C00054601A803A90395ADF81040FFF7A6FE86
:10575C0003A8FFF710FE02A8FFF7CEFC09B0F0BDBE
:10576C00019D0123D5E84F2F002A03D1C5E8413F05
:10577C000029F7D1EFD12B73BFF35B8F6B702B1D0F
:10578C00BFF35B8F53E8006F43E80042002AF9D166
:10579C00BFF35B8F002EDED02046FFF7BBF9074628
:1057AC0060B105F10C013046FFF743FE3046FFF7C0
:1057BC0086FC10213046FEF76AFCCCE7314603A884
:1057CC00FFF7A0FF2B7B8DF81C301020FEF75BFC45
:1057DC000546D0B187601420FEF755FC044678B11D
:1057EC008760014603A8FFF78FFC059BA268A360A6
:1057FC00069B0592E268E3609DF81C3006922374C8
:10580C00064BEB60064B2C60AB6003A8FFF757FC14
:10581C00002229460348FFF785F9C7E751540B00CE
:10582C0035580B00115B0B00012A70B5044603D1EF
:10583C000B680360002070BD022A0CD0032AF9D13A
:10584C000468002CF6D02046FFF739FC14212046C2
:10585C00FEF71DFCEEE714200E68FEF714FC05465F
:10586C0020B13146FFF74EFF337C2B742560E1E706
:10587C00704710B518210446FEF709FC204610BDF0
:10588C00F0B5037D062B8DB00E4600F104074FF0EA
:10589C00000412D000F1080515F8011D0A2230464B
:1058AC00FFF777FCAF42044419D0002CF4D02E2122
:1058BC003046FFF76BFC0444EEE72F236A4639466B
:1058CC000A208DF80040FFF735F8684601F04FFAD2
:1058DC0033680246DB6869463046984704462046E2
:1058EC000DB0F0BD10B5054B0446112240F8043B39
:1058FC00002101F0E1F9204610BD00BF206F0B0024
:10590C000346074A10B543F8042B01F1100251F875
:10591C00044B43F8044B9142F9D10A781A7010BD2C
:10592C00206F0B0010B59DF8084044EA032343EAAE
:10593C00024242EA016104234160037510BD00007C
:10594C0007B5064B0360CB7800938B784A780978BF
:10595C00FFF7E8FF03B05DF804FB00BF206F0B00FE
:10596C00417470477047704708B50021007CFFF701
:10597C00A9F840EAE07008BD08B50121007CFFF7EA
:10598C00A1F840EAE07008BD08B5007CFFF792F87A
:10599C0020EAE07008BD08B5007CFFF783F820EA28
:1059AC00E07008BD13B50446007C0191FFF782F846
:1059BC000028019901DC607C20B1207CFFF78AF87B
:1059CC0020EAE07002B010BD007CFFF78BB810B578
:1059DC0014210446FEF75BFB204610BD10B54FF4B6
:1059EC007A73044608460021C4E90113044B236072
:1059FC000123207463741146FFF74CF8204610BD48
:105A0C00346F0B0010B514220446002101F054F938
:105A1C00204610BD10B50F4C88B003A8FFF7F2FF5D
:105A2C002178BFF35B8F11F001010FD1204601915A
:105A3C00FEF72FFB019948B103AA0748FFF7CEFFE9
:105A4C002046FEF72BFB054801F022F9024808B06E
:105A5C0010BD00BFF4E60320F8E6032071590B00DB
:105A6C0070474174704708B5007CFEF79BFF20EA35
:105A7C00E07008BD08B5007CFEF76CFF20EAE07012
:105A8C0008BD08B5007CFEF775FF40EAE07008BD64
:105A9C0008B5007CFEF766FF40EAE07008BD007CAC
:105AAC00FEF770BF37B5457C04462DB1207C03B0A2
:105ABC00BDE83040FEF746BF007C0191FEF772FF57
:105ACC0000280199F2DC284603B030BD10B5142132
:105ADC000446FEF7DCFA204610BD000010B54FF46A
:105AEC007A730446084611460022C4E90123044B8C
:105AFC002360012320746374FEF75CFF204610BD05
:105B0C00646F0B0010B5836804460BB900F056FAAD
:105B1C00C3689847A3681BB10322214620469847C7
:105B2C0020461021BDE81040FEF7B1BA7047F8B519
:105B3C00064615460C468F18BC4206D0336814F83E
:105B4C00011B9B6830469847F6E72846F8BD007C59
:105B5C000022FEF74FBF007C0021FEF753BF007CF4
:105B6C000021FEF757BF007C0021FEF75BBF007CD5
:105B7C000021FEF75FBF10B514210446FEF787FA2B
:105B8C00204610BD38B5044615464FF47A730022F2
:105B9C00C4E90123094B2174084623602946FEF70A
:105BAC0059FFBF3008D16B69DB0705D56868FFF773
:105BBC0055F8E868FFF752F8204638BD946F0B0093
:105BCC000023007C1A461946FEF7FCBE7FB5002266
:105BDC001423CDE90122ADF804300B788DF8083090
:105BEC004B680393CB680493007C0B7A059301A953
:105BFC00FEF738FF07B05DF804FB1FB5003B8DF8CE
:105C0C0000104FF06401039118BF01236946019203
:105C1C008DF80830FFF7DAFF05B05DF804FB0123BF
:105C2C00FFF7EBBF007C0022FEF7D4BE007C002205
:105C3C00FEF7D8BE0121FFF7F9BF002240681146DC
:105C4C00FEF7A4BF002240681146FEF7BFBF00223A
:105C5C0040681146FEF7CABF40680022FEF7BEBF7F
:105C6C004068002281F00101FEF7A8BF00234068C4
:105C7C001A461946FEF79ABF002340681A46194681
:105C8C00FEF78CBF002240681146FEF76FBF4068DC
:105C9C0000220221FEF772BF002340681A46FEF76D
:105CAC005DBF0000024B04225A60024A1A60704722
:105CBC000CE70320BC6F0B00002340681A46FEF76C
:105CCC004DBF406800220221FEF758BF00224068F9
:105CDC001146FEF74BBF002240681146FEF756BF37
:105CEC00002340681A461946FEF758BF0023406847
:105CFC001A461946FEF75ABF40680021FEF77EBFD0
:105D0C0040680021FEF782BF4068002281F001014B
:105D1C00FEF754BF40680022FEF760BF00224068C7
:105D2C001146FEF763BF002240681146FEF74EBFD6
:105D3C002DE9F04395B014460D460746FFF7D2FD0A
:105D4C0000211C220DA8009100F0B6FF40230C93FB
:105D5C0020466B460CAA0021FEF7C4FD0446002821
:105D6C004BD1024601216868FEF710FF02218046E4
:105D7C0022466868FEF70AFF009E81462146002EE7
:105D8C003BD0002939D17368022B03D00A2B11D0D8
:105D9C00F669F4E7B8F1000FFAD0716906A804317E
:105DAC0007ADFFF7CDFD0FCD3C1D0FC42B68237045
:105DBC004146EDE7B9F1000FEAD07469102201A851
:105DCC0000F07AFF06238DF8143001AD04F10803BE
:105DDC001834186859682A4603C20833A34215467A
:105DEC00F7D101A906A807ADFFF78AFD0FCD3C1D21
:105DFC000FC42B6823704946CAE70098FEF76AFD6A
:105E0C00384615B0BDE8F083024B034A1A600022F5
:105E1C005A60704714E70320F86F0B00232813B562
:105E2C0002D9002002B010BDA0F10B03022B1AD82E
:105E3C00174C2178BFF35B8F11F001010BD1204679
:105E4C000191FEF726F9019928B11248FEF774FF6B
:105E5C002046FEF723F90F4B1878FEF713FE0028A7
:105E6C00DFD10120DEE7012809D800F081F80021FC
:105E7C00007CFEF7E7FD80F00100C0B2D2E70938E4
:105E8C000128EED800F034F8007CFEF783FDF2E731
:105E9C001CE7032020E70320232838B504460D46D1
:105EAC000AD8FF2908D0FFF7B9FF28B129462046A8
:105EBC00BDE83840FEF71EBD38BD704738B5044606
:105ECC0014252A46002100F0F7FE258040250749BD
:105EDC0025812846258200F06FF804496060284629
:105EEC0000F06AF8E060204638BD00BF2C700B0053
:105EFC0030B50E4D2978BFF35B8F11F0010487B0DC
:105F0C0011D12846FEF7C5F868B101A8FFF7D6FFF6
:105F1C0001AA21460648FFF7E1FD2846FEF7BEF828
:105F2C00044800F0B5FE024807B030BD28E7032056
:105F3C002CE70320C75E0B007047000038B50A4BF6
:105F4C0003600123044643610849202000F034F823
:105F5C00202560600549A560284600F02DF8C4E9AD
:105F6C000305204638BD00BF180001002C700B0043
:105F7C0030B50E4D2978BFF35B8F11F0010487B05B
:105F8C0011D12846FEF785F868B16846FFF7D6FFB1
:105F9C006A4621460648FFF7F5FD2846FEF77EF8CF
:105FAC00044800F075FE024807B030BD44E70320FA
:105FBC0048E70320455F0B00FEF767B808B5FEF70E
:105FCC005DFE000081F0004102E000BF83F0004361
:105FDC0030B54FEA41044FEA430594EA050F08BF78
:105FEC0090EA020F1FBF54EA000C55EA020C7FEA3C
:105FFC00645C7FEA655C00F0E2804FEA5454D4EBB9
:10600C005555B8BF6D420CDD2C4480EA020281EA82
:10601C00030382EA000083EA010180EA020281EABA
:10602C000303362D88BF30BD11F0004F4FEA01310C
:10603C004FF4801C4CEA113102D0404261EB41011B
:10604C0013F0004F4FEA03334CEA133302D05242A1
:10605C0063EB430394EA050F00F0A780A4F101045D
:10606C00D5F1200E0DDB02FA0EFC22FA05F2801897
:10607C0041F1000103FA0EF2801843FA05F359417D
:10608C000EE0A5F120050EF1200E012A03FA0EFCFC
:10609C0028BF4CF0020C43FA05F3C01851EBE37126
:1060AC0001F0004507D54FF0000EDCF1000C7EEB43
:1060BC0000006EEB0101B1F5801F1BD3B1F5001F81
:1060CC000CD349085FEA30004FEA3C0C04F10104A0
:1060DC004FEA445212F5800F80F09A80BCF1004FC9
:1060EC0008BF5FEA500C50F1000041EB045141EA4B
:1060FC00050130BD5FEA4C0C404141EB0101013C14
:10610C0028BFB1F5801FE9D291F0000F04BF014602
:10611C000020B1FA81F308BF2033A3F10B03B3F1D4
:10612C0020020CDA0C3208DD02F1140CC2F10C0264
:10613C0001FA0CF021FA02F10CE002F11402D8BFC2
:10614C00C2F1200C01FA02F120FA0CFCDCBF41EA8E
:10615C000C019040E41AA2BF01EB0451294330BD5D
:10616C006FEA04041F3C1CDA0C340EDC04F114043A
:10617C00C4F1200220FA04F001FA02F340EA030011
:10618C0021FA04F345EA030130BDC4F10C04C4F157
:10619C00200220FA02F001FA04F340EA0300294637
:1061AC0030BD21FA04F0294630BD94F0000F83F481
:1061BC00801306BF81F480110134013D4EE77FEA64
:1061CC00645C18BF7FEA655C29D094EA050F08BFB0
:1061DC0090EA020F05D054EA000C04BF1946104691
:1061EC0030BD91EA030F1EBF0021002030BD5FEAD5
:1061FC00545C05D14000494128BF41F0004130BDFD
:10620C0014F580043CBF01F5801130BD01F0004550
:10621C0045F0FE4141F470014FF0000030BD7FEAC3
:10622C00645C1ABF194610467FEA655C1CBF0B46BE
:10623C00024650EA013406BF52EA033591EA030FD5
:10624C0041F4002130BD00BF90F0000F04BF0021CD
:10625C00704730B54FF4806404F132044FF0000500
:10626C004FF0000150E700BF90F0000F04BF002179
:10627C00704730B54FF4806404F1320410F00045DF
:10628C0048BF40424FF000013EE700BF42004FEADA
:10629C00E2014FEA31014FEA02701FBF12F07F4357
:1062AC0093F07F4F81F06051704732F07F4208BF0E
:1062BC00704793F07F4F04BF41F40021704730B515
:1062CC004FF4607401F0004521F000411CE700BF61
:1062DC0050EA010208BF704730B54FF000050AE0E4
:1062EC0050EA010208BF704730B511F0004502D5E5
:1062FC00404261EB41014FF4806404F132045FEAE7
:10630C00915C3FF4D8AE4FF003025FEADC0C18BF8F
:10631C0003325FEADC0C18BF033202EBDC02C2F181
:10632C00200300FA03FC20FA02F001FA03FE40EA13
:10633C000E0021FA02F11444BDE600BF70B54FF017
:10634C00FF0C4CF4E06C1CEA11541DBF1CEA1355F5
:10635C0094EA0C0F95EA0C0F00F0DEF82C4481EA5D
:10636C00030621EA4C5123EA4C5350EA013518BF7D
:10637C0052EA033541F4801143F4801338D0A0FB6A
:10638C0002CE4FF00005E1FB02E506F00042E0FB17
:10639C0003E54FF00006E1FB03569CF0000F18BF1D
:1063AC004EF0010EA4F1FF04B6F5007F64F54074C5
:1063BC0004D25FEA4E0E6D4146EB060642EAC62158
:1063CC0041EA55514FEAC52040EA5E504FEACE2EC5
:1063DC00B4F1FD0C88BFBCF5E06F1ED8BEF1004FC8
:1063EC0008BF5FEA500E50F1000041EB045170BD44
:1063FC0006F0004646EA010140EA020081EA030188
:10640C00B4EB5C04C2BFD4EB0C0541EA045170BD83
:10641C0041F480114FF0000E013C00F3AB8014F1FD
:10642C00360FDEBF002001F0004170BDC4F1000446
:10643C00203C35DA0C341BDC04F11404C4F12005C7
:10644C0000FA05F320FA04F001FA05F240EA020022
:10645C0001F0004221F0004110EBD37021FA04F658
:10646C0042EB06015EEA430E08BF20EAD37070BD12
:10647C00C4F10C04C4F1200500FA04F320FA05F071
:10648C0001FA04F240EA020001F0004110EBD37073
:10649C0041F100015EEA430E08BF20EAD37070BDE3
:1064AC00C4F1200500FA05F24EEA020E20FA04F3BC
:1064BC0001FA05F243EA020321FA04F001F000416B
:1064CC0021FA04F220EA020000EBD3705EEA430EDC
:1064DC0008BF20EAD37070BD94F0000F0FD101F00B
:1064EC000046400041EB010111F4801F08BF013C44
:1064FC00F7D041EA060195F0000F18BF704703F082
:10650C000046520043EB030313F4801F08BF013D08
:10651C00F7D043EA0603704794EA0C0F0CEA1355C4
:10652C0018BF95EA0C0F0CD050EA410618BF52EA7E
:10653C004306D1D181EA030101F000414FF0000084
:10654C0070BD50EA410606BF1046194652EA430692
:10655C0019D094EA0C0F02D150EA013613D195EA06
:10656C000C0F05D152EA03361CBF104619460AD14E
:10657C0081EA030101F0004141F0FE4141F4700158
:10658C004FF0000070BD41F0FE4141F4780170BD48
:10659C0070B54FF0FF0C4CF4E06C1CEA11541DBFAD
:1065AC001CEA135594EA0C0F95EA0C0F00F0A7F8AF
:1065BC00A4EB050481EA030E52EA03354FEA0131DC
:1065CC0000F088804FEA03334FF0805545EA1313EF
:1065DC0043EA12634FEA022245EA111545EA1065B7
:1065EC004FEA00260EF000419D4208BF964244F14E
:1065FC00FD0404F5407402D25B084FEA3202B61A6D
:10660C0065EB03055B084FEA32024FF480104FF440
:10661C00002CB6EB020E75EB030E22BFB61A7546B4
:10662C0040EA0C005B084FEA3202B6EB020E75EB47
:10663C00030E22BFB61A754640EA5C005B084FEAAF
:10664C003202B6EB020E75EB030E22BFB61A75467C
:10665C0040EA9C005B084FEA3202B6EB020E75EB87
:10666C00030E22BFB61A754640EADC0055EA060E48
:10667C0018D04FEA051545EA16754FEA06164FEA8B
:10668C00C30343EA52734FEAC2025FEA1C1CC0D137
:10669C0011F4801F0BD141EA00014FF000004FF0C4
:1066AC00004CB6E711F4801F04BF01430020B4F185
:1066BC00FD0C88BFBCF5E06F3FF6AFAEB5EB030C3D
:1066CC0004BFB6EB020C5FEA500C50F1000041EB3A
:1066DC00045170BD0EF0004E4EEA113114EB5C0407
:1066EC00C2BFD4EB0C0541EA045170BD41F48011DA
:1066FC004FF0000E013C90E645EA060E8DE60CEAE2
:10670C00135594EA0C0F08BF95EA0C0F3FF43BAFFE
:10671C0094EA0C0F0AD150EA01347FF434AF95EAB5
:10672C000C0F7FF425AF104619462CE795EA0C0F99
:10673C0006D152EA03353FF4FDAE1046194622E766
:10674C0050EA410618BF52EA43067FF4C5AE50EA40
:10675C0041047FF40DAF52EA43057FF4EBAE12E730
:10676C004FF0FF3C06E000BF4FF0010C02E000BF11
:10677C004FF0010C4DF804CD4FEA410C7FEA6C5CF4
:10678C004FEA430C18BF7FEA6C5C1BD001B050EA97
:10679C00410C0CBF52EA430C91EA030F02BF90EA82
:1067AC00020F0020704710F1000F91EA030F58BF41
:1067BC00994208BF90422CBFD8176FEAE37040F0A3
:1067CC00010070474FEA410C7FEA6C5C02D150EA41
:1067DC00013C07D14FEA430C7FEA6C5CD6D152EAFC
:1067EC00033CD3D05DF8040B704700BF84461046C1
:1067FC0062468C461946634600E000BF01B5FFF7C0
:10680C00B7FF002848BF10F1000F01BD4DF808ED8F
:10681C00FFF7F4FF0CBF012000205DF808FB00BF60
:10682C004DF808EDFFF7EAFF34BF012000205DF8BA
:10683C0008FB00BF4DF808EDFFF7E0FF94BF012007
:10684C0000205DF808FB00BF4DF808EDFFF7CEFF08
:10685C0094BF012000205DF808FB00BF4DF808ED47
:10686C00FFF7C4FF34BF012000205DF808FB00BF18
:10687C004A0011D212F5001211D20DD56FF47873B3
:10688C00B3EB62520ED44FEAC12343F0004343EA08
:10689C00505323FA02F070474FF00000704750EA53
:1068AC00013002D14FF0FF3070474FF000007047BD
:1068BC004FEA4102B2F1E04324BFB3F5001CDCF116
:1068CC00FE5C0DD901F0004C4FEAC0024CEA50704E
:1068DC00B2F1004F40EB830008BF20F0010070477D
:1068EC0011F0804F21D113F13872BCBF01F0004080
:1068FC00704741F480114FEA5252C2F11802C2F1B2
:10690C00200C10FA0CF320FA02F018BF40F0010032
:10691C004FEAC1234FEAD32303FA0CFC40EA0C00E4
:10692C0023FA02F34FEA4303CCE77FEA625307D121
:10693C0050EA01331EBF4FF0FE4040F44000704758
:10694C0001F0004040F0FE4040F40000704700BFF2
:10695C0053B94AB9002908BF00281CBF4FF0FF31BA
:10696C004FF0FF3000F092B9ADF1080C6DE904CE98
:10697C0000F024F8DDF804E0DDE9022304B07047F0
:10698C00D0B50C4B002206460F46FFF7D7FCFFF79D
:10699C006FFF0446FFF758FC074B0022FFF7CEFCB5
:1069AC0002460B4630463946FFF710FBFFF760FFF7
:1069BC002146D0BD0000F03D0000F0412DE9F0472C
:1069CC00089D04468E46002B4DD18A42944669D9C7
:1069DC00B2FA82F252B101FA02F3C2F1200120FAAA
:1069EC0001F10CFA02FC41EA030E94404FEA1C48F8
:1069FC00210CBEFBF8F61FFA8CF708FB16E341EAF4
:106A0C00034306FB07F199420AD91CEB030306F179
:106A1C00FF3080F01F81994240F21C81023E63449A
:106A2C005B1AA4B2B3FBF8F008FB103344EA03443E
:106A3C0000FB07F7A7420AD91CEB040400F1FF3353
:106A4C0080F00A81A74240F207816444023840EA90
:106A5C000640E41B00261DB1D4400023C5E90043C9
:106A6C003146BDE8F0878B4209D9002D00F0EF804C
:106A7C000026C5E9000130463146BDE8F087B3FA7F
:106A8C0083F6002E4AD18B4202D3824200F2F98067
:106A9C00841A61EB030301209E46002DE0D0C5E96A
:106AAC00004EDDE702B9FFDEB2FA82F2002A40F0B6
:106ABC009280A1EB0C014FEA1C471FFA8CFE0126B9
:106ACC00200CB1FBF7F307FB131140EA01410EFB5D
:106ADC0003F0884208D91CEB010103F1FF3802D204
:106AEC00884200F2CB804346091AA4B2B1FBF7F0FE
:106AFC0007FB101144EA01440EFB00FEA64508D921
:106B0C001CEB040400F1FF3102D2A64500F2BB805D
:106B1C000846A4EB0E0440EA03409CE7C6F12007AC
:106B2C00B34022FA07FC4CEA030C20FA07F401FAF2
:106B3C0006F31C43F9404FEA1C4900FA06F3B1FB7B
:106B4C00F9F8200C1FFA8CFE09FB181140EA0141E0
:106B5C0008FB0EF0884202FA06F20BD91CEB01017D
:106B6C0008F1FF3A80F08880884240F28580A8F1D5
:106B7C0002086144091AA4B2B1FBF9F009FB101127
:106B8C0044EA014100FB0EFE8E4508D91CEB0101C5
:106B9C0000F1FF346CD28E456AD90238614440EA68
:106BAC000840A0FB0294A1EB0E01A142C846A646E8
:106BBC0056D353D05DB1B3EB080261EB0E0101FA71
:106BCC0007F722FA06F3F1401F43C5E900710026CE
:106BDC003146BDE8F087C2F12003D8400CFA02FC24
:106BEC0021FA03F3914001434FEA1C471FFA8CFE34
:106BFC00B3FBF7F007FB10360B0C43EA064300FB24
:106C0C000EF69E4204FA02F408D91CEB030300F1C1
:106C1C00FF382FD29E422DD9023863449B1B89B278
:106C2C00B3FBF7F607FB163341EA034106FB0EF301
:106C3C008B4208D91CEB010106F1FF3816D28B42AE
:106C4C0014D9023E6144C91A46EA004638E72E467A
:106C5C00284605E70646E3E61846F8E64B45A9D272
:106C6C00B9EB020864EB0C0E0138A3E74646EAE7E1
:106C7C00204694E74046D1E7D0467BE7023B61448F
:106C8C0032E7304609E76444023842E7704700BFF8
:106C9C00002301461A46184600F072B80A44914285
:106CAC0000F1FF3300D1704710B511F8014B03F818
:106CBC00014F9142F9D110BD02440346934200D1D9
:106CCC00704703F8011BF9E738B5104B1D68AB6B27
:106CDC000446B3B91820FDF7B9FF0246A86320B9E2
:106CEC000B4B0C484221FDF7D9FF0B490B4BC0E96C
:106CFC0000130B4B83600B23838100210120C2E91D
:106D0C000401AB6B00221C615A6138BD94E5032071
:106D1C002D700B0044700B000E33CDAB34126DE6AE
:106D2C00ECDE0500034611F8012B03F8012B002AB9
:106D3C00F9D17047024B0146186800F003B800BF48
:106D4C0094E5032037B5044608460D4600F00FF8CD
:106D5C00421C114620460192FDF798FF044618B1DB
:106D6C00019A2946FFF79AFF204603B030BD03462F
:106D7C0013F8012B002AFBD1181A013870470000B8
:106D8C002DE9F843DFF8B8800646D8F800001F4616
:106D9C000D46914600F056F8254B1C6834B9254C2D
:106DAC001C60254B13B11B68C4F8883063681F2B1B
:106DBC0007DDD8F8000000F047F84FF0FF30BDE8D1
:106DCC00F8834EB3D4F8880088B91C4B23B9D8F893
:106DDC00000000F038F8F0E74FF48470FDF736FF50
:106DEC000028F4D00023C0E94033C4F8880063685D
:106DFC0040F8239001229A4000EB8301D0F8003137
:106E0C001343C0F80031022EC1F8807002BFD0F8D5
:106E1C0004311343C0F804316368D8F800005A1CDD
:106E2C000233626044F8235000F00EF80020C6E7ED
:106E3C00E8E703205CE7032000000000594C0B003E
:106E4C00F8E5032070477047704700001D400B00A9
:106E5C0059400B0081400B0085400B0000000000E6
:106E6C007B27626561743A27002C276F78273A00DC
:106E7C007D0052656164696E6700AC00410143029C
:106E8C009F03500542075609640B3F0DB80EAC0F1B
:106E9C00001000000000000000000000274D0B0057
:106EAC001D4D0B00134D0B00094D0B00FD4C0B0041
:106EBC00F14C0B00055D0B000D5D0B00E54C0B0060
:106ECC00DD4C0B00D34C0B00C94C0B003D5D0B0093
:106EDC006170700025592D256D2D25645425483A77
:106EEC00254D3A2553257A0061736374696D6500ED
:106EFC0000000000000000004D530B0053530B002A
:106F0C0091530B0061530B004F530B00000000001A
:106F1C00000000008D580B007D580B007F580B00B3
:106F2C00000000000000000073590B00DB590B003F
:106F3C00B1590B0049510B00A3590B0075590B00AB
:106F4C0085590B00D5590B0095590B006D590B0049
:106F5C0000000000000000006D5A0B00D95A0B0015
:106F6C00B15A0B0049510B00815A0B009D5A0B0072
:106F7C008F5A0B00AB5A0B006F5A0B00735A0B0055
:106F8C000000000000000000395B0B00835B0B006D
:106F9C005B5B0B003B5B0B00635B0B006B5B0B00E9
:106FAC00735B0B007B5B0B0000000000000000001B
:106FBC00A55C0B009B5C0B00915C0B00475C0B0011
:106FCC00855C0B00795C0B00055D0B000D5D0B0007
:106FDC006D5C0B00655C0B005B5C0B00515C0B008B
:106FEC003D5D0B000000000000000000C55C0B00C4
:106FFC00CF5C0B00D95C0B00E35C0B00ED5C0B0071
:10700C00F95C0B00055D0B000D5D0B00155D0B00B5
:10701C00215D0B00295D0B00335D0B003D5D0B000A
:10702C00005245454E54206D616C6C6F6320737536
:10703C0063636565646564002F6D6E742F776F7282
:10704C006B73706163652F776F726B7370616365BF
:10705C002F4743432D31302D706970656C696E6517
:10706C002F6A656E6B696E732D4743432D31302D3E
:10707C00706970656C696E652D34385F32303230F2
:10708C00313132345F313630363138303634312F9D
:10709C007372632F6E65776C69622F6E65776C699E
:1070AC00622F6C6962632F7374646C69622F7261F6
:1070BC006E642E63000000007D420B00314D0B000E
:1070CC00594D0B0039510B00DD510B00ED510B00EC
:1070DC0009520B00B15C0B00155E0B0000000000A8
:0470EC0000000000A0
:1070F000040000001400000003000000474E55008B
:10710000A0AA1DBC3094FFFE4E1BA067551CF54184
:0471100076C2742DA2
:08711400B4F8FF7F0100000048
:04711C00000000006F
:10712000070000001400ECFFF46E0B0098E503204C
:10713000000000000000000000000000000000004F
:10714000000000000000000000000000000000003F
:10715000000000000000000000000000000000002F
:10716000000000000000000000000000000000001F
:10717000000000000000000000000000000000000F
:1071800000000000000000000000000000000000FF
:04719000ECE7032005
:10719400FFFFFFFF00000102030405060708090AB8
:1071A4000B0C0D0E0F101112131415161718191AB3
:0871B4001B1C1D1E1F202800FA
:0471BC0078563412BB
:04000003B000401CED
:00000001FF
