:02000002B0004C
:1040000000400B00D4720B00000006000C000502FB
:084010000401A50F00000000EF
:04401800906E0B009B
:10401C0009480A49884208B505D0094A824202D0AB
:10402C00121A02F057FE0748074A0021121A02F032
:10403C005FFE014808BD00BFF4E0032038720B009E
:10404C0068E1032068E10320EDE7032070B5074E1B
:10405C00074C01F0DDFBA41BA4080025AC4200D1E9
:10406C0070BD56F8043B98470135F7E7E0710B003B
:10407C0004720B0000F016B808B500F039F8BDE872
:10408C00084001F07DBB00F0EBBF00F0E9BF00F091
:10409C00EFBF0078B0FA80F040097047012303703D
:1040AC00704700001FB5104C01F052FF4FF4165131
:1040BC0001F042FF204600F091FA40F29B134FF4BE
:1040CC008052CDE9013264230093042202233C2167
:1040DC00204600F03DFB01F03BFF044904B0BDE875
:1040EC00104001F03CBA00BF58E20320A46E0B0054
:1040FC002DE9F0477D4D2DED028B2B7898B0002BE0
:10410C003DD101F0CDFA08EE100A01F0D5FA02F01B
:10411C00FBFA774B002202F08BFCF8EEC87A0646CD
:10412C0017EE900A0F4602F001FB0B460246394689
:10413C00304602F09DF902F063FD6E4B18606E4B39
:10414C0007EE900A93ED007AF4EEC77AF1EE10FACE
:10415C0015DD6A4B93ED007AF4EEC77AF1EE10FAA6
:10416C000DD5674C00F0A0FD2368C01A654B1B6889
:10417C00984204D301232B7000F096FD2060287820
:10418C00012825D101F0B1FA0021FF22084601F0E7
:10419C00BCFA02232B70DFF8AC815B4CDFF87CA1FE
:1041AC00DFF880916423C8F8003001F0D1FE574944
:1041BC0001F0D5F90026D8F80010F7B28F421FDABB
:1041CC00204600F0D7F860B9204600F01BF9F7E75D
:1041DC000228E0D0032820D018B0BDEC028BBDE83B
:1041EC00F087204600F0D2F92AF81700204600F09C
:1041FC00DBF929F81700204600F0C6F80136DAE79B
:10420C00434B0293434B0193434B0093434A444B20
:10421C00444800F0FBFB03232B7001F099FE42494C
:10422C0001F09DF9414908A801F085F808A910A8EA
:10423C0001F0A4F8374B0A2219680CA801F0CEF84B
:10424C000CA910A801F0F4F8394901F0FDF839492E
:10425C0001F0FAF8324B0A221968044614A801F04E
:10426C00BDF814A9204601F0E3F8334901F0ECF84D
:10427C00014604A801F082F814A801F011F80CA86A
:10428C0001F00EF810A801F00BF808A801F008F8DE
:10429C0004A914A801F072F8284B149A1B788DF815
:1042AC00003027493C2310A801F010FC119C7CB174
:1042BC006368013B63605BB9236820469B68984741
:1042CC00A368013BA3601BB923682046DB689847B1
:1042DC0014A800F0E5FF01F03BFE049901F03FF952
:1042EC00022304A82B7000F0DBFF75E7F8E0032035
:1042FC0000004E4078E1032070E1032074E10320BC
:10430C0060E20320F4E0032058E20320B46E0B00BB
:10431C0030E303208CE1032031E3032064E203202B
:10432C002CE3032090E10320CD6E0B00E26E0B001A
:10433C00EC6E0B00EE6E0B00F76E0B0068E10320C9
:10434C00F96E0B006CE1032008B5064B0648012200
:10435C001A7000F00DF80A22BDE808400348114617
:10436C0001F029B868E1032058E203207CE1032026
:10437C0070470000034B93F8300093F83130C01AAB
:10438C00C0B2704734E30320064A92F8313092F8F9
:10439C00301099421EBF013303F0030382F8313011
:1043AC00704700BF34E3032038B50C46154602F0C5
:1043BC002FF8214601F0D4FE02F02AF803682946B2
:1043CC009B68984702F024F801F0D2FE02F020F826
:1043DC000122214601F0C1FE02F01AF803681B69A4
:1043EC00984728B102F014F803685B699847C0B28B
:1043FC0038BD04225721FFF7D7BF06225721FFF7FC
:10440C00D3BF00002DE9F7430746FFF7F6FF04463C
:10441C003846FFF7EEFF844200F09B80041B48BF38
:10442C0020347E79DFF8348101F0F2FF572101F05E
:10443C0097FE01F0EDFF036807219B68984701F098
:10444C00E7FF01F095FE664306EB4606002E40F3AF
:10445C008180202EC3BF7D7905EB45032025354691
:10446C00C4BFB5FBF3F55D4301F0D2FF2A465721DB
:10447C0001F073FE761B4FF00009002DE6DD98F875
:10448C0030308DF80790013303F0030388F8303097
:10449C0001F0BEFF03685B6998478DF8060001F0D8
:1044AC00B7FF03685B6998478DF8050001F0B0FF12
:1044BC0003685B6998478DF80400019B98F83020DD
:1044CC00C3F3110348F822307B79012B1CD901F07E
:1044DC009FFF03685B6998478DF8060001F098FF11
:1044EC0003685B6998478DF8050001F091FF03683C
:1044FC005B69984798F830308DF80400019A0433C2
:10450C00C2F3110248F823207B79022B1CD901F04D
:10451C007FFF03685B6998478DF8060001F078FF10
:10452C0003685B6998478DF8050001F071FF03681B
:10453C005B69984798F830308DF80400019A08337D
:10454C00C2F3110248F823207B79A3EB83031D44AB
:10455C0093E70024A0B203B0BDE8F08334E303205A
:10456C0070B505460E4600F09FFB044600F09CFB20
:10457C00001BB04208D82846FFF744FF012804D09E
:10458C00012001F0AFF8F1E7002070BD08B5FA2169
:10459C00FFF7E6FF20B1034B93F8302053F82200CD
:1045AC0008BD00BF34E3032008B5FA21FFF7D8FF9C
:1045BC0028B1034A92F83030043352F8230008BD76
:1045CC0034E30320FF225721FFF7EEBE10B5FE2285
:1045DC0057210446FFF7E8FEA07110BD10B5044644
:1045EC0001F016FF01F08AFD2046FFF7EBFF204695
:1045FC00FFF7ECFF012010BD37B515461C460191A5
:10460C0001F006FF019901F0ABFD01F001FF036819
:10461C0029469B68984701F0FBFE036821469B687E
:10462C00984701F0F5FE03B0BDE8304001F0A0BDA5
:10463C000B460C225721FFF7DFBF0B460D225721EB
:10464C00FFF7DABF0B460E225721FFF7D5BF0B46FB
:10465C0010225721FFF7D0BF10B5002304460422C7
:10466C005721FFF7C9FF2046002305225721FFF7EA
:10467C00C3FF20460023BDE8104006225721FFF758
:10468C00BBBF2DE9F0410C4617460A46572105469B
:10469C001E46FFF789FE384046EA000322462846AC
:1046AC005721BDE8F041FFF7A7BF38B5BF22402323
:1046BC0009210546FFF7E5FF00F0F6FA044600F085
:1046CC00F3FA001B63280AD8092257212846FFF762
:1046DC006BFE430603D5012001F004F8EFE738BD6B
:1046EC000B46F8220921FFF7CCBF0B469F220A216B
:1046FC00FFF7C7BF0B46E3220A21FFF7C2BF0B46E9
:10470C00FC220A21FFF7BDBF01391346032914D837
:10471C00DFE801F002060B0EF8221121FFF7B1BF02
:10472C001B0103F0F0038F22F7E7F8221221F5E7C3
:10473C001B0103F0F0038F22F8E770470B461F2292
:10474C000821FFF79EBF1023EF220821FFF799BF26
:10475C002DE9F0471546DDE90879DDF828A0044677
:10476C0088461E46FFF7A1FF012D49D100212046A6
:10477C00FFF7E4FF2046FFF7E6FF032E54D1072195
:10478C002046FFF7ADFFBAF5805F667151DA002164
:10479C002046FFF7AAFF632F58DC00212046FFF7C5
:1047AC00A9FFB9F1750F71DC00212046FFF7A7FFB7
:1047BC0041462046FFF73CFF41462046FFF73DFFB0
:1047CC0041462046FFF73EFF41462046FFF73FFF9C
:1047DC00012211462046FFF797FF012E0BD902222A
:1047EC0011462046FFF790FF022E04D003221146FB
:1047FC002046FFF789FF2046BDE8F047FFF72CBFA6
:10480C00022D01D12021B2E7042D01D14021AEE7C8
:10481C00082D01D16021AAE7102D01D18021A6E736
:10482C00202DF3D1A021A2E7022E0CBF03210221DF
:10483C00A6E7BAF5005F01DA2021A9E7BAF5804FA7
:10484C0001DA4021A4E7A2D16021A1E7C72F01DC46
:10485C000421A3E7B7F5C87F01DA08219EE7B7F575
:10486C00487F01DA0C2199E7B7F57A7F01DA10213C
:10487C0094E7B7F5C86F01DA14218FE7B7F5486FE5
:10488C0001DA18218AE788D11C2187E7B9F1D60F04
:10489C0001DC012189E7B9F5CD7F01DC022184E738
:1048AC0040F29B1399457FF47FAF03217DE72DE9FF
:1048BC00F04100240C6003F1FF380124A04527DDF2
:1048CC00069D52F824C0AC454FEA840604F101055C
:1048DC001CDD164456F8046CB44517DD2E469E427A
:1048EC0052F82670A6EB040E354603D0BC4506F1F3
:1048FC000106F4D0BC4509DD0E680E2E06DC751CD5
:10490C000D600EF1010540F8264025442C46D5E7F4
:10491C00BDE8F081F0B5012304468B420FDA54F860
:10492C00046F1A46254655F8047CB74203DD013A5C
:10493C0045F80479F7D140F822600133EDE7F0BD7A
:10494C002DE9F043012390460D46434516DA55F800
:10495C00046F1C4600EB8609AC46D9F800205CF8C5
:10496C00047C964650F82720964503DD013C4CF814
:10497C000479F2D141F824600133E6E7BDE8F08315
:10498C002DE9F04104461F4610460D460A682146A3
:10499C00FFF7D6FF4FF0FF32C7F1000E29689142A6
:1049AC001DDD531C1E462B60B14216D0501C18BF87
:1049BC0054F8220054F826C008BF1046ACEB000097
:1049CC00B84201DC864506DD286800F10108C5F80F
:1049DC00008044F820C00136E6E71A46DEE72046A0
:1049EC00BDE8F041FFF796BF37B5069D0095FFF780
:1049FC005EFF0C46079BFFF7C3FF2268089B9A4299
:104A0C00D4BF2260236003B030BD00002DE9F04F0D
:104A1C009DB0DDE92798164600229B4605460C46BC
:104A2C001346A24204DA35F8121001320B44F8E7AF
:104A3C008D4FB3FBF4F338460022A24206DA35F868
:104A4C001210591A40F8041B0132F6E7864A00216D
:104A5C00136852F8040F03445068034490681B1801
:104A6C0048BF033301319B10602942F8043CEFD15D
:104A7C0000237D4A9A4652F8041B0AF1010ABAF146
:104A8C00640F0B44F7D140F6B73293424FDD93FBE2
:104A9C00FAFABAF13C0FA8BF4FF03C0A3C220021B5
:104AAC000DA802F025F904230F22CDE90132CDF82F
:104ABC0000A06D4A642307A90DA8FFF795FF079B7B
:104ACC00012B4FF0000235DD0DA94FF0010C08460B
:104ADC00D1F804E000680CF1010CAEEB000063456A
:104AEC0001F104010244F2D1591E92FBF1F240F2A1
:104AFC00DC5191FBF2F2C9F8002001225B4988F8E5
:104B0C0000200022A24219DB0022CDE90822CDE9C7
:104B1C000A220DAE0C92314693421BDD51F8040B68
:104B2C00642815DD524BCBF80030002392E04FF097
:104B3C001E0AB3E74E49C9F80010DFE735F812003A
:104B4C0047F8040B36F8120041F8040B0132D9E790
:104B5C000132E1E70024013B434FDFF810C104941C
:104B6C00254621460593DDE90423934256DDD6F80C
:104B7C00048056F8040B1346A8EB00090133B9F175
:104B8C00030F0493EFDD4FF07F4E0346F24698453A
:104B9C000EDD57F823207245C8BF96465CF82320DB
:104BAC00C8BF1C465245C4BF1D4692460133EEE7B2
:104BBC0057F8202057F828309B1A221A534357F8DD
:104BCC00202093FBF9F3134457F82520D21A0AFB43
:104BDC0002F24FEAE21ABAF1000FC4DD0429C2DC7A
:104BEC005CF820305CF82820281AD21A504390FB2D
:104BFC00F9F018445CF825301B1A0EFB03FE5FEA33
:104C0C00EE1EB0D01CAB03EB8108642303FB0EF249
:104C1C00013192FBFAF248F8502CA4E708A8FFF7F0
:104C2C0079FE4A1003294FEA820318DD1CA901EB17
:104C3C00820151F8543C51F8502C134403EBD373BC
:104C4C005B10DA1EB42A3FF66DAF0A4AD35CCBF880
:104C5C0000300123269A13701DB0BDE8F08F1CAAFA
:104C6C00134453F8503CECE768E30320F8E40320CA
:104C7C0019FCFFFF016F0B0008B5024B1B689B680A
:104C8C00019308BD6802030008B5024B1B68DB6882
:104C9C00019308BD6802030008B5024B1B685B68F2
:104CAC00019308BD1802030008B5024B1B685B6931
:104CBC00019308BD1802030008B5024B1B689B6DDD
:104CCC00019308BD1802030008B5024B1B685B6E0C
:104CDC00019308BD1802030008B5024B1B685B6CFE
:104CEC00019308BD4802030008B5024B1B685B69C1
:104CFC00019308BD6402030008B5024B1B68DB6816
:104D0C00019308BD3C02030008B5024B1B681B69EC
:104D1C00019308BD3C02030008B5024B1B685B699C
:104D2C00019308BD3C02030008B5024B1B689B694C
:104D3C00019308BD3C02030008B5024B1B68DB69FC
:104D4C00019308BD3C02030008B5024B1B689B6A2B
:104D5C00019308BD3C02030008B5024B1B681B6C99
:104D6C00019308BD3C02030008B5024B1B68DB68CD
:104D7C00019308BD2802030008B5024B1B689B6910
:104D8C00019308BD2802030008B5024B1B68DB69C0
:104D9C00019308BD2802030008B5024B1B681B6A6F
:104DAC00019308BD2802030008B5024B1B685B6A1F
:104DBC00019308BD2802030008B5024B1B689B6ACF
:104DCC00019308BD2802030008B5024B1B68DB6A7F
:104DDC00019308BD2802030008B5024B1B681B6B2E
:104DEC00019308BD2802030008B5024B1B681B6C1D
:104DFC00019308BD2802030008B5024B1B681B6D0C
:104E0C00019308BD2802030008B5024B1B681B6800
:104E1C00019308BD4C02030008B5024B1B685B688C
:104E2C00019308BD4C02030008B5024B1B681B69BB
:104E3C00019308BD4C02030008B5024B1B685B696B
:104E4C00019308BD4C02030008B5024B1B689B691B
:104E5C00019308BD4C02030008B5024B1B68DB69CB
:104E6C00019308BD4C02030008B5024B1B681B6A7A
:104E7C00019308BD4C02030008B5024B1B685B682C
:104E8C00019308BD6002030008B5024B1B689B68C8
:104E9C00019308BD6002030008B5024B1B68DB6878
:104EAC00019308BD6002030008B5024B1B689B69A7
:104EBC00019308BD6002030008B5024B1B68DB6957
:104ECC00019308BD6002030008B5024B1B681B6808
:104EDC00019308BD2002030008B5024B1B685B68F8
:104EEC00019308BD2002030008B5024B1B685B69E7
:104EFC00019308BD2002030008B5024B1B68DB6C54
:104F0C00019308BD2002030008B5024B1B685B6DC2
:104F1C00019308BD2002030008B5024B1B689B6D72
:104F2C00019308BD2002030008B5034B1B68D3F89E
:104F3C008830019308BD00002002030008B5034B24
:104F4C001B68D3F89430019308BD000020020300C5
:104F5C0008B5024B1B685B68019308BD4002030057
:104F6C0008B5024B1B689B68019308BD4002030007
:104F7C0008B5024B1B68DB68019308BD40020300B7
:104F8C0008B5024B1B681B69019308BD4002030066
:104F9C0008B5024B1B685B69019308BD4002030016
:104FAC0008B5024B1B689B69019308BD40020300C6
:104FBC0008B5024B1B68DB69019308BD4002030076
:104FCC0008B5024B1B681B6A019308BD4002030025
:104FDC0008B5024B1B681B6B019308BD4002030014
:104FEC0008B5024B1B685B6B019308BD40020300C4
:104FFC0008B5024B1B681B6C019308BD40020300F3
:10500C0008B5024B1B685B6C019308BD40020300A2
:10501C0008B5024B1B689B68019308BD4402030052
:10502C0008B5024B1B685B69019308BD4402030081
:10503C0008B5024B1B681B6A019308BD44020300B0
:10504C0008B5024B1B681B6B019308BD440203009F
:10505C0008B5024B1B68DB6B019308BD44020300CF
:10506C0008B5024B1B681B68019308BD1C020300AA
:10507C0008B5024B1B685B68019308BD1C0203005A
:10508C0008B5024B1B689B68019308BD1C0203000A
:10509C0008B5024B1B68DB6A019308BD1C020300B8
:1050AC0008B5024B1B681B6B019308BD1C02030067
:1050BC0008B5024B1B681B6C019308BD1C02030056
:1050CC0008B5024B1B685B6C019308BD1C02030006
:1050DC0008B5024B1B68DB6C019308BD1C02030076
:1050EC00002240681146FFF76BBF00224068114652
:1050FC00FFF776BF40680022FFF76ABF40680022C6
:10510C0081F00101FFF754BF002340681A4619468D
:10511C00FFF746BF002340681A461946FFF738BF11
:10512C00002240681146FFF72BBF00224068114651
:10513C00FFF716BF406800220221FFF719BF0023BA
:10514C0040681A46FFF704BF024B03225A60024A1A
:10515C001A60704788E60320C46F0B00054B0222CF
:10516C001A60054B054A9A600020C3E90000FFF75E
:10517C00B3BE00BF9CE6032090E603200000FFFFB7
:10518C0010B5044601F00FFE013823182046834267
:10519C0006D90278197800F8011B03F80129F6E703
:1051AC0010BD2DE9F041931E8CB0222B4FF0000363
:1051BC000D4614468DF82C3027D900282ADA2E46B5
:1051CC002D2306F8013B40420A240DF12B074FF02A
:1051DC0001082246014601A801F068FD029B0198D6
:1051EC00092BCCBF3722302252FA83F307F801394E
:1051FC0008F101080028ECD14246791C304601F038
:10520C0069FD28460CB0BDE8F0810A2AD5D018B14A
:10521C002E46DAE70A24FAE730238DF82B302E4697
:10522C000DF12A074FF00208E6E770B50C46911E07
:10523C0022291DD8254630B9234430229D4210D254
:10524C0005F8012BFAE7B0FBF2F602FB1600C1B22F
:10525C00092894BF30315731C9B205F8011B3046CB
:10526C00E9E7002320462B70FFF78AFF204670BD2C
:10527C000020FCE738B5031E0C4615460EDAB3F1D8
:10528C00004F4FF02D0214BF5842184601230A70EC
:10529C002A461944FFF7C9FF204638BD0123F9E718
:1052AC0010B504460068FFF7E3FE204610BD10B5AC
:1052BC000446006808B1FFF7DBFE0023C4E90133A4
:1052CC00236010BD38B504460D4600680131FFF768
:1052DC00D7FE10B1C4E90005012038BD10B5036834
:1052EC00044623B143688B4201D3012010BD2046F4
:1052FC00FFF7E8FF0028F9D0A368002BF5D122684E
:10530C001370F2E737B50D46114601920446FFF7CC
:10531C00E5FF019A28B92046FFF7C9FF204603B0E4
:10532C0030BDA2602946206801F0D4FC2268A36835
:10533C000021D154F2E7002313B5C0E90033044631
:10534C008360037341B10846019101F02CFD019972
:10535C0002462046FFF7D6FF204602B010BD884219
:10536C0010B5044605D00B682BB18A681946FFF7B7
:10537C00C9FF204610BDFFF79AFFFAE710B50023CE
:10538C000446C0E9003383600373FFF7E8FF20464F
:10539C0010BD13B5044659B10846019101F003FD47
:1053AC00019902462046FFF7ADFF204602B010BD22
:1053BC00FFF77DFFF9E710B504468AB00023C4E976
:1053CC000033A3602373084601A9FFF753FF01A91B
:1053DC002046FFF7DEFF20460AB010BD10B504468C
:1053EC008AB00023C4E90033A3602373084601A9E3
:1053FC00FFF7D7FE01A92046FFF7CBFF20460AB0E6
:10540C0010BD70B505460E4609B9002070BD6AB1D5
:10541C00846814442146FFF761FF0028F5D0286802
:10542C00AB683146184401F099FCAC600120EDE703
:10543C0010B58A6809680446FFF7E3FF10B92046E7
:10544C00FFF735FF204610BD13B5044629B9204699
:10545C00FFF72DFF204602B010BD0846019101F068
:10546C00A2FC019902462046FFF7CBFF0028EED0A4
:10547C00F0E710B58368044613B103220146984740
:10548C00204610BD10B54368013B0446436063B928
:10549C0003689B689847A368013BA3602BB92368FA
:1054AC002046DB68BDE81040184710BD10B5044617
:1054BC00006808B1FFF7E6FF204610BD13B50B4698
:1054CC000246D0E900016C4684E8030093E803002F
:1054DC0082E8030094E8030083E8030002B010BDE7
:1054EC00024800230360FFF7F7BB00BFA0E60320D0
:1054FC00F8B506460D468F180024BD420CD0336813
:10550C0015F8011B9B6830469847031E01DB1C44B1
:10551C00F3E7002C08BF1C462046F8BD13B5044623
:10552C00084659B1019101F03EFC23680199DB68F2
:10553C000246204602B0BDE81040184702B010BD2C
:10554C0003689B68184738B50D210546FFF7F8FF2F
:10555C000A2104462846FFF7F3FF204438BD38B52E
:10556C000546FFF7DBFF04462846FFF7ECFF204417
:10557C0038BD30B58BB00023012A8DF8243098BF8C
:10558C000A2209AC0D46B1FBF2F101FB125303F0F8
:10559C00FF03092B94BF30333733DBB2AA4204F834
:1055AC00013DEFD92146FFF7B9FF0BB030BD00002C
:1055BC00014B024A1A607047A4E60320F86F0B00F7
:1055CC002DE9F041154ADFF86080D2E900638019BB
:1055DC0043EB0101124BD3E90067D8E9002386198C
:1055EC0041EB0707BB4208BFB2428CB013D003A9F2
:1055FC006846CDE90067FFF76BFD089B094D03F288
:10560C006C7303AC08930FCC0FC50FCC0FC5C8E956
:10561C00006723682B600CB0BDE8F081D8E603204E
:10562C00D0E60320ACE60320E0E6032008B500201A
:10563C00FFF706FD28B1FFF7F3FC80F00100C0B2C4
:10564C0008BD0120FCE710B50020FFF735FB044630
:10565C00A0B9FFF739FC012810D12046FFF75CFCFC
:10566C0060B9FFF7E3FF10B9FFF7D2FCF9E7FFF7DA
:10567C00DDFFBDE810400020FFF71EBB204610BD2B
:10568C001FB5FFF7E0FF10220021684601F030FB48
:10569C0000216846FFF718FB009805B05DF804FB85
:1056AC0008B5FFF7EDFFC117FFF78AFF014B9868AC
:1056BC0008BD00BFACE6032008B5FFF7E1FFC1173A
:1056CC00FFF77EFF014B586808BD00BFACE6032016
:1056DC00024B1A68024B1A60704700BFFCE00320B3
:1056EC00A8E603200021FFF7FFBB10B50446FFF727
:1056FC00DBFB844208D01CB1BDE81040FFF7C4BBF3
:10570C00BDE81040FFF7C8BB10BD70B505460E468E
:10571C001446FFF7C9FB50B144EA062444EA05409D
:10572C00FFF7AAFBBDE87040E720FFF7C5BB70BDD3
:10573C00014B00229A607047E8E60320014B186089
:10574C00704700BF00E1032008B50B4B43B100F0DC
:10575C00FFFB03681B699847002801DDAFF300804D
:10576C00064B43B100F014FE03681B6998470028F0
:10577C0001DDAFF3008008BD000000000000000058
:10578C0008B5FFF7E1FFFFF78FFA014B186008BD72
:10579C0040E703200548064A064908B5121A01F0ED
:1057AC0099FA054B054A1A6008BD00BF00F40320A6
:1057BC0004F4032034720B0000F403201E1C279AFF
:1057CC0007B5002300931A466FF07701FFF7B6FB7D
:1057DC0003B05DF804FB000007B543880A2B08D022
:1057EC00502B0BD1094B1B684BB103B05DF804EB8C
:1057FC001847FFF7E5FF03B05DF804FB00230093A7
:10580C001A466FF07701FFF799FBF4E7FCE60320EB
:10581C0010B512480021FFF753FC114B1A68114BBD
:10582C009A42114B0CBF012200221A7001D0FFF7D3
:10583C00B1FFFFF731FA044601F062FA0B4B13B1DA
:10584C002046AFF3008000210848FFF701FCBDE8BB
:10585C00104007480021FFF767BB00BF49570B00FA
:10586C0000F403201E1C279AF8E603200000000019
:10587C00E5570B0070470020704710B51021044607
:10588C00FEF705FC204610BD08B5FFF7F6FF08BD76
:10589C0030B500224FF69C74026084808D888C8019
:1058AC000C68858004600A6030BD10B50446006841
:1058BC00FFF7DEFB204610BD38B5C468F4B1237881
:1058CC00022B03D104F10C00FFF7EFFF656835B133
:1058DC002846FFF7CEFD10212846FEF7D8FBA56819
:1058EC0035B12846FFF7C5FD10212846FEF7CFFB42
:1058FC0020461421BDE83840FEF7C9BB38BD0B6803
:10590C0003604B68436013B15A6801325A607047A8
:10591C0037B5044668460D46FFF7F1FF009B019A28
:10592C0023606260002301A801930093FFF7BEFD82
:10593C0035B1281DFFF7BAFD08212846FEF7A7FB55
:10594C00204603B030BD826810B50AB900F086FD60
:10595C00BDE81040C368184708B5006800F1100195
:10596C00FFF7F1FF08BD826810B50AB900F076FDAB
:10597C00BDE81040C368184708B5006800F1100175
:10598C00FFF7F1FF08BD000038B5002304460360A3
:10599C0010200D46FEF777FB28B10123C0E9013337
:1059AC00024B0360C5602060204638BD20700B00A0
:1059BC0038B5002383608B6804460D462BB1022258
:1059CC009847EB68E360AB68A360204638BD0000E5
:1059DC00F0B589B004686846FFF75AFF4FF0020330
:1059EC00D4E84F2F002A03D1C4E8413F0029F7D156
:1059FC0025D104F10C0569462846FFF749FFBFF392
:105A0C005B8F01236370002004F10803BFF35B8FED
:105A1C0053E8006F43E80002002AF9D1BFF35B8F13
:105A2C006EB1FFF769FA78B129463046FFF78BFF64
:105A3C003046FFF71EFD10213046FEF728FB684666
:105A4C00FFF733FF09B0F0BD314602A8FFF7B0FFF6
:105A5C00E068B4F9105008B101F088F906901020F4
:105A6C00ADF81C50FEF70FFB0546E8B10027876028
:105A7C001820FEF708FB044688B10146876002A88F
:105A8C00FFF71CFD049BA268A360059B049206A96A
:105A9C00E268E36004F110000592FFF7F9FE084B91
:105AAC00EB60084B2C60AB6006A8FFF7FEFE02A86B
:105ABC00FFF7DFFC002229460348FFF725FAB7E77A
:105ACC0065590B00E95B0B004D600B002DE9F04FA5
:105ADC008BB005469DF850A00F4690469946FFF7AF
:105AEC009FFA07AE834638BB4FF62E73059005A977
:105AFC003046ADF81830FFF7CBFE1420FEF7C3FA92
:105B0C00044648B1022303700123C0E901BB437072
:105B1C0031460C30FFF7BCFE2846214640F8044BBA
:105B2C00FFF732FF3046FFF7C0FE05A8FFF7BDFEBA
:105B3C0028460BB0BDE8F08F0C2300241420CDE9CF
:105B4C0008440793FEF79FFA014618B1C0E90144D7
:105B5C000470447004A80391FFF716FF1E4B0893C2
:105B6C000820FEF790FA044610B103A9FFF7C7FE10
:105B7C0000965FFA8AF34A46414638460994FFF785
:105B8C0057FAB8B9039B5B7803F0FF0293B94FF651
:105B9C009C7305A903A80592ADF81830FFF718FF00
:105BAC0005A8FFF782FE05A80999FFF7B1FE06A824
:105BBC00FFF77CFC03A905A8FFF7A1FE059B069A3D
:105BCC002B606A60002306A806930593FFF76EFC12
:105BDC0004A8FFF76BFCABE7655C0B00012AF8B57A
:105BEC00054603D10B6803600020F8BD022A10D0D3
:105BFC00032AF9D10468002CF6D004F11000FFF749
:105C0C0054FE2046FFF735FC18212046FEF73FFADC
:105C1C00EAE718200E68FEF736FA044650B1314612
:105C2C00FFF7C6FE3069B6F9147008B101F09EF8A2
:105C3C002061A7822C60D7E738B5002383608B687E
:105C4C0004460D462BB102229847EB68E360AB6823
:105C5C00A360204638BD0000F0B589B004460D465F
:105C6C0001A81146FFF754FEA4B124B21DB1284679
:105C7C0001F07CF8054601A803A90395ADF8104086
:105C8C00FFF7A6FE03A8FFF710FE02A8FFF70EFC15
:105C9C0009B0F0BD019D0123D5E84F2F002A03D197
:105CAC00C5E8413F0029F7D1EFD12B73BFF35B8FD0
:105CBC006B702B1DBFF35B8F53E8006F43E8004202
:105CCC00002AF9D1BFF35B8F002EDED02046FFF700
:105CDC0013F9074660B105F10C013046FFF743FE9E
:105CEC003046FFF7C6FB10213046FEF7D0F9CCE763
:105CFC00314603A8FFF7A0FF2B7B8DF81C3010203A
:105D0C00FEF7C1F90546D0B187601420FEF7BBF948
:105D1C00044678B18760014603A8FFF7CFFB059BCB
:105D2C00A268A360069B0592E268E3609DF81C30B4
:105D3C0006922374064BEB60064B2C60AB6003A8F9
:105D4C00FFF797FB002229460348FFF7DDF8C7E76A
:105D5C0085590B00695D0B004D600B00012A70B575
:105D6C00044603D10B680360002070BD022A0CD0DE
:105D7C00032AF9D10468002CF6D02046FFF779FBF2
:105D8C0014212046FEF783F9EEE714200E68FEF787
:105D9C007AF9054620B13146FFF74EFF337C2B7460
:105DAC002560E1E7704710B518210446FEF76FF93E
:105DBC00204610BDF0B5037D062B8DB00E4600F1CC
:105DCC0004074FF0000412D000F1080515F8011D6E
:105DDC000A223046FFF7CDFBAF42044419D0002C09
:105DEC00F4D02E213046FFF7ABFB0444EEE72F2313
:105DFC006A4639460A208DF80040FEF775FF684662
:105E0C0000F0D1FF33680246DB686946304698479C
:105E1C00044620460DB0F0BD10B5054B04461122CA
:105E2C0040F8043B002100F063FF204610BD00BF8A
:105E3C003C700B000346074A10B543F8042B01F1E4
:105E4C00100251F8044B43F8044B9142F9D10A78F3
:105E5C001A7010BD3C700B0010B59DF8084044EA58
:105E6C00032343EA024242EA0161042341600375C1
:105E7C0010BD000007B5064B0360CB7800938B7800
:105E8C004A780978FFF7E8FF03B05DF804FB00BF20
:105E9C003C700B00417470477047704708B5002187
:105EAC00007CFEF7D1FF40EAE07008BD08B5012187
:105EBC00007CFEF7C9FF40EAE07008BD08B5007C25
:105ECC00FEF7BAFF20EAE07008BD08B5007CFEF7CB
:105EDC00ABFF20EAE07008BD13B50446007C0191CD
:105EEC00FEF7AAFF0028019901DC607C20B1207C20
:105EFC00FEF7B2FF20EAE07002B010BD007CFEF7A6
:105F0C00B3BF10B514210446FEF7C1F8204610BDEE
:105F1C0010B54FF47A73044608460021C4E9011306
:105F2C00044B23600123207463741146FEF76CFF4D
:105F3C00204610BD50700B00007C0022FEF76CBF99
:105F4C0010B514220446002100F0D2FE204610BDEC
:105F5C0010B50F4C88B003A8FFF7F2FF2178BFF300
:105F6C005B8F11F001010FD120460191FEF791F8E2
:105F7C00019948B103AA0748FFF7CAFF2046FEF76C
:105F8C008DF8054800F08CFE024808B010BD00BF2B
:105F9C0000E7032004E70320A55E0B007047417463
:105FAC00704708B5007CFEF7CFFE20EAE07008BD14
:105FBC0008B5007CFEF7A8FE20EAE07008BD08B525
:105FCC00007CFEF7B1FE40EAE07008BD08B5007C2D
:105FDC00FEF7A2FE40EAE07008BD007CFEF7ACBE06
:105FEC0037B5457C04462DB1207C03B0BDE830406C
:105FFC00FEF782BE007C0191FEF7A6FE00280199F7
:10600C00F2DC284603B030BD10B514210446FEF76F
:10601C003EF8204610BD000010B54FF47A730446CC
:10602C00084611460022C4E90123044B23600123D6
:10603C0020746374FEF790FE204610BD80700B0038
:10604C0010B5836804460BB900F008FAC36898478A
:10605C00A3681BB1032221462046984720461021F5
:10606C00BDE81040FEF713B87047F8B50646154664
:10607C000C468F18BC4206D0336814F8011B9B6881
:10608C0030469847F6E72846F8BD007C0022FEF71C
:10609C0083BE007C0021FEF787BE007C0021FEF74A
:1060AC008BBE007C0021FEF78FBE007C0021FEF72A
:1060BC0093BE10B514210446FDF7E9FF204610BD30
:1060CC0038B5044615464FF47A730022C4E901230F
:1060DC00094B2174084623602946FEF785FEBF3024
:1060EC0008D16B69DB0705D56868FEF7C1FFE86866
:1060FC00FEF7BEFF204638BDB0700B000023007CBD
:10610C001A461946FEF730BE7FB500221423CDE99E
:10611C000122ADF804300B788DF808304B680393EE
:10612C00CB680493007C0B7A059301A9FEF764FEFF
:10613C0007B05DF804FB1FB5003B8DF800104FF065
:10614C006401039118BF0123694601928DF8083050
:10615C00FFF7DAFF05B05DF804FB0123FFF7EBBF97
:10616C00007C0022FEF708BE007C0022FEF70CBE6D
:10617C000121FFF7F9BF002240681146FEF700BF6E
:10618C00002240681146FEF71BBF002240681146F2
:10619C00FEF726BF40680022FEF71ABF40680022B7
:1061AC0081F00101FEF704BF002340681A4619462E
:1061BC00FEF7F6BE002340681A461946FEF7E8BE05
:1061CC00002240681146FEF7CBBE40680022022137
:1061DC00FEF7CEBE002340681A46FEF7B9BE00009B
:1061EC00024B04225A60024A1A60704718E70320D7
:1061FC00D8700B00002340681A46FEF7A9BE406811
:10620C0000220221FEF7B4BE002240681146FEF7C0
:10621C00A7BE002240681146FEF7B2BE00234068BC
:10622C001A461946FEF7B4BE002340681A461946B2
:10623C00FEF7B6BE40680021FEF7DABE40680021CA
:10624C00FEF7DEBE4068002281F00101FEF7B0BE11
:10625C0040680022FEF7BCBE002240681146FEF7E3
:10626C00BFBE002240681146FEF7AABE2DE9F043DE
:10627C0095B014460D460746FFF7CEFD00211C22B3
:10628C000DA8009100F034FD40230C9320466B4682
:10629C000CAA0021FEF7F8FC044600284BD102465C
:1062AC0001216868FEF76CFE022180462246686870
:1062BC00FEF766FE009E81462146002E3BD000294B
:1062CC0039D17368022B03D00A2B11D0F669F4E78D
:1062DC00B8F1000FFAD0716906A8043107ADFFF7C9
:1062EC00C9FD0FCD3C1D0FC42B6823704146EDE753
:1062FC00B9F1000FEAD07469102201A800F0F8FC83
:10630C0006238DF8143001AD04F108031834186815
:10631C0059682A4603C20833A3421546F7D101A98E
:10632C0006A807ADFFF786FD0FCD3C1D0FC42B68EB
:10633C0023704946CAE70098FEF79EFC384615B014
:10634C00BDE8F083024B034A1A6000225A60704782
:10635C0020E7032014710B007047000038B5044689
:10636C0014252A46002100F0C3FC2580402507494E
:10637C0025812846258200F06FF804496060284684
:10638C0000F06AF8E060204638BD00BF48710B0091
:10639C0030B50E4D2978BFF35B8F11F0010487B037
:1063AC0011D12846FDF775FE68B101A8FFF7D6FF9D
:1063BC0001AA21460648FFF72FFE2846FDF76EFE80
:1063CC00044800F06DFC024807B030BD28E70320FC
:1063DC002CE7032065630B007047000038B50A4BAF
:1063EC0003600123044643610849202000F034F87F
:1063FC00202560600549A560284600F02DF8C4E909
:10640C000305204638BD00BF1800010048710B0081
:10641C0030B50E4D2978BFF35B8F11F0010487B0B6
:10642C0011D12846FDF735FE68B16846FFF7D6FF57
:10643C006A4621460648FFF743FE2846FDF72EFE26
:10644C00044800F02DFC024807B030BD44E703209F
:10645C0048E70320E5630B00FDF717BE08B5FEF710
:10646C0017FE000081F0004102E000BF83F0004302
:10647C0030B54FEA41044FEA430594EA050F08BFD3
:10648C0090EA020F1FBF54EA000C55EA020C7FEA97
:10649C00645C7FEA655C00F0E2804FEA5454D4EB14
:1064AC005555B8BF6D420CDD2C4480EA020281EADE
:1064BC00030382EA000083EA010180EA020281EA16
:1064CC000303362D88BF30BD11F0004F4FEA013168
:1064DC004FF4801C4CEA113102D0404261EB410177
:1064EC0013F0004F4FEA03334CEA133302D05242FD
:1064FC0063EB430394EA050F00F0A780A4F10104B9
:10650C00D5F1200E0DDB02FA0EFC22FA05F28018F2
:10651C0041F1000103FA0EF2801843FA05F35941D8
:10652C000EE0A5F120050EF1200E012A03FA0EFC57
:10653C0028BF4CF0020C43FA05F3C01851EBE37181
:10654C0001F0004507D54FF0000EDCF1000C7EEB9E
:10655C0000006EEB0101B1F5801F1BD3B1F5001FDC
:10656C000CD349085FEA30004FEA3C0C04F10104FB
:10657C004FEA445212F5800F80F09A80BCF1004F24
:10658C0008BF5FEA500C50F1000041EB045141EAA6
:10659C00050130BD5FEA4C0C404141EB0101013C6F
:1065AC0028BFB1F5801FE9D291F0000F04BF01465E
:1065BC000020B1FA81F308BF2033A3F10B03B3F130
:1065CC0020020CDA0C3208DD02F1140CC2F10C02C0
:1065DC0001FA0CF021FA02F10CE002F11402D8BF1E
:1065EC00C2F1200C01FA02F120FA0CFCDCBF41EAEA
:1065FC000C019040E41AA2BF01EB0451294330BDB9
:10660C006FEA04041F3C1CDA0C340EDC04F1140495
:10661C00C4F1200220FA04F001FA02F340EA03006C
:10662C0021FA04F345EA030130BDC4F10C04C4F1B2
:10663C00200220FA02F001FA04F340EA0300294692
:10664C0030BD21FA04F0294630BD94F0000F83F4DC
:10665C00801306BF81F480110134013D4EE77FEABF
:10666C00645C18BF7FEA655C29D094EA050F08BF0B
:10667C0090EA020F05D054EA000C04BF19461046EC
:10668C0030BD91EA030F1EBF0021002030BD5FEA30
:10669C00545C05D14000494128BF41F0004130BD58
:1066AC0014F580043CBF01F5801130BD01F00045AC
:1066BC0045F0FE4141F470014FF0000030BD7FEA1F
:1066CC00645C1ABF194610467FEA655C1CBF0B461A
:1066DC00024650EA013406BF52EA033591EA030F31
:1066EC0041F4002130BD00BF90F0000F04BF002129
:1066FC00704730B54FF4806404F132044FF000055C
:10670C004FF0000150E700BF90F0000F04BF0021D4
:10671C00704730B54FF4806404F1320410F000453A
:10672C0048BF40424FF000013EE700BF42004FEA35
:10673C00E2014FEA31014FEA02701FBF12F07F43B2
:10674C0093F07F4F81F06051704732F07F4208BF69
:10675C00704793F07F4F04BF41F40021704730B570
:10676C004FF4607401F0004521F000411CE700BFBC
:10677C0050EA010208BF704730B54FF000050AE03F
:10678C0050EA010208BF704730B511F0004502D540
:10679C00404261EB41014FF4806404F132045FEA42
:1067AC00915C3FF4D8AE4FF003025FEADC0C18BFEB
:1067BC0003325FEADC0C18BF033202EBDC02C2F1DD
:1067CC00200300FA03FC20FA02F001FA03FE40EA6F
:1067DC000E0021FA02F11444BDE600BF70B54FF073
:1067EC00FF0C4CF4E06C1CEA11541DBF1CEA135551
:1067FC0094EA0C0F95EA0C0F00F0DEF82C4481EAB9
:10680C00030621EA4C5123EA4C5350EA013518BFD8
:10681C0052EA033541F4801143F4801338D0A0FBC5
:10682C0002CE4FF00005E1FB02E506F00042E0FB72
:10683C0003E54FF00006E1FB03569CF0000F18BF78
:10684C004EF0010EA4F1FF04B6F5007F64F5407420
:10685C0004D25FEA4E0E6D4146EB060642EAC621B3
:10686C0041EA55514FEAC52040EA5E504FEACE2E20
:10687C00B4F1FD0C88BFBCF5E06F1ED8BEF1004F23
:10688C0008BF5FEA500E50F1000041EB045170BD9F
:10689C0006F0004646EA010140EA020081EA0301E3
:1068AC00B4EB5C04C2BFD4EB0C0541EA045170BDDF
:1068BC0041F480114FF0000E013C00F3AB8014F159
:1068CC00360FDEBF002001F0004170BDC4F10004A2
:1068DC00203C35DA0C341BDC04F11404C4F1200523
:1068EC0000FA05F320FA04F001FA05F240EA02007E
:1068FC0001F0004221F0004110EBD37021FA04F6B4
:10690C0042EB06015EEA430E08BF20EAD37070BD6D
:10691C00C4F10C04C4F1200500FA04F320FA05F0CC
:10692C0001FA04F240EA020001F0004110EBD370CE
:10693C0041F100015EEA430E08BF20EAD37070BD3E
:10694C00C4F1200500FA05F24EEA020E20FA04F317
:10695C0001FA05F243EA020321FA04F001F00041C6
:10696C0021FA04F220EA020000EBD3705EEA430E37
:10697C0008BF20EAD37070BD94F0000F0FD101F066
:10698C000046400041EB010111F4801F08BF013C9F
:10699C00F7D041EA060195F0000F18BF704703F0DD
:1069AC000046520043EB030313F4801F08BF013D64
:1069BC00F7D043EA0603704794EA0C0F0CEA135520
:1069CC0018BF95EA0C0F0CD050EA410618BF52EADA
:1069DC004306D1D181EA030101F000414FF00000E0
:1069EC0070BD50EA410606BF1046194652EA4306EE
:1069FC0019D094EA0C0F02D150EA013613D195EA62
:106A0C000C0F05D152EA03361CBF104619460AD1A9
:106A1C0081EA030101F0004141F0FE4141F47001B3
:106A2C004FF0000070BD41F0FE4141F4780170BDA3
:106A3C0070B54FF0FF0C4CF4E06C1CEA11541DBF08
:106A4C001CEA135594EA0C0F95EA0C0F00F0A7F80A
:106A5C00A4EB050481EA030E52EA03354FEA013137
:106A6C0000F088804FEA03334FF0805545EA13134A
:106A7C0043EA12634FEA022245EA111545EA106512
:106A8C004FEA00260EF000419D4208BF964244F1A9
:106A9C00FD0404F5407402D25B084FEA3202B61AC8
:106AAC0065EB03055B084FEA32024FF480104FF49C
:106ABC00002CB6EB020E75EB030E22BFB61A754610
:106ACC0040EA0C005B084FEA3202B6EB020E75EBA3
:106ADC00030E22BFB61A754640EA5C005B084FEA0B
:106AEC003202B6EB020E75EB030E22BFB61A7546D8
:106AFC0040EA9C005B084FEA3202B6EB020E75EBE3
:106B0C00030E22BFB61A754640EADC0055EA060EA3
:106B1C0018D04FEA051545EA16754FEA06164FEAE6
:106B2C00C30343EA52734FEAC2025FEA1C1CC0D192
:106B3C0011F4801F0BD141EA00014FF000004FF01F
:106B4C00004CB6E711F4801F04BF01430020B4F1E0
:106B5C00FD0C88BFBCF5E06F3FF6AFAEB5EB030C98
:106B6C0004BFB6EB020C5FEA500C50F1000041EB95
:106B7C00045170BD0EF0004E4EEA113114EB5C0462
:106B8C00C2BFD4EB0C0541EA045170BD41F4801135
:106B9C004FF0000E013C90E645EA060E8DE60CEA3D
:106BAC00135594EA0C0F08BF95EA0C0F3FF43BAF5A
:106BBC0094EA0C0F0AD150EA01347FF434AF95EA11
:106BCC000C0F7FF425AF104619462CE795EA0C0FF5
:106BDC0006D152EA03353FF4FDAE1046194622E7C2
:106BEC0050EA410618BF52EA43067FF4C5AE50EA9C
:106BFC0041047FF40DAF52EA43057FF4EBAE12E78C
:106C0C004FEA4102B2F1E04324BFB3F5001CDCF1C2
:106C1C00FE5C0DD901F0004C4FEAC0024CEA5070FA
:106C2C00B2F1004F40EB830008BF20F00100704729
:106C3C0011F0804F21D113F13872BCBF01F000402C
:106C4C00704741F480114FEA5252C2F11802C2F15E
:106C5C00200C10FA0CF320FA02F018BF40F00100DF
:106C6C004FEAC1234FEAD32303FA0CFC40EA0C0091
:106C7C0023FA02F34FEA4303CCE77FEA625307D1CE
:106C8C0050EA01331EBF4FF0FE4040F44000704705
:106C9C0001F0004040F0FE4040F40000704700BF9F
:106CAC00002301461A46184600F086B8002910B594
:106CBC0091FBF2F402FB141306DB002B01DA013416
:106CCC009B1AC0E9004310BD002BC4BF04F1FF3474
:106CDC009B18F6E70A44914200F1FF3300D170474C
:106CEC0010B511F8014B03F8014F9142F9D110BDC9
:106CFC0002440346934200D1704703F8011BF9E7A5
:106D0C0038B5104B1D68AB6B0446B3B91820FEF7B1
:106D1C00A7F90246A86320B90B4B0C484221FEF799
:106D2C00C7F90B490B4BC0E900130B4B83600B23CA
:106D3C00838100210120C2E90401AB6B00221C619C
:106D4C005A6138BD00E1032049710B0060710B00E2
:106D5C000E33CDAB34126DE6ECDE0500034611F8B4
:106D6C00012B03F8012B002AF9D17047024B014685
:106D7C00186800F003B800BF00E1032037B50446E3
:106D8C0008460D4600F00FF8421C114620460192B1
:106D9C00FEF786F9044618B1019A2946FFF79AFFC7
:106DAC00204603B030BD034613F8012B002AFBD15B
:106DBC00181A0138704700002DE9F843DFF8B88045
:106DCC000646D8F800001F460D46914600F056F8CE
:106DDC00254B1C6834B9254C1C60254B13B11B6822
:106DEC00C4F8883063681F2B07DDD8F8000000F06A
:106DFC0047F84FF0FF30BDE8F8834EB3D4F8880065
:106E0C0088B91C4B23B9D8F8000000F038F8F0E72B
:106E1C004FF48470FEF724F90028F4D00023C0E965
:106E2C004033C4F88800636840F8239001229A40EC
:106E3C0000EB8301D0F800311343C0F80031022E6F
:106E4C00C1F8807002BFD0F804311343C0F804318C
:106E5C006368D8F800005A1C0233626044F823506F
:106E6C0000F00EF80020C6E7E8E703205CE70320FB
:106E7C00000000006D500B0064E103207047704768
:106E8C00704700001D400B0059400B0081400B0067
:106E9C0085400B0000000000536574757020666916
:106EAC006E69736865642100456E746572696E67FE
:106EBC00206D656173756D72656E74206C6F6F708B
:106ECC0000656E746572696E67207072696E7420ED
:106EDC007374617465007B202262656174223A20B0
:106EEC0022002C20226F78223A20007D005265610E
:106EFC0064696E67005F5F5F6060606161616161C2
:106F0C006262626262636363636363636364646447
:106F1C006464646464646464646464646464646425
:106F2C00646363636363636363626262626262612C
:106F3C00616161606060605F5F5F5E5E5E5D5D5D54
:106F4C005C5C5C5B5B5A5A595959585857575656A2
:106F5C0055555454535252515150504F4E4E4D4C16
:106F6C004C4B4A4A494848474645454443424241AE
:106F7C00403F3E3E3D3C3B3A39383837363534336A
:106F8C003231302F2E2D2C2B2A292827262524234D
:106F9C0022211F1E1D1C1B1A191716151413111054
:106FAC000F0E0C0B0A090706050302010000000076
:106FBC0000000000000000004B510B0041510B0081
:106FCC0037510B002D510B0021510B0015510B00AB
:106FDC0041620B0049620B0009510B0001510B007F
:106FEC00F7500B00ED500B0079620B0061707000D4
:106FFC0025592D256D2D25645425483A254D3A25C6
:10700C0053257A0061736374696D6500000000009C
:10701C000000000081580B0087580B00C5580B006E
:10702C0095580B0083580B00000000000000000076
:10703C00C15D0B00B15D0B00B35D0B0000000000E7
:10704C0000000000A75E0B000F5F0B00E55E0B005D
:10705C00FD540B00D75E0B00A95E0B00B95E0B0054
:10706C00095F0B00C95E0B00A15E0B000000000065
:10707C0000000000A95F0B0015600B00ED5F0B001A
:10708C00FD540B00BD5F0B00D95F0B00CB5F0B00F9
:10709C00E75F0B00AB5F0B00AF5F0B000000000065
:1070AC000000000075600B00BF600B0097600B00C8
:1070BC0077600B009F600B00A7600B00AF600B00AC
:1070CC00B7600B000000000000000000E1610B0045
:1070DC00D7610B00CD610B0083610B00C1610B000C
:1070EC00B5610B0041620B0049620B00A9610B00FA
:1070FC00A1610B0097610B008D610B0079620B0095
:10710C00000000000000000001620B000B620B008D
:10711C0015620B001F620B0029620B0035620B001D
:10712C0041620B0049620B0051620B005D620B0067
:10713C0065620B006F620B0079620B0000524545D3
:10714C004E54206D616C6C6F632073756363656561
:10715C00646564002F6D6E742F776F726B73706142
:10716C0063652F776F726B73706163652F47434351
:10717C002D31302D706970656C696E652F6A656E86
:10718C006B696E732D4743432D31302D70697065DB
:10719C006C696E652D34385F3230323031313234B7
:1071AC005F313630363138303634312F7372632FCD
:1071BC006E65776C69622F6E65776C69622F6C698E
:1071CC0062632F7374646C69622F72616E642E63D8
:1071DC000000000055430B0055510B0069510B008A
:1071EC00ED540B00BD550B00DD560B003D570B004D
:1071FC00ED610B0051630B0000000000000000006B
:04720C00000000007E
:10721000040000001400000003000000474E550069
:107220002B9AB3FDA76AD140D20A0038E0B2356C80
:047230003C1C8F6D06
:047234000000000056
:1072380040771B000200000010700B0004E10320DF
:107248000000000000000000000000000000000036
:107258000000000000000000000000000000000026
:107268000000000000000000000000000000000016
:107278000000000000000000000000000000000006
:1072880000000000000000000000000000000000F6
:1072980000000000000000000000000000000000E6
:0472A800ECE70320EC
:1072AC00FFFFFFFF00000102030405060708090A9F
:1072BC000B0C0D0E0F101112131415161718191A9A
:0872CC001B1C1D1E1F202800E1
:0472D40078563412A2
:04000003B000401CED
:00000001FF
