:02000002B0004C
:1040000000400B003CA50B00000006000C00050260
:084010000401A50F00000000EF
:044018000C990B00F4
:1040200009480A49884208B505D0094A824202D0A7
:10403000121A03F0B0FC0748074A0021121A03F0D5
:10404000B8FC014808BD00BF74DD032028A30B00A5
:1040500060DF032060DF0320EDE7032070B5074E2B
:10406000074C02F0D5F8A41BA4080025AC4200D1EF
:1040700070BD56F8043B98470135F7E7DCA20B000A
:1040800000A30B0000F0FCB808B500F093F9BDE800
:10409000084002F075B801F0F1BA01F0EFBA01F092
:1040A000F5BA0078B0FA80F0400970470123037038
:1040B0007047704707B5019102F04AFC019903B0BF
:1040C0005DF804EB01F081BD10B5054B00220446FC
:1040D000114640F8043B01F0EBF9204610BD00BF4B
:1040E000FC9B0B0010B50446FFF7EEFF2046202195
:1040F000FFF7D5FF204610BD10B504460022407CD6
:1041000001F010FA637C0F2B18BF208310BDF0B5AF
:10411000441CE5B252FA84F22C1B23441E462C4662
:104120008C4206D212F8017B03F8017B0134E4B221
:10413000F6E74B1E181AC0B28D4288BF002000233C
:104140003354F0BD2DE9F74F0C4602F001FC214637
:1041500001F03BFD002C7DD00027404EDFF8109190
:10416000BA463D464FF00008F9B2635C002B71D0AF
:104170003A2B6DD02C2B4CD165BB33462246504692
:10418000FFF7C5FF304603F0EFFB354BDFF8E4B037
:1041900051EC100B002203F021F84B46424603F08D
:1041A0001DF803F0CBFACBF8000002F0D1FB2D494B
:1041B00001F0F8FC02F0CCFBDBF8001001900A22C1
:1041C00001F00DFD019B184601F0F3FC0135EDB245
:1041D0000137C9E7012DF9D1334622465046FFF792
:1041E00096FF304603F0C0FB51EC100B03F0EEFAE3
:1041F000DFF884B0CBF8000002F0AAFB1A4901F006
:10420000D1FC02F0A5FB9BED000A022101F0D9FDD3
:10421000DCE77D2BDCD1334622465046FFF777FFA3
:10422000304603F0A1FB51EC100B03F0CFFADFF89E
:104230004CB0CBF8000002F08BFB0C4901F0B2FC53
:1042400002F086FB9BED000A022101F0BAFDBFE7F8
:104250008A46BDE703B0BDE8F08F00BF9CDF0320B6
:1042600000004E4020990B0038990B0051990B002B
:1042700000408F407CDD032074DD032078DD0320C7
:104280001FB502F065FB4FF4165102F055FB02F02A
:104290005FFB244901F099FC234800F0BBFC40F28D
:1042A0009B134FF48052CDE90132642304223C2158
:1042B0001D480093022300F067FD002402F048FB34
:1042C0001A4901F082FC23462246CDE900441849F0
:1042D000184801F0BBF92246234617491748CDE993
:1042E0000044174C01F0B2F9B9EE0C0A01F0C4FD1C
:1042F0004FF47F430A2120466361FFF7FDFE637C94
:104300000F2B1CBF03236374A27C12F0010203D1A4
:104310000C48012101F0CCF8A37C03F0FD03A37449
:1043200004B010BD68990B006CE0032081990B006C
:1043300045410B0091990B00B5400B00A6990B006D
:1043400064DF032068DF032038B5046805467CB1CC
:104350006368013B63605BB9236820469B689847AC
:10436000A368013BA3601BB923682046DB6898471C
:10437000284638BD38B50468002001F0BBF820B1EC
:10438000637813B901F04AF9FAE76378BFF35B8FFA
:10439000651C0BB9002038BD002001F0ABF820B13E
:1043A0002B7813B901F03AF9FAE72378012BF1D110
:1043B000207BF0E72DE9F04F2DED028B6B4E33782B
:1043C0009DB0002B65D16A4B6A4A1B786A498DF80B
:1043D000003018A83C2302F079F819A8FFF7B4FFC1
:1043E00001F080FE08EE100A01F088FE07EE900A48
:1043F000F8EEE77A17EE900A02F098FE5F4B002283
:1044000003F016F8F8EEC87A044617EE900A0D4647
:1044100002F08CFE0B4602462946204602F028FD9B
:1044200003F0D4F907EE900AF5EEC07AF1EE10FA37
:1044300044BFB3EE087A77EE877A514C514BC4ED06
:10444000007AD4ED007A93ED007AF4EEC77AF1EEBB
:1044500010FA68DD4C4B93ED007AF4EEC77AF1EE7A
:1044600010FA60D5494C00F03BFF2368C01A484B56
:104470001B68984253D30123337000F031FF206052
:1044800002F066FA434901F0A0FB4FF4FA6001F034
:104490004BFE3378012B53D102F05AFA3E4C3F4980
:1044A00001F093FBFF236361637C3B480F2B18BF34
:1044B00002234FF01E0118BF6374FFF71DFEA27C9C
:1044C00012F0010203D13648012100F0F1FFA37C74
:1044D00003F0FD03A37402F03BFA324901F075FBCF
:1044E00002233370DFF8D8802F4CDFF8CCA0DFF840
:1044F000CC906423C8F8003002F02AFA2B4901F06E
:1045000064FB0025D8F80010EFB28F425ADA20463B
:1045100000F04CFAD0B9204600F090FAF7E702F02C
:1045200017FA2349AFE702F013FA224901F03AFBE8
:1045300002F00EFA94ED000A022101F042FCA4E719
:10454000022BCFD0032B40F03C8159E0204600F0F5
:1045500039FB2AF81700204600F042FB29F8170023
:10456000204600F02DFA0135CCE700BF44E10320DE
:1045700061DF0320BC990B009F990B0000004E40A7
:1045800088DF032074DD032078DD032074E003203E
:104590007CDD0320C7990B0064DF03208C9A0B009D
:1045A00068DF0320BF9A0B006CE00320DA9A0B004F
:1045B000F8990B00379A0B0078E00320A4DF032062
:1045C00084DF0320BD4FBE4B0293BE4CBE4B009315
:1045D000BE4ABF4801943B4600F034FD3B68333B84
:1045E000312B00F2D78023681F3BB3F5867F00F2A2
:1045F000D18002F0ADF9B74901F0E7FA0323337037
:10460000B549B64F08A801F0E4F908A910A801F0CF
:1046100003FAAC4B0A2219680CA801F02DFA0CA978
:1046200010A801F053FAAE4901F05CFAAD4901F06F
:1046300059FAA24B0A221968044614A801F01CFA80
:1046400014A9204601F042FAA54901F04BFAA64907
:1046500001F048FA044601F034FDA44BA4491B685C
:1046600000930246C31718A801F0CCFC18A92046F5
:1046700001F02CFA9F49A04C01F034FA014604A83D
:1046800001F0CAF918A801F059F914A801F056F977
:104690000CA801F053F910A801F050F908A801F096
:1046A0004DF904A918A801F0B7F9944B189A1B7892
:1046B00093498DF8003014A83C2301F007FF14A89B
:1046C000FFF758FE054615A8FFF73EFE18A801F0B3
:1046D00035F902F03DF9049901F077FA002D00F068
:1046E000B580002333701E214FF47F432046636161
:1046F000FFF702FD637CDFF83092DFF830A2DFF8CD
:1047000030B20F2B18BF02234FF4FA6018BF637446
:1047100001F00AFD4FF47F430A2177486361FFF7F8
:10472000EBFC637C0F2B1CBF0323637402F010F9B6
:1047300074496A4C01F049FA97F8E06104F5C078D1
:1047400007EB0616B44274D000F0CAFD58F8043BDB
:10475000C01A484569D8DDB19BF800308DF80030AB
:10476000226867493C2318A801F0B0FE18A8FFF79B
:1047700001FE054619A8FFF7E7FD4DB102F0E8F884
:10478000614901F00FFA02F0E3F8216801F01DFA27
:104790001034D7E700F0A4FD5C4B1B68C01A5C4BDB
:1047A000984213D9544C4FF47F430A212046636149
:1047B000FFF7A2FC637C0F2B1CBF03236374002351
:1047C00033701DB0BDEC028BBDE8F08F02F0C0F875
:1047D000504901F0E7F902F0BBF82468002C0546C7
:1047E0001FDA2D2101F0E2F961420A22284601F088
:1047F000F6F902F0ADF8484901F0D4F902F0A8F852
:104800003C68002C05460EDA2D2101F0CFF96142FB
:104810000A22284601F0E3F9284601F0CAF90223EA
:10482000CEE72146E1E72146F2E702F091F8514652
:10483000ACE73DB1002387F8E03102F089F8374951
:1048400001F0C3F904A801F079F8BAE702F080F8A2
:10485000334901F0BAF997F8E00104A907EB001019
:1048600001F0CBF897F8E08100F03AFD97F8E031DD
:10487000357008F1600801331E2147F8280087F8D9
:10488000E0312046274B6361FFF736FC637C0F2B3A
:1048900018BF02234FF4FA6018BF637401F044FCA0
:1048A0004FF47F43144863610A21FFF725FC637CC2
:1048B0000F2B1CBF03236374C4E700BF40E1032038
:1048C0002CE30320A0DF03202DE3032078E0032066
:1048D000A4DF0320F49A0B003B9B0B0048E103206C
:1048E0005B9B0B00479B0B00519B0B0084DD03205F
:1048F000A4E603205D9B0B0064DF032061DF03203F
:10490000B4990B00609B0B00789B0B0074E00320B4
:10491000C0270900159B0B00339B0B00B29B0B00BB
:10492000CF9B0B0000FFFF00FF5B26058C9B0B005D
:1049300060DF0320154B73B500241C70144B154821
:10494000154D164E01221A7000F02EF80A22144856
:10495000114601F07EF828193146103401F039F87B
:10496000B4F5C07FF7D100221E21022085F8E02196
:1049700000F0D8FD1E220121CDE9002103460222CC
:10498000FF21084800F016FF02B070BD60DF032071
:1049900061DF03206CE0032048E10320889E0B00C8
:1049A0008CDF032064DF032070470000034B93F883
:1049B000300093F83130C01AC0B2704730E30320A2
:1049C000064A92F8313092F8301099421EBF0133F6
:1049D00003F0030382F83130704700BF30E3032057
:1049E00038B50C46154602F013FA214602F0B8F825
:1049F00002F00EFA036829469B68984702F008FA0D
:104A000002F0B6F802F004FA0122214602F0A5F8FD
:104A100002F0FEF903681B69984728B102F0F8F923
:104A200003685B699847C0B238BD04225721FFF77D
:104A3000D7BF06225721FFF7D3BF00002DE9F74368
:104A40000746FFF7F6FF04463846FFF7EEFF8442BD
:104A500000F09B80041B48BF20347E79DFF834814E
:104A600002F0D6F9572102F07BF802F0D1F9036881
:104A700007219B68984702F0CBF902F079F866436A
:104A800006EB4606002E40F38180202EC3BF7D79C1
:104A900005EB450320253546C4BFB5FBF3F55D4363
:104AA00002F0B6F92A46572102F057F8761B4FF06C
:104AB0000009002DE6DD98F830308DF807900133BD
:104AC00003F0030388F8303002F0A2F903685B6951
:104AD00098478DF8060002F09BF903685B699847D8
:104AE0008DF8050002F094F903685B6998478DF82A
:104AF0000400019B98F83020C3F3110348F82230DA
:104B00007B79012B1CD902F083F903685B69984714
:104B10008DF8060002F07CF903685B6998478DF810
:104B2000050002F075F903685B69984798F8303022
:104B30008DF80400019A0433C2F3110248F82320CF
:104B40007B79022B1CD902F063F903685B699847F3
:104B50008DF8060002F05CF903685B6998478DF8F0
:104B6000050002F055F903685B69984798F8303002
:104B70008DF80400019A0833C2F3110248F823208B
:104B80007B79A3EB83031D4493E70024A0B203B019
:104B9000BDE8F08330E3032070B505460E4600F013
:104BA0009FFB044600F09CFB001BB04208D828463F
:104BB000FFF744FF012804D0012001F0B5FAF1E726
:104BC000002070BD08B5FA21FFF7E6FF20B1034BC6
:104BD00093F8302053F8220008BD00BF30E30320D3
:104BE00008B5FA21FFF7D8FF28B1034A92F8303010
:104BF000043352F8230008BD30E30320FF2257217D
:104C0000FFF7EEBE10B5FE2257210446FFF7E8FE7F
:104C1000A07110BD10B5044602F0FAF801F06EFF65
:104C20002046FFF7EBFF2046FFF7ECFF012010BD09
:104C300037B515461C46019102F0EAF8019901F0DA
:104C40008FFF02F0E5F8036829469B68984702F059
:104C5000DFF8036821469B68984702F0D9F803B053
:104C6000BDE8304001F084BF0B460C225721FFF70E
:104C7000DFBF0B460D225721FFF7DABF0B460E228E
:104C80005721FFF7D5BF0B4610225721FFF7D0BFA2
:104C900010B50023044604225721FFF7C9FF204620
:104CA000002305225721FFF7C3FF20460023BDE85C
:104CB000104006225721FFF7BBBF2DE9F0410C46FB
:104CC00017460A46572105461E46FFF789FE38401B
:104CD00046EA0003224628465721BDE8F041FFF787
:104CE000A7BF38B5BF22402309210546FFF7E5FFDE
:104CF00000F0F6FA044600F0F3FA001B63280AD825
:104D0000092257212846FFF76BFE430603D50120F1
:104D100001F00AFAEFE738BD0B46F8220921FFF748
:104D2000CCBF0B469F220A21FFF7C7BF0B46E322E9
:104D30000A21FFF7C2BF0B46FC220A21FFF7BDBFC5
:104D400001391346032914D8DFE801F002060B0EDF
:104D5000F8221121FFF7B1BF1B0103F0F0038F22EE
:104D6000F7E7F8221221F5E71B0103F0F0038F2289
:104D7000F8E770470B461F220821FFF79EBF10235C
:104D8000EF220821FFF799BF2DE9F0471546DDE92D
:104D90000879DDF828A0044688461E46FFF7A1FFE3
:104DA000012D49D100212046FFF7E4FF2046FFF7FF
:104DB000E6FF032E54D107212046FFF7ADFFBAF5D9
:104DC000805F667151DA00212046FFF7AAFF632F4A
:104DD00058DC00212046FFF7A9FFB9F1750F71DCFF
:104DE00000212046FFF7A7FF41462046FFF73CFF82
:104DF00041462046FFF73DFF41462046FFF73EFF74
:104E000041462046FFF73FFF012211462046FFF7AB
:104E100097FF012E0BD9022211462046FFF790FF83
:104E2000022E04D0032211462046FFF789FF2046B8
:104E3000BDE8F047FFF72CBF022D01D12021B2E7DA
:104E4000042D01D14021AEE7082D01D16021AAE750
:104E5000102D01D18021A6E7202DF3D1A021A2E7BA
:104E6000022E0CBF03210221A6E7BAF5005F01DA8A
:104E70002021A9E7BAF5804F01DA4021A4E7A2D1A9
:104E80006021A1E7C72F01DC0421A3E7B7F5C87FA4
:104E900001DA08219EE7B7F5487F01DA0C2199E78E
:104EA000B7F57A7F01DA102194E7B7F5C86F01DA18
:104EB00014218FE7B7F5486F01DA18218AE788D106
:104EC0001C2187E7B9F1D60F01DC012189E7B9F58B
:104ED000CD7F01DC022184E740F29B1399457FF4EA
:104EE0007FAF03217DE72DE9F04100240C6003F141
:104EF000FF380124A04527DD069D52F824C0AC45AB
:104F00004FEA840604F101051CDD164456F8046CD2
:104F1000B44517DD2E469E4252F82670A6EB040ECD
:104F2000354603D0BC4506F10106F4D0BC4509DD89
:104F30000E680E2E06DC751C0D600EF1010540F8A2
:104F4000264025442C46D5E7BDE8F081F0B5012385
:104F500004468B420FDA54F8046F1A46254655F87A
:104F6000047CB74203DD013A45F80479F7D140F8F3
:104F700022600133EDE7F0BD2DE9F04301239046B7
:104F80000D46434516DA55F8046F1C4600EB8609BA
:104F9000AC46D9F800205CF8047C964650F82720EF
:104FA000964503DD013C4CF80479F2D141F82460C8
:104FB0000133E6E7BDE8F0832DE9F04104461F46E2
:104FC00010460D460A682146FFF7D6FF4FF0FF3224
:104FD000C7F1000E296891421DDD531C1E462B604F
:104FE000B14216D0501C18BF54F8220054F826C005
:104FF00008BF1046ACEB0000B84201DC864506DD78
:10500000286800F10108C5F8008044F820C0013686
:10501000E6E71A46DEE72046BDE8F041FFF796BF17
:1050200037B5069D0095FFF75EFF0C46079BFFF71F
:10503000C3FF2268089B9A42D4BF2260236003B05A
:1050400030BD00002DE9F04F9DB0DDE927981646F0
:1050500000229B4605460C461346A24204DA35F868
:10506000121001320B44F8E78D4FB3FBF4F33846CE
:105070000022A24206DA35F81210591A40F8041B31
:105080000132F6E7864A0021136852F8040F034400
:105090005068034490681B1848BF033301319B10CC
:1050A000602942F8043CEFD100237D4A9A4652F829
:1050B000041B0AF1010ABAF1640F0B44F7D140F660
:1050C000B73293424FDD93FBFAFABAF13C0FA8BF17
:1050D0004FF03C0A3C2200210DA802F06AFC042398
:1050E0000F22CDE90132CDF800A06D4A642307A953
:1050F0000DA8FFF795FF079B012B4FF0000235DD50
:105100000DA94FF0010C0846D1F804E000680CF13D
:10511000010CAEEB0000634501F104010244F2D141
:10512000591E92FBF1F240F2DC5191FBF2F2C9F808
:10513000002001225B4988F800200022A24219DBEE
:105140000022CDE90822CDE90A220DAE0C923146AB
:1051500093421BDD51F8040B642815DD524BCBF84C
:105160000030002392E04FF01E0AB3E74E49C9F821
:105170000010DFE735F8120047F8040B36F812008C
:1051800041F8040B0132D9E70132E1E70024013B89
:10519000434FDFF810C10494254621460593DDE90D
:1051A0000423934256DDD6F8048056F8040B1346C8
:1051B000A8EB00090133B9F1030F0493EFDD4FF0C1
:1051C0007F4E0346F24698450EDD57F82320724580
:1051D000C8BF96465CF82320C8BF1C465245C4BFD2
:1051E0001D4692460133EEE757F8202057F8283045
:1051F0009B1A221A534357F8202093FBF9F31344C8
:1052000057F82520D21A0AFB02F24FEAE21ABAF145
:10521000000FC4DD0429C2DC5CF820305CF82820D3
:10522000281AD21A504390FBF9F018445CF8253044
:105230001B1A0EFB03FE5FEAEE1EB0D01CAB03EBA5
:105240008108642303FB0EF2013192FBFAF248F865
:10525000502CA4E708A8FFF779FE4A1003294FEA6B
:10526000820318DD1CA901EB820151F8543C51F86E
:10527000502C134403EBD3735B10DA1EB42A3FF6B1
:105280006DAF0A4AD35CCBF800300123269A137025
:105290001DB0BDE8F08F1CAA134453F8503CECE756
:1052A00064E30320F4E4032019FCFFFF089C0B00D7
:1052B00008B5024B1B689B68019308BD6802030098
:1052C00008B5024B1B68DB68019308BD6802030048
:1052D00008B5024B1B685B68019308BD1802030008
:1052E00008B5024B1B685B69019308BD18020300F7
:1052F00008B5024B1B689B6D019308BD18020300A3
:1053000008B5024B1B685B6E019308BD18020300D1
:1053100008B5024B1B685B6C019308BD4802030093
:1053200008B5024B1B685B69019308BD640203006A
:1053300008B5024B1B68DB68019308BD3C02030003
:1053400008B5024B1B681B69019308BD3C020300B2
:1053500008B5024B1B685B69019308BD3C02030062
:1053600008B5024B1B689B69019308BD3C02030012
:1053700008B5024B1B68DB69019308BD3C020300C2
:1053800008B5024B1B689B6A019308BD3C020300F1
:1053900008B5024B1B681B6C019308BD3C0203005F
:1053A00008B5024B1B68DB68019308BD28020300A7
:1053B00008B5024B1B689B69019308BD28020300D6
:1053C00008B5024B1B68DB69019308BD2802030086
:1053D00008B5024B1B681B6A019308BD2802030035
:1053E00008B5024B1B685B6A019308BD28020300E5
:1053F00008B5024B1B689B6A019308BD2802030095
:1054000008B5024B1B68DB6A019308BD2802030044
:1054100008B5024B1B681B6B019308BD28020300F3
:1054200008B5024B1B681B6C019308BD28020300E2
:1054300008B5024B1B681B6D019308BD28020300D1
:1054400008B5024B1B681B68019308BD4C020300A2
:1054500008B5024B1B685B68019308BD4C02030052
:1054600008B5024B1B681B69019308BD4C02030081
:1054700008B5024B1B685B69019308BD4C02030031
:1054800008B5024B1B689B69019308BD4C020300E1
:1054900008B5024B1B68DB69019308BD4C02030091
:1054A00008B5024B1B681B6A019308BD4C02030040
:1054B00008B5034B1B68D3F88030019308BD00008A
:1054C0006002030008B5024B1B681B68019308BD0E
:1054D0002002030008B5024B1B685B68019308BDFE
:1054E0002002030008B5024B1B685B69019308BDED
:1054F0002002030008B5024B1B68DB6C019308BD5A
:105500002002030008B5024B1B685B6D019308BDC8
:105510002002030008B5024B1B689B6D019308BD78
:105520002002030008B5024B1B68DB6F019308BD26
:105530002002030008B5034B1B68D3F888300193A1
:1055400008BD00002002030008B5034B1B68D3F818
:105550009430019308BD00002002030008B5024BFF
:105560001B685B68019308BD4002030008B5024B4D
:105570001B689B68019308BD4002030008B5024BFD
:105580001B68DB68019308BD4002030008B5024BAD
:105590001B681B69019308BD4002030008B5024B5C
:1055A0001B685B69019308BD4002030008B5024B0C
:1055B0001B689B69019308BD4002030008B5024BBC
:1055C0001B68DB69019308BD4002030008B5024B6C
:1055D0001B681B6A019308BD4002030008B5024B1B
:1055E0001B681B6B019308BD4002030008B5024B0A
:1055F0001B685B6B019308BD4002030008B5024BBA
:105600001B681B6C019308BD4002030008B5024BE8
:105610001B685B6C019308BD4002030008B5024B98
:105620001B689B68019308BD4402030008B5024B48
:105630001B685B69019308BD4402030008B5024B77
:105640001B681B6A019308BD4402030008B5024BA6
:105650001B685B6A019308BD4402030008B5024B56
:105660001B681B6B019308BD4402030008B5024B85
:105670001B68DB6B019308BD4402030008B5024BB5
:105680001B681B68019308BD1C02030008B5024B90
:105690001B685B68019308BD1C02030008B5024B40
:1056A0001B689B68019308BD1C02030008B5024BF0
:1056B0001B681B69019308BD1C02030008B5024B5F
:1056C0001B68DB69019308BD1C02030008B5024B8F
:1056D0001B68DB6A019308BD1C02030008B5024B7E
:1056E0001B681B6B019308BD1C02030008B5024B2D
:1056F0001B681B6C019308BD1C02030008B5024B1C
:105700001B685B6C019308BD1C02030008B5024BCB
:105710001B689B6C019308BD1C02030008B5024B7B
:105720001B68DB6C019308BD1C020300002240686B
:105730001146FFF74BBF002240681146FFF756BFE6
:1057400040680022FFF74ABF4068002281F0010153
:10575000FFF734BF002340681A461946FFF726BFFB
:10576000002340681A461946FFF718BF0022406818
:105770001146FFF70BBF002240681146FFF7F6BE47
:10578000406800220221FFF7F9BE002340681A4654
:10579000FFF7E4BE024B03225A60024A1A607047C8
:1057A00084E60320C89C0B000A680B4692680146F9
:1057B0001846104770B50E4C046000251C24C0E943
:1057C00001459DF814409DF81060C56004F0030485
:1057D00044EA8604E4B20474427485744161427CF4
:1057E0000F2A0ABF034B0383C0E9063070BD00BF18
:1057F000FC9B0B00A9570B00054B02221A60054BBE
:10580000054A9A600020C3E90000FFF763BE00BFAD
:1058100098E603208CE603200000FFFF10B5044645
:1058200002F02DF9013823182046834206D9027868
:10583000197800F8011B03F80129F6E710BD2DE9DE
:10584000F041931E8CB0222B4FF000030D461446FE
:105850008DF82C3027D900282ADA2E462D2306F879
:10586000013B40420A240DF12B074FF0010822466C
:10587000014601A802F07BF8029B0198092BCCBFDE
:105880003722302252FA83F307F8013908F1010870
:105890000028ECD14246791C304602F07CF82846BC
:1058A0000CB0BDE8F0810A2AD5D018B12E46DAE74F
:1058B0000A24FAE730238DF82B302E460DF12A0703
:1058C0004FF00208E6E770B50C46911E22291DD85C
:1058D000254630B9234430229D4210D205F8012BD1
:1058E000FAE7B0FBF2F602FB1600C1B2092894BF3A
:1058F00030315731C9B205F8011B3046E9E70023C2
:1059000020462B70FFF78AFF204670BD0020FCE781
:1059100038B5031E0C4615460EDAB3F1004F4FF0B2
:105920002D0214BF5842184601230A702A46194412
:10593000FFF7C9FF204638BD0123F9E710B504463B
:105940000068FFF7A3FE204610BD10B504460068AE
:1059500008B1FFF79BFE0023C4E90133236010BDAB
:1059600038B504460D4600680131FFF797FE10B1C7
:10597000C4E90005012038BD10B50368044623B111
:1059800043688B4201D3012010BD2046FFF7E8FF9A
:105990000028F9D0A368002BF5D122681370F2E734
:1059A00037B50D46114601920446FFF7E5FF019A0F
:1059B00028B92046FFF7C9FF204603B030BDA260DA
:1059C0002946206801F0E7FF2268A3680021D1542E
:1059D000F2E7002313B5C0E9003304468360037384
:1059E00041B10846019102F04AF801990246204669
:1059F000FFF7D6FF204602B010BD884210B504461E
:105A000005D00B682BB18A681946FFF7C9FF2046FD
:105A100010BDFFF79AFFFAE710B500230446C0E96E
:105A2000003383600373FFF7E8FF204610BD13B512
:105A3000044659B10846019102F021F80199024645
:105A40002046FFF7ADFF204602B010BDFFF77DFFF7
:105A5000F9E710B504468AB00023C4E90033A36017
:105A60002373084601A9FFF753FF01A92046FFF75A
:105A7000DEFF20460AB010BD10B504468AB00023F0
:105A8000C4E90033A3602373084601A9FFF7D7FEDA
:105A900001A92046FFF7CBFF20460AB010BD70B524
:105AA00005460E4609B9002070BD6AB184681444E9
:105AB0002146FFF761FF0028F5D02868AB68314622
:105AC000184401F0B7FFAC600120EDE710B58A681B
:105AD00009680446FFF7E3FF10B92046FFF735FFDA
:105AE000204610BD13B5044629B92046FFF72DFF07
:105AF000204602B010BD0846019101F0C0FF019997
:105B000002462046FFF7CBFF0028EED0F0E710B5A5
:105B10008368044613B1032201469847204610BD0E
:105B200013B50B460246D0E900016C4684E8030039
:105B300093E8030082E8030094E8030083E803008D
:105B400002B010BD024800230360FFF7E1BB00BFB5
:105B50009CE60320F8B506460D468F180024BD428A
:105B60000CD0336815F8011B9B6830469847031E1C
:105B700001DB1C44F3E7002C08BF1C462046F8BD9F
:105B800013B50446084659B1019101F078FF236826
:105B90000199DB680246204602B0BDE81040184774
:105BA00002B010BD08B5FFF7EBFF08BD03689B68A6
:105BB000184738B50D210546FFF7F8FF0A210446BE
:105BC0002846FFF7F3FF204438BD38B50546FFF7F8
:105BD000D7FF04462846FFF7ECFF204438BD30B518
:105BE0008BB00023012A8DF8243098BF0A2209AC1B
:105BF0000D46B1FBF2F101FB125303F0FF03092B39
:105C000094BF30333733DBB2AA4204F8013DEFD9F9
:105C10002146FFF7B5FF0BB030BD00002DE9F74F6F
:105C200055EC104B06460F4610EE102A10EE100AE7
:105C30002B46294601F06CFD40B153493046FFF731
:105C40009FFF8246504603B0BDE8F08F25F0004923
:105C50004E4B4FF0FF322046494601F059FD48B9FE
:105C60004A4B4FF0FF322046494601F033FD08B958
:105C70004749E3E7474B4FF060422046294601F091
:105C80003DFD08B14449D9E7444B4FF060422046FE
:105C9000294601F015FD0028F4D1002200232046FA
:105CA000294601F00DFDD0B12D213046FFF77EFFD2
:105CB00005F1004382461D463949DFF8EC904FF06C
:105CC000000B00204FF000085FFA8BF39F4208D9C9
:105CD00042464B4601F0ACFB0BF1010BF4E7824668
:105CE000EAE722462B4601F0C3F80D46044601F0D0
:105CF0004DFD804601F0F8F902460B462046294644
:105D000001F0B4F80A2204460D4630464146FFF73A
:105D100066FF8244002F95D02249DFF88C903046F0
:105D2000FFF72EFF4FF000088244002F8AD0424632
:105D30004B462046294601F051FA04460D4601F033
:105D4000FDFCB0F1000B1CDA2D213046FFF72EFFD1
:105D5000CBF1000103460A2230460193FFF73FFFD3
:105D6000019B18448244584601F0CEF902460B4686
:105D70002046294601F07AF8013F04460D46FFB25D
:105D8000D3E759460023E6E7FC9C0B00FFFFEF7FBB
:105D9000009D0B00FFFFEF41049D0B00FFFFEFC1D3
:105DA0000000E03F139B0B000000244038B5C9B24F
:105DB0000546FFF733FF04462846FFF7FAFE204466
:105DC00038BD38B5044610EE100A0D4601F0AEF9A4
:105DD00041EC100B29462046BDE83840FFF7E6BFEE
:105DE000014B024A1A607047A0E60320089D0B0091
:105DF0002DE9F041154ADFF86080D2E9006380198F
:105E000043EB0101124BD3E90067D8E9002386195F
:105E100041EB0707BB4208BFB2428CB013D003A9C5
:105E20006846CDE90067FFF779FC089B094D03F24E
:105E30006C7303AC08930FCC0FC50FCC0FC5C8E92A
:105E4000006723682B600CB0BDE8F081D8E6032022
:105E5000D0E60320ACE60320E0E6032008B50020EE
:105E6000FFF7FCFB28B1FFF7E1FB80F00100C0B2B7
:105E700008BD0120FCE70000FAEE087AB4EEE70A5C
:105E8000F1EE10FA08B511D4F2EE0C7AB4EEE70A8E
:105E9000F1EE10FA0ADCDFED067A60EE277A17EEF3
:105EA000900A01F0E3FC034BC3E9000108BD00BF09
:105EB00000006145D8E6032030B593B0CDE900235A
:105EC000194B0446D3E90010019B521843EB000321
:105ED0001648D0E90010521843EB0003CDE9002327
:105EE00024220DEB0200002101F063FD002509A929
:105EF0006846FFF713FC1622294603A8029501F015
:105F000058FD02A909A801F003FD02A801F0B7FDA0
:105F100012AB184402A900F8415C2046FFF759FD76
:105F2000204613B030BD00BFD8E60320D0E60320E2
:105F30002DE9F047A4B00746884614A811463F2231
:105F40001C4601F0B8FD002314A88DF88F3001F035
:105F500096FD05464CBB294903A801F06BFD14AC26
:105F6000002605F1FF39B14534D92378252B06F1F8
:105F7000010A17D163787A2B14D103A801F07FFDB1
:105F800014AB054630181844A9EB0602A11C01F019
:105F900002FD2A4603A9204601F0FDFC14A801F0E9
:105FA0006EFD054601345646DBE73C2394FBF3F2D5
:105FB000002AB8BF5242B2FBF3F103FB1122009258
:105FC0004FF461630E4A94FBF3F3102103A8FFF72B
:105FD00075FBC4E700212E2208A8079101F0E9FC17
:105FE000434614AA322107A8FFF790FB07A93846B9
:105FF000FFF7EFFC384624B0BDE8F0870C9D0B009E
:106000000E9D0B00F0B58DB0CDE90023129D044626
:1060100015B9194B1D682DB1184B2846196801F0A8
:10602000FFFC38B9DDE900232046FFF745FF204695
:106030000DB0F0BD124E0099124FD6E900325B1838
:10604000019942EB0102D7E900011B1842EB010262
:10605000CDE900320021242203A801F0AAFC03A903
:106060006846FFF75BFB32683B6803A91344204690
:106070002A46FFF75DFFDAE7A8E6032080DD03206C
:10608000D8E60320D0E6032010B50020FFF730F952
:106090000446A0B9FFF716FA012810D12046FFF7F1
:1060A00039FA60B9FFF7DAFE10B9FFF7B7FAF9E786
:1060B000FFF7D4FEBDE810400020FFF719B92046D5
:1060C00010BD1FB5FFF7E0FF10220021684601F068
:1060D00070FC00216846FFF713F9009805B05DF8E1
:1060E00004FB000008B5FFF7ECFFC117FFF780FEC7
:1060F000014B986808BD00BFACE6032008B5FFF768
:10610000E0FFC117FFF774FE014B586808BD00BFE0
:10611000ACE60320024B1A68024B1A60704700BFBE
:1061200080DD0320A8E603200021FFF7DBB9000093
:10613000014B00229A607047E8E60320014B18608B
:10614000704700BF88DD032008B50B4B43B100F05A
:10615000FFFB03681B699847002801DDAFF300804F
:10616000064B43B100F014FE03681B6998470028F2
:1061700001DDAFF3008008BD00000000000000005A
:1061800008B5FFF7E1FFFFF7ABF8014B186008BD5A
:1061900040E703200548064A064908B5121A01F0EF
:1061A000FAFB054B054A1A6008BD00BF00F4032046
:1061B00004F4032024A30B0000F403201E1C279AE0
:1061C00007B5002300931A466FF07701FFF7BCF97B
:1061D00003B05DF804FB000007B543880A2B08D024
:1061E000502B0BD1094B1B684BB103B05DF804EB8E
:1061F0001847FFF7E5FF03B05DF804FB00230093A9
:106200001A466FF07701FFF79FF9F4E7FCE60320E9
:1062100010B512480021FFF771FA114B1A68114BA3
:106220009A42114B0CBF012200221A7001D0FFF7D5
:10623000B1FFFFF74DF8044601F0C4FB0B4B13B15F
:106240002046AFF3008000210848FFF70FFABDE8B1
:10625000104007480021FFF76DB900BF3D610B00FA
:1062600000F403201E1C279AF8E60320000000001B
:10627000D9610B0070470020704710B5102104460B
:10628000FDF70DFF204610BD08B5FFF7F6FF08BD6E
:1062900030B500224FF69C74026084808D888C801B
:1062A0000C68858004600A6030BD10B50446006843
:1062B000FFF7ECF9204610BD38B5C468F4B1237877
:1062C000022B03D104F10C00FFF7EFFF656835B135
:1062D0002846FFF71CFC10212846FDF7E0FEA568C4
:1062E00035B12846FFF713FC10212846FDF7D7FEED
:1062F00020461421BDE83840FDF7D1BE38BD0B68FB
:1063000003604B68436013B15A6801325A607047AA
:1063100037B5044668460D46FFF7F1FF009B019A2A
:1063200023606260002301A801930093FEF70CF83C
:1063300035B1281DFEF708F808212846FDF7AFFE05
:10634000204603B030BD826810B50AB900F086FD62
:10635000BDE81040C368184708B5006800F1100197
:10636000FFF7F1FF08BD826810B50AB900F076FDAD
:10637000BDE81040C368184708B5006800F1100177
:10638000FFF7F1FF08BD000038B5002304460360A5
:1063900010200D46FDF77FFE28B10123C0E901332F
:1063A000024B0360C5602060204638BD409D0B0055
:1063B00038B5002383608B6804460D462BB102225A
:1063C0009847EB68E360AB68A360204638BD0000E7
:1063D000F0B589B004686846FFF75AFF4FF0020332
:1063E000D4E84F2F002A03D1C4E8413F0029F7D158
:1063F00025D104F10C0569462846FFF749FFBFF394
:106400005B8F01236370002004F10803BFF35B8FEF
:1064100053E8006F43E80002002AF9D1BFF35B8F15
:106420006EB1FFF767F878B129463046FFF78BFF6A
:106430003046FFF76CFB10213046FDF730FE684612
:10644000FFF733FF09B0F0BD314602A8FFF7B0FFF8
:10645000E068B4F9105008B101F0F4FA0690102089
:10646000ADF81C50FDF717FE0546E8B10027876020
:106470001820FDF710FE044688B10146876002A887
:10648000FFF74EFB049BA268A360059B049206A93C
:10649000E268E36004F110000592FFF7F9FE084B93
:1064A000EB60084B2C60AB6006A8FFF7FEFE02A86D
:1064B000FFF72DFB002229460348FFF723F8B7E733
:1064C00059630B00DD650B00416A0B002DE9F04FAD
:1064D0008BB005469DF850A00F4690469946FFF7B1
:1064E000A5F807AE834638BB4FF62E73059005A975
:1064F0003046ADF81830FFF7CBFE1420FDF7CBFD8A
:10650000044648B1022303700123C0E901BB437074
:1065100031460C30FFF7BCFE2846214640F8044BBC
:10652000FFF732FF3046FFF7C0FE05A8FFF7BDFEBC
:1065300028460BB0BDE8F08F0C2300241420CDE9D1
:1065400008440793FDF7A7FD014618B1C0E90144CF
:106550000470447004A80391FFF716FF1E4B0893C4
:106560000820FDF798FD044610B103A9FFF7C7FE08
:1065700000965FFA8AF34A46414638460994FFF787
:106580005DF8B8B9039B5B7803F0FF0293B94FF64F
:106590009C7305A903A80592ADF81830FFF718FF02
:1065A00005A8FFF782FE05A80999FFF7B1FE06A826
:1065B000FDF7CAFE03A905A8FFF7A1FE059B069AF1
:1065C0002B606A60002306A806930593FDF7BCFEC6
:1065D00004A8FDF7B9FEABE759660B00012AF8B530
:1065E000054603D10B6803600020F8BD022A10D0D5
:1065F000032AF9D10468002CF6D004F11000FFF74B
:1066000054FE2046FFF783FA18212046FDF747FD88
:10661000EAE718200E68FDF73EFD044650B131460A
:10662000FFF7C6FE3069B6F9147008B101F00AFA36
:106630002061A7822C60D7E738B5002383608B6880
:1066400004460D462BB102229847EB68E360AB6825
:10665000A360204638BD0000F0B589B004460D4661
:1066600001A81146FFF754FEA4B124B21DB128467B
:1066700001F0E8F9054601A803A90395ADF810401B
:10668000FFF7A6FE03A8FFF710FE02A8FDF75CFEC9
:1066900009B0F0BD019D0123D5E84F2F002A03D199
:1066A000C5E8413F0029F7D1EFD12B73BFF35B8FD2
:1066B0006B702B1DBFF35B8F53E8006F43E8004204
:1066C000002AF9D1BFF35B8F002EDED02046FEF703
:1066D00011FF074660B105F10C013046FFF743FE9C
:1066E0003046FFF714FA10213046FDF7D8FCCCE70E
:1066F000314603A8FFF7A0FF2B7B8DF81C3010203C
:10670000FDF7C9FC0546D0B187601420FDF7C3FC36
:10671000044678B18760014603A8FFF701FA059B9C
:10672000A268A360069B0592E268E3609DF81C30B6
:1067300006922374064BEB60064B2C60AB6003A8FB
:10674000FFF7E5F9002229460348FEF7DBFEC7E71D
:1067500079630B005D670B00416A0B00012A70B57D
:10676000044603D10B680360002070BD022A0CD0E0
:10677000032AF9D10468002CF6D02046FFF7C7F9A8
:1067800014212046FDF78BFCEEE714200E68FDF780
:1067900082FC054620B13146FFF74EFF337C2B7457
:1067A0002560E1E7704710B518210446FDF777FC36
:1067B000204610BDF0B5037D062B8DB00E4600F1CE
:1067C00004074FF0000412D000F1080515F8011D70
:1067D0000A223046FFF703FAAF42044419D0002CD6
:1067E000F4D02E213046FFF7E1F90444EEE72F23E1
:1067F0006A4639460A208DF80040FEF791FD68464A
:1068000001F03DF933680246DB6869463046984737
:10681000044620460DB0F0BD10B5054B04461122CC
:1068200040F8043B002101F0C4F8204610BD00BF31
:106830005C9D0B000346074A10B543F8042B01F199
:10684000100251F8044B43F8044B9142F9D10A78F5
:106850001A7010BD5C9D0B0010B59DF8084044EA0D
:10686000032343EA024242EA0161042341600375C3
:1068700010BD000007B5064B0360CB7800938B7802
:106880004A780978FFF7E8FF03B05DF804FB00BF22
:106890005C9D0B00417470477047704708B500213C
:1068A000007CFEF7EDFD40EAE07008BD08B501216F
:1068B000007CFEF7E5FD40EAE07008BD08B5007C0D
:1068C000FEF7D6FD20EAE07008BD08B5007CFEF7B3
:1068D000C7FD20EAE07008BD13B50446007C0191B5
:1068E000FEF7C6FD0028019901DC607C20B1207C08
:1068F000FEF7CEFD20EAE07002B010BD007CFEF78E
:10690000CFBD10B514210446FDF7C9FB204610BDCC
:1069100010B54FF47A73044608460021C4E9011308
:10692000044B23600123207463741146FEF788FD35
:10693000204610BD709D0B00007C0022FEF788BD34
:1069400010B514220446002101F033F8204610BD92
:1069500010B50F4C88B003A8FFF7F2FF2178BFF302
:106960005B8F11F001010FD120460191FDF799FBDA
:10697000019948B103AA0748FFF7CAFF2046FDF76F
:1069800095FB054800F0EAFF024808B010BD00BFC3
:1069900000E7032004E7032099680B007047417467
:1069A000704708B5007CFEF7EBFC20EAE07008BDFC
:1069B00008B5007CFEF7C4FC20EAE07008BD08B50D
:1069C000007CFEF7CDFC40EAE07008BD08B5007C15
:1069D000FEF7BEFC40EAE07008BD007CFEF7C8BCD4
:1069E00037B5457C04462DB1207C03B0BDE830406E
:1069F000FEF79EBC007C0191FEF7C2FC00280199C5
:106A0000F2DC284603B030BD10B514210446FDF772
:106A100046FB204610BD000010B54FF47A730446C3
:106A2000084611460022C4E90123044B23600123D8
:106A300020746374FEF7ACFC204610BDA09D0B00D3
:106A400010B5836804460BB900F008FAC36898478C
:106A5000A3681BB1032221462046984720461021F7
:106A6000BDE81040FDF71BBB7047F8B5064615465C
:106A70000C468F18BC4206D0336814F8011B9B6883
:106A800030469847F6E72846F8BD007C0022FEF71E
:106A90009FBC007C0021FEF7A3BC007C0021FEF718
:106AA000A7BC007C0021FEF7ABBC007C0021FEF7F8
:106AB000AFBC10B514210446FDF7F1FA204610BD15
:106AC00038B5044615464FF47A730022C4E9012311
:106AD000094B2174084623602946FEF7A1FCBF300C
:106AE00008D16B69DB0705D56868FEF7CFFDE8685C
:106AF000FEF7CCFD204638BDD09D0B000023007C66
:106B00001A461946FEF74CBC7FB500221423CDE986
:106B10000122ADF804300B788DF808304B680393F0
:106B2000CB680493007C0B7A059301A9FEF780FCE7
:106B300007B05DF804FB1FB5003B8DF800104FF067
:106B40006401039118BF0123694601928DF8083052
:106B5000FFF7DAFF05B05DF804FB0123FFF7EBBF99
:106B6000007C0022FEF724BC007C0022FEF728BC3B
:106B70000121FFF7F9BF002240681146FEF706BD6C
:106B8000002240681146FEF721BD002240681146F0
:106B9000FEF72CBD40680022FEF720BD40680022B1
:106BA00081F00101FEF70ABD002340681A4619462C
:106BB000FEF7FCBC002340681A461946FEF7EEBCFF
:106BC000002240681146FEF7D1BC40680022022135
:106BD000FEF7D4BC002340681A46FEF7BFBC000095
:106BE000024B04225A60024A1A60704718E70320D9
:106BF000F89D0B00002340681A46FEF7AFBC4068C2
:106C000000220221FEF7BABC002240681146FEF7BE
:106C1000ADBC002240681146FEF7B8BC00234068B6
:106C20001A461946FEF7BABC002340681A461946B0
:106C3000FEF7BCBC40680021FEF7E0BC40680021C4
:106C4000FEF7E4BC4068002281F00101FEF7B6BC0B
:106C500040680022FEF7C2BC002240681146FEF7E1
:106C6000C5BC002240681146FEF7B0BC2DE9F043D8
:106C700095B014460D460746FFF7CEFD00211C22B5
:106C80000DA8009100F095FE40230C9320466B4622
:106C90000CAA0021FEF714FB044600284BD1024643
:106CA00001216868FEF772FC02218046224668686E
:106CB000FEF76CFC009E81462146002E3BD0002949
:106CC00039D17368022B03D00A2B11D0F669F4E78F
:106CD000B8F1000FFAD0716906A8043107ADFFF7CB
:106CE000C9FD0FCD3C1D0FC42B6823704146EDE755
:106CF000B9F1000FEAD07469102201A800F059FE22
:106D000006238DF8143001AD04F108031834186817
:106D100059682A4603C20833A3421546F7D101A990
:106D200006A807ADFFF786FD0FCD3C1D0FC42B68ED
:106D300023704946CAE70098FEF7BAFA384615B0FC
:106D4000BDE8F083024B034A1A6000225A60704784
:106D500020E70320349E0B007047000038B504463E
:106D600014252A46002100F024FE258040250749ED
:106D700025812846258200F06FF804496060284686
:106D800000F06AF8E060204638BD00BF689E0B0046
:106D900030B50E4D2978BFF35B8F11F0010487B039
:106DA00011D12846FDF77DF968B101A8FFF7D6FF9C
:106DB00001AA21460648FFF72FFE2846FDF776F97F
:106DC000044800F0CBFD024807B030BD28E703209F
:106DD0002CE70320596D0B007047000038B50A4BB3
:106DE00003600123044643610849202000F034F881
:106DF000202560600549A560284600F02DF8C4E90B
:106E00000305204638BD00BF18000100689E0B0036
:106E100030B50E4D2978BFF35B8F11F0010487B0B8
:106E200011D12846FDF73DF968B16846FFF7D6FF56
:106E30006A4621460648FFF743FE2846FDF736F925
:106E4000044800F08BFD024807B030BD44E7032042
:106E500048E70320D96D0B00FDF71FB908B5FEF711
:106E600035FC000081F0004102E000BF83F00043E8
:106E700030B54FEA41044FEA430594EA050F08BFD5
:106E800090EA020F1FBF54EA000C55EA020C7FEA99
:106E9000645C7FEA655C00F0E2804FEA5454D4EB16
:106EA0005555B8BF6D420CDD2C4480EA020281EAE0
:106EB000030382EA000083EA010180EA020281EA18
:106EC0000303362D88BF30BD11F0004F4FEA01316A
:106ED0004FF4801C4CEA113102D0404261EB410179
:106EE00013F0004F4FEA03334CEA133302D05242FF
:106EF00063EB430394EA050F00F0A780A4F10104BB
:106F0000D5F1200E0DDB02FA0EFC22FA05F28018F4
:106F100041F1000103FA0EF2801843FA05F35941DA
:106F20000EE0A5F120050EF1200E012A03FA0EFC59
:106F300028BF4CF0020C43FA05F3C01851EBE37183
:106F400001F0004507D54FF0000EDCF1000C7EEBA0
:106F500000006EEB0101B1F5801F1BD3B1F5001FDE
:106F60000CD349085FEA30004FEA3C0C04F10104FD
:106F70004FEA445212F5800F80F09A80BCF1004F26
:106F800008BF5FEA500C50F1000041EB045141EAA8
:106F9000050130BD5FEA4C0C404141EB0101013C71
:106FA00028BFB1F5801FE9D291F0000F04BF014660
:106FB0000020B1FA81F308BF2033A3F10B03B3F132
:106FC00020020CDA0C3208DD02F1140CC2F10C02C2
:106FD00001FA0CF021FA02F10CE002F11402D8BF20
:106FE000C2F1200C01FA02F120FA0CFCDCBF41EAEC
:106FF0000C019040E41AA2BF01EB0451294330BDBB
:107000006FEA04041F3C1CDA0C340EDC04F1140497
:10701000C4F1200220FA04F001FA02F340EA03006E
:1070200021FA04F345EA030130BDC4F10C04C4F1B4
:10703000200220FA02F001FA04F340EA0300294694
:1070400030BD21FA04F0294630BD94F0000F83F4DE
:10705000801306BF81F480110134013D4EE77FEAC1
:10706000645C18BF7FEA655C29D094EA050F08BF0D
:1070700090EA020F05D054EA000C04BF19461046EE
:1070800030BD91EA030F1EBF0021002030BD5FEA32
:10709000545C05D14000494128BF41F0004130BD5A
:1070A00014F580043CBF01F5801130BD01F00045AE
:1070B00045F0FE4141F470014FF0000030BD7FEA21
:1070C000645C1ABF194610467FEA655C1CBF0B461C
:1070D000024650EA013406BF52EA033591EA030F33
:1070E00041F4002130BD00BF90F0000F04BF00212B
:1070F000704730B54FF4806404F132044FF000055E
:107100004FF0000150E700BF90F0000F04BF0021D6
:10711000704730B54FF4806404F1320410F000453C
:1071200048BF40424FF000013EE700BF42004FEA37
:10713000E2014FEA31014FEA02701FBF12F07F43B4
:1071400093F07F4F81F06051704732F07F4208BF6B
:10715000704793F07F4F04BF41F40021704730B572
:107160004FF4607401F0004521F000411CE700BFBE
:1071700050EA010208BF704730B54FF000050AE041
:1071800050EA010208BF704730B511F0004502D542
:10719000404261EB41014FF4806404F132045FEA44
:1071A000915C3FF4D8AE4FF003025FEADC0C18BFED
:1071B00003325FEADC0C18BF033202EBDC02C2F1DF
:1071C000200300FA03FC20FA02F001FA03FE40EA71
:1071D0000E0021FA02F11444BDE600BF70B54FF075
:1071E000FF0C4CF4E06C1CEA11541DBF1CEA135553
:1071F00094EA0C0F95EA0C0F00F0DEF82C4481EABB
:10720000030621EA4C5123EA4C5350EA013518BFDA
:1072100052EA033541F4801143F4801338D0A0FBC7
:1072200002CE4FF00005E1FB02E506F00042E0FB74
:1072300003E54FF00006E1FB03569CF0000F18BF7A
:107240004EF0010EA4F1FF04B6F5007F64F5407422
:1072500004D25FEA4E0E6D4146EB060642EAC621B5
:1072600041EA55514FEAC52040EA5E504FEACE2E22
:10727000B4F1FD0C88BFBCF5E06F1ED8BEF1004F25
:1072800008BF5FEA500E50F1000041EB045170BDA1
:1072900006F0004646EA010140EA020081EA0301E5
:1072A000B4EB5C04C2BFD4EB0C0541EA045170BDE1
:1072B00041F480114FF0000E013C00F3AB8014F15B
:1072C000360FDEBF002001F0004170BDC4F10004A4
:1072D000203C35DA0C341BDC04F11404C4F1200525
:1072E00000FA05F320FA04F001FA05F240EA020080
:1072F00001F0004221F0004110EBD37021FA04F6B6
:1073000042EB06015EEA430E08BF20EAD37070BD6F
:10731000C4F10C04C4F1200500FA04F320FA05F0CE
:1073200001FA04F240EA020001F0004110EBD370D0
:1073300041F100015EEA430E08BF20EAD37070BD40
:10734000C4F1200500FA05F24EEA020E20FA04F319
:1073500001FA05F243EA020321FA04F001F00041C8
:1073600021FA04F220EA020000EBD3705EEA430E39
:1073700008BF20EAD37070BD94F0000F0FD101F068
:107380000046400041EB010111F4801F08BF013CA1
:10739000F7D041EA060195F0000F18BF704703F0DF
:1073A0000046520043EB030313F4801F08BF013D66
:1073B000F7D043EA0603704794EA0C0F0CEA135522
:1073C00018BF95EA0C0F0CD050EA410618BF52EADC
:1073D0004306D1D181EA030101F000414FF00000E2
:1073E00070BD50EA410606BF1046194652EA4306F0
:1073F00019D094EA0C0F02D150EA013613D195EA64
:107400000C0F05D152EA03361CBF104619460AD1AB
:1074100081EA030101F0004141F0FE4141F47001B5
:107420004FF0000070BD41F0FE4141F4780170BDA5
:1074300070B54FF0FF0C4CF4E06C1CEA11541DBF0A
:107440001CEA135594EA0C0F95EA0C0F00F0A7F80C
:10745000A4EB050481EA030E52EA03354FEA013139
:1074600000F088804FEA03334FF0805545EA13134C
:1074700043EA12634FEA022245EA111545EA106514
:107480004FEA00260EF000419D4208BF964244F1AB
:10749000FD0404F5407402D25B084FEA3202B61ACA
:1074A00065EB03055B084FEA32024FF480104FF49E
:1074B000002CB6EB020E75EB030E22BFB61A754612
:1074C00040EA0C005B084FEA3202B6EB020E75EBA5
:1074D000030E22BFB61A754640EA5C005B084FEA0D
:1074E0003202B6EB020E75EB030E22BFB61A7546DA
:1074F00040EA9C005B084FEA3202B6EB020E75EBE5
:10750000030E22BFB61A754640EADC0055EA060EA5
:1075100018D04FEA051545EA16754FEA06164FEAE8
:10752000C30343EA52734FEAC2025FEA1C1CC0D194
:1075300011F4801F0BD141EA00014FF000004FF021
:10754000004CB6E711F4801F04BF01430020B4F1E2
:10755000FD0C88BFBCF5E06F3FF6AFAEB5EB030C9A
:1075600004BFB6EB020C5FEA500C50F1000041EB97
:10757000045170BD0EF0004E4EEA113114EB5C0464
:10758000C2BFD4EB0C0541EA045170BD41F4801137
:107590004FF0000E013C90E645EA060E8DE60CEA3F
:1075A000135594EA0C0F08BF95EA0C0F3FF43BAF5C
:1075B00094EA0C0F0AD150EA01347FF434AF95EA13
:1075C0000C0F7FF425AF104619462CE795EA0C0FF7
:1075D00006D152EA03353FF4FDAE1046194622E7C4
:1075E00050EA410618BF52EA43067FF4C5AE50EA9E
:1075F00041047FF40DAF52EA43057FF4EBAE12E78E
:107600004FF0FF3C06E000BF4FF0010C02E000BF6E
:107610004FF0010C4DF804CD4FEA410C7FEA6C5C51
:107620004FEA430C18BF7FEA6C5C1BD001B050EAF4
:10763000410C0CBF52EA430C91EA030F02BF90EADF
:10764000020F0020704710F1000F91EA030F58BF9E
:10765000994208BF90422CBFD8176FEAE37040F000
:10766000010070474FEA410C7FEA6C5C02D150EA9E
:10767000013C07D14FEA430C7FEA6C5CD6D152EA59
:10768000033CD3D05DF8040B704700BF844610461E
:1076900062468C461946634600E000BF01B5FFF71D
:1076A000B7FF002848BF10F1000F01BD4DF808EDED
:1076B000FFF7F4FF0CBF012000205DF808FB00BFBE
:1076C0004DF808EDFFF7EAFF34BF012000205DF818
:1076D00008FB00BF4DF808EDFFF7E0FF94BF012065
:1076E00000205DF808FB00BF4DF808EDFFF7CEFF66
:1076F00094BF012000205DF808FB00BF4DF808EDA5
:10770000FFF7C4FF34BF012000205DF808FB00BF75
:107710004FEA410C7FEA6C5C02D150EA013C0AD18D
:107720004FEA430C7FEA6C5C02D152EA033C02D17F
:107730004FF0000070474FF0010070474FEA4102E0
:1077400012F5001215D211D56FF47873B3EB6252B3
:1077500012D94FEAC12343F0004343EA505311F0DA
:10776000004F23FA02F018BF404270474FF000006C
:10777000704750EA013005D111F0004008BF6FF0AA
:10778000004070474FF00000704700BF4A0011D220
:1077900012F5001211D20DD56FF47873B3EB62526B
:1077A0000ED44FEAC12343F0004343EA505323FA77
:1077B00002F070474FF00000704750EA013002D1EC
:1077C0004FF0FF3070474FF0000070474FEA410222
:1077D000B2F1E04324BFB3F5001CDCF1FE5C0DD92F
:1077E00001F0004C4FEAC0024CEA5070B2F1004F79
:1077F00040EB830008BF20F00100704711F0804F7C
:1078000021D113F13872BCBF01F00040704741F440
:1078100080114FEA5252C2F11802C2F1200C10FA44
:107820000CF320FA02F018BF40F001004FEAC12328
:107830004FEAD32303FA0CFC40EA0C0023FA02F3CC
:107840004FEA4303CCE77FEA625307D150EA0133A2
:107850001EBF4FF0FE4040F44000704701F0004072
:1078600040F0FE4040F40000704700BF07EE900A71
:10787000F5EEC07AF1EE10FA01D400F00BB8F1EE9B
:10788000677A08B517EE900A00F004F8404261EB01
:10789000410108BDD0B5FFF749FC0C4B002206465C
:1078A0000F46FFF79BFCFFF771FF0446FFF71CFC38
:1078B000074B0022FFF792FC02460B463046394642
:1078C000FFF7D4FAFFF762FF2146D0BD0000F03D7C
:1078D0000000F041D0B50C4B002206460F46FFF7E2
:1078E0007DFCFFF753FF0446FFF7FEFB074B00222A
:1078F000FFF774FC02460B4630463946FFF7B6FAEE
:10790000FFF744FF2146D0BD0000F03D0000F041EC
:1079100010B50C4641690369826986B001F26C7149
:107920000491016803914168029181680191C168E5
:107930000091074903EB43030B44064902EB420263
:107940000A4420460449FDF7B1FE204606B010BDAA
:107950009E9E0B00899E0B00699E0B000023014632
:107960001A46184600F0EABE002100F0DBBE0029EE
:1079700010B591FBF2F402FB141306DB002B01DAC5
:1079800001349B1AC0E9004310BD002BC4BF04F1B1
:10799000FF349B18F6E70A44914200F1FF3300D10F
:1079A000704710B511F8014B03F8014F9142F9D11E
:1079B00010BD02440346934200D1704703F8011BF7
:1079C000F9E7000038B5104B1D68AB6B0446B3B93E
:1079D0001820FDF753FE0246A86320B90B4B0C4854
:1079E0004221FDF783FE0B490B4BC0E900130B4B03
:1079F00083600B23838100210120C2E90401AB6B6A
:107A000000221C615A6138BD88DD0320C29E0B0034
:107A1000D99E0B000E33CDAB34126DE6ECDE0500C3
:107A200010F8012B11F8013B012A28BF9A42F7D028
:107A3000D01A7047034611F8012B03F8012B002AD6
:107A4000F9D17047024B0146186800F003B800BF37
:107A500088DD032037B5044608460D4600F00FF8D0
:107A6000421C114620460192FDF738FE044618B12B
:107A7000019A2946FFF78FFF204603B030BD034629
:107A800013F8012B002AFBD1181A0138704710B5E2
:107A90007AB103460139841813F8010B11F8012F4C
:107AA000904201D1A34201D1801A10BD0028F3D128
:107AB000FAE71046F9E710B50139034632B111F87B
:107AC000014F03F8014B013A002CF7D11A44002171
:107AD000934200D110BD03F8011BF9E770B50446CD
:107AE0000D4645EC104B164601F082FD51EC100B93
:107AF0007EB1C5F30A53C3F16B03002B09DD1B05EF
:107B000003F17F55002405F5401522462B46FFF76B
:107B100065FB70BD000000002DE9F04F2DED028BDC
:107B20009DB01F4600231893A24B13921B68059328
:107B3000044618468846FFF7A2FF4FF0000A0546A4
:107B40004FF0000BCDF85C80179B1A782B2A4ED093
:107B50003BD80D2A34D8082A34D8002A3ED0002336
:107B60000A93179E3378302B40F0B080737803F07F
:107B7000DF03582B68D10A9B019318AB029700933F
:107B80008D4A19AB17A9204600F0A2FE10F0070796
:107B9000054605D0062F2CD10136002317960A93EF
:107BA000139B002B40F090850A9BEBB152460BF1E2
:107BB000004343EC102B1DB0BDEC028BBDE8F08FF1
:107BC000202ACCD101331793BEE72D2AC7D1012239
:107BD0000A925A1C17925B78002BC2D1139BCDF8E6
:107BE0005C80002B40F06E8552465B46E1E7002248
:107BF000EEE7189A3AB135211AA801F004FE189957
:107C0000204601F0C3F9013F042F06D8DFE807F052
:107C10000A0314170A00DDE91AAB2807C0D54BF098
:107C2000004BBDE7DDE91AA3199A23F4801302F291
:107C3000334243EA025BF0E7DFF880B1EDE76FF033
:107C4000004B4FF0FF3AE8E7179B5A1C17925B78FE
:107C5000302BF9D0002BA3D001234FF0000904935F
:107C6000179B0893CDF81C904F460A221798067868
:107C7000A6F13003D9B209292AD905992A46FFF776
:107C800006FF98B3002032463D4605900346652A1C
:107C900001D0452A18D11DB9049A02439ED000256F
:107CA000DDF85C8008F10102179298F801202B2A78
:107CB00075D02D2A7BD04FF0000CA2F1300109299C
:107CC00040F28280CDF85C8000269DE00023C4E76E
:107CD000082FD8BF079900F10100DABF02FB01337A
:107CE000079302FB093901371790BFE7179B5A1911
:107CF00017925A5D002F37D005903D46A2F1300310
:107D0000092B12D90123C2E7179B5A1C17925A78E4
:107D10000130302AF8D0A2F13103082B00F2D984C7
:107D2000179B0590002008930546303A00F10103A7
:107D300014D00599194405912B4600EB050E0A2134
:107D4000734513D12B18082B05F1010505441CDCE4
:107D500007990A2303FB012307930023179A511C59
:107D6000179152781846C9E73846D2E7082B04DC49
:107D7000079E4E4307960133E2E703F1010CBCF185
:107D8000100FD8BF01FB09F9F5E7102DDCBF0A235E
:107D900003FB0929E1E70023059301237CE74FF06A
:107DA000000C08F10202179298F8022085E74FF0C4
:107DB000010CF6E748A10B005C9F0B000000F07F70
:107DC000179A511C17915278302AF9D0A2F131013B
:107DD00008293FF679AFA2F1300E179A0692179A4A
:107DE000511C17915278A2F13006092E37D9069E00
:107DF000891B082944F61F6602DC7645A8BF764633
:107E0000BCF1000F00D07642002D4DD10499014302
:107E10007FF4C6AE002B7FF4E1AE692A27D024DCC4
:107E2000492A24D04E2A7FF4D9AE9F4917A800F0E2
:107E3000A7FF00283FF4D2AE179B1B78282B2DD12B
:107E40009A491AAA17A800F0AFFF052826D11B9B54
:107E5000DDF868A043F0FF4B4BF4E00BA0E60A21ED
:107E600001FB0E2EAEF1300EB9E76E2ADBE790492A
:107E700017A800F085FF00283FF4B0AE179B8D498E
:107E8000013B17A8179300F07BFF10B9179B013334
:107E90001793DFF830B24FF0000A81E6864801F010
:107EA00007FD5BEC10AB7BE6059B0798F31A002FF0
:107EB00008BF2F46102D0693A846A8BF4FF0100804
:107EC000FFF712F9092D82468B4613DD7B4B03EB3E
:107ED000C80353E91223FFF781F9824648468B46CF
:107EE000FFF702F902460B4650465946FEF7C0FF1F
:107EF00082468B460F2D38DC069B002B3FF450AE9C
:107F000024DD162B0BDC6D4901EBC301D1E9000127
:107F100052465B46FFF762F982468B4640E6069A78
:107F2000C5F12503934220DB644CC5F10F0504EB3A
:107F3000C50152465B46D1E90001FFF74FF9069BA8
:107F40005D1B04EBC504D4E90023E3E7069B16336D
:107F50000BDB059B9E1B594B03EBC606D6E90023A2
:107F600050465946FFF764FAD6E7069BA5EB08088A
:107F70009844B8F1000F74DD18F00F030AD04F4990
:107F800001EBC30152465B46D1E90001FFF726F938
:107F900082468B4638F00F084FD0B8F59A7F22DD25
:107FA00000252E46079505952223DFF818B123609A
:107FB0004FF0000A079B002B3FF4F2AD18992046C2
:107FC00000F0E4FF0599204600F0E0FF314620462E
:107FD00000F0DCFF0799204600F0D8FF2946204634
:107FE00000F0D4FFDCE5364B049300234FEA281859
:107FF000504659469946B8F1010F21DC0BB1824633
:108000008B462F4BABF1547B03EBC90952465B46C1
:10801000D9E90001FFF7E2F82A4B0A460B402A494A
:108020008B428246BCD8A1F580118B4286BFDFF817
:108030009CB04FF0FF3A02F1547B0023049384E09C
:1080400018F0010F05D0049BD3E90023FFF7C6F811
:108050000123049A083209F101094FEA68080492E1
:10806000C9E7EAD0C8F1000818F00F020AD0134B94
:1080700003EBC20350465946D3E90023FFF7D8F972
:1080800082468B465FEA2818D7D0B8F11F0F1FDD54
:1080900000252E460795059522234FF0000A4FF044
:1080A000000B236086E700BFFD9C0B00709F0B0058
:1080B000019D0B00569F0B00889E0B0008A20B0031
:1080C000E0A10B000000F07F0000A07CFFFFEF7F2D
:1080D00018F0100318BF6A23DFF8AC9304935046DE
:1080E0005946002318F0010F04D0D9E90023FFF707
:1080F00075F801235FEA680809F10809F2D10BB1AC
:1081000082468B46049BC3B1CBF30A52C2F16B0388
:10811000002B594611DD1F2B40F32481342BDEBF89
:10812000C2F14B024FF0FF3303FA02F24FF0000AA4
:10813000CCBF4FF05C7B02EA010B002200235046CB
:108140005946FFF7B3FA0028A2D1079B009308997C
:108150002B463A46204600F081FF079000283FF466
:108160001FAF059B9E1B069B002BB4BF334600230D
:108170000C93069B002523EAE37312932E46079B7C
:108180002046596800F0C2FE059000283FF40CAF6D
:10819000079B1A69023203F10C0192000C30FFF7C1
:1081A000FAFB4BEC10AB1AAA19A9204601F09CFA75
:1081B0004BEC18AB189000283FF4F6AE0121204696
:1081C00000F0E6FF064600283FF4EEAE199B049946
:1081D000002BABBF0C9A129A129FDDF83090ACBF07
:1081E00003EB0209D71A1A9AA3EB01089044A14B9A
:1081F00008F1FF389845C2F1360280F2C780A3EB40
:1082000008031F2BA2EB03024FF0010100F3B18022
:1082100001FA03F30D930023089309EB0208049B72
:10822000C14517441F444B46A8BF4346BB42A8BFA5
:108230003B46002BC2BFA8EB0308FF1AA9EB0309BA
:108240000C9B002B17DD31461A46204601F060F8E2
:10825000064600283FF4A8AE0146189A204600F0D2
:10826000ADFF0B9000283FF49FAE1899204600F018
:108270008DFE0B9B1893B8F1000F00F38C80069BCA
:10828000002B08DD129A0599204601F041F805906F
:1082900000283FF489AE002F08DD05993A462046B4
:1082A00001F090F8059000283FF47EAEB9F1000F80
:1082B00008DD31464A46204601F084F8064600288B
:1082C0003FF472AE059A1899204601F007F9054669
:1082D00000283FF469AEC3680B930023C3603146A6
:1082E00001F0E0F8002860DA0B9B53EA0A0340F043
:1082F0008280CBF31303002B7DD12BF000431B0DA9
:108300001B05B3F1D66F76D96B6913B92B69012BB5
:1083100071DD29460122204601F054F83146054618
:1083200001F0C0F8002866DD0499534A5B46002935
:1083300000F0818002EA0B01B1F1D66F7BDCB1F174
:108340005C7F7FF7A9AE4D4B504659460022FEF7A1
:1083500045FF0B46034308BF222382468B4608BFD6
:1083600023602BE64FF0FF3202FA03F303EA0A0A16
:10837000E3E6C8F17F4808F57F0808F57B4808F177
:10838000E20801FA08F308930D9146E700230893E9
:1083900001230D9341E718994246204601F012F857
:1083A000189000287FF46BAFFEE55F466ED10B9A04
:1083B000CBF3130342B3324A934228D1049B514674
:1083C000EBB12D4B3B40B3F1D46F4FF0FF3219D8D6
:1083D0001B0DC3F16B0302FA03F3994217D1294B2A
:1083E0009F4202D101313FF4DFAD234B3B4003F507
:1083F000801B4FF0000A049B002BA4D1DEE54FF058
:10840000FF33EAE71346E8E753EA0A038CD0089BF8
:10841000DBB13B42EFD00B9B049A50465946C3B1A7
:10842000FFF75CFB02460B4651EC180BFEF720FDF4
:1084300082468B46DFE71340A3F580136FEA135B98
:108440006FEA0B5B4FF0FF3AD5E70D9B13EA0A0F7B
:10845000E0E7FFF743FB02460B4651EC180BFEF733
:1084600005FD0022002382468B46FFF71FF90028F6
:10847000C1D011E602FCFFFF0000F07F0000503980
:10848000FFFF0F00FFFFEF7F889F0B00314628465C
:1084900001F086F959EC108B10EE100A00224FF013
:1084A00080434946FFF716F900287AD00B9B002B32
:1084B0004AD0954B0022CDE90823DFF84C924FF0CB
:1084C0000008924B3B400D930D9A914B9A4240F01D
:1084D000B080DDE90801A7F1547B4BEC10ABCDE98E
:1084E000080101F085F8DDE9080153EC102BFEF7D7
:1084F00075FE52465B46FEF7BBFC0B468349854A38
:1085000019409142824660D918EE903A02F15472B5
:10851000934204D118EE103A01333FF445ADDFF831
:1085200000B24FF0FF3A1899204600F02FFD059950
:10853000204600F02BFD3146204600F027FD29465D
:10854000204600F023FD1AE6BAF1000F1BD1CBF351
:108550001303F3B96C4B002240464946FFF7B0F8CD
:10856000D0B9404649466C4B0022FEF737FE8046A4
:10857000894609F10043CDF850801593DDE91423B5
:10858000CDE908239DE7BAF1010F02D1002F3FF496
:1085900083AD624B00228EE7DFF87C914FF000083C
:1085A000E7E75D4B404649460022FEF717FE0B9B6E
:1085B0008046894633B901F100430E900F93DDE9FF
:1085C0000E23DDE7CDE90E89F9E703F1547B049B27
:1085D000002BA8D12BF000430D9A1B0D1B059A42CE
:1085E000A1D14046494601F079F9FEF7C9FD02469E
:1085F0000B4640464946FEF739FC0B9ACBF3130372
:1086000043EA0A0313438046894655D036A3D3E98B
:108610000023FFF755F800287FF4D0AC34A3D3E94A
:10862000002340464946FFF769F800283FF47BAF36
:10863000C4E4049B33B30D9BB3F1D46F22D82EA3B3
:10864000D3E9002340464946FFF744F8A0B1494624
:108650004046FFF79BF8012838BF0120FEF744FD94
:108660000B9B8046894623BB01F100431090119378
:10867000DDE91023CDE90823099B0D9A03F1D663A8
:108680009B1A0993DDE90801B0EE480AF0EE680A8A
:10869000CDE9080100F0ACFFDDE9080153EC102B37
:1086A000FEF79CFD53EC182BFEF7E2FB82468B464F
:1086B0008DE7CDE91089DBE711A3D3E90023FEF7AD
:1086C000FFFFB2E700230A93139A179B1360FFF78B
:1086D0006BBA652A3FF45FAB452A3FF45CAB0123DC
:1086E000FFF794BBAFF300809535A094FFFFDF3F09
:1086F00035E5AF350000E03F0000C0FFFFFFDF4180
:108700009535A094FFFFCF3F0000F03F0000F07FC1
:108710000000E07FFFFF9F7C0000E03F0000F0BF13
:10872000FFFFEF7F0A4601460248034B0068FFF750
:10873000F3B900BF88DD0320F4DD03202DE9F84301
:10874000DFF8B8800646D8F800001F460D4691466F
:1087500000F0C6FB254B1C6834B9254C1C60254B2A
:1087600013B11B68C4F8883063681F2B07DDD8F885
:10877000000000F0B7FB4FF0FF30BDE8F8834EB3C8
:10878000D4F8880088B91C4B23B9D8F8000000F051
:10879000A8FBF0E74FF48470FCF770FF0028F4D0DA
:1087A0000023C0E94033C4F88800636840F8239090
:1087B00001229A4000EB8301D0F800311343C0F846
:1087C0000031022EC1F8807002BFD0F8043113438B
:1087D000C0F804316368D8F800005A1C02336260A4
:1087E00044F8235000F07EFB0020C6E7E8E70320B2
:1087F0005CE70320000000007D560B00ECDD032049
:108800000369B3EB611F2DE9F0434FEA611200F1F8
:10881000140445DD11F01F0104EB830604EB82050F
:108820000CD100F110072946B14234D39B1A9B00AA
:10883000EA1E964238BF0023234415E054F8227004
:10884000C1F12008CF4005F1040EA1467645F4465B
:1088500015D89A1A9200043A0135AE4238BF002268
:10886000A318A75007B104331A1BA3424FEAA20270
:1088700008BF0023026108BF4361BDE8F083DCF854
:1088800000C00CFA08FC4CEA070749F8047B5EF8C4
:10889000047BCF40DAE751F804CB47F804CFC3E7B5
:1088A0002346E1E7A0F13003092B02D82038C0B2FB
:1088B0007047A0F16103052B01D84738F7E7A0F115
:1088C0004103052B01D82738F1E70020704700004D
:1088D0002DE9F04F2DED028B89B008EE100A0493BC
:1088E000B44B1B68019318468B469046FFF7C7F8B8
:1088F000019BDBF800200344824613F8013C0593FA
:10890000931CC2F1FF2202F57F02FE32D1181F46EE
:1089100013F8010B00913028F8D0FFF7C3FF04468D
:1089200000283AD1019952463846FFF7B0F805467B
:10893000002868D117F80A0007EB0A06FFF7B2FF14
:10894000002862D03346187830281F4603F101030F
:10895000F9D0FFF7A7FF0123B0FA80F46409354688
:1089600000933A46164601323078FFF79BFF002805
:10897000F8D1019952463046FFF789F880B94DB9D0
:1089800006EB0A052A46164601323078FFF78AFFC1
:108990000028F8D1AD1BAD0004E000242546E0E737
:1089A000002DF7D1337803F0DF03502B3BD17378E0
:1089B0002B2B2CD02D2B2ED0711C4FF000090878BA
:1089C000FFF770FF431EDBB2182B2CD8A0F110026A
:1089D00011F8010FFFF766FF431EDBB2182B1DD9FC
:1089E000B9F1000F00D052421544CBF80010E4B1A9
:1089F000009B002B14BF00270627384609B0BDECAA
:108A0000028BBDE8F08F3E4625460124CAE74FF0B1
:108A10000009B11CD3E74FF00109FAE70A2303FB71
:108A20000202103AD4E73146DFE7F31B013B21464F
:108A3000072B0BDC18EE100A00F068FA044640B968
:108A40005D4B0246DE215D48FCF750FE01315B10B4
:108A5000EEE700F114094FF0000BCAF10103CDF865
:108A60000890CDF800B00693B74240D30298009B1F
:108A700040F8043BA0EB0900801046012061184635
:108A800000F036FB301AD8F80060B04263DD871B77
:108A90003946204600F0DAFE8246A8B17B1E591105
:108AA00003F01F0259F821104FF0010A0AFA02F2EE
:108AB0000A4209D0534505DDB91E204600F0C6FE26
:108AC000002845D14FF0020A39462046FFF798FEAC
:108AD0003D44D8F80830AB424CDA18EE100A214673
:108AE00000F054FA149A00231360A32785E7731E3D
:108AF000059A039316F8013C934219D0BBF1200F5D
:108B000007D1029B009A43F8042B029300230093A1
:108B10009B4616F8010CFFF7C5FE009B00F00F0006
:108B200000FA0BF0034300930BF1040B039B0DE0E1
:108B3000039B069A1344BB42E0D31846019907935E
:108B40005246FEF7A4FF079B0028D7D11E468BE7AD
:108B50004FF0030AB8E70ADA371A214618EE100A6E
:108B60003A4600F02FFCED1B044600F114094FF0CB
:108B7000000AAEE7D8F80400A84272DD451BAE42F9
:108B800036DCD8F80C30022B2AD0032B2CD0012B4A
:108B90001CD1AE421AD1012E12D1049AD8F8043059
:108BA000136001232361C9F80030149B62271C6005
:108BB00023E700BF48A10B00B1A00B00C2A00B002F
:108BC000711E204600F042FE0028E6D118EE100A81
:108BD000214600F0DBF9149A0023136050270CE7BC
:108BE000159B002BF2D1D8E7159B002BD5D1EDE7D3
:108BF0006F1EBAF1000F31D127B13946204600F07F
:108C000025FE82467B11012159F8233007F01F070A
:108C100001FA07F71F422946204618BF4AF0020A08
:108C2000761BFFF7EDFDD8F804500227BAF1000FCC
:108C300048D0D8F80C30022B15D0032B17D0012BBD
:108C400009D11AF0020F06D0D9F800004AEA000A4A
:108C50001AF0010F0ED147F0100733E04FF0010A70
:108C6000D0E70127E2E7159BC3F101031593159B9C
:108C7000002BF0D0D4F810B004F114034FEA8B0AA3
:108C800003EB8B014FF0000C184653F8042BB2F1A4
:108C9000FF3F1CD001320260022F04F114033FD1C8
:108CA000D8F80020013AB2420AD17111012253F8DA
:108CB000213006F01F0602FA06F61E4218BF1746BC
:108CC00047F02007149B1C60049B1D6095E69942A9
:108CD00043F804CCD8D8A3689B4519DB616818EE2B
:108CE000100A013100F012F9814618B91A4B0246F8
:108CF0008421A8E62269023204F10C0192000C30B2
:108D0000FEF749FE214618EE100A00F03FF94C46E6
:108D100023695A1C04EB8303226101225A61BBE7D9
:108D200022695A450BDD01212046FFF769FDD8F87D
:108D300008300135AB42FFF6D0AE0127C0E716F090
:108D40001F06FAD05344C6F1200653F8040C00F075
:108D5000CFF9B042E7DBF0E7B1A00B00C2F10802A7
:108D6000920070B5C2F120064368046803FA06F564
:108D70002C43D340046040F8043F8842F4D370BDD4
:108D800030B50368013311F8014B14B903600120B9
:108D900030BD13F8012BA2F14105192D98BF2032E7
:108DA000A242F0D00020F3E72DE9F04F0B685E11EE
:108DB00002EB860613F01F0387B018BF04360025A8
:108DC000371F904602680193824646F8045CB94614
:108DD0003C460295AB465178531C039341B3084679
:108DE00005920491FFF75EFD00284FD10499059A82
:108DF000202918D8029B9B4513DD4C4506D2072D30
:108E000004DC2A4649462046FFF7A8FF444550D9CE
:108E10000023A4F1040944F8043CCDF808B04C4602
:108E20001D46039AD7E7292956D10232CAF80020F5
:108E3000BBF1000F50D04C4506D2072D04DC2A466A
:108E400049462046FFF78AFF444534D9A8F1040279
:108E5000234653F8041B42F8041F9F42F9D23B1BE0
:108E600023F0030304330134033EB44288BF0423D8
:108E70004344002243F8042B9F42FBD23B681BB9BA
:108E8000474527D101233B60052026E00135082D09
:108E90000BF1010B06DD4445C3D9002344F8043C23
:108EA0000125043C226800F00F0040EA0212226013
:108EB000B7E70825B5E7019B002BDFD04FF0FF3265
:108EC000C3F1200322FA03F356F8042C1A4046F8A3
:108ED000042CD3E7043FD1E7042007B0BDE8F08FAE
:108EE00070477047704782B001B901A942B14BB1D8
:108EF00013780B601278101E18BF012002B0704763
:108F00001046FBE76FF00100F8E7000070B5466A15
:108F100004460D4676B91020FCF7B0FB02466062AD
:108F200020B9184B18486621FCF7E0FBC0E9016640
:108F30000660C660666AF36883B1636ADB6853F8EB
:108F40002500B8B9012101FA05F6721D92002046EC
:108F500000F09DFC60B1C0E901560EE02122042121
:108F6000204600F094FC636AF060DB68002BE4D1DB
:108F7000002070BD026843F825200023C0E90333B8
:108F8000F7E700BFC29E0B005CA10B0070B5466AFC
:108F900005460C4676B91020FCF770FB0246686265
:108FA00020B9094B09488A21FCF7A0FBC0E90166FA
:108FB0000660C6603CB16B6A6268DB6853F82210D9
:108FC000216043F8224070BDC29E0B005CA10B00E3
:108FD0002DE9F0410D6907460C461E4601F1140CBF
:108FE0000020DCF8003099B202FB01611E0C0B0C72
:108FF00002FB063389B2013001EB034185424CF894
:10900000041B4FEA1346ECDC0EB3A368AB4219DC39
:10901000616838460131FFF779FF804628B902467A
:109020000C4B0D48B521FCF761FB2269023204F1BB
:109030000C0192000C30FEF7AEFC21463846FFF7DB
:10904000A5FF444604EB850301355E61256120469A
:10905000BDE8F081B1A00B005CA10B002DE9F84345
:109060000C4615461F4609220833064693FBF2F3C9
:10907000002101229A4209DB3046FFF747FF40B941
:109080000246194B1948CE21FCF730FB5200013142
:10909000F0E7089B4361092D4FF00103036116DDE2
:1090A00004F10909C8462C4418F8013B0146303B3D
:1090B0000A223046FFF78CFFA045F5D1A5F1080440
:1090C0004C442D1B6319BB4204DBBDE8F8830A3412
:1090D0000925F6E714F8013B0146303B0A223046E9
:1090E000FFF776FFEEE700BFB1A00B005CA10B001D
:1090F000030C1B04D3B90004102310F07F4F04BFEE
:109100000002083310F0704F04BF0001043310F068
:10911000404F04BF80000233002805DB10F0804F71
:1091200003F1010308BF2023184670470023E4E73A
:10913000036813F0070201460BD0DA0723D498071F
:1091400049BF5B089B0801200B605CBF0B600220DD
:10915000704798B2A8B91B0C1020DAB20AB90830CF
:109160001B0A1A0704BF1B0904309A0704BF9B0897
:109170000230DA0703D45B0800F1010005D00B6070
:1091800070471046E9E70020704720207047000034
:1091900010B50C460121FFF7B9FE024628B9054B70
:1091A00005484FF4A071FCF7A1FA01234461036163
:1091B00010BD00BFB1A00B005CA10B002DE9F04F6A
:1091C00091460A69D9F810309A42B8BF0B460C464E
:1091D000BCBF4C4699462769D9F810A0A3686168BE
:1091E00007EB0A06B34285B0B8BF0131FFF78EFE28
:1091F00030B90246444B454840F25D11FCF776FA1F
:1092000000F1140505EB86082B460022434521D3C7
:1092100004F1140303EB870709F1140303EB8A023B
:1092200002923A1B153A22F00302043204F11501AE
:109230008F4238BF04220192029A03939A420CD8BB
:10924000002E03DD58F8043D002B5AD0066105B00E
:10925000BDE8F08F43F8042BD8E7B3F800A0BAF1CB
:10926000000F24D004F1140EA9464FF0000C5EF854
:10927000042BD9F800101FFA82FB89B20AFB0B11EC
:109280004FEA124BD9F8002061444FEA124C0AFB16
:109290000BC202EB114289B241EA0241774549F81B
:1092A000041B4FEA124CE2D8019A45F802C0039A17
:1092B000B2F802900433B9F1000F20D0296804F10C
:1092C000140CAE464FF0000ABCF800B0BEF8022005
:1092D00009FB0B22924489B241EA0A414EF8041B71
:1092E0005CF8042BBEF80010120C09FB021101EB14
:1092F0001A4167454FEA114AE6D8019AA950043548
:109300009AE7013E9CE700BFB1A00B005CA10B00F7
:109310002DE9F843154612F0030206460F4607D022
:10932000254C013A002354F82220FFF751FE07464E
:10933000AD103DD0746A7CB91020FCF79FF902464D
:10934000706228B91D4B1E484FF4D771FCF7CEF957
:10935000C0E901440460C460D6F82480D8F808400D
:109360004CB940F271213046FFF712FF0023C8F8D4
:109370000800044603604FF00009EB070AD53946A0
:1093800022463046FFF71AFF394680463046FFF73F
:10939000FDFD47466D100BD0206838B922462146A6
:1093A0003046FFF70BFF2060C0F800900446E4E76A
:1093B0003846BDE8F88300BFD0A20B00C29E0B0068
:1093C0005CA10B002DE9F0470C464968236903EBCB
:1093D0006218A368074691464FEA621A08F101062F
:1093E000B3420BDB3846FFF791FD054648B902460C
:1093F0002A4B2B4840F2D911FCF778F901315B0078
:10940000EEE7002300F1140100F110021846534565
:1094100037DB20692AEAEA7A04F1140319F01F09FC
:1094200001EB8A0103EB80002FD0C9F1200E8A46A0
:109430004FF0000C1A6802FA09F242EA0C024AF8EC
:10944000042B53F8042B984222FA0EFCF2D8031B8B
:10945000153B23F00303043304F11502904238BF97
:10946000042341F803C0BCF1000F01D008F102064B
:10947000013E38462E612146FFF788FD2846BDE8AB
:10948000F08742F8040F0133C1E7043953F8042B85
:1094900041F8042F9842F9D8EAE700BFB1A00B00C9
:1094A0005CA10B0030B502690C69121B0ED100F1F2
:1094B0001403143103EB840001EB840150F8045DC4
:1094C00051F8044DA54203D005D30122104630BD0A
:1094D0008342F3D3FAE74FF0FF32F7E72DE9F84F75
:1094E0000C460646114620469046FFF7DBFF051E58
:1094F00010D129463046FFF709FD30B93A4B0246F4
:1095000040F232213948FCF7F1F80123C0E9043573
:10951000BDE8F88FA4BF4346A0463046D8F80410F3
:10952000A6BF1C4600250125FFF7F0FC20B92E4BF5
:1095300002464FF41071E5E7D8F810702669C5604F
:1095400004F1140908F1140500F1140E05EB870C61
:1095500009EB860608F11002F246002159F8043B97
:1095600052F804BF1FFA83F811FA8BF11B0CA1EB20
:109570000808C3EB1B4303EB28431FFA88F81914B0
:109580004E4548EA03434AF8043BE7D8331B153BF2
:1095900023F0030304331534A64238BF04231D44CB
:1095A00073449E462E4666450ED30CF10302521BB1
:1095B00022F00302033DAC4538BF00221A4452F8A2
:1095C000043D7BB10761A3E756F8048B11FA88F2DA
:1095D000141404EB184492B242EA04424EF8042BED
:1095E0002114E0E7013FEAE7B1A00B005CA10B000A
:1095F00082B08DED000B019B12491940A1F1507111
:10960000002905DD00220B4643EC102B02B0704709
:109610004942B1F1A07F4FEA21504FF000024FF0D4
:10962000000304DA4FF4002141FA00F3ECE7A0F163
:1096300014011E29DABF4FF0004020FA01F1012188
:109640000A46E1E70000F07FF8B5056900F114076C
:1096500007EB85052E1F55F8044C2046FFF748FD03
:10966000C0F120030A28DFF87CC00B6014DCC0F1D5
:109670000B0E24FA0EF1B74241EA0C0334BF55F841
:10968000081C0021153004FA00F021FA0EF140EA1E
:10969000010243EC102BF8BDB7423ABF55F8081C45
:1096A000A5F1080600210B3817D0C0F1200C04FAF0
:1096B00000F5BE4221FA0CF445EA04058CBF56F8C9
:1096C000044C002445F07F5301FA00F024FA0CF416
:1096D00043F4401340EA0402DBE744EA0C030A4681
:1096E000D7E700BF0000F03F2DE9F743894601218D
:1096F00057EC106B9046FFF709FC044630B9024660
:10970000254B264840F20A31FBF7F0FFC7F30A5514
:10971000C7F3130335BB002E019328D0684600968B
:10972000FFF706FD009900B3019AC0F1200302FA89
:1097300003F30B43C24063610192019BA361002BC1
:1097400014BF022201222261D5B1A5F2334505449E
:10975000C9F80050C0F13500C8F80000204603B039
:10976000BDE8F08343F48013D5E76161E5E701A824
:10977000FFF7DEFC019B6361012222612030E3E7F9
:1097800004EB8203A0F23240C9F800001869FFF729
:10979000AFFCC0EB4210DFE7B1A00B005CA10B00F7
:1097A0002DE9F74F884669468146FFF74DFF01A92D
:1097B000404655EC104BFFF747FFD9F81030D8F86A
:1097C0001020A3EB020CDDE900329B1A03EB4C13D3
:1097D00051EC100B002BD6BF0A462A46C3EB0333CD
:1097E0008B462F46D4BF02EB035B02EB03572046A8
:1097F00010EE102A5B463946FDF71AFE41EC100BBD
:1098000003B0BDE8F08F013970B549111469013119
:1098100002F1140300EB810103EB8404051FA34252
:109820000CD3A31A113B23F003031132A24288BFC9
:10983000002318440023884205D370BD53F8046BFD
:1098400045F8046FEBE740F8043BF4E700F114023D
:1098500000694B11984210B511DB0ADD11F01F01B0
:1098600007D052F8234024FA01F000FA01F18C42AB
:109870000BD102EB8303934203D8002010BD0346B3
:10988000F7E753F8041D0029F5D00120F6E713B5DA
:109890004A4311460192FBF721FF044618B1019A91
:1098A0000021FEF786F8204602B010BD000000003F
:1098B0009FED010B704700BF000000000000F87F23
:1098C00049B1FF2A85BF8A2303600A704FF0FF3039
:1098D00098BF0120704708467047000038B5002245
:1098E000002304460D46FDF7EBFE28B92046294625
:1098F000BDE83840FDF7EEBF204605F10041FDF719
:10990000E9FF404261EB410138BD00BF21400B003F
:109910005D400B0085400B0089400B0000000000FB
:10992000557064617465642064656C617920746944
:109930006D6520746F3A2000557064617465642011
:1099400073746172742072616E676520746F3A205F
:1099500000557064617465642072616E676520658E
:109960006E6420746F3A2000456E746572696E678C
:109970002073657475702066756E6374696F6E2EE2
:109980000053657475702066696E6973686564213B
:1099900000686F6F6B2D726573706F6E73652F55F6
:1099A000706461746500686F6F6B2D726573706FA2
:1099B0006E73652F52656164696E670064756D6DC5
:1099C000795F6461746100436F6E646974696F6E7E
:1099D00073206D65742C20707265706172696E679A
:1099E00020746F2074616B652061206D65617375F3
:1099F00072656D656E74210057616974696E6720C8
:109A0000666F722061206D6561737572656D656E3C
:109A1000742C20627574206974206861736E2774D9
:109A2000206265656E206C6F6E6720656E6F75676E
:109A300068207965742E0057616974696E672066C5
:109A40006F722061206D6561737572656D656E74EE
:109A50002C206275742069742773206E6F742069DE
:109A60006E207468652061636365707461626C6503
:109A70002074696D65206672616D652E2043757274
:109A800072656E742074696D653A20005265717557
:109A9000657374696E672061206D656173757265A9
:109AA0006D656E74202D20706C6163652066696E33
:109AB000676572206F6E2073656E736F722E00463D
:109AC000696E676572206465746563746564206F90
:109AD0006E2073656E736F722E00456E74657269C9
