:02000002B0004C
:1040000000400B008C670B00000006000C0005024E
:084010000401A50F00000000EF
:0440180084630B00B2
:10401C0009480A49884208B505D0094A824202D0AB
:10402C00121A02F0B6F80748074A0021121A02F0D9
:10403C00D8F8014808BD00BF3CE10320F8660B002E
:10404C00A8E10320A8E10320EDE7032070B5074E9B
:10405C00074C01F06FFAA41BA4080025AC4200D158
:10406C0070BD56F8043B98470135F7E7A4660B0082
:10407C00C8660B0000F016B808B500F039F8BDE8BA
:10408C00084001F00FBA00F071BF00F06FBF00F0F4
:10409C0075BF0078B0FA80F04009704701230370B7
:1040AC00704700001FB5104C01F0E4FD4FF41651A1
:1040BC0001F0D4FD204600F06FFA40F29B134FF450
:1040CC008052CDE9013264230093042202233C2167
:1040DC00204600F01BFB01F0CDFD044904B0BDE807
:1040EC00104001F078B900BF90E2032098630B00F8
:1040FC002DE9F04F704E714CDFF8CC91DFF8CC818C
:10410C00642399B0336000253168EFB28F4216DA20
:10411C00204600F00DF918B9204600F051F9F7E7E8
:10412C00204600F011FA29F81700204600F01AFA80
:10413C0028F81700204600F005F90135E4E7604F38
:10414C00DFF8B081DFF8B0915E4B5F4A5F480297B1
:10415C00CDF80480CDF8009000F036FCDFF89CA17F
:10416C00DFF89CB1554C58489622514602F01FF886
:10417C0056489622594602F01AF84B25204600F074
:10418C00D7F818B9204600F01BF9F7E7204600F0E5
:10419C00DBF94D4B23F81500204600F0E3F94B4BAF
:1041AC0023F815002046013500F0CCF8642DE5D13C
:1041BC0099F900301BB1434B1A68454B1A6097F9BB
:1041CC0000301BB1434BD8F800201A603D4B3E4ADF
:1041DC0031683E48CDF80090CDE9018700F0F4FB42
:1041EC003D4B1B6847F23052B3FBF2F102FB11332B
:1041FC00002BB8D1394908A800F0D7FF08A910A89E
:10420C0000F0F6FF334B0A2219680CA801F020F8D5
:10421C000CA910A801F047F8314901F050F83149C8
:10422C0001F04DF82A4B0A221968054614A801F032
:10423C000FF814A9284601F036F82B4901F03FF885
:10424C00014604A800F0D4FF14A800F063FF0CA8EA
:10425C0000F060FF10A800F05DFF08A800F05AFF06
:10426C0004A914A800F0C4FF204B149A1B788DF8F5
:10427C0000301F493C2310A801F0BAFA119D7DB102
:10428C006B68013B6B605BB92B6828469B68984751
:10429C00AB68013BAB601BB92B682846DB689847C1
:1042AC0014A800F037FF01F0E5FC049901F093F835
:1042BC0004A800F02FFF56E7ACE1032090E20320A6
:1042CC0064E3032060E3032098E20320C4E10320AD
:1042DC006CE3032068E303208CE20320A8630B004B
:1042EC00B2630B00B4630B00BD630B00A8E10320A9
:1042FC00BF630B00C0E1032065E30320CAE2032087
:10430C00F6E1032008B5064B064801221A7000F0AE
:10431C000DF80A22BDE808400348114600F085BF9D
:10432C00A8E1032090E20320B0E1032070470000D5
:10433C00034B93F8300093F83130C01AC0B2704779
:10434C0070E30320064A92F8313092F8301099420B
:10435C001EBF013303F0030382F83130704700BFF6
:10436C0070E3032038B50C46154601F0E3FE2146F8
:10437C0001F088FD01F0DEFE036829469B68984732
:10438C0001F0D8FE01F086FD01F0D4FE0122214699
:10439C0001F075FD01F0CEFE03681B69984728B14A
:1043AC0001F0C8FE03685B699847C0B238BD0422AF
:1043BC005721FFF7D7BF06225721FFF7D3BF0000C5
:1043CC002DE9F7430746FFF7F6FF04463846FFF79B
:1043DC00EEFF844200F09B80041B48BF20347E79A2
:1043EC00DFF8348101F0A6FE572101F04BFD01F0FE
:1043FC00A1FE036807219B68984701F09BFE01F022
:10440C0049FD664306EB4606002E40F38180202EC4
:10441C00C3BF7D7905EB450320253546C4BFB5FBED
:10442C00F3F55D4301F086FE2A46572101F027FD86
:10443C00761B4FF00009002DE6DD98F830308DF832
:10444C000790013303F0030388F8303001F072FE5B
:10445C0003685B6998478DF8060001F06BFE0368F2
:10446C005B6998478DF8050001F064FE03685B6991
:10447C0098478DF80400019B98F83020C3F3110382
:10448C0048F822307B79012B1CD901F053FE0368CC
:10449C005B6998478DF8060001F04CFE03685B6978
:1044AC0098478DF8050001F045FE03685B69984755
:1044BC0098F830308DF80400019A0433C2F31102DD
:1044CC0048F823207B79022B1CD901F033FE0368BA
:1044DC005B6998478DF8060001F02CFE03685B6958
:1044EC0098478DF8050001F025FE03685B69984735
:1044FC0098F830308DF80400019A0833C2F3110299
:10450C0048F823207B79A3EB83031D4493E7002415
:10451C00A0B203B0BDE8F08370E3032070B505468C
:10452C000E4600F09FFB044600F09CFB001BB042C3
:10453C0008D82846FFF744FF012804D0012000F0DA
:10454C0085FFF1E7002070BD08B5FA21FFF7E6FF03
:10455C0020B1034B93F8302053F8220008BD00BF64
:10456C0070E3032008B5FA21FFF7D8FF28B1034AFE
:10457C0092F83030043352F8230008BD70E3032066
:10458C00FF225721FFF7EEBE10B5FE22572104463D
:10459C00FFF7E8FEA07110BD10B5044601F0CAFD8E
:1045AC0001F03EFC2046FFF7EBFF2046FFF7ECFF47
:1045BC00012010BD37B515461C46019101F0BAFD1E
:1045CC00019901F05FFC01F0B5FD036829469B6879
:1045DC00984701F0AFFD036821469B68984701F0AE
:1045EC00A9FD03B0BDE8304001F054BC0B460C22D1
:1045FC005721FFF7DFBF0B460D225721FFF7DABF1C
:10460C000B460E225721FFF7D5BF0B461022572120
:10461C00FFF7D0BF10B50023044604225721FFF743
:10462C00C9FF2046002305225721FFF7C3FF204670
:10463C000023BDE8104006225721FFF7BBBF2DE930
:10464C00F0410C4617460A46572105461E46FFF711
:10465C0089FE384046EA0003224628465721BDE829
:10466C00F041FFF7A7BF38B5BF224023092105460B
:10467C00FFF7E5FF00F0F6FA044600F0F3FA001B32
:10468C0063280AD8092257212846FFF76BFE4306F8
:10469C0003D5012000F0DAFEEFE738BD0B46F82217
:1046AC000921FFF7CCBF0B469F220A21FFF7C7BF9A
:1046BC000B46E3220A21FFF7C2BF0B46FC220A215C
:1046CC00FFF7BDBF01391346032914D8DFE801F009
:1046DC0002060B0EF8221121FFF7B1BF1B0103F0EC
:1046EC00F0038F22F7E7F8221221F5E71B0103F004
:1046FC00F0038F22F8E770470B461F220821FFF7C3
:10470C009EBF1023EF220821FFF799BF2DE9F04738
:10471C001546DDE90879DDF828A0044688461E46D2
:10472C00FFF7A1FF012D49D100212046FFF7E4FF3F
:10473C002046FFF7E6FF032E54D107212046FFF752
:10474C00ADFFBAF5805F667151DA00212046FFF7A4
:10475C00AAFF632F58DC00212046FFF7A9FFB9F10F
:10476C00750F71DC00212046FFF7A7FF414620465C
:10477C00FFF73CFF41462046FFF73DFF41462046F0
:10478C00FFF73EFF41462046FFF73FFF012211464F
:10479C002046FFF797FF012E0BD902221146204627
:1047AC00FFF790FF022E04D0032211462046FFF79C
:1047BC0089FF2046BDE8F047FFF72CBF022D01D141
:1047CC002021B2E7042D01D14021AEE7082D01D103
:1047DC006021AAE7102D01D18021A6E7202DF3D16D
:1047EC00A021A2E7022E0CBF03210221A6E7BAF5F5
:1047FC00005F01DA2021A9E7BAF5804F01DA4021E8
:10480C00A4E7A2D16021A1E7C72F01DC0421A3E713
:10481C00B7F5C87F01DA08219EE7B7F5487F01DAC2
:10482C000C2199E7B7F57A7F01DA102194E7B7F5F7
:10483C00C86F01DA14218FE7B7F5486F01DA182138
:10484C008AE788D11C2187E7B9F1D60F01DC012159
:10485C0089E7B9F5CD7F01DC022184E740F29B1397
:10486C0099457FF47FAF03217DE72DE9F0410024CA
:10487C000C6003F1FF380124A04527DD069D52F89A
:10488C0024C0AC454FEA840604F101051CDD164436
:10489C0056F8046CB44517DD2E469E4252F826702D
:1048AC00A6EB040E354603D0BC4506F10106F4D048
:1048BC00BC4509DD0E680E2E06DC751C0D600EF174
:1048CC00010540F8264025442C46D5E7BDE8F0818B
:1048DC00F0B5012304468B420FDA54F8046F1A46E4
:1048EC00254655F8047CB74203DD013A45F80479B6
:1048FC00F7D140F822600133EDE7F0BD2DE9F0432C
:10490C00012390460D46434516DA55F8046F1C46B4
:10491C0000EB8609AC46D9F800205CF8047C96467E
:10492C0050F82720964503DD013C4CF80479F2D170
:10493C0041F824600133E6E7BDE8F0832DE9F0414E
:10494C0004461F4610460D460A682146FFF7D6FF5F
:10495C004FF0FF32C7F1000E296891421DDD531C48
:10496C001E462B60B14216D0501C18BF54F82200C2
:10497C0054F826C008BF1046ACEB0000B84201DC6E
:10498C00864506DD286800F10108C5F8008044F86A
:10499C0020C00136E6E71A46DEE72046BDE8F041C6
:1049AC00FFF796BF37B5069D0095FFF75EFF0C46E7
:1049BC00079BFFF7C3FF2268089B9A42D4BF226073
:1049CC00236003B030BD00002DE9F04F9DB0DDE950
:1049DC002798164600229B4605460C461346A242D3
:1049EC0004DA35F8121001320B44F8E78D4FB3FBA3
:1049FC00F4F338460022A24206DA35F81210591A9E
:104A0C0040F8041B0132F6E7864A0021136852F87D
:104A1C00040F03445068034490681B1848BF0333C9
:104A2C0001319B10602942F8043CEFD100237D4AF0
:104A3C009A4652F8041B0AF1010ABAF1640F0B44AE
:104A4C00F7D140F6B73293424FDD93FBFAFABAF145
:104A5C003C0FA8BF4FF03C0A3C2200210DA801F0EE
:104A6C00C0FB04230F22CDE90132CDF800A06D4A22
:104A7C00642307A90DA8FFF795FF079B012B4FF0A7
:104A8C00000235DD0DA94FF0010C0846D1F804E009
:104A9C0000680CF1010CAEEB0000634501F1040160
:104AAC000244F2D1591E92FBF1F240F2DC5191FB1F
:104ABC00F2F2C9F8002001225B4988F8002000229C
:104ACC00A24219DB0022CDE90822CDE90A220DAE63
:104ADC000C92314693421BDD51F8040B642815DD12
:104AEC00524BCBF80030002392E04FF01E0AB3E794
:104AFC004E49C9F80010DFE735F8120047F8040BEF
:104B0C0036F8120041F8040B0132D9E70132E1E723
:104B1C000024013B434FDFF810C104942546214685
:104B2C000593DDE90423934256DDD6F8048056F84C
:104B3C00040B1346A8EB00090133B9F1030F0493DE
:104B4C00EFDD4FF07F4E0346F24698450EDD57F8E9
:104B5C0023207245C8BF96465CF82320C8BF1C466C
:104B6C005245C4BF1D4692460133EEE757F820204C
:104B7C0057F828309B1A221A534357F8202093FBDE
:104B8C00F9F3134457F82520D21A0AFB02F24FEA24
:104B9C00E21ABAF1000FC4DD0429C2DC5CF8203043
:104BAC005CF82820281AD21A504390FBF9F01844CC
:104BBC005CF825301B1A0EFB03FE5FEAEE1EB0D02C
:104BCC001CAB03EB8108642303FB0EF2013192FB57
:104BDC00FAF248F8502CA4E708A8FFF779FE4A101F
:104BEC0003294FEA820318DD1CA901EB820151F85D
:104BFC00543C51F8502C134403EBD3735B10DA1E66
:104C0C00B42A3FF66DAF0A4AD35CCBF800300123CF
:104C1C00269A13701DB0BDE8F08F1CAA134453F8EC
:104C2C00503CECE7A4E3032034E5032019FCFFFF20
:104C3C00C7630B0008B5024B1B689B68019308BD4A
:104C4C006802030008B5024B1B68DB68019308BDC2
:104C5C006802030008B5024B1B685B68019308BD32
:104C6C001802030008B5024B1B685B69019308BD71
:104C7C001802030008B5024B1B685B6C019308BD5E
:104C8C004802030008B5024B1B685B69019308BD21
:104C9C006402030008B5024B1B68DB68019308BD76
:104CAC003C02030008B5024B1B681B69019308BD4D
:104CBC003C02030008B5024B1B685B69019308BDFD
:104CCC003C02030008B5024B1B689B69019308BDAD
:104CDC003C02030008B5024B1B68DB69019308BD5D
:104CEC003C02030008B5024B1B689B6A019308BD8C
:104CFC003C02030008B5024B1B681B6C019308BDFA
:104D0C003C02030008B5024B1B68DB68019308BD2D
:104D1C002802030008B5024B1B689B69019308BD70
:104D2C002802030008B5024B1B68DB69019308BD20
:104D3C002802030008B5024B1B681B6A019308BDCF
:104D4C002802030008B5024B1B685B6A019308BD7F
:104D5C002802030008B5024B1B689B6A019308BD2F
:104D6C002802030008B5024B1B68DB6A019308BDDF
:104D7C002802030008B5024B1B681B6B019308BD8E
:104D8C002802030008B5024B1B681B6C019308BD7D
:104D9C002802030008B5024B1B681B6D019308BD6C
:104DAC002802030008B5024B1B681B68019308BD61
:104DBC004C02030008B5024B1B685B68019308BDED
:104DCC004C02030008B5024B1B681B69019308BD1C
:104DDC004C02030008B5024B1B685B69019308BDCC
:104DEC004C02030008B5024B1B689B69019308BD7C
:104DFC004C02030008B5024B1B68DB69019308BD2C
:104E0C004C02030008B5024B1B681B6A019308BDDA
:104E1C004C02030008B5024B1B685B68019308BD8C
:104E2C002002030008B5024B1B685B69019308BDA7
:104E3C002002030008B5024B1B68DB6C019308BD14
:104E4C002002030008B5024B1B685B6D019308BD83
:104E5C002002030008B5034B1B68D3F8883001937C
:104E6C0008BD00002002030008B5034B1B68D3F8F3
:104E7C009430019308BD00002002030008B5024BDA
:104E8C001B685B68019308BD4002030008B5024B28
:104E9C001B689B68019308BD4002030008B5024BD8
:104EAC001B68DB68019308BD4002030008B5024B88
:104EBC001B681B69019308BD4002030008B5024B37
:104ECC001B685B69019308BD4002030008B5024BE7
:104EDC001B689B69019308BD4002030008B5024B97
:104EEC001B68DB69019308BD4002030008B5024B47
:104EFC001B681B6A019308BD4002030008B5024BF6
:104F0C001B681B6B019308BD4002030008B5024BE4
:104F1C001B685B6B019308BD4002030008B5024B94
:104F2C001B681B6C019308BD4002030008B5024BC3
:104F3C001B685B6C019308BD4002030008B5024B73
:104F4C001B685B69019308BD4402030008B5024B62
:104F5C001B681B6A019308BD4402030008B5024B91
:104F6C001B68DB6B019308BD4402030008B5024BC0
:104F7C001B681B68019308BD1C02030008B5024B9B
:104F8C001B685B68019308BD1C02030008B5024B4B
:104F9C001B689B68019308BD1C02030008B5024BFB
:104FAC001B68DB6A019308BD1C02030008B5024BA9
:104FBC001B681B6B019308BD1C02030008B5024B58
:104FCC001B681B6C019308BD1C02030008B5024B47
:104FDC001B685B6C019308BD1C0203000022406837
:104FEC001146FFF783BF002240681146FFF78EBFC2
:104FFC0040680022FFF782BF4068002281F0010167
:10500C00FFF76CBF002340681A461946FFF75EBFD6
:10501C00002340681A461946FFF750BF002240682B
:10502C001146FFF743BF002240681146FFF72EBF21
:10503C00406800220221FFF731BF002340681A4666
:10504C00FFF71CBF024B03225A60024A1A607047DA
:10505C00C4E6032088640B00054B02221A60054B42
:10506C00054A9A600020C3E90000FFF7D3BE00BFD9
:10507C00D8E60320CCE603200000FFFF10B5044661
:10508C0001F00BF9013823182046834206D9027827
:10509C00197800F8011B03F80129F6E710BD70B56B
:1050AC000C46911E22291DD8254630B923443022A6
:1050BC009D4210D205F8012BFAE7B0FBF2F602FB89
:1050CC001600C1B2092894BF30315731C9B205F866
:1050DC00011B3046E9E7002320462B70FFF7CEFF7B
:1050EC00204670BD0020FCE738B5031E0C46154663
:1050FC000EDAB3F1004F4FF02D0214BF5842184690
:10510C0001230A702A461944FFF7C9FF204638BD0F
:10511C000123F9E710B504460068FFF72FFF20467E
:10512C0010BD10B50446006808B1FFF727FF002337
:10513C00C4E90133236010BD38B504460D46006840
:10514C000131FFF723FF10B1C4E90005012038BD80
:10515C0010B50368044623B143688B4201D3012088
:10516C0010BD2046FFF7E8FF0028F9D0A368002BFC
:10517C00F5D122681370F2E737B50D46114601924E
:10518C000446FFF7E5FF019A28B92046FFF7C9FF4F
:10519C00204603B030BDA2602946206800F0F9FF1C
:1051AC002268A3680021D154F2E7002313B5C0E9AB
:1051BC00003304468360037341B10846019101F04A
:1051CC006CF8019902462046FFF7D6FF204602B044
:1051DC0010BD884210B5044605D00B682BB18A6807
:1051EC001946FFF7C9FF204610BDFFF79AFFFAE7F3
:1051FC0010B500230446C0E9003383600373FFF746
:10520C00E8FF204610BD13B5044659B1084601917C
:10521C0001F043F8019902462046FFF7ADFF204606
:10522C0002B010BDFFF77DFFF9E710B504468AB058
:10523C000023C4E90033A3602373084601A9FFF7D8
:10524C0053FF01A92046FFF7DEFF20460AB010BD30
:10525C0010B504468AB00023C4E90033A36023735D
:10526C000846012301A9FFF71AFF01A92046FFF701
:10527C00CAFF20460AB010BD70B505460E4609B9E6
:10528C00002070BD6AB1846814442146FFF760FFAA
:10529C000028F5D02868AB683146184400F0D8FFD8
:1052AC00AC600120EDE710B58A6809680446FFF789
:1052BC00E3FF10B92046FFF734FF204610BD13B5AD
:1052CC00044629B92046FFF72CFF204602B010BD3A
:1052DC000846019100F0E1FF019902462046FFF7D4
:1052EC00CBFF0028EED0F0E710B58368044613B16D
:1052FC00032201469847204610BD10B54368013B78
:10530C000446436063B903689B689847A368013BF4
:10531C00A3602BB923682046DB68BDE81040184712
:10532C0010BD10B50446006808B1FFF7E6FF204633
:10533C0010BD13B50B460246D0E900016C4684E85B
:10534C00030093E8030082E8030094E8030083E879
:10535C00030002B010BD0000024800230360FFF7F9
:10536C0089BC00BFDCE60320F8B506460D468F1855
:10537C000024BD420CD0336815F8011B9B683046E5
:10538C009847031E01DB1C44F3E7002C08BF1C46A6
:10539C002046F8BD13B50446084659B1019100F0FA
:1053AC007CFF23680199DB680246204602B0BDE809
:1053BC001040184702B010BD03689B68184738B5F9
:1053CC000D210546FFF7F8FF0A2104462846FFF792
:1053DC00F3FF204438BD38B50546FFF7DBFF044624
:1053EC002846FFF7ECFF204438BD30B58BB00023C6
:1053FC00012A8DF8243098BF0A2209AC0D46B1FB66
:10540C00F2F101FB125303F0FF03092B94BF30336D
:10541C003733DBB2AA4204F8013DEFD92146FFF73E
:10542C00B9FF0BB030BD0000014B024A1A60704747
:10543C00E0E60320BC640B00024B1A68024B1A60B6
:10544C00704700BF3CE10320E4E603200021FFF796
:10545C00E9BC0000014B00229A607047E8E603208B
:10546C00014B1860704700BF40E1032008B50B4B9F
:10547C0043B100F0FFFB03681B699847002801DD6E
:10548C00AFF30080064B43B100F014FE03681B69B8
:10549C009847002801DDAFF3008008BD0000000034
:1054AC000000000008B5FFF7E1FFFFF7DBFB014B45
:1054BC00186008BD40E703200548064A064908B5B0
:1054CC00121A00F066FE054B054A1A6008BD00BFB3
:1054DC0000F4032004F40320F4660B0000F4032012
:1054EC001E1C279A07B5002300931A466FF077010C
:1054FC00FFF7BAFC03B05DF804FB000007B5438866
:10550C000A2B08D0502B0BD1094B1B684BB103B0A5
:10551C005DF804EB1847FFF7E5FF03B05DF804FBFB
:10552C00002300931A466FF07701FFF79DFCF4E718
:10553C00FCE6032010B512480021FFF747FD114B84
:10554C001A68114B9A42114B0CBF012200221A709F
:10555C0001D0FFF7B1FFFFF77DFB044600F04AFED8
:10556C000B4B13B12046AFF3008000210848FFF726
:10557C00F5FCBDE8104007480021FFF76BBC00BFED
:10558C006D540B0000F403201E1C279AF8E6032030
:10559C000000000009550B0070470020704710B543
:1055AC0010210446FEF773FD204610BD08B5FFF729
:1055BC00F6FF08BD30B500224FF69C740260848063
:1055CC008D888C800C68858004600A6030BD10B5B5
:1055DC0004460068FFF7D2FC204610BD38B5C468FD
:1055EC00F4B12378022B03D104F10C00FFF7EFFF89
:1055FC00656835B12846FFF777FE10212846FEF77F
:10560C0046FDA56835B12846FFF76EFE10212846E9
:10561C00FEF73DFD20461421BDE83840FEF737BDAE
:10562C0038BD0B6803604B68436013B15A68013294
:10563C005A60704737B5044668460D46FFF7F1FFD0
:10564C00009B019A23606260002301A801930093E0
:10565C00FFF767FE35B1281DFFF763FE08212846CA
:10566C00FEF715FD204603B030BD826810B50AB9AF
:10567C0000F086FDBDE81040C368184708B5006807
:10568C0000F11001FFF7F1FF08BD826810B50AB9EF
:10569C0000F076FDBDE81040C368184708B50068F7
:1056AC0000F11001FFF7F1FF08BD000038B5002331
:1056BC000446036010200D46FEF7E5FC28B10123DB
:1056CC00C0E90133024B0360C5602060204638BD41
:1056DC00E4640B0038B5002383608B6804460D46E8
:1056EC002BB102229847EB68E360AB68A3602046BD
:1056FC0038BD0000F0B589B004686846FFF75AFF62
:10570C004FF00203D4E84F2F002A03D1C4E8413FE5
:10571C000029F7D125D104F10C0569462846FFF77D
:10572C0049FFBFF35B8F01236370002004F1080372
:10573C00BFF35B8F53E8006F43E80002002AF9D1F6
:10574C00BFF35B8F6EB1FFF775FB78B1294630461E
:10575C00FFF78BFF3046FFF7C7FD10213046FEF7F1
:10576C0096FC6846FFF733FF09B0F0BD314602A83E
:10577C00FFF7B0FFE068B4F9105008B100F070FD0D
:10578C0006901020ADF81C50FEF77DFC0546E8B1E4
:10579C00002787601820FEF776FC044688B1014686
:1057AC00876002A8FFF7C5FD049BA268A360059B58
:1057BC00049206A9E268E36004F110000592FFF779
:1057CC00F9FE084BEB60084B2C60AB6006A8FFF7AA
:1057DC00FEFE02A8FFF788FD002229460348FFF7CA
:1057EC0031FBB7E789560B000D590B00715D0B00AF
:1057FC002DE9F04F8BB005469DF850A00F46904612
:10580C009946FFF79BFB07AE834638BB4FF62E73CA
:10581C00059005A93046ADF81830FFF7CBFE1420E3
:10582C00FEF731FC044648B1022303700123C0E9A2
:10583C0001BB437031460C30FFF7BCFE28462146B5
:10584C0040F8044BFFF732FF3046FFF7C0FE05A8C7
:10585C00FFF7BDFE28460BB0BDE8F08F0C230024EB
:10586C001420CDE908440793FEF70DFC014618B14E
:10587C00C0E901440470447004A80391FFF716FFBB
:10588C001E4B08930820FEF7FEFB044610B103A93B
:10589C00FFF7C7FE00965FFA8AF34A464146384640
:1058AC000994FFF753FBB8B9039B5B7803F0FF0235
:1058BC0093B94FF69C7305A903A80592ADF818305F
:1058CC00FFF718FF05A8FFF782FE05A80999FFF757
:1058DC00B1FE06A8FFF725FD03A905A8FFF7A1FE59
:1058EC00059B069A2B606A60002306A80693059315
:1058FC00FFF717FD04A8FFF714FDABE789590B0060
:10590C00012AF8B5054603D10B6803600020F8BDE9
:10591C00022A10D0032AF9D10468002CF6D004F125
:10592C001000FFF754FE2046FFF7DEFC182120463E
:10593C00FEF7ADFBEAE718200E68FEF7A4FB044661
:10594C0050B13146FFF7C6FE3069B6F9147008B194
:10595C0000F086FC2061A7822C60D7E738B50023C5
:10596C0083608B6804460D462BB102229847EB6886
:10597C00E360AB68A360204638BD0000F0B589B089
:10598C0004460D4601A81146FFF754FEA4B124B2FB
:10599C001DB1284600F064FC054601A803A9039537
:1059AC00ADF81040FFF7A6FE03A8FFF710FE02A803
:1059BC00FFF7B7FC09B0F0BD019D0123D5E84F2FCF
:1059CC00002A03D1C5E8413F0029F7D1EFD12B7351
:1059DC00BFF35B8F6B702B1DBFF35B8F53E8006FB6
:1059EC0043E80042002AF9D1BFF35B8F002EDED0D2
:1059FC002046FFF71FFA074660B105F10C0130464F
:105A0C00FFF743FE3046FFF76FFC10213046FEF7E0
:105A1C003EFBCCE7314603A8FFF7A0FF2B7B8DF8AC
:105A2C001C301020FEF72FFB0546D0B187601420E8
:105A3C00FEF729FB044678B18760014603A8FFF7FF
:105A4C0078FC059BA268A360069B0592E268E36064
:105A5C009DF81C3006922374064BEB60064B2C60B1
:105A6C00AB6003A8FFF740FC002229460348FFF770
:105A7C00E9F9C7E7A9560B008D5A0B00715D0B00B5
:105A8C00012A70B5044603D10B680360002070BD79
:105A9C00022A0CD0032AF9D10468002CF6D0204637
:105AAC00FFF722FC14212046FEF7F1FAEEE7142052
:105ABC000E68FEF7E8FA054620B13146FFF74EFFB7
:105ACC00337C2B742560E1E7704710B51821044630
:105ADC00FEF7DDFA204610BDF0B5037D062B8DB028
:105AEC000E4600F104074FF0000412D000F1080537
:105AFC0015F8011D0A223046FFF777FCAF4204442B
:105B0C0019D0002CF4D02E213046FFF755FC04445C
:105B1C00EEE72F236A4639460A208DF80040FFF73E
:105B2C00B1F8684600F0B9FB33680246DB68694699
:105B3C0030469847044620460DB0F0BD10B5054BD5
:105B4C000446112240F8043B002100F04AFB204699
:105B5C0010BD00BF00650B000346074A10B543F8A3
:105B6C00042B01F1100251F8044B43F8044B914201
:105B7C00F9D10A781A7010BD00650B0010B59DF8AC
:105B8C00084044EA032343EA024242EA0161042347
:105B9C004160037510BD000007B5064B0360CB7860
:105BAC0000938B784A780978FFF7E8FF03B05DF82B
:105BBC0004FB00BF00650B004174704770477047D1
:105BCC0008B50021007CFFF70DF940EAE07008BD34
:105BDC0008B50121007CFFF705F940EAE07008BD2B
:105BEC0008B5007CFFF7F6F820EAE07008BD08B5B0
:105BFC00007CFFF7E7F820EAE07008BD13B5044617
:105C0C00007C0191FFF7E6F80028019901DC607C2B
:105C1C0020B1207CFFF7EEF820EAE07002B010BD56
:105C2C00007CFFF7EFB810B514210446FEF72FFAED
:105C3C00204610BD10B54FF47A7304460846002177
:105C4C00C4E90113044B23600123207463741146CF
:105C5C00FFF7A8F8204610BD14650B00007C00224D
:105C6C00FFF7A8B810B514220446002100F0B9FAC9
:105C7C00204610BD10B50F4C88B003A8FFF7F2FFFB
:105C8C002178BFF35B8F11F001010FD120460191F8
:105C9C00FEF7FFF9019948B103AA0748FFF7CAFFBD
:105CAC002046FEF7FBF9054800F06DFA024808B0F3
:105CBC0010BD00BF00E7032004E70320C95B0B0005
:105CCC0070474174704708B5007CFFF70BF820EA69
:105CDC00E07008BD08B5007CFEF7E4FF20EAE07038
:105CEC0008BD08B5007CFEF7EDFF40EAE07008BD8A
:105CFC0008B5007CFEF7DEFF40EAE07008BD007CD2
:105D0C00FEF7E8BF37B5457C04462DB1207C03B0C7
:105D1C00BDE83040FEF7BEBF007C0191FEF7E2FF0C
:105D2C0000280199F2DC284603B030BD10B51421CF
:105D3C000446FEF7ACF9204610BD000010B54FF438
:105D4C007A730446084611460022C4E90123044B29
:105D5C002360012320746374FEF7CCFF204610BD32
:105D6C0044650B0010B5836804460BB900F008FAC3
:105D7C00C3689847A3681BB1032221462046984765
:105D8C0020461021BDE81040FEF781B97047F8B5E8
:105D9C00064615460C468F18BC4206D0336814F8DC
:105DAC00011B9B6830469847F6E72846F8BD007CF7
:105DBC000022FEF7BFBF007C0021FEF7C3BF007CB2
:105DCC000021FEF7C7BF007C0021FEF7CBBF007C93
:105DDC000021FEF7CFBF10B514210446FEF757F98A
:105DEC00204610BD38B5044615464FF47A73002290
:105DFC00C4E90123094B2174084623602946FEF7A8
:105E0C00C1FFBF3008D16B69DB0705D56868FFF7A8
:105E1C00B5F8E868FFF7B2F8204638BD74650B009A
:105E2C000023007C1A461946FEF76CBF7FB5002292
:105E3C001423CDE90122ADF804300B788DF808302D
:105E4C004B680393CB680493007C0B7A059301A9F0
:105E5C00FEF7A0FF07B05DF804FB1FB5003B8DF803
:105E6C0000104FF06401039118BF012369460192A1
:105E7C008DF80830FFF7DAFF05B05DF804FB01235D
:105E8C00FFF7EBBF007C0022FEF744BF007C002232
:105E9C00FEF748BF0121FFF7F9BF00224068114609
:105EAC00FFF704B8002240681146FFF71FB8002224
:105EBC0040681146FFF72AB840680022FFF71EB869
:105ECC004068002281F00101FFF708B80023406808
:105EDC001A461946FEF7FABF002340681A461946BF
:105EEC00FEF7ECBF002240681146FEF7CFBF4068BA
:105EFC0000220221FEF7D2BF002340681A46FEF7AB
:105F0C00BDBF0000024B04225A60024A1A6070475F
:105F1C0018E703209C650B00002340681A46FEF727
:105F2C00ADBF406800220221FEF7B8BF00224068D6
:105F3C001146FEF7ABBF002240681146FEF7B6BF14
:105F4C00002340681A461946FEF7B8BF0023406884
:105F5C001A461946FEF7BABF40680021FEF7DEBFAD
:105F6C0040680021FEF7E2BF4068002281F0010189
:105F7C00FEF7B4BF40680022FEF7C0BF00224068A5
:105F8C001146FEF7C3BF002240681146FEF7AEBFB4
:105F9C002DE9F04395B014460D460746FFF7CEFDAC
:105FAC0000211C220DA8009100F01BF940230C933A
:105FBC0020466B460CAA0021FEF744FE044600283E
:105FCC004BD1024601216868FEF770FF0221804622
:105FDC0022466868FEF76AFF009E81462146002E25
:105FEC003BD0002939D17368022B03D00A2B11D076
:105FFC00F669F4E7B8F1000FFAD0716906A804311C
:10600C0007ADFFF7C9FD0FCD3C1D0FC42B682370E6
:10601C004146EDE7B9F1000FEAD07469102201A8EE
:10602C0000F0DFF806238DF8143001AD04F10803FD
:10603C001834186859682A4603C20833A342154617
:10604C00F7D101A906A807ADFFF786FD0FCD3C1DC2
:10605C000FC42B6823704946CAE70098FEF7EAFD87
:10606C00384615B0BDE8F083024B034A1A60002293
:10607C005A60704720E70320D8650B00704700007A
:10608C0038B5044614252A46002100F0AAF82580CC
:10609C004025074925812846258200F06FF80449E0
:1060AC006060284600F06AF8E060204638BD00BF0A
:1060BC000C660B0030B50E4D2978BFF35B8F11F0D9
:1060CC00010487B011D12846FDF7E3FF68B101A8A0
:1060DC00FFF7D6FF01AA21460648FFF72FFE2846F8
:1060EC00FDF7DCFF044800F04EF8024807B030BD65
:1060FC0028E703202CE7032089600B007047000081
:10610C0038B50A4B0360012304464361084920203B
:10611C0000F034F8202560600549A560284600F0A1
:10612C002DF8C4E90305204638BD00BF1800010056
:10613C000C660B0030B50E4D2978BFF35B8F11F058
:10614C00010487B011D12846FDF7A3FF68B168465A
:10615C00FFF7D6FF6A4621460648FFF743FE28465E
:10616C00FDF79CFF044800F00EF8024807B030BD64
:10617C0044E7032048E7032009610B00FDF785BFC6
:10618C0008B5FEF70BFF002301461A46184600F02F
:10619C008DB80A44914200F1FF3300D1704710B51D
:1061AC0011F8014B03F8014F9142F9D110BD88420F
:1061BC0010B501EB020402D98442234607D8431ED2
:1061CC00A14208D011F8012B03F8012FF8E7024483
:1061DC0001468A4200D110BD13F8014D02F8014D61
:1061EC00F7E702440346934200D1704703F8011BC2
:1061FC00F9E7000038B5104B1D68AB6B0446B3B91A
:10620C001820FEF7B3FE0246A86320B90B4B0C48CE
:10621C004221FEF7D3FE0B490B4BC0E900130B4B8D
:10622C0083600B23838100210120C2E90401AB6B45
:10623C0000221C615A6138BD40E103200D660B0041
:10624C0024660B000E33CDAB34126DE6ECDE05008C
:10625C00034611F8012B03F8012B002AF9D17047E2
:10626C00024B0146186800F003B800BF40E1032060
:10627C0037B5044608460D4600F00FF8421C11468F
:10628C0020460192FEF792FE044618B1019A294667
:10629C00FFF77FFF204603B030BD034613F8012BF8
:1062AC00002AFBD1181A0138704700002DE9F84379
:1062BC00DFF8B8800646D8F800001F460D46914618
:1062CC0000F056F8254B1C6834B9254C1C60254B46
:1062DC0013B11B68C4F8883063681F2B07DDD8F82E
:1062EC00000000F047F84FF0FF30BDE8F8834EB3E4
:1062FC00D4F8880088B91C4B23B9D8F8000000F0FA
:10630C0038F8F0E74FF48470FEF730FE0028F4D034
:10631C000023C0E94033C4F88800636840F8239038
:10632C0001229A4000EB8301D0F800311343C0F8EE
:10633C000031022EC1F8807002BFD0F80431134333
:10634C00C0F804316368D8F800005A1C023362604C
:10635C0044F8235000F00EF80020C6E7E8E70320CD
:10636C005CE7032000000000794F0B00A4E1032040
:10637C0070477047704700001D400B0059400B00E0
:10638C0081400B0085400B000000000053657475C4
:10639C00702066696E697368656421007B202262D7
:1063AC00656174223A2022002C20226F78223A2038
:1063BC00007D0052656164696E67005F5F5F6060BD
:1063CC0060616161616162626262626363636363A3
:1063DC006363636464646464646464646464646474
:1063EC00646464646464646363636363636363626B
:1063FC00626262626261616161606060605F5F5F86
:10640C005E5E5E5D5D5D5C5C5C5B5B5A5A595959C6
:10641C00585857575656555554545352525151502B
:10642C00504F4E4E4D4C4C4B4A4A494848474645B6
:10643C00454443424241403F3E3E3D3C3B3A393865
:10644C003837363534333231302F2E2D2C2B2A2938
:10645C0028272625242322211F1E1D1C1B1A191731
:10646C001615141311100F0E0C0B0A090706050351
:10647C0002010000000000000000000047500B006B
:10648C003D500B0033500B0029500B001D500B00DE
:10649C0011500B00655F0B006D5F0B0005500B007E
:1064AC00FD4F0B00F34F0B00E94F0B009D5F0B00F2
:1064BC006170700025592D256D2D25645425483AA1
:1064CC00254D3A2553257A0061736374696D650017
:1064DC000000000000000000A5550B00AB550B00A0
:1064EC00E9550B00B9550B00A7550B000000000037
:1064FC0000000000E55A0B00D55A0B00D75A0B00D0
:10650C000000000000000000CB5B0B00335C0B00B4
:10651C00095C0B0075530B00FB5B0B00CD5B0B0098
:10652C00DD5B0B002D5C0B00ED5B0B00C55B0B000A
:10653C000000000000000000CD5C0B00395D0B007A
:10654C00115D0B0075530B00E15C0B00FD5C0B0047
:10655C00EF5C0B000B5D0B00CF5C0B00D35C0B00F6
:10656C000000000000000000995D0B00E35D0B00D3
:10657C00BB5D0B009B5D0B00C35D0B00CB5D0B008B
:10658C00D35D0B00DB5D0B00000000000000000081
:10659C00055F0B00FB5E0B00F15E0B00A75E0B00B2
:1065AC00E55E0B00D95E0B00655F0B006D5F0B00A9
:1065BC00CD5E0B00C55E0B00BB5E0B00B15E0B002D
:1065CC009D5F0B000000000000000000255F0B0029
:1065DC002F5F0B00395F0B00435F0B004D5F0B000F
:1065EC00595F0B00655F0B006D5F0B00755F0B0057
:1065FC00815F0B00895F0B00935F0B009D5F0B00AD
:10660C00005245454E54206D616C6C6F6320737560
:10661C0063636565646564002F6D6E742F776F72AC
:10662C006B73706163652F776F726B7370616365E9
:10663C002F4743432D31302D706970656C696E6541
:10664C002F6A656E6B696E732D4743432D31302D68
:10665C00706970656C696E652D34385F323032301C
:10666C00313132345F313630363138303634312FC7
:10667C007372632F6E65776C69622F6E65776C69C8
:10668C00622F6C6962632F7374646C69622F726120
:10669C006E642E630000000011430B0051500B0080
:1066AC0065500B0065530B0035540B0045540B0023
:1066BC0061540B00115F0B0075600B0000000000B3
:0466CC0000000000CA
:1066D000040000001400000003000000474E5500B5
:1066E0002F250D4DBCE2520F62AD7393F9930C6CE4
:0466F0005112BEC8BD
:0466F40000000000A2
:1066F800D4640B0044E10320000000000000000007
:106708000000000000000000000000000000000081
:106718000000000000000000000000000000000071
:106728000000000000000000000000000000000061
:106738000000000000000000000000000000000051
:106748000000000000000000000000000000000041
:0C6758000000000000000000ECE703203F
:10676400FFFFFFFF00000102030405060708090AF2
:106774000B0C0D0E0F101112131415161718191AED
:086784001B1C1D1E1F20280034
:04678C0078563412F5
:04000003B000401CED
:00000001FF
