:02000002B0004C
:1040000000400B00DC7F0B00000006000C000502E6
:084010000401A50F00000000EF
:04401800BC780B0065
:10401C0009480A49884208B505D0094A824202D0AB
:10402C00121A03F0E1FA0748074A0021121A03F0AA
:10403C00E9FA014808BD00BFF4E00320407F0B0003
:10404C0068E1032068E10320EDE7032070B5074E1B
:10405C00074C01F01BFEA41BA4080025AC4200D1A8
:10406C0070BD56F8043B98470135F7E7E07E0B002E
:10407C00047F0B0000F0F6B808B500F04DF9BDE870
:10408C00084001F0BBBD01F093B901F091B901F00A
:10409C0097B90078B0FA80F040097047012303709B
:1040AC00704707B5019102F091F9019903B05DF8E1
:1040BC0004EB01F092BC0000F0B54C1C85B010492B
:1040CC001D460646174601F046FBE4B22544BC42A9
:1040DC0012D23146684601F061FB15F8011B6846A7
:1040EC0001F012FC0146304601F049FB01346846F0
:1040FC0001F0E6FAE4B2EAE7304605B0F0BD00BFE5
:10410C00FE7A0B002DE9F04F0C4689B002F05EF9F7
:10411C00214601F062FC002C00F095800026DFF8AF
:10412C003881DFF838A1DFF8389137463546F2B2DE
:10413C00A35C002B00F087803A2B00F082802C2BA4
:10414C0050D175BB3946234604A8FFF7B5FF04A828
:10415C0001F0E4FB3D4B4EF660225043186004A87E
:10416C0001F0AEFA02F032F939498346684601F0A3
:10417C00F2FA364B0A22196804A801F052FB04A982
:10418C00684601F0A0FB0168584601F026FC04A823
:10419C0001F096FA684601F093FA0135EDB201365A
:1041AC00C5E7012DF9D12346394604A8FFF784FF52
:1041BC0004A801F0B3FB07EE900AF8EEE77A04A826
:1041CC00C9ED007A01F07CFA02F000F9214983462E
:1041DC00684601F0C0FA99ED000A062104A801F026
:1041EC0034FBCCE77D2BDAD12346394604A8FFF704
:1041FC0063FF04A801F092FB07EE900AF8EEE77A51
:10420C0004A8C8ED007A01F05BFA02F0DFF8514621
:10421C008346684601F09FFA98ED000A062104A82F
:10422C0001F013FB04A9684601F04DFB01685846E8
:10423C0001F0D3FB04A801F043FA684601F040FA00
:10424C00ADE71746ABE709B0BDE8F08FF8E0032007
:10425C00D0780B00E8780B00F4E0032001790B0018
:10426C0070E103201FB502F0B1F8194C4FF4165150
:10427C0002F0A0F802F0AAF8164901F0AEFB2046B5
:10428C0000F04CFB40F29B134FF48052CDE901320D
:10429C006423042200933C210223204600F0F8FB07
:1042AC00002402F093F80C4901F097FB23462246B8
:1042BC00CDE9004409490A4801F062F8CDE900440F
:1042CC00084909482346224601F05AF804B010BDAB
:1042DC0054E2032018790B0031790B0011410B00CB
:1042EC0041790B00AF400B0056790B0038B50468D0
:1042FC0005467CB16368013B63605BB9236820466B
:10430C009B689847A368013BA3601BB923682046B0
:10431C00DB689847284638BD2DE9F047BA4C2DED9F
:10432C00028B237898B0002B4CD101F0F7FB08EEF0
:10433C00100A01F0FFFB07EE900AF8EEE77A17EE91
:10434C00900A02F031FCB14B002202F0AFFDF8EE06
:10435C00C87A064617EE900A0F4602F025FC0B466B
:10436C0002463946304602F0C1FA02F02FFFA84B44
:10437C00A84E93ED007A306007EE900AF4EEC77AFF
:10438C00F1EE10FA6DDDA44B93ED007AF4EEC77AE2
:10439C00F1EE10FA65D5A14D00F026FE2B68C01A7F
:1043AC009F4B1B68984242D30123237000F01CFEE4
:1043BC00286002F00BF89B4901F00FFB42F21070E1
:1043CC0001F0CEFB2578012D67D101F0FFFF964956
:1043DC0001F003FB284601F0C6FB0021FF22084632
:1043EC0001F0D1FB01F0F2FF904901F0F6FA022343
:1043FC002370DFF890828E4DDFF860A2DFF86092B8
:10440C006423C8F8003001F0E1FF8A4901F0E5FAB5
:10441C000026D8F80010F7B28F4253DA284600F085
:10442C0049F900283FD1284600F08CF9F6E701F055
:10443C00CDFF814901F0D1FA804914A801F08BF924
:10444C007F4B149A1B787F498DF8003010A83C23C1
:10445C0001F07AFD11A8FFF749FF14A801F030F91B
:10446C00ACE701F0B3FF7849054614A801F073F9E5
:10447C0096ED000A062110A801F0E7F910A914A87E
:10448C0001F021FA0168284601F0A7FA10A801F002
:10449C0017F914A801F014F9CEE7022DA9D0032DB9
:1044AC0040F0AD802AE0284600F010FA2AF81700F8
:1044BC00284600F019FA29F81700284600F004F9EC
:1044CC000136A6E7614F624B0293624E624B00933A
:1044DC00624A634801963B4600F038FC3B68333B2C
:1044EC00312B60D833681F3BB3F5867F5BD801F066
:1044FC006DFF5C4901F071FA032323705A4908A837
:10450C0001F029F908A910A801F048F9514B0A2229
:10451C0019680CA801F072F90CA910A801F0D3F9D4
:10452C00524901F0DCF9524901F0D9F9474B0A2202
:10453C001968054614A801F061F914A9284601F080
:10454C00C2F94C4901F0CBF9014604A801F026F957
:10455C0014A801F0B5F80CA801F0B2F810A801F0FD
:10456C00AFF808A801F0ACF804A914A801F016F9EA
:10457C00334B149A1B7840498DF8003010A83C231B
:10458C0001F0E2FC11A8FFF7B1FE14A801F098F8B5
:10459C0001F01CFF049901F020FA002304A82370F9
:1045AC0001F08EF82BE001F011FF3449054610A8FC
:1045BC0001F0D1F80A2231680CA801F01FF90CA9FE
:1045CC0010A801F080F92E4901F089F90A22396806
:1045DC00064614A801F012F914A9304601F073F93B
:1045EC000168284601F0F9F914A801F069F80CA843
:1045FC0001F066F810A801F063F80223237018B0DC
:10460C00BDEC028BBDE8F0872CE3032000004E408C
:10461C0070E1032074E10320F4E003205CE203204A
:10462C00F8E003206C790B003C7A0B006F7A0B00DE
:10463C0054E203208A7A0B009D790B00DC790B0085
:10464C0068E103204F790B00E7790B0028E3032086
:10465C002DE3032088E103202EE3032060E20320F6
:10466C008CE10320A47A0B00EA7A0B00F47A0B009D
:10467C00F67A0B00FF7A0B0064790B00C57A0B00FD
:10468C00E27A0B006CE1032008B5064B06480122C8
:10469C001A7000F00DF80A22BDE8084003481146D4
:1046AC0001F099B868E1032054E2032078E103207B
:1046BC0070470000034B93F8300093F83130C01A68
:1046CC00C0B2704730E30320064A92F8313092F8BA
:1046DC00301099421EBF013303F0030382F83130CE
:1046EC00704700BF30E3032038B50C46154602F086
:1046FC00CDF8214601F072FF02F0C8F80368294694
:10470C009B68984702F0C2F801F070FF02F0BEF807
:10471C000122214601F05FFF02F0B8F803681B6923
:10472C00984728B102F0B2F803685B699847C0B2A9
:10473C0038BD04225721FFF7D7BF06225721FFF7B8
:10474C00D3BF00002DE9F7430746FFF7F6FF0446F9
:10475C003846FFF7EEFF844200F09B80041B48BFF5
:10476C0020347E79DFF8348102F090F8572101F083
:10477C0035FF02F08BF8036807219B68984702F01D
:10478C0085F801F033FF664306EB4606002E40F336
:10479C008180202EC3BF7D7905EB4503202535464E
:1047AC00C4BFB5FBF3F55D4302F070F82A46572100
:1047BC0001F011FF761B4FF00009002DE6DD98F893
:1047CC0030308DF80790013303F0030388F8303054
:1047DC0002F05CF803685B6998478DF8060002F0FC
:1047EC0055F803685B6998478DF8050002F04EF8A0
:1047FC0003685B6998478DF80400019B98F830209A
:10480C00C3F3110348F822307B79012B1CD902F039
:10481C003DF803685B6998478DF8060002F036F89E
:10482C0003685B6998478DF8050002F02FF8036860
:10483C005B69984798F830308DF80400019A04337E
:10484C00C2F3110248F823207B79022B1CD902F009
:10485C001DF803685B6998478DF8060002F016F89E
:10486C0003685B6998478DF8050002F00FF8036840
:10487C005B69984798F830308DF80400019A08333A
:10488C00C2F3110248F823207B79A3EB83031D4468
:10489C0093E70024A0B203B0BDE8F08330E303201B
:1048AC0070B505460E4600F09FFB044600F09CFBDD
:1048BC00001BB04208D82846FFF744FF012804D05B
:1048CC00012001F04DF9F1E7002070BD08B5FA2187
:1048DC00FFF7E6FF20B1034B93F8302053F822008A
:1048EC0008BD00BF30E3032008B5FA21FFF7D8FF5D
:1048FC0028B1034A92F83030043352F8230008BD33
:10490C0030E30320FF225721FFF7EEBE10B5FE2245
:10491C0057210446FFF7E8FEA07110BD10B5044600
:10492C0001F0B4FF01F028FE2046FFF7EBFF204614
:10493C00FFF7ECFF012010BD37B515461C46019161
:10494C0001F0A4FF019901F049FE01F09FFF0368FB
:10495C0029469B68984701F099FF036821469B689C
:10496C00984701F093FF03B0BDE8304001F03EBE24
:10497C000B460C225721FFF7DFBF0B460D225721A8
:10498C00FFF7DABF0B460E225721FFF7D5BF0B46B8
:10499C0010225721FFF7D0BF10B500230446042284
:1049AC005721FFF7C9FF2046002305225721FFF7A7
:1049BC00C3FF20460023BDE8104006225721FFF715
:1049CC00BBBF2DE9F0410C4617460A465721054658
:1049DC001E46FFF789FE384046EA00032246284669
:1049EC005721BDE8F041FFF7A7BF38B5BF224023E0
:1049FC0009210546FFF7E5FF00F0F6FA044600F042
:104A0C00F3FA001B63280AD8092257212846FFF71E
:104A1C006BFE430603D5012001F0A2F8EFE738BD89
:104A2C000B46F8220921FFF7CCBF0B469F220A2127
:104A3C00FFF7C7BF0B46E3220A21FFF7C2BF0B46A5
:104A4C00FC220A21FFF7BDBF01391346032914D8F4
:104A5C00DFE801F002060B0EF8221121FFF7B1BFBF
:104A6C001B0103F0F0038F22F7E7F8221221F5E780
:104A7C001B0103F0F0038F22F8E770470B461F224F
:104A8C000821FFF79EBF1023EF220821FFF799BFE3
:104A9C002DE9F0471546DDE90879DDF828A0044634
:104AAC0088461E46FFF7A1FF012D49D10021204663
:104ABC00FFF7E4FF2046FFF7E6FF032E54D1072152
:104ACC002046FFF7ADFFBAF5805F667151DA002121
:104ADC002046FFF7AAFF632F58DC00212046FFF782
:104AEC00A9FFB9F1750F71DC00212046FFF7A7FF74
:104AFC0041462046FFF73CFF41462046FFF73DFF6D
:104B0C0041462046FFF73EFF41462046FFF73FFF58
:104B1C00012211462046FFF797FF012E0BD90222E6
:104B2C0011462046FFF790FF022E04D003221146B7
:104B3C002046FFF789FF2046BDE8F047FFF72CBF62
:104B4C00022D01D12021B2E7042D01D14021AEE785
:104B5C00082D01D16021AAE7102D01D18021A6E7F3
:104B6C00202DF3D1A021A2E7022E0CBF032102219C
:104B7C00A6E7BAF5005F01DA2021A9E7BAF5804F64
:104B8C0001DA4021A4E7A2D16021A1E7C72F01DC03
:104B9C000421A3E7B7F5C87F01DA08219EE7B7F532
:104BAC00487F01DA0C2199E7B7F57A7F01DA1021F9
:104BBC0094E7B7F5C86F01DA14218FE7B7F5486FA2
:104BCC0001DA18218AE788D11C2187E7B9F1D60FC1
:104BDC0001DC012189E7B9F5CD7F01DC022184E7F5
:104BEC0040F29B1399457FF47FAF03217DE72DE9BC
:104BFC00F04100240C6003F1FF380124A04527DDAF
:104C0C00069D52F824C0AC454FEA840604F1010518
:104C1C001CDD164456F8046CB44517DD2E469E4236
:104C2C0052F82670A6EB040E354603D0BC4506F1AF
:104C3C000106F4D0BC4509DD0E680E2E06DC751C91
:104C4C000D600EF1010540F8264025442C46D5E7B1
:104C5C00BDE8F081F0B5012304468B420FDA54F81D
:104C6C00046F1A46254655F8047CB74203DD013A19
:104C7C0045F80479F7D140F822600133EDE7F0BD37
:104C8C002DE9F043012390460D46434516DA55F8BD
:104C9C00046F1C4600EB8609AC46D9F800205CF882
:104CAC00047C964650F82720964503DD013C4CF8D1
:104CBC000479F2D141F824600133E6E7BDE8F083D2
:104CCC002DE9F04104461F4610460D460A68214660
:104CDC00FFF7D6FF4FF0FF32C7F1000E2968914263
:104CEC001DDD531C1E462B60B14216D0501C18BF44
:104CFC0054F8220054F826C008BF1046ACEB000054
:104D0C00B84201DC864506DD286800F10108C5F8CB
:104D1C00008044F820C00136E6E71A46DEE720465C
:104D2C00BDE8F041FFF796BF37B5069D0095FFF73C
:104D3C005EFF0C46079BFFF7C3FF2268089B9A4255
:104D4C00D4BF2260236003B030BD00002DE9F04FCA
:104D5C009DB0DDE92798164600229B4605460C4679
:104D6C001346A24204DA35F8121001320B44F8E76C
:104D7C008D4FB3FBF4F338460022A24206DA35F825
:104D8C001210591A40F8041B0132F6E7864A00212A
:104D9C00136852F8040F03445068034490681B18BE
:104DAC0048BF033301319B10602942F8043CEFD11A
:104DBC0000237D4A9A4652F8041B0AF1010ABAF103
:104DCC00640F0B44F7D140F6B73293424FDD93FB9F
:104DDC00FAFABAF13C0FA8BF4FF03C0A3C22002172
:104DEC000DA802F00FFC04230F22CDE90132CDF8FF
:104DFC0000A06D4A642307A90DA8FFF795FF079B38
:104E0C00012B4FF0000235DD0DA94FF0010C0846C7
:104E1C00D1F804E000680CF1010CAEEB0000634526
:104E2C0001F104010244F2D1591E92FBF1F240F25D
:104E3C00DC5191FBF2F2C9F8002001225B4988F8A1
:104E4C0000200022A24219DB0022CDE90822CDE984
:104E5C000A220DAE0C92314693421BDD51F8040B25
:104E6C00642815DD524BCBF80030002392E04FF054
:104E7C001E0AB3E74E49C9F80010DFE735F81200F7
:104E8C0047F8040B36F8120041F8040B0132D9E74D
:104E9C000132E1E70024013B434FDFF810C10494D9
:104EAC00254621460593DDE90423934256DDD6F8C9
:104EBC00048056F8040B1346A8EB00090133B9F132
:104ECC00030F0493EFDD4FF07F4E0346F2469845F7
:104EDC000EDD57F823207245C8BF96465CF8232098
:104EEC00C8BF1C465245C4BF1D4692460133EEE76F
:104EFC0057F8202057F828309B1A221A534357F89A
:104F0C00202093FBF9F3134457F82520D21A0AFBFF
:104F1C0002F24FEAE21ABAF1000FC4DD0429C2DC36
:104F2C005CF820305CF82820281AD21A504390FBE9
:104F3C00F9F018445CF825301B1A0EFB03FE5FEAEF
:104F4C00EE1EB0D01CAB03EB8108642303FB0EF206
:104F5C00013192FBFAF248F8502CA4E708A8FFF7AD
:104F6C0079FE4A1003294FEA820318DD1CA901EBD4
:104F7C00820151F8543C51F8502C134403EBD37379
:104F8C005B10DA1EB42A3FF66DAF0A4AD35CCBF83D
:104F9C0000300123269A13701DB0BDE8F08F1CAAB7
:104FAC00134453F8503CECE764E30320F4E403208F
:104FBC0019FCFFFF017B0B0008B5024B1B689B68BB
:104FCC00019308BD6802030008B5024B1B68DB683F
:104FDC00019308BD6802030008B5024B1B685B68AF
:104FEC00019308BD1802030008B5024B1B685B69EE
:104FFC00019308BD1802030008B5024B1B689B6D9A
:10500C00019308BD1802030008B5024B1B685B6EC8
:10501C00019308BD1802030008B5024B1B685B6CBA
:10502C00019308BD4802030008B5024B1B685B697D
:10503C00019308BD6402030008B5024B1B68DB68D2
:10504C00019308BD3C02030008B5024B1B681B69A9
:10505C00019308BD3C02030008B5024B1B685B6959
:10506C00019308BD3C02030008B5024B1B689B6909
:10507C00019308BD3C02030008B5024B1B68DB69B9
:10508C00019308BD3C02030008B5024B1B689B6AE8
:10509C00019308BD3C02030008B5024B1B681B6C56
:1050AC00019308BD3C02030008B5024B1B68DB688A
:1050BC00019308BD2802030008B5024B1B689B69CD
:1050CC00019308BD2802030008B5024B1B68DB697D
:1050DC00019308BD2802030008B5024B1B681B6A2C
:1050EC00019308BD2802030008B5024B1B685B6ADC
:1050FC00019308BD2802030008B5024B1B689B6A8C
:10510C00019308BD2802030008B5024B1B68DB6A3B
:10511C00019308BD2802030008B5024B1B681B6BEA
:10512C00019308BD2802030008B5024B1B681B6CD9
:10513C00019308BD2802030008B5024B1B681B6DC8
:10514C00019308BD2802030008B5024B1B681B68BD
:10515C00019308BD4C02030008B5024B1B685B6849
:10516C00019308BD4C02030008B5024B1B681B6978
:10517C00019308BD4C02030008B5024B1B685B6928
:10518C00019308BD4C02030008B5024B1B689B69D8
:10519C00019308BD4C02030008B5024B1B68DB6988
:1051AC00019308BD4C02030008B5024B1B681B6A37
:1051BC00019308BD4C02030008B5024B1B685B68E9
:1051CC00019308BD6002030008B5024B1B689B6885
:1051DC00019308BD6002030008B5024B1B68DB6835
:1051EC00019308BD6002030008B5024B1B689B6964
:1051FC00019308BD6002030008B5024B1B68DB6914
:10520C00019308BD6002030008B5024B1B681B68C4
:10521C00019308BD2002030008B5024B1B685B68B4
:10522C00019308BD2002030008B5024B1B685B69A3
:10523C00019308BD2002030008B5024B1B68DB6C10
:10524C00019308BD2002030008B5024B1B685B6D7F
:10525C00019308BD2002030008B5024B1B689B6D2F
:10526C00019308BD2002030008B5034B1B68D3F85B
:10527C008830019308BD00002002030008B5034BE1
:10528C001B68D3F89430019308BD00002002030082
:10529C0008B5024B1B685B68019308BD4002030014
:1052AC0008B5024B1B689B68019308BD40020300C4
:1052BC0008B5024B1B68DB68019308BD4002030074
:1052CC0008B5024B1B681B69019308BD4002030023
:1052DC0008B5024B1B685B69019308BD40020300D3
:1052EC0008B5024B1B689B69019308BD4002030083
:1052FC0008B5024B1B68DB69019308BD4002030033
:10530C0008B5024B1B681B6A019308BD40020300E1
:10531C0008B5024B1B681B6B019308BD40020300D0
:10532C0008B5024B1B685B6B019308BD4002030080
:10533C0008B5024B1B681B6C019308BD40020300AF
:10534C0008B5024B1B685B6C019308BD400203005F
:10535C0008B5024B1B689B68019308BD440203000F
:10536C0008B5024B1B685B69019308BD440203003E
:10537C0008B5024B1B681B6A019308BD440203006D
:10538C0008B5024B1B685B6A019308BD440203001D
:10539C0008B5024B1B681B6B019308BD440203004C
:1053AC0008B5024B1B68DB6B019308BD440203007C
:1053BC0008B5024B1B681B68019308BD1C02030057
:1053CC0008B5024B1B685B68019308BD1C02030007
:1053DC0008B5024B1B689B68019308BD1C020300B7
:1053EC0008B5024B1B68DB6A019308BD1C02030065
:1053FC0008B5024B1B681B6B019308BD1C02030014
:10540C0008B5024B1B68DB6B019308BD1C02030043
:10541C0008B5024B1B681B6C019308BD1C020300F2
:10542C0008B5024B1B685B6C019308BD1C020300A2
:10543C0008B5024B1B68DB6C019308BD1C02030012
:10544C00002240681146FFF75BBF002240681146FE
:10545C00FFF766BF40680022FFF75ABF4068002282
:10546C0081F00101FFF744BF002340681A4619463A
:10547C00FFF736BF002340681A461946FFF728BFCE
:10548C00002240681146FFF71BBF002240681146FE
:10549C00FFF706BF406800220221FFF709BF002377
:1054AC0040681A46FFF7F4BE024B03225A60024AC8
:1054BC001A60704784E60320C47B0B00054B022264
:1054CC001A60054B054A9A600020C3E90000FFF7FB
:1054DC00A3BE00BF98E603208CE603200000FFFF6C
:1054EC0010B5044602F0E9F801382318204683422F
:1054FC0006D90278197800F8011B03F80129F6E7A0
:10550C0010BD2DE9F041931E8CB0222B4FF00003FF
:10551C000D4614468DF82C3027D900282ADA2E4651
:10552C002D2306F8013B40420A240DF12B074FF0C6
:10553C0001082246014601A802F042F8029B01989C
:10554C00092BCCBF3722302252FA83F307F80139EA
:10555C0008F101080028ECD14246791C304602F0D3
:10556C0043F828460CB0BDE8F0810A2AD5D018B112
:10557C002E46DAE70A24FAE730238DF82B302E4634
:10558C000DF12A074FF00208E6E770B50C46911EA4
:10559C0022291DD8254630B9234430229D4210D2F1
:1055AC0005F8012BFAE7B0FBF2F602FB1600C1B2CC
:1055BC00092894BF30315731C9B205F8011B304668
:1055CC00E9E7002320462B70FFF78AFF204670BDC9
:1055DC000020FCE738B5031E0C4615460EDAB3F175
:1055EC00004F4FF02D0214BF5842184601230A7089
:1055FC002A461944FFF7C9FF204638BD0123F9E7B5
:10560C002DE9F14F57EC106B80460C4610EE100A4A
:10561C0000220023394601F091FD28B107F1004327
:10562C001F462D2304F8013B00234FF001090A22E9
:10563C00D9B2884503D902FB09F90133F8E748468A
:10564C0001F0A0FA32463B4601F006FB06460F4637
:10565C0001F024FE8A4605468B4601F0C7FA024645
:10566C000B463046394601F03FF9144B002201F04D
:10567C0079FD10B101354AF1000B4A462846D31783
:10568C00594601F0F3FD0123154621460A22FFF786
:10569C007CFFB8F1000F0ED0204602F00EF82E233E
:1056AC00211823540A2243460131284601B0BDE893
:1056BC00F04FFFF76ABF01B0BDE8F08F0000E03F8C
:1056CC0010B504460068FFF77BFE204610BD10B5F0
:1056DC000446006808B1FFF773FE0023C4E90133E8
:1056EC00236010BD38B504460D4600680131FFF744
:1056FC006FFE10B1C4E90005012038BD10B5036878
:10570C00044623B143688B4201D3012010BD2046CF
:10571C00FFF7E8FF0028F9D0A368002BF5D1226829
:10572C001370F2E737B50D46114601920446FFF7A8
:10573C00E5FF019A28B92046FFF7C9FF204603B0C0
:10574C0030BDA2602946206801F04EFF2268A36894
:10575C000021D154F2E7002313B5C0E9003304460D
:10576C008360037341B10846019101F0A6FF0199D2
:10577C0002462046FFF7D6FF204602B010BD8842F5
:10578C0010B5044605D00B682BB18A681946FFF793
:10579C00C9FF204610BDFFF79AFFFAE710B50023AA
:1057AC000446C0E9003383600373FFF7E8FF20462B
:1057BC0010BD13B5044659B10846019101F07DFFA7
:1057CC00019902462046FFF7ADFF204602B010BDFE
:1057DC00FFF77DFFF9E710B504468AB00023C4E952
:1057EC000033A3602373084601A9FFF7F3FE01A958
:1057FC002046FFF7DEFF20460AB010BD10B5044668
:10580C008AB00023C4E90033A3602373084601A9BE
:10581C00FFF777FE01A92046FFF7CBFF20460AB021
:10582C0010BD10B504468AB00023C4E90033A36050
:10583C0023730846012301A9FFF7A7FE01A92046FF
:10584C00FFF7B7FF20460AB010BD30B50446002361
:10585C008BB0C4E90033A360237310EE100ACDB2F1
:10586C0001F0A2F941EC100B01A92846FFF7C8FE84
:10587C0001A92046FFF79DFF20460BB030BD70B547
:10588C0005460E4609B9002070BD6AB184681444FF
:10589C002146FFF733FF0028F5D02868AB68314666
:1058AC00184401F0E5FEAC600120EDE707B50023DC
:1058BC008DF80410012201A98DF80530FFF7DFFFE8
:1058CC0003B05DF804FB10B58A6809680446FFF75D
:1058DC00D6FF10B92046FFF7FAFE204610BD13B5CF
:1058EC00044629B92046FFF7F2FE204602B010BD4F
:1058FC000846019101F0E1FE019902462046FFF7AE
:10590C00BEFF0028EED0F0E710B50446FFF7CEFF3F
:10591C0010B92046FFF7DBFE204610BD006808B129
:10592C0001F04ABE704710B58368044613B10322D8
:10593C0001469847204610BD13B50B460246D0E9E8
:10594C0000016C4684E8030093E8030082E803003E
:10595C0094E8030083E8030002B010BD0248002362
:10596C000360FFF759BB00BF9CE60320F8B5064661
:10597C000D468F180024BD420CD0336815F8011B5E
:10598C009B6830469847031E01DB1C44F3E7002C50
:10599C0008BF1C462046F8BD13B50446084659B14D
:1059AC00019101F08AFE23680199DB6802462046CA
:1059BC0002B0BDE81040184702B010BD03689B68E8
:1059CC00184738B50D210546FFF7F8FF0A210446A4
:1059DC002846FFF7F3FF204438BD38B50546FFF7DE
:1059EC00DBFF04462846FFF7ECFF204438BD30B5FA
:1059FC008BB00023012A8DF8243098BF0A2209AC01
:105A0C000D46B1FBF2F101FB125303F0FF03092B1E
:105A1C0094BF30333733DBB2AA4204F8013DEFD9DF
:105A2C002146FFF7B9FF0BB030BD0000014B024A15
:105A3C001A607047A0E60320F87B0B002DE9F041BB
:105A4C00154ADFF86080D2E90063801943EB01014D
:105A5C00124BD3E90067D8E90023861941EB0707FD
:105A6C00BB4208BFB2428CB013D003A96846CDE943
:105A7C000067FFF7DDFC089B094D03F26C7303AC68
:105A8C0008930FCC0FC50FCC0FC5C8E9006723686E
:105A9C002B600CB0BDE8F081D8E60320D0E60320E3
:105AAC00A8E60320E0E6032008B50020FFF770FC11
:105ABC0028B1FFF755FC80F00100C0B208BD0120F1
:105ACC00FCE710B50020FFF797FA0446A0B9FFF7E2
:105ADC009BFB012810D12046FFF7BEFB60B9FFF7F6
:105AEC00E3FF10B9FFF734FCF9E7FFF7DDFFBDE882
:105AFC0010400020FFF780BA204610BD1FB5FFF7FD
:105B0C00E0FF10220021684601F07CFD0021684670
:105B1C00FFF77AFA009805B05DF804FB08B5FFF7BB
:105B2C00EDFFC117FFF78AFF014B986808BD00BF56
:105B3C00A8E6032008B5FFF7E1FFC117FFF77EFFCA
:105B4C00014B586808BD00BFA8E60320024B1A6839
:105B5C00024B1A60704700BFFCE00320A4E6032050
:105B6C000021FFF761BB10B50446FFF73DFB8442F3
:105B7C0008D01CB1BDE81040FFF726BBBDE81040B3
:105B8C00FFF72ABB10BD70B505460E461446FFF74D
:105B9C002BFB50B144EA062444EA0540FFF70CFB0A
:105BAC00BDE87040E720FFF727BB70BD014B00221A
:105BBC009A607047E8E60320014B1860704700BFFD
:105BCC0000E1032008B50B4B43B100F0FFFB036869
:105BDC001B699847002801DDAFF30080064B43B1E9
:105BEC0000F014FE03681B699847002801DDAFF331
:105BFC00008008BD000000000000000008B5FFF7A1
:105C0C00E1FFFFF7F1F9014B186008BD40E70320F5
:105C1C000548064A064908B5121A01F0E5FC054B81
:105C2C00054A1A6008BD00BF00F4032004F40320E9
:105C3C003C7F0B0000F403201E1C279A07B50023A1
:105C4C0000931A466FF07701FFF718FB03B05DF86D
:105C5C0004FB000007B543880A2B08D0502B0BD14E
:105C6C00094B1B684BB103B05DF804EB1847FFF709
:105C7C00E5FF03B05DF804FB002300931A466FF0B8
:105C8C007701FFF7FBFAF4E7FCE6032010B51248A6
:105C9C000021FFF7C5FB114B1A68114B9A42114BAF
:105CAC000CBF012200221A7001D0FFF7B1FFFFF7E1
:105CBC0093F9044601F0AEFC0B4B13B12046AFF345
:105CCC00008000210848FFF76BFBBDE81040074837
:105CDC000021FFF7C9BA00BFC55B0B0000F403201D
:105CEC001E1C279AF8E6032000000000615C0B00E4
:105CFC0070470020704710B510210446FEF7C7F915
:105D0C00204610BD08B5FFF7F6FF08BD30B50022E0
:105D1C004FF69C74026084808D888C800C68858022
:105D2C0004600A6030BD10B504460068FFF748FBFC
:105D3C00204610BD38B5C468F4B12378022B03D1CA
:105D4C0004F10C00FFF7EFFF656835B12846FFF74B
:105D5C00EAFD10212846FEF79AF9A56835B12846C8
:105D6C00FFF7E1FD10212846FEF791F9204614219A
:105D7C00BDE83840FEF78BB938BD0B6803604B6843
:105D8C00436013B15A6801325A60704737B5044604
:105D9C0068460D46FFF7F1FF009B019A2360626095
:105DAC00002301A801930093FEF7A0FA35B1281D3A
:105DBC00FEF79CFA08212846FEF769F9204603B045
:105DCC0030BD826810B50AB900F086FDBDE8104000
:105DDC00C368184708B5006800F11001FFF7F1FF20
:105DEC0008BD826810B50AB900F076FDBDE8104018
:105DFC00C368184708B5006800F11001FFF7F1FF00
:105E0C0008BD000038B500230446036010200D4681
:105E1C00FEF739F928B10123C0E90133024B0360C5
:105E2C00C5602060204638BD207C0B0038B50023AF
:105E3C0083608B6804460D462BB102229847EB68B1
:105E4C00E360AB68A360204638BD0000F0B589B0B4
:105E5C0004686846FFF75AFF4FF00203D4E84F2F4F
:105E6C00002A03D1C4E8413F0029F7D125D104F120
:105E7C000C0569462846FFF749FFBFF35B8F0123EA
:105E8C006370002004F10803BFF35B8F53E8006FCD
:105E9C0043E80002002AF9D1BFF35B8F6EB1FFF724
:105EAC00CBF978B129463046FFF78BFF3046FFF728
:105EBC003AFD10213046FEF7EAF86846FFF733FF4B
:105ECC0009B0F0BD314602A8FFF7B0FFE068B4F9A5
:105EDC00105008B101F0D4FB06901020ADF81C5006
:105EEC00FEF7D1F80546E8B1002787601820FEF7C9
:105EFC00CAF8044688B10146876002A8FFF71CFD6A
:105F0C00049BA268A360059B049206A9E268E36067
:105F1C0004F110000592FFF7F9FE084BEB60084BFB
:105F2C002C60AB6006A8FFF7FEFE02A8FFF7FBFC97
:105F3C00002229460348FFF787F9B7E7E15D0B001C
:105F4C0065600B00C9640B002DE9F04F8BB0054662
:105F5C009DF850A00F4690469946FFF701FA07AE00
:105F6C00834638BB4FF62E73059005A93046ADF825
:105F7C001830FFF7CBFE1420FEF785F8044648B125
:105F8C00022303700123C0E901BB437031460C307E
:105F9C00FFF7BCFE2846214640F8044BFFF732FFC2
:105FAC003046FFF7C0FE05A8FFF7BDFE28460BB034
:105FBC00BDE8F08F0C2300241420CDE9084407938E
:105FCC00FEF761F8014618B1C0E901440470447051
:105FDC0004A80391FFF716FF1E4B08930820FEF749
:105FEC0052F8044610B103A9FFF7C7FE00965FFAFA
:105FFC008AF34A46414638460994FFF7B9F9B8B9CD
:10600C00039B5B7803F0FF0293B94FF69C7305A9D1
:10601C0003A80592ADF81830FFF718FF05A8FFF795
:10602C0082FE05A80999FFF7B1FE06A8FEF75EF9F6
:10603C0003A905A8FFF7A1FE059B069A2B606A60D1
:10604C00002306A806930593FEF750F904A8FEF763
:10605C004DF9ABE7E1600B00012AF8B5054603D119
:10606C000B6803600020F8BD022A10D0032AF9D176
:10607C000468002CF6D004F11000FFF754FE204603
:10608C00FFF751FC18212046FEF701F8EAE718202B
:10609C000E68FDF7F8FF044650B13146FFF7C6FE17
:1060AC003069B6F9147008B101F0EAFA2061A782E0
:1060BC002C60D7E738B5002383608B6804460D4607
:1060CC002BB102229847EB68E360AB68A3602046D3
:1060DC0038BD0000F0B589B004460D4601A8114644
:1060EC00FFF754FEA4B124B21DB1284601F0C8FA42
:1060FC00054601A803A90395ADF81040FFF7A6FECD
:10610C0003A8FFF710FE02A8FEF7F0F809B0F0BDE7
:10611C00019D0123D5E84F2F002A03D1C5E8413F4B
:10612C000029F7D1EFD12B73BFF35B8F6B702B1D55
:10613C00BFF35B8F53E8006F43E80042002AF9D1AC
:10614C00BFF35B8F002EDED02046FFF775F80746B5
:10615C0060B105F10C013046FFF743FE3046FFF706
:10616C00E2FB10213046FDF792FFCCE7314603A845
:10617C00FFF7A0FF2B7B8DF81C301020FDF783FF61
:10618C000546D0B187601420FDF77DFF044678B139
:10619C008760014603A8FFF7CFFB059BA268A360AD
:1061AC00069B0592E268E3609DF81C30069223740E
:1061BC00064BEB60064B2C60AB6003A8FFF7B3FB00
:1061CC00002229460348FFF73FF8C7E7015E0B00A2
:1061DC00E5610B00C9640B00012A70B5044603D1BC
:1061EC000B680360002070BD022A0CD0032AF9D181
:1061FC000468002CF6D02046FFF795FB14212046AE
:10620C00FDF745FFEEE714200E68FDF73CFF054651
:10621C0020B13146FFF74EFF337C2B742560E1E74C
:10622C00704710B518210446FDF731FF204610BD0C
:10623C00F0B5037D062B8DB00E4600F104074FF030
:10624C00000412D000F1080515F8011D0A22304691
:10625C00FFF7CDFBAF42044419D0002CF4D02E2113
:10626C003046FFF7ABFB0444EEE72F236A46394672
:10627C000A208DF80040FEF7D7FE684601F01DFAA3
:10628C0033680246DB686946304698470446204628
:10629C000DB0F0BD10B5054B0446112240F8043B7F
:1062AC00002101F0AFF9204610BD00BF3C7C0B0073
:1062BC000346074A10B543F8042B01F1100251F8BC
:1062CC00044B43F8044B9142F9D10A781A7010BD73
:1062DC003C7C0B0010B59DF8084044EA032343EACC
:1062EC00024242EA016104234160037510BD0000C3
:1062FC0007B5064B0360CB7800938B784A78097806
:10630C00FFF7E8FF03B05DF804FB00BF3C7C0B001B
:10631C00417470477047704708B50021007CFEF748
:10632C0033FF40EAE07008BD08B50121007CFEF7A0
:10633C002BFF40EAE07008BD08B5007CFEF71CFF9F
:10634C0020EAE07008BD08B5007CFEF70DFF20EADE
:10635C00E07008BD13B50446007C0191FEF70CFFFC
:10636C000028019901DC607C20B1207CFEF714FF31
:10637C0020EAE07002B010BD007CFEF715BF10B52E
:10638C0014210446FDF783FE204610BD10B54FF4D2
:10639C007A73044608460021C4E90113044B2360B8
:1063AC000123207463741146FEF7CEFE204610BD07
:1063BC00507C0B00007C0022FEF7CEBE10B51422E0
:1063CC000446002101F01EF9204610BD10B50F4CFB
:1063DC0088B003A8FFF7F2FF2178BFF35B8F11F0B1
:1063EC0001010FD120460191FDF753FE019948B1EF
:1063FC0003AA0748FFF7CAFF2046FDF74FFE0548E2
:10640C0001F0D4F8024808B010BD00BF00E703202B
:10641C0004E7032021630B0070474174704708B5F3
:10642C00007CFEF731FE20EAE07008BD08B5007C68
:10643C00FEF70AFE20EAE07008BD08B5007CFEF706
:10644C0013FE40EAE07008BD08B5007CFEF704FEC0
:10645C0040EAE07008BD007CFEF70EBE37B5457C07
:10646C0004462DB1207C03B0BDE83040FEF7E4BDFE
:10647C00007C0191FEF708FE00280199F2DC284609
:10648C0003B030BD10B514210446FDF700FE2046C4
:10649C0010BD000010B54FF47A730446084611463F
:1064AC000022C4E90123044B23600123207463748C
:1064BC00FEF7F2FD204610BD807C0B0010B5836802
:1064CC0004460BB900F008FAC3689847A3681BB1DF
:1064DC00032221462046984720461021BDE8104053
:1064EC00FDF7D5BD7047F8B5064615460C468F1816
:1064FC00BC4206D0336814F8011B9B6830469847A1
:10650C00F6E72846F8BD007C0022FEF7E5BD007CCE
:10651C000021FEF7E9BD007C0021FEF7EDBD007CFB
:10652C000021FEF7F1BD007C0021FEF7F5BD10B592
:10653C0014210446FDF7ABFD204610BD38B50446CA
:10654C0015464FF47A730022C4E90123094B2174D8
:10655C00084623602946FEF7E7FDBF3008D16B697A
:10656C00DB0705D56868FEF72BFFE868FEF728FF08
:10657C00204638BDB07C0B000023007C1A4619461F
:10658C00FEF792BD7FB500221423CDE90122ADF8B0
:10659C0004300B788DF808304B680393CB68049368
:1065AC00007C0B7A059301A9FEF7C6FD07B05DF8D8
:1065BC0004FB1FB5003B8DF800104FF064010391F4
:1065CC0018BF0123694601928DF80830FFF7DAFFF6
:1065DC0005B05DF804FB0123FFF7EBBF007C002244
:1065EC00FEF76ABD007C0022FEF76EBD0121FFF7AD
:1065FC00F9BF002240681146FEF762BE00224068D7
:10660C001146FEF77DBE002240681146FEF788BE9B
:10661C0040680022FEF77CBE4068002281F0010138
:10662C00FEF766BE002340681A461946FEF758BEB0
:10663C00002340681A461946FEF74ABE00224068FD
:10664C001146FEF72DBE406800220221FEF730BE37
:10665C00002340681A46FEF71BBE0000024B0422C2
:10666C005A60024A1A60704718E70320D87C0B0066
:10667C00002340681A46FEF70BBE40680022022138
:10668C00FEF716BE002240681146FEF709BE002236
:10669C0040681146FEF714BE002340681A4619469E
:1066AC00FEF716BE002340681A461946FEF718BEC0
:1066BC0040680021FEF73CBE40680021FEF740BE5A
:1066CC004068002281F00101FEF712BE40680022F2
:1066DC00FEF71EBE002240681146FEF721BE0022C6
:1066EC0040681146FEF70CBE2DE9F04395B01446F8
:1066FC000D460746FFF7CEFD00211C220DA8009188
:10670C0000F080FF40230C9320466B460CAA00211E
:10671C00FEF75AFC044600284BD10246012168685A
:10672C00FEF7CEFD0221804622466868FEF7C8FDC2
:10673C00009E81462146002E3BD0002939D173683A
:10674C00022B03D00A2B11D0F669F4E7B8F1000F35
:10675C00FAD0716906A8043107ADFFF7C9FD0FCD5A
:10676C003C1D0FC42B6823704146EDE7B9F1000FB7
:10677C00EAD07469102201A800F044FF06238DF8BA
:10678C00143001AD04F108031834186859682A460E
:10679C0003C20833A3421546F7D101A906A807ADD9
:1067AC00FFF786FD0FCD3C1D0FC42B6823704946A7
:1067BC00CAE70098FEF700FC384615B0BDE8F08338
:1067CC00024B034A1A6000225A60704720E70320EC
:1067DC00147D0B007047000038B5044614252A467A
:1067EC00002100F00FFF2580402507492581284610
:1067FC00258200F06FF804496060284600F06AF8C2
:10680C00E060204638BD00BF487D0B0030B50E4D12
:10681C002978BFF35B8F11F0010487B011D12846A2
:10682C00FDF737FC68B101A8FFF7D6FF01AA214696
:10683C000648FFF72FFE2846FDF730FC044800F011
:10684C00B5FE024807B030BD28E703202CE7032033
:10685C00E1670B007047000038B50A4B0360012359
:10686C00044643610849202000F034F8202560607C
:10687C000549A560284600F02DF8C4E9030520461B
:10688C0038BD00BF18000100487D0B0030B50E4D1F
:10689C002978BFF35B8F11F0010487B011D1284622
:1068AC00FDF7F7FB68B16846FFF7D6FF6A4621464D
:1068BC000648FFF743FE2846FDF7F0FB044800F0BE
:1068CC0075FE024807B030BD44E7032048E70320BB
:1068DC0061680B00FDF7D9BB08B5FEF781FD000020
:1068EC0081F0004102E000BF83F0004330B54FEA75
:1068FC0041044FEA430594EA050F08BF90EA020FE2
:10690C001FBF54EA000C55EA020C7FEA645C7FEA74
:10691C00655C00F0E2804FEA5454D4EB5555B8BF97
:10692C006D420CDD2C4480EA020281EA030382EA08
:10693C00000083EA010180EA020281EA0303362D9A
:10694C0088BF30BD11F0004F4FEA01314FF4801C6D
:10695C004CEA113102D0404261EB410113F0004F7F
:10696C004FEA03334CEA133302D0524263EB430336
:10697C0094EA050F00F0A780A4F10104D5F1200ED4
:10698C000DDB02FA0EFC22FA05F2801841F100012F
:10699C0003FA0EF2801843FA05F359410EE0A5F103
:1069AC0020050EF1200E012A03FA0EFC28BF4CF034
:1069BC00020C43FA05F3C01851EBE37101F00045EA
:1069CC0007D54FF0000EDCF1000C7EEB00006EEBF7
:1069DC000101B1F5801F1BD3B1F5001F0CD3490881
:1069EC005FEA30004FEA3C0C04F101044FEA4452D8
:1069FC0012F5800F80F09A80BCF1004F08BF5FEA5F
:106A0C00500C50F1000041EB045141EA050130BD3E
:106A1C005FEA4C0C404141EB0101013C28BFB1F550
:106A2C00801FE9D291F0000F04BF01460020B1FA9B
:106A3C0081F308BF2033A3F10B03B3F120020CDA6E
:106A4C000C3208DD02F1140CC2F10C0201FA0CF04C
:106A5C0021FA02F10CE002F11402D8BFC2F1200CB1
:106A6C0001FA02F120FA0CFCDCBF41EA0C01904067
:106A7C00E41AA2BF01EB0451294330BD6FEA0404B0
:106A8C001F3C1CDA0C340EDC04F11404C4F120029B
:106A9C0020FA04F001FA02F340EA030021FA04F3AD
:106AAC0045EA030130BDC4F10C04C4F1200220FA04
:106ABC0002F001FA04F340EA0300294630BD21FA42
:106ACC0004F0294630BD94F0000F83F4801306BF08
:106ADC0081F480110134013D4EE77FEA645C18BFFC
:106AEC007FEA655C29D094EA050F08BF90EA020F93
:106AFC0005D054EA000C04BF1946104630BD91EA8B
:106B0C00030F1EBF0021002030BD5FEA545C05D18D
:106B1C004000494128BF41F0004130BD14F58004CC
:106B2C003CBF01F5801130BD01F0004545F0FE4140
:106B3C0041F470014FF0000030BD7FEA645C1ABF75
:106B4C00194610467FEA655C1CBF0B46024650EAAC
:106B5C00013406BF52EA033591EA030F41F40021D8
:106B6C0030BD00BF90F0000F04BF0021704730B55E
:106B7C004FF4806404F132044FF000054FF0000133
:106B8C0050E700BF90F0000F04BF0021704730B5F4
:106B9C004FF4806404F1320410F0004548BF4042C9
:106BAC004FF000013EE700BF42004FEAE2014FEA1E
:106BBC0031014FEA02701FBF12F07F4393F07F4FF9
:106BCC0081F06051704732F07F4208BF704793F0FC
:106BDC007F4F04BF41F40021704730B54FF460740F
:106BEC0001F0004521F000411CE700BF50EA010212
:106BFC0008BF704730B54FF000050AE050EA0102BB
:106C0C0008BF704730B511F0004502D5404261EB2A
:106C1C0041014FF4806404F132045FEA915C3FF46B
:106C2C00D8AE4FF003025FEADC0C18BF03325FEA08
:106C3C00DC0C18BF033202EBDC02C2F1200300FAB9
:106C4C0003FC20FA02F001FA03FE40EA0E0021FADE
:106C5C0002F11444BDE600BF70B54FF0FF0C4CF4CC
:106C6C00E06C1CEA11541DBF1CEA135594EA0C0F7E
:106C7C0095EA0C0F00F0DEF82C4481EA030621EAB9
:106C8C004C5123EA4C5350EA013518BF52EA0335F4
:106C9C0041F4801143F4801338D0A0FB02CE4FF0A6
:106CAC000005E1FB02E506F00042E0FB03E54FF0D6
:106CBC000006E1FB03569CF0000F18BF4EF0010ECE
:106CCC00A4F1FF04B6F5007F64F5407404D25FEACA
:106CDC004E0E6D4146EB060642EAC62141EA55517D
:106CEC004FEAC52040EA5E504FEACE2EB4F1FD0CBF
:106CFC0088BFBCF5E06F1ED8BEF1004F08BF5FEA3D
:106D0C00500E50F1000041EB045170BD06F00046EE
:106D1C0046EA010140EA020081EA0301B4EB5C049B
:106D2C00C2BFD4EB0C0541EA045170BD41F4801193
:106D3C004FF0000E013C00F3AB8014F1360FDEBFB8
:106D4C00002001F0004170BDC4F10004203C35DA94
:106D5C000C341BDC04F11404C4F1200500FA05F317
:106D6C0020FA04F001FA05F240EA020001F00042B8
:106D7C0021F0004110EBD37021FA04F642EB06012E
:106D8C005EEA430E08BF20EAD37070BDC4F10C0458
:106D9C00C4F1200500FA04F320FA05F001FA04F21C
:106DAC0040EA020001F0004110EBD37041F1000108
:106DBC005EEA430E08BF20EAD37070BDC4F1200513
:106DCC0000FA05F24EEA020E20FA04F301FA05F27B
:106DDC0043EA020321FA04F001F0004121FA04F223
:106DEC0020EA020000EBD3705EEA430E08BF20EAF3
:106DFC00D37070BD94F0000F0FD101F0004640002D
:106E0C0041EB010111F4801F08BF013CF7D041EAAE
:106E1C00060195F0000F18BF704703F000465200B2
:106E2C0043EB030313F4801F08BF013DF7D043EA83
:106E3C000603704794EA0C0F0CEA135518BF95EA39
:106E4C000C0F0CD050EA410618BF52EA4306D1D1C0
:106E5C0081EA030101F000414FF0000070BD50EADF
:106E6C00410606BF1046194652EA430619D094EA69
:106E7C000C0F02D150EA013613D195EA0C0F05D153
:106E8C0052EA03361CBF104619460AD181EA0301A7
:106E9C0001F0004141F0FE4141F470014FF000005F
:106EAC0070BD41F0FE4141F4780170BD70B54FF0FA
:106EBC00FF0C4CF4E06C1CEA11541DBF1CEA13557A
:106ECC0094EA0C0F95EA0C0F00F0A7F8A4EB05045C
:106EDC0081EA030E52EA03354FEA013100F0888053
:106EEC004FEA03334FF0805545EA131343EA12631C
:106EFC004FEA022245EA111545EA10654FEA0026D1
:106F0C000EF000419D4208BF964244F1FD0404F589
:106F1C00407402D25B084FEA3202B61A65EB0305E5
:106F2C005B084FEA32024FF480104FF4002CB6EBA2
:106F3C00020E75EB030E22BFB61A754640EA0C0022
:106F4C005B084FEA3202B6EB020E75EB030E22BF62
:106F5C00B61A754640EA5C005B084FEA3202B6EBA3
:106F6C00020E75EB030E22BFB61A754640EA9C0062
:106F7C005B084FEA3202B6EB020E75EB030E22BF32
:106F8C00B61A754640EADC0055EA060E18D04FEAF0
:106F9C00051545EA16754FEA06164FEAC30343EA90
:106FAC0052734FEAC2025FEA1C1CC0D111F4801F5D
:106FBC000BD141EA00014FF000004FF0004CB6E756
:106FCC0011F4801F04BF01430020B4F1FD0C88BFF5
:106FDC00BCF5E06F3FF6AFAEB5EB030C04BFB6EB00
:106FEC00020C5FEA500C50F1000041EB045170BDF3
:106FFC000EF0004E4EEA113114EB5C04C2BFD4EB20
:10700C000C0541EA045170BD41F480114FF0000EA3
:10701C00013C90E645EA060E8DE60CEA135594EA1F
:10702C000C0F08BF95EA0C0F3FF43BAF94EA0C0F22
:10703C000AD150EA01347FF434AF95EA0C0F7FF497
:10704C0025AF104619462CE795EA0C0F06D152EAEB
:10705C0003353FF4FDAE1046194622E750EA4106CF
:10706C0018BF52EA43067FF4C5AE50EA41047FF4E0
:10707C000DAF52EA43057FF4EBAE12E74FF0FF3C45
:10708C0006E000BF4FF0010C02E000BF4FF0010C16
:10709C004DF804CD4FEA410C7FEA6C5C4FEA430C8F
:1070AC0018BF7FEA6C5C1BD001B050EA410C0CBFDE
:1070BC0052EA430C91EA030F02BF90EA020F002040
:1070CC00704710F1000F91EA030F58BF994208BFA7
:1070DC0090422CBFD8176FEAE37040F00100704764
:1070EC004FEA410C7FEA6C5C02D150EA013C07D1BB
:1070FC004FEA430C7FEA6C5CD6D152EA033CD3D006
:10710C005DF8040B704700BF8446104662468C46FF
:10711C001946634600E000BF01B5FFF7B7FF002832
:10712C0048BF10F1000F01BD4DF808EDFFF7F4FF5B
:10713C000CBF012000205DF808FB00BF4DF808EDE6
:10714C00FFF7EAFF34BF012000205DF808FB00BF09
:10715C004DF808EDFFF7E0FF94BF012000205DF82B
:10716C0008FB00BF4DF808EDFFF7CEFF94BF0120E0
:10717C0000205DF808FB00BF4DF808EDFFF7C4FFD9
:10718C0034BF012000205DF808FB00BF4A0011D27B
:10719C0012F5001211D20DD56FF47873B3EB625265
:1071AC000ED44FEAC12343F0004343EA505323FA71
:1071BC0002F070474FF00000704750EA013002D1E6
:1071CC004FF0FF3070474FF0000070474FEA41021C
:1071DC00B2F1E04324BFB3F5001CDCF1FE5C0DD929
:1071EC0001F0004C4FEAC0024CEA5070B2F1004F73
:1071FC0040EB830008BF20F00100704711F0804F76
:10720C0021D113F13872BCBF01F00040704741F43A
:10721C0080114FEA5252C2F11802C2F1200C10FA3E
:10722C000CF320FA02F018BF40F001004FEAC12322
:10723C004FEAD32303FA0CFC40EA0C0023FA02F3C6
:10724C004FEA4303CCE77FEA625307D150EA01339C
:10725C001EBF4FF0FE4040F44000704701F000406C
:10726C0040F0FE4040F40000704700BF53B94AB9EB
:10727C00002908BF00281CBF4FF0FF314FF0FF3032
:10728C0000F092B9ADF1080C6DE904CE00F024F8D1
:10729C00DDF804E0DDE9022304B07047D0B50C4BF7
:1072AC00002206460F46FFF7D7FCFFF76FFF044698
:1072BC00FFF758FC074B0022FFF7CEFC02460B46AB
:1072CC0030463946FFF710FBFFF760FF2146D0BD73
:1072DC000000F03D0000F0412DE9F047089D044608
:1072EC008E46002B4DD18A42944669D9B2FA82F26D
:1072FC0052B101FA02F3C2F1200120FA01F10CFAA9
:10730C0002FC41EA030E94404FEA1C48210CBEFBE0
:10731C00F8F61FFA8CF708FB16E341EA034306FB69
:10732C0007F199420AD91CEB030306F1FF3080F0F8
:10733C001F81994240F21C81023E63445B1AA4B245
:10734C00B3FBF8F008FB103344EA034400FB07F7E7
:10735C00A7420AD91CEB040400F1FF3380F00A8128
:10736C00A74240F207816444023840EA0640E41B1D
:10737C0000261DB1D4400023C5E900433146BDE8C9
:10738C00F0878B4209D9002D00F0EF800026C5E96B
:10739C00000130463146BDE8F087B3FA83F6002E83
:1073AC004AD18B4202D3824200F2F980841A61EBFB
:1073BC00030301209E46002DE0D0C5E9004EDDE719
:1073CC0002B9FFDEB2FA82F2002A40F09280A1EB01
:1073DC000C014FEA1C471FFA8CFE0126200CB1FB56
:1073EC00F7F307FB131140EA01410EFB03F088424F
:1073FC0008D91CEB010103F1FF3802D2884200F2DC
:10740C00CB804346091AA4B2B1FBF7F007FB10116D
:10741C0044EA01440EFB00FEA64508D91CEB04040B
:10742C0000F1FF3102D2A64500F2BB800846A4EB66
:10743C000E0440EA03409CE7C6F12007B34022FA51
:10744C0007FC4CEA030C20FA07F401FA06F31C4380
:10745C00F9404FEA1C4900FA06F3B1FBF9F8200C8D
:10746C001FFA8CFE09FB181140EA014108FB0EF0D3
:10747C00884202FA06F20BD91CEB010108F1FF3A23
:10748C0080F08880884240F28580A8F1020861442F
:10749C00091AA4B2B1FBF9F009FB101144EA01413D
:1074AC0000FB0EFE8E4508D91CEB010100F1FF34E8
:1074BC006CD28E456AD90238614440EA0840A0FB80
:1074CC000294A1EB0E01A142C846A64656D353D056
:1074DC005DB1B3EB080261EB0E0101FA07F722FA7A
:1074EC0006F3F1401F43C5E9007100263146BDE8A3
:1074FC00F087C2F12003D8400CFA02FC21FA03F306
:10750C00914001434FEA1C471FFA8CFEB3FBF7F086
:10751C0007FB10360B0C43EA064300FB0EF69E42AB
:10752C0004FA02F408D91CEB030300F1FF382FD244
:10753C009E422DD9023863449B1B89B2B3FBF7F6EC
:10754C0007FB163341EA034106FB0EF38B4208D9C5
:10755C001CEB010106F1FF3816D28B4214D9023E06
:10756C006144C91A46EA004638E72E46284605E724
:10757C000646E3E61846F8E64B45A9D2B9EB0208F5
:10758C0064EB0C0E0138A3E74646EAE7204694E785
:10759C004046D1E7D0467BE7023B614432E73046B8
:1075AC0009E76444023842E7704700BF00230146F4
:1075BC001A46184600F016B90A22002100F008B944
:1075CC00002910B591FBF2F402FB141306DB002B1F
:1075DC0001DA01349B1AC0E9004310BD002BC4BF73
:1075EC0004F1FF349B18F6E70A44914200F1FF3393
:1075FC0000D1704710B511F8014B03F8014F9142BF
:10760C00F9D110BD02440346934200D1704703F8F0
:10761C00011BF9E738B5104B1D68AB6B0446B3B9C9
:10762C001820FDF7C5FE0246A86320B90B4B0C4889
:10763C004221FDF7EDFE0B490B4BC0E900130B4B40
:10764C0083600B23838100210120C2E90401AB6B11
:10765C0000221C615A6138BD00E10320497D0B00FA
:10766C00607D0B000E33CDAB34126DE6ECDE050005
:10767C00034611F8012B03F8012B002AF9D17047AE
:10768C00024B0146186800F003B800BF00E103206C
:10769C0037B5044608460D4600F00FF8421C11465B
:1076AC0020460192FDF7A4FE044618B1019A294622
:1076BC00FFF79AFF204603B030BD034613F8012BA9
:1076CC00002AFBD1181A013870470000012B2DE954
:1076DC00F04701D0242B06D9FDF792FE1623036048
:1076EC000020BDE8F087DFF8E4C00D462E4615F803
:1076FC00014B14F80C7017F00807F7D12D2C32D170
:10770C002C780127B51C002B5BD0102B09D1302C09
:10771C0007D12C7804F0DF04582C4DD16C78102351
:10772C00023507F1004808F1FF384FF0000CB8FBA8
:10773C00F3F9664603FB198AA4F1300EBEF1090F6A
:10774C0016D87446A34224DDBCF1000F1EDBB145F4
:10775C001CD301D1A24519DB06FB03464FF0010CEB
:10776C0015F8014BE8E72B2C04BF2C78B51CCAE7A5
:10777C00A4F1410EBEF1190F01D8373CE2E7A4F198
:10778C00610EBEF1190F04D8573CDBE74FF0FF3CFC
:10779C00E6E7BCF1000F05DA22230360464642B946
:1077AC0030469EE707B17642002AF9D0BCF1000FB3
:1077BC0000D0691E1160F3E73024002BB1D10823EF
:1077CC00AFE7302CA5D00A23ABE700BFDE7D0B0062
:1077DC0013460A46014602480068FFF777BF00BF10
:1077EC0000E103202DE9F843DFF8B8800646D8F80D
:1077FC0000001F460D46914600F056F8254B1C68BC
:10780C0034B9254C1C60254B13B11B68C4F8883067
:10781C0063681F2B07DDD8F8000000F047F84FF025
:10782C00FF30BDE8F8834EB3D4F8880088B91C4B00
:10783C0023B9D8F8000000F038F8F0E74FF4847062
:10784C00FDF7B6FD0028F4D00023C0E94033C4F89E
:10785C008800636840F8239001229A4000EB830172
:10786C00D0F800311343C0F80031022EC1F88070FB
:10787C0002BFD0F804311343C0F804316368D8F860
:10788C0000005A1C0233626044F8235000F00EF8DA
:10789C000020C6E7E8E703205CE7032000000000B7
:1078AC00BD530B0064E10320704770477047000024
:1078BC001D400B0059400B0081400B0085400B0014
:1078CC0000000000557064617465642064656C612F
:1078DC00792074696D6520746F3A2000557064616D
:1078EC007465642073746172742072616E676520B4
:1078FC00746F3A2000557064617465642072616E17
:10790C00676520656E6420746F3A2000456E74655F
:10791C0072696E672073657475702066756E63741A
:10792C00696F6E2E0053657475702066696E69738D
:10793C006865642100686F6F6B2D726573706F6E74
:10794C0073652F55706461746500686F6F6B2D7271
:10795C006573706F6E73652F52656164696E670035
:10796C00436F6E646974696F6E73206D65742C203F
:10797C00707265706172696E6720746F2074616BD0
:10798C00652061206D6561737572656D656E74211E
:10799C000057616974696E6720666F722061206D93
:1079AC006561737572656D656E742C2062757420DB
:1079BC006974206861736E2774206265656E206C33
:1079CC006F6E6720656E6F756768207965742E0021
:1079DC0064756D6D795F6461746100576169746978
:1079EC006E6720666F722061206D656173757265BC
:1079FC006D656E742C206275742069742773206E0B
:107A0C006F7420696E20746865206163636570749F
:107A1C0061626C652074696D65206672616D652E9E
:107A2C002043757272656E742074696D653A20001E
:107A3C0052657175657374696E672061206D65613F
:107A4C00737572656D656E74202D20706C61636545
:107A5C002066696E676572206F6E2073656E736F3A
:107A6C00722E0046696E6765722064657465637476
:107A7C006564206F6E2073656E736F722E00456E99
:107A8C00746572696E67206D6561737572656D657D
:107A9C006E74206C6F6F700056616C6964206D653C
:107AAC0061737572656D656E742C2073656E646997
:107ABC006E6720646174612E004E6F7420612076B5
:107ACC00616C6964206D6561737572656D656E744A
:107ADC002E2048523A002053504F323A20007B203F
:107AEC002262656174223A2022002C20226F7822B7
:107AFC003A20007D005F5F5F606060616161616181
:107B0C00626262626263636363636363636464643B
:107B1C006464646464646464646464646464646419
:107B2C006463636363636363636262626262626120
:107B3C00616161606060605F5F5F5E5E5E5D5D5D48
:107B4C005C5C5C5B5B5A5A59595958585757565696
:107B5C0055555454535252515150504F4E4E4D4C0A
:107B6C004C4B4A4A494848474645454443424241A2
:107B7C00403F3E3E3D3C3B3A39383837363534335E
:107B8C003231302F2E2D2C2B2A2928272625242341
:107B9C0022211F1E1D1C1B1A191716151413111048
:107BAC000F0E0C0B0A09070605030201000000006A
:107BBC000000000000000000AB540B00A1540B00AF
:107BCC0097540B008D540B0081540B0075540B0013
:107BDC00BD660B00C5660B0069540B0061540B00AD
:107BEC0057540B004D540B00F5660B006170700080
:107BFC0025592D256D2D25645425483A254D3A25BA
:107C0C0053257A0061736374696D65000000000090
:107C1C0000000000FD5C0B00035D0B00415D0B00E0
:107C2C00115D0B00FF5C0B00000000000000000069
:107C3C003D620B002D620B002F620B000000000058
:107C4C000000000023630B008B630B0061630B00CF
:107C5C0079590B0053630B0025630B0035630B0044
:107C6C0085630B0045630B001D630B0000000000D7
:107C7C000000000025640B0091640B0069640B008C
:107C8C0079590B0039640B0055640B0047640B00E9
:107C9C0063640B0027640B002B640B0000000000D6
:107CAC0000000000F1640B003B650B0013650B003A
:107CBC00F3640B001B650B0023650B002B650B009D
:107CCC0033650B0000000000000000005D660B0037
:107CDC0053660B0049660B00FF650B003D660B00FD
:107CEC0031660B00BD660B00C5660B0025660B00EC
:107CFC001D660B0013660B0009660B00F5660B0086
:107D0C0000000000000000007D660B0087660B0081
:107D1C0091660B009B660B00A5660B00B1660B0011
:107D2C00BD660B00C5660B00CD660B00D9660B005B
:107D3C00E1660B00EB660B00F5660B000052454547
:107D4C004E54206D616C6C6F632073756363656555
:107D5C00646564002F6D6E742F776F726B73706136
:107D6C0063652F776F726B73706163652F47434345
:107D7C002D31302D706970656C696E652F6A656E7A
:107D8C006B696E732D4743432D31302D70697065CF
:107D9C006C696E652D34385F3230323031313234AB
:107DAC005F313630363138303634312F7372632FC1
:107DBC006E65776C69622F6E65776C69622F6C6982
:107DCC0062632F7374646C69622F72616E642E63CC
:107DDC0000002020202020202020202828282828AF
:107DEC002020202020202020202020202020202087
:107DFC0020208810101010101010101010101010DF
:107E0C0010100404040404040404040410101010DE
:107E1C001010104141414141410101010101010199
:107E2C000101010101010101010101010110101009
:107E3C00101010424242424242020202020202026C
:107E4C0002020202020202020202020202101010DC
:107E5C0010200000000000000000000000000000E6
:107E6C000000000000000000000000000000000006
:107E7C0000000000000000000000000000000000F6
:107E8C0000000000000000000000000000000000E6
:107E9C0000000000000000000000000000000000D6
:107EAC0000000000000000000000000000000000C6
:107EBC0000000000000000000000000000000000B6
:107ECC0000000000000000000000000000000000A6
:107EDC000000000095460B00B5540B00C9540B0074
:107EEC0069590B00395A0B00595B0B00B95B0B003D
:107EFC0069660B00CD670B0000000000000000005D
:047F0C000000000071
:107F1000040000001400000003000000474E55005C
:107F2000EBB40DCB1E1F2874981CCF344AEA92473D
:047F3000A5F83A93E3
:087F3400B0F3FF7F0100000023
:047F3C000000000041
:107F40000000C04160EA0000107C0B0004E1032047
:107F50000000000000000000000000000000000021
:107F60000000000000000000000000000000000011
:107F70000000000000000000000000000000000001
:107F800000000000000000000000000000000000F1
:107F900000000000000000000000000000000000E1
:107FA00000000000000000000000000000000000D1
:047FB000ECE70320D7
:107FB400FFFFFFFF00000102030405060708090A8A
:107FC4000B0C0D0E0F101112131415161718191A85
:087FD4001B1C1D1E1F202800CC
:047FDC00785634128D
:04000003B000401CED
:00000001FF
