:02000002B0004C
:1040000000400B0044870B00000006000C00050276
:084010000401A50F00000000EF
:044018000C7F0B000E
:10401C0009480A49884208B505D0094A824202D0AB
:10402C00121A03F0EDFD0748074A0021121A03F09B
:10403C00F5FD014808BD00BF0CDD0320A0860B0078
:10404C0088DD032088DD0320EDE7032070B5074EE3
:10405C00074C02F0CDF8A41BA4080025AC4200D1FB
:10406C0070BD56F8043B98470135F7E748860B00BE
:10407C006C860B0000F01AB908B500F0B1F9BDE878
:10408C00084002F06DB801F01DBB01F01BBB01F044
:10409C0021BB0078B0FA80F040097047012303700F
:1040AC007047704707B5019102F042FC019903B0CB
:1040BC005DF804EB01F05BBE10B5054B0022044625
:1040CC00114640F8043B01F017FA204610BD00BF22
:1040DC00F8810B0010B50446FFF7EEFF20462021B7
:1040EC00FFF7D5FF204610BD10B504460022407CDA
:1040FC0001F03CFA637C0F2B18BF208310BD00002D
:10410C00F0B54C1C85B010491D460646174601F00B
:10411C00ECFCE4B22544BC4212D23146684601F0B4
:10412C0007FD15F8011B684601F0B8FD0146304645
:10413C0001F0EFFC0134684601F08CFCE4B2EAE7D4
:10414C00304605B0F0BD00BF78840B002DE9F04F70
:10415C000C4689B002F0ECFB214601F008FE002C65
:10416C0000F095800026DFF83881DFF838A1DFF801
:10417C00389137463546F2B2A35C002B00F08780AD
:10418C003A2B00F082802C2B50D175BB394623463C
:10419C0004A8FFF7B5FF04A801F08AFD3D4B4EF6CD
:1041AC0060225043186004A801F054FC02F0C0FBDC
:1041BC0039498346684601F098FC364B0A22196847
:1041CC0004A801F0F8FC04A9684601F046FD01685A
:1041DC00584601F0CCFD04A801F03CFC684601F007
:1041EC0039FC0135EDB20136C5E7012DF9D1234675
:1041FC00394604A8FFF784FF04A801F059FD07EE27
:10420C00900AF8EEE77A04A8C9ED007A01F022FCD6
:10421C0002F08EFB21498346684601F066FC99ED5D
:10422C00000A062104A801F0DAFCCCE77D2BDAD1D8
:10423C002346394604A8FFF763FF04A801F038FDB4
:10424C0007EE900AF8EEE77A04A8C8ED007A01F0C0
:10425C0001FC02F06DFB51468346684601F045FCBB
:10426C0098ED000A062104A801F0B9FC04A96846DF
:10427C0001F0F3FC0168584601F079FD04A801F047
:10428C00E9FB684601F0E6FBADE71746ABE709B082
:10429C00BDE8F08F14DD0320207F0B00387F0B006E
:1042AC0010DD0320517F0B000CDD03201FB502F045
:1042BC003FFB4FF4165102F02FFB02F039FB24495F
:1042CC0001F055FD234800F0C9FC40F29B134FF45C
:1042DC008052CDE90132642304223C211D48009315
:1042EC00022300F075FD002402F022FB1A4901F0B4
:1042FC003EFD23462246CDE900441849184801F0FA
:10430C00C9F92246234617491748CDE90044174CF2
:10431C0001F0C0F9B9EE0C0A01F09EFD4FF47F4399
:10432C000A2120466361FFF7DFFE637C0F2B1CBF65
:10433C0003236374A27C12F0010203D10C48012107
:10434C0001F0DAF8A37C03F0FD03A37404B010BDF4
:10435C00687F0B0090DE0320817F0B0059410B001E
:10436C00917F0B00B1400B00A67F0B008CDD03206E
:10437C0090DD032038B5046805467CB16368013BC9
:10438C0063605BB9236820469B689847A368013B30
:10439C00A3601BB923682046DB689847284638BDC4
:1043AC0038B50468002001F0C9F820B1637813B95E
:1043BC0001F058F9FAE76378BFF35B8F651C0BB912
:1043CC00002038BD002001F0B9F820B12B7813B9CA
:1043DC0001F048F9FAE72378012BF1D1207BF0E7C3
:1043EC002DE9F04F2DED028B774E33789DB0002BDD
:1043FC0058D101F067FE08EE100A01F06FFE07EECF
:10440C00900AF8EEE77A17EE900A02F07FFE6F4BF7
:10441C00002202F0FDFFF8EEC87A044617EE900A6F
:10442C000D4602F073FE0B4602462946204602F06A
:10443C000FFD03F07DF907EE900AF5EEC07AF1EE70
:10444C0010FA44BFB3EE087A77EE877A604C614B72
:10445C00C4ED007AD4ED007A93ED007AF4EEC77ACD
:10446C00F1EE10FA7FDD5C4B93ED007AF4EEC77A37
:10447C00F1EE10FA77D5594C00F056FF2368C01AAC
:10448C004EF65F23984254D90123337000F04CFF51
:10449C00206002F04DFA524901F069FC42F21070B2
:1044AC0001F032FE3378012B79D102F041FA4D4CF8
:1044BC004D4901F05CFCFF236361637C49480F2B81
:1044CC0018BF02234FF01E0118BF6374FFF70CFED8
:1044DC00A27C12F0010203D14448012101F00CF836
:1044EC00A37C03F0FD03A37402F022FA404901F00F
:1044FC003EFC02233370DFF820813E4CDFF810A124
:10450C00DFF810916423C8F8003002F011FA3A4930
:10451C0001F02DFC0025D8F80010EFB28F427DDAA7
:10452C00204600F067FA00283FD1204600F0AAFA96
:10453C00F6E702F0FDF9314901F019FC304918A8F1
:10454C0001F0D3FA2F4B189A1B782F498DF80030B5
:10455C0014A83C2301F0AAFF15A8FFF70BFF18A81D
:10456C0001F078FA9AE702F0E3F92849054618A811
:10457C0001F0BBFA94ED000A062114A801F02FFB00
:10458C0014A918A801F069FB0168284601F0EFFB9B
:10459C0014A801F05FFA18A801F05CFACEE7022B20
:1045AC00A9D0032B40F0358156E0204600F02EFBBD
:1045BC002AF81700204600F037FB29F81700204690
:1045CC0000F022FA0135A6E768DF032000004E4018
:1045DC00B0DD03200CDD032010DD032098DE03206A
:1045EC00BC7F0B008CDD03208C800B0090DD032046
:1045FC00BF800B0090DE0320DA800B00ED7F0B00F8
:10460C002C800B0089DD03209F7F0B0037800B0073
:10461C009CDE0320C8DD0320ACDD0320B84FB94B72
:10462C000293B94DB94B0093B94ABA4801953B4630
:10463C0000F02CFD3B68333B312B00F2D3802B6810
:10464C001F3BB3F5867F00F2CD8002F071F9B249C1
:10465C0001F08DFB03233370B049DFF8F092B04FBB
:10466C0008A801F042FA08A910A801F061FAA64BBB
:10467C000A2219680CA801F08BFA0CA910A801F0F9
:10468C00ECFAA84901F0F5FAA74901F0F2FA9C4BB3
:10469C000A221968044614A801F07AFA14A92046D3
:1046AC0001F0DBFAA14901F0E4FA044601F0F9FC4F
:1046BC009F4BA0491B6800930246C31718A801F032
:1046CC0091FC18A9204601F0C8FA9B499B4C01F0BB
:1046DC00D0FA014604A801F02BFA18A801F0BAF997
:1046EC0014A801F0B7F90CA801F0B4F910A801F066
:1046FC00B1F908A801F0AEF904A918A801F018FA4C
:10470C008F4B189A1B788F498DF8003014A83C23D6
:10471C0001F0CCFE14A8FFF743FE054615A8FFF7E1
:10472C0029FE18A801F096F902F002F9049901F09B
:10473C001EFB002D00F0B080002333700A214FF4D3
:10474C007F4320466361FFF7CFFC637CDFF8208258
:10475C00DFF824A2DFF824B20F2B1CBF03236374F1
:10476C0002F0E6F87849794C01F001FB3E7809EB50
:10477C000616A64200F0848000F0D6FD58F8043BE3
:10478C00C01A734B984275D855B39BF800308DF80E
:10479C00003022686B493C2318A801F087FE18A84A
:1047AC00FFF7FEFD054619A8FFF7E4FDC5B102F0C1
:1047BC00BFF86849814618A801F097F9214614A85A
:1047CC0001F0B6F914A918A801F047FA0168484697
:1047DC0001F0CDFA14A801F03DF918A801F03AF94E
:1047EC001034C6E700F0A0FD5B4B1B68C01A5B4B96
:1047FC00984213D9514C4FF47F430A2120466361F0
:10480C00FFF772FC637C0F2B1CBF03236374002324
:10481C0033701DB0BDEC028BBDE8F08F02F088F850
:10482C004F49044614A801F060F90A22296810A81F
:10483C0001F0AEF910A914A801F00FFA494901F0E2
:10484C0018FA0A223968054618A801F0A1F918A926
:10485C00284601F002FA0168204601F088FA18A8EF
:10486C0001F0F8F810A801F0F5F814A801F0F2F82E
:10487C000223CDE702F05CF8514601F078FAAFE77D
:10488C0035B100233B7002F053F8374901F06FFA51
:10489C0004A801F0DFF8BCE702F04AF8334901F054
:1048AC0066FA387804A909EB001001F032F997F890
:1048BC00008000F039FD2E4B357043F828003B7812
:1048CC0001331E213B7020462A4B6361FFF70CFC21
:1048DC00637C0F2B18BF02234FF4FA6018BF63746C
:1048EC0001F012FC4FF47F43144863610A21FFF777
:1048FC00FBFB637C0F2B1CBF03236374C8E700BF57
:10490C0064DF03206DE20320C4DD03206EE203208C
:10491C009CDE0320C8DD0320F4800B003A810B00E1
:10492C006CE2032044810B0046810B004F810B008D
:10493C001CDD0320A4E603205A810B008CDD032030
:10494C0089DD0320B47F0B005C810B006CDF03203E
:10495C00FF5B260574810B0098DE0320C02709003D
:10496C0015810B0032810B00AE810B00CB810B004B
:10497C0070E2032000FFFF0088810B0088DD03201C
:10498C00144B73B500241C70134B1448144D154E66
:10499C0001221A7000F02CF80A221348114601F07B
:1049AC00E4F828193146103401F09FF8B4F5407F33
:1049BC00F7D100221E21022000F0D8FD1E22012179
:1049CC00CDE9002103460222FF21084800F01EFF1A
:1049DC0002B070BD88DD032089DD032090DE03204A
:1049EC006CDF032078840B00B4DD03208CDD032006
:1049FC0070470000034B93F8300093F83130C01A25
:104A0C00C0B2704730E30320064A92F8313092F876
:104A1C00301099421EBF013303F0030382F831308A
:104A2C00704700BF30E3032038B50C46154602F042
:104A3C00DFF9214602F084F802F0DAF9036829461E
:104A4C009B68984702F0D4F902F082F802F0D0F992
:104A5C000122214602F071F802F0CAF903681B69C1
:104A6C00984728B102F0C4F903685B699847C0B253
:104A7C0038BD04225721FFF7D7BF06225721FFF775
:104A8C00D3BF00002DE9F7430746FFF7F6FF0446B6
:104A9C003846FFF7EEFF844200F09B80041B48BFB2
:104AAC0020347E79DFF8348102F0A2F9572102F02C
:104ABC0047F802F09DF9036807219B68984702F0BC
:104ACC0097F902F045F8664306EB4606002E40F3D4
:104ADC008180202EC3BF7D7905EB4503202535460B
:104AEC00C4BFB5FBF3F55D4302F082F92A465721AA
:104AFC0002F023F8761B4FF00009002DE6DD98F844
:104B0C0030308DF80790013303F0030388F8303010
:104B1C0002F06EF903685B6998478DF8060002F0A5
:104B2C0067F903685B6998478DF8050002F060F936
:104B3C0003685B6998478DF80400019B98F8302056
:104B4C00C3F3110348F822307B79012B1CD902F0F6
:104B5C004FF903685B6998478DF8060002F048F935
:104B6C0003685B6998478DF8050002F041F903680A
:104B7C005B69984798F830308DF80400019A04333B
:104B8C00C2F3110248F823207B79022B1CD902F0C6
:104B9C002FF903685B6998478DF8060002F028F935
:104BAC0003685B6998478DF8050002F021F90368EA
:104BBC005B69984798F830308DF80400019A0833F7
:104BCC00C2F3110248F823207B79A3EB83031D4425
:104BDC0093E70024A0B203B0BDE8F08330E30320D8
:104BEC0070B505460E4600F09FFB044600F09CFB9A
:104BFC00001BB04208D82846FFF744FF012804D018
:104C0C00012001F081FAF1E7002070BD08B5FA210E
:104C1C00FFF7E6FF20B1034B93F8302053F8220046
:104C2C0008BD00BF30E3032008B5FA21FFF7D8FF19
:104C3C0028B1034A92F83030043352F8230008BDEF
:104C4C0030E30320FF225721FFF7EEBE10B5FE2202
:104C5C0057210446FFF7E8FEA07110BD10B50446BD
:104C6C0002F0C6F801F03AFF2046FFF7EBFF2046B2
:104C7C00FFF7ECFF012010BD37B515461C4601911E
:104C8C0002F0B6F8019901F05BFF02F0B1F803688D
:104C9C0029469B68984702F0ABF8036821469B684D
:104CAC00984702F0A5F803B0BDE8304001F050BFC2
:104CBC000B460C225721FFF7DFBF0B460D22572165
:104CCC00FFF7DABF0B460E225721FFF7D5BF0B4675
:104CDC0010225721FFF7D0BF10B500230446042241
:104CEC005721FFF7C9FF2046002305225721FFF764
:104CFC00C3FF20460023BDE8104006225721FFF7D2
:104D0C00BBBF2DE9F0410C4617460A465721054614
:104D1C001E46FFF789FE384046EA00032246284625
:104D2C005721BDE8F041FFF7A7BF38B5BF2240239C
:104D3C0009210546FFF7E5FF00F0F6FA044600F0FE
:104D4C00F3FA001B63280AD8092257212846FFF7DB
:104D5C006BFE430603D5012001F0D6F9EFE738BD11
:104D6C000B46F8220921FFF7CCBF0B469F220A21E4
:104D7C00FFF7C7BF0B46E3220A21FFF7C2BF0B4662
:104D8C00FC220A21FFF7BDBF01391346032914D8B1
:104D9C00DFE801F002060B0EF8221121FFF7B1BF7C
:104DAC001B0103F0F0038F22F7E7F8221221F5E73D
:104DBC001B0103F0F0038F22F8E770470B461F220C
:104DCC000821FFF79EBF1023EF220821FFF799BFA0
:104DDC002DE9F0471546DDE90879DDF828A00446F1
:104DEC0088461E46FFF7A1FF012D49D10021204620
:104DFC00FFF7E4FF2046FFF7E6FF032E54D107210F
:104E0C002046FFF7ADFFBAF5805F667151DA0021DD
:104E1C002046FFF7AAFF632F58DC00212046FFF73E
:104E2C00A9FFB9F1750F71DC00212046FFF7A7FF30
:104E3C0041462046FFF73CFF41462046FFF73DFF29
:104E4C0041462046FFF73EFF41462046FFF73FFF15
:104E5C00012211462046FFF797FF012E0BD90222A3
:104E6C0011462046FFF790FF022E04D00322114674
:104E7C002046FFF789FF2046BDE8F047FFF72CBF1F
:104E8C00022D01D12021B2E7042D01D14021AEE742
:104E9C00082D01D16021AAE7102D01D18021A6E7B0
:104EAC00202DF3D1A021A2E7022E0CBF0321022159
:104EBC00A6E7BAF5005F01DA2021A9E7BAF5804F21
:104ECC0001DA4021A4E7A2D16021A1E7C72F01DCC0
:104EDC000421A3E7B7F5C87F01DA08219EE7B7F5EF
:104EEC00487F01DA0C2199E7B7F57A7F01DA1021B6
:104EFC0094E7B7F5C86F01DA14218FE7B7F5486F5F
:104F0C0001DA18218AE788D11C2187E7B9F1D60F7D
:104F1C0001DC012189E7B9F5CD7F01DC022184E7B1
:104F2C0040F29B1399457FF47FAF03217DE72DE978
:104F3C00F04100240C6003F1FF380124A04527DD6B
:104F4C00069D52F824C0AC454FEA840604F10105D5
:104F5C001CDD164456F8046CB44517DD2E469E42F3
:104F6C0052F82670A6EB040E354603D0BC4506F16C
:104F7C000106F4D0BC4509DD0E680E2E06DC751C4E
:104F8C000D600EF1010540F8264025442C46D5E76E
:104F9C00BDE8F081F0B5012304468B420FDA54F8DA
:104FAC00046F1A46254655F8047CB74203DD013AD6
:104FBC0045F80479F7D140F822600133EDE7F0BDF4
:104FCC002DE9F043012390460D46434516DA55F87A
:104FDC00046F1C4600EB8609AC46D9F800205CF83F
:104FEC00047C964650F82720964503DD013C4CF88E
:104FFC000479F2D141F824600133E6E7BDE8F0838F
:10500C002DE9F04104461F4610460D460A6821461C
:10501C00FFF7D6FF4FF0FF32C7F1000E296891421F
:10502C001DDD531C1E462B60B14216D0501C18BF00
:10503C0054F8220054F826C008BF1046ACEB000010
:10504C00B84201DC864506DD286800F10108C5F888
:10505C00008044F820C00136E6E71A46DEE7204619
:10506C00BDE8F041FFF796BF37B5069D0095FFF7F9
:10507C005EFF0C46079BFFF7C3FF2268089B9A4212
:10508C00D4BF2260236003B030BD00002DE9F04F87
:10509C009DB0DDE92798164600229B4605460C4636
:1050AC001346A24204DA35F8121001320B44F8E729
:1050BC008D4FB3FBF4F338460022A24206DA35F8E2
:1050CC001210591A40F8041B0132F6E7864A0021E7
:1050DC00136852F8040F03445068034490681B187B
:1050EC0048BF033301319B10602942F8043CEFD1D7
:1050FC0000237D4A9A4652F8041B0AF1010ABAF1C0
:10510C00640F0B44F7D140F6B73293424FDD93FB5B
:10511C00FAFABAF13C0FA8BF4FF03C0A3C2200212E
:10512C000DA802F07BFD04230F22CDE90132CDF84E
:10513C0000A06D4A642307A90DA8FFF795FF079BF4
:10514C00012B4FF0000235DD0DA94FF0010C084684
:10515C00D1F804E000680CF1010CAEEB00006345E3
:10516C0001F104010244F2D1591E92FBF1F240F21A
:10517C00DC5191FBF2F2C9F8002001225B4988F85E
:10518C0000200022A24219DB0022CDE90822CDE941
:10519C000A220DAE0C92314693421BDD51F8040BE2
:1051AC00642815DD524BCBF80030002392E04FF011
:1051BC001E0AB3E74E49C9F80010DFE735F81200B4
:1051CC0047F8040B36F8120041F8040B0132D9E70A
:1051DC000132E1E70024013B434FDFF810C1049496
:1051EC00254621460593DDE90423934256DDD6F886
:1051FC00048056F8040B1346A8EB00090133B9F1EF
:10520C00030F0493EFDD4FF07F4E0346F2469845B3
:10521C000EDD57F823207245C8BF96465CF8232054
:10522C00C8BF1C465245C4BF1D4692460133EEE72B
:10523C0057F8202057F828309B1A221A534357F856
:10524C00202093FBF9F3134457F82520D21A0AFBBC
:10525C0002F24FEAE21ABAF1000FC4DD0429C2DCF3
:10526C005CF820305CF82820281AD21A504390FBA6
:10527C00F9F018445CF825301B1A0EFB03FE5FEAAC
:10528C00EE1EB0D01CAB03EB8108642303FB0EF2C3
:10529C00013192FBFAF248F8502CA4E708A8FFF76A
:1052AC0079FE4A1003294FEA820318DD1CA901EB91
:1052BC00820151F8543C51F8502C134403EBD37336
:1052CC005B10DA1EB42A3FF66DAF0A4AD35CCBF8FA
:1052DC0000300123269A13701DB0BDE8F08F1CAA74
:1052EC00134453F8503CECE764E30320F4E403204C
:1052FC0019FCFFFF04820B0008B5024B1B689B686E
:10530C00019308BD6802030008B5024B1B68DB68FB
:10531C00019308BD6802030008B5024B1B685B686B
:10532C00019308BD1802030008B5024B1B685B69AA
:10533C00019308BD1802030008B5024B1B689B6D56
:10534C00019308BD1802030008B5024B1B685B6E85
:10535C00019308BD1802030008B5024B1B685B6C77
:10536C00019308BD4802030008B5024B1B685B693A
:10537C00019308BD6402030008B5024B1B68DB688F
:10538C00019308BD3C02030008B5024B1B681B6966
:10539C00019308BD3C02030008B5024B1B685B6916
:1053AC00019308BD3C02030008B5024B1B689B69C6
:1053BC00019308BD3C02030008B5024B1B68DB6976
:1053CC00019308BD3C02030008B5024B1B689B6AA5
:1053DC00019308BD3C02030008B5024B1B681B6C13
:1053EC00019308BD3C02030008B5024B1B68DB6847
:1053FC00019308BD2802030008B5024B1B689B698A
:10540C00019308BD2802030008B5024B1B68DB6939
:10541C00019308BD2802030008B5024B1B681B6AE8
:10542C00019308BD2802030008B5024B1B685B6A98
:10543C00019308BD2802030008B5024B1B689B6A48
:10544C00019308BD2802030008B5024B1B68DB6AF8
:10545C00019308BD2802030008B5024B1B681B6BA7
:10546C00019308BD2802030008B5024B1B681B6C96
:10547C00019308BD2802030008B5024B1B681B6D85
:10548C00019308BD2802030008B5024B1B681B687A
:10549C00019308BD4C02030008B5024B1B685B6806
:1054AC00019308BD4C02030008B5024B1B681B6935
:1054BC00019308BD4C02030008B5024B1B685B69E5
:1054CC00019308BD4C02030008B5024B1B689B6995
:1054DC00019308BD4C02030008B5024B1B68DB6945
:1054EC00019308BD4C02030008B5024B1B681B6AF4
:1054FC00019308BD4C02030008B5034B1B68D3F89D
:10550C008030019308BD00006002030008B5024B17
:10551C001B681B68019308BD2002030008B5024BF1
:10552C001B685B68019308BD2002030008B5024BA1
:10553C001B685B69019308BD2002030008B5024B90
:10554C001B68DB6C019308BD2002030008B5024BFD
:10555C001B685B6D019308BD2002030008B5024B6C
:10556C001B689B6D019308BD2002030008B5024B1C
:10557C001B68DB6F019308BD2002030008B5034BC9
:10558C001B68D3F88830019308BD0000200203008B
:10559C0008B5034B1B68D3F89430019308BD000089
:1055AC002002030008B5024B1B685B68019308BD21
:1055BC004002030008B5024B1B689B68019308BDB1
:1055CC004002030008B5024B1B68DB68019308BD61
:1055DC004002030008B5024B1B681B69019308BD10
:1055EC004002030008B5024B1B685B69019308BDC0
:1055FC004002030008B5024B1B689B69019308BD70
:10560C004002030008B5024B1B68DB69019308BD1F
:10561C004002030008B5024B1B681B6A019308BDCE
:10562C004002030008B5024B1B681B6B019308BDBD
:10563C004002030008B5024B1B685B6B019308BD6D
:10564C004002030008B5024B1B681B6C019308BD9C
:10565C004002030008B5024B1B685B6C019308BD4C
:10566C004002030008B5024B1B689B68019308BD00
:10567C004402030008B5024B1B685B69019308BD2B
:10568C004402030008B5024B1B681B6A019308BD5A
:10569C004402030008B5024B1B685B6A019308BD0A
:1056AC004402030008B5024B1B681B6B019308BD39
:1056BC004402030008B5024B1B68DB6B019308BD69
:1056CC004402030008B5024B1B681B68019308BD1C
:1056DC001C02030008B5024B1B685B68019308BDF4
:1056EC001C02030008B5024B1B689B68019308BDA4
:1056FC001C02030008B5024B1B681B69019308BD13
:10570C001C02030008B5024B1B68DB69019308BD42
:10571C001C02030008B5024B1B68DB6A019308BD31
:10572C001C02030008B5024B1B681B6B019308BDE0
:10573C001C02030008B5024B1B68DB6B019308BD10
:10574C001C02030008B5024B1B681B6C019308BDBF
:10575C001C02030008B5024B1B685B6C019308BD6F
:10576C001C02030008B5024B1B689B6C019308BD1F
:10577C001C02030008B5024B1B68DB6C019308BDCF
:10578C001C020300002240681146FFF743BF0022B1
:10579C0040681146FFF74EBF40680022FFF742BF3A
:1057AC004068002281F00101FFF72CBF0023406804
:1057BC001A461946FFF71EBF002340681A461946C1
:1057CC00FFF710BF002240681146FFF703BF00220D
:1057DC0040681146FFF7EEBE406800220221FFF739
:1057EC00F1BE002340681A46FFF7DCBE024B0322D1
:1057FC005A60024A1A60704784E60320C4820B0088
:10580C000A680B46926801461846104770B50E4C54
:10581C00046000251C24C0E901459DF814409DF846
:10582C001060C56004F0030444EA8604E4B2047416
:10583C00427485744161427C0F2A0ABF034B038377
:10584C00C0E9063070BD00BFF8810B000D580B008D
:10585C00054B02221A60054B054A9A600020C3E9E9
:10586C000000FFF75BBE00BF98E603208CE6032028
:10587C000000FFFF10B5044602F035FA013823187A
:10588C002046834206D90278197800F8011B03F8E8
:10589C000129F6E710BD2DE9F041931E8CB0222BA7
:1058AC004FF000030D4614468DF82C3027D90028F4
:1058BC002ADA2E462D2306F8013B40420A240DF12C
:1058CC002B074FF001082246014601A802F084F98B
:1058DC00029B0198092BCCBF3722302252FA83F35A
:1058EC0007F8013908F101080028ECD14246791C6F
:1058FC00304602F085F928460CB0BDE8F0810A2A42
:10590C00D5D018B12E46DAE70A24FAE730238DF801
:10591C002B302E460DF12A074FF00208E6E770B542
:10592C000C46911E22291DD8254630B9234430221D
:10593C009D4210D205F8012BFAE7B0FBF2F602FB00
:10594C001600C1B2092894BF30315731C9B205F8DD
:10595C00011B3046E9E7002320462B70FFF78AFF36
:10596C00204670BD0020FCE738B5031E0C461546DA
:10597C000EDAB3F1004F4FF02D0214BF5842184607
:10598C0001230A702A461944FFF7C9FF204638BD87
:10599C000123F9E72DE9F14F57EC106B80460C46CB
:1059AC0010EE100A00220023394601F079FE28B1CE
:1059BC0007F100431F462D2304F8013B00234FF051
:1059CC0001090A22D9B2884503D902FB09F901332E
:1059DC00F8E7484601F088FB32463B4601F0EEFB07
:1059EC0006460F4601F040FF8A4605468B4601F0FD
:1059FC00AFFB02460B463046394601F027FA144BF2
:105A0C00002201F061FE10B101354AF1000B4A464B
:105A1C002846D317594601F0DBFE012315462146D3
:105A2C000A22FFF77CFFB8F1000F0ED0204602F0DF
:105A3C005AF92E23211823540A22434601312846B1
:105A4C0001B0BDE8F04FFFF76ABF01B0BDE8F08FC1
:105A5C000000E03F10B504460068FFF73BFE20460F
:105A6C0010BD10B50446006808B1FFF733FE0023E3
:105A7C00C4E90133236010BD38B504460D460068F7
:105A8C000131FFF72FFE10B1C4E90005012038BD2C
:105A9C0010B50368044623B143688B4201D301203F
:105AAC0010BD2046FFF7E8FF0028F9D0A368002BB3
:105ABC00F5D122681370F2E737B50D461146019205
:105ACC000446FFF7E5FF019A28B92046FFF7C9FF06
:105ADC00204603B030BDA2602946206802F090F841
:105AEC002268A3680021D154F2E7002313B5C0E962
:105AFC00003304468360037341B10846019102F000
:105B0C00F2F8019902462046FFF7D6FF204602B074
:105B1C0010BD884210B5044605D00B682BB18A68BD
:105B2C001946FFF7C9FF204610BDFFF79AFFFAE7A9
:105B3C0010B500230446C0E9003383600373FFF7FC
:105B4C00E8FF204610BD13B5044659B10846019133
:105B5C0002F0C9F8019902462046FFF7ADFF204636
:105B6C0002B010BDFFF77DFFF9E710B504468AB00F
:105B7C000023C4E90033A3602373084601A9FFF78F
:105B8C00F3FE01A92046FFF7DEFF20460AB010BD48
:105B9C0010B504468AB00023C4E90033A360237314
:105BAC00084601A9FFF777FE01A92046FFF7CBFFB6
:105BBC0020460AB010BD10B504468AB00023C4E9D3
:105BCC000033A36023730846012301A9FFF7A7FE46
:105BDC0001A92046FFF7B7FF20460AB010BD30B52B
:105BEC00044600238BB0C4E90033A360237310EE8A
:105BFC00100ACDB201F08AFA41EC100B01A928462B
:105C0C00FFF7C8FE01A92046FFF79DFF20460BB009
:105C1C0030BD70B505460E4609B9002070BD6AB19D
:105C2C00846814442146FFF733FF0028F5D0286818
:105C3C00AB683146184402F031F8AC600120EDE756
:105C4C0007B500238DF80410012201A98DF8053049
:105C5C00FFF7DFFF03B05DF804FB10B58A68096835
:105C6C000446FFF7D6FF10B92046FFF7FAFE204690
:105C7C0010BD13B5044629B92046FFF7F2FE2046A5
:105C8C0002B010BD0846019102F02DF801990246B0
:105C9C002046FFF7BEFF0028EED0F0E710B5044613
:105CAC00FFF7CEFF10B92046FFF7DBFE204610BDF4
:105CBC00006808B101F08CBF704710B583680446CA
:105CCC0013B1032201469847204610BD13B50B466D
:105CDC000246D0E900016C4684E8030093E8030017
:105CEC0082E8030094E8030083E8030002B010BDCF
:105CFC00024800230360FFF72FBB00BF9CE6032084
:105D0C00F8B506460D468F180024BD420CD03368FA
:105D1C0015F8011B9B6830469847031E01DB1C4499
:105D2C00F3E7002C08BF1C462046F8BD13B504460B
:105D3C00084659B1019101F0D6FF23680199DB683F
:105D4C000246204602B0BDE81040184702B010BD14
:105D5C0003689B68184738B50D210546FFF7F8FF17
:105D6C000A2104462846FFF7F3FF204438BD38B516
:105D7C000546FFF7DBFF04462846FFF7ECFF2044FF
:105D8C0038BD30B58BB00023012A8DF8243098BF74
:105D9C000A2209AC0D46B1FBF2F101FB125303F0E0
:105DAC00FF03092B94BF30333733DBB2AA4204F81C
:105DBC00013DEFD92146FFF7B9FF0BB030BD000014
:105DCC00014B024A1A607047A0E60320F8820B00D0
:105DDC002DE9F041154ADFF86080D2E900638019A3
:105DEC0043EB0101124BD3E90067D8E90023861974
:105DFC0041EB0707BB4208BFB2428CB013D003A9DA
:105E0C006846CDE90067FFF7B5FC089B094D03F226
:105E1C006C7303AC08930FCC0FC50FCC0FC5C8E93E
:105E2C00006723682B600CB0BDE8F081D8E6032036
:105E3C00D0E60320ACE60320E0E6032008B5002002
:105E4C00FFF730FC28B1FFF715FC80F00100C0B261
:105E5C0008BD0120FCE70000FAEE087AB4EEE70A70
:105E6C00F1EE10FA08B511D4F2EE0C7AB4EEE70AA2
:105E7C00F1EE10FA0ADCDFED067A60EE277A17EE07
:105E8C00900A01F0BDFC034BC3E9000108BD00BF43
:105E9C0000006145D8E6032030B593B0CDE900236E
:105EAC00194B0446D3E90010019B521843EB000335
:105EBC001648D0E90010521843EB0003CDE900233B
:105ECC0024220DEB0200002101F0A8FE002509A9F7
:105EDC006846FFF74FFC1622294603A8029501F0ED
:105EEC009DFE02A909A801F047FE02A801F0FBFEE5
:105EFC0012AB184402A900F8415C2046FFF7F5FDEF
:105F0C00204613B030BD00BFD8E60320D0E60320F6
:105F1C002DE9F047A4B00746884614A811463F2245
:105F2C001C4601F0E8FE002314A88DF88F3001F018
:105F3C00DAFE05464CBB294903A801F0AFFE14ACB0
:105F4C00002605F1FF39B14534D92378252B06F10C
:105F5C00010A17D163787A2B14D103A801F0C3FE80
:105F6C0014AB054630181844A9EB0602A11C01F02D
:105F7C0047FE2A4603A9204601F042FE14A801F070
:105F8C00B2FE054601345646DBE73C2394FBF3F2A4
:105F9C00002AB8BF5242B2FBF3F103FB112200926C
:105FAC004FF461630E4A94FBF3F3102103A8FFF73F
:105FBC00A9FBC4E700212E2208A8079101F02EFEB0
:105FCC00434614AA322107A8FFF7CCFB07A9384691
:105FDC00FFF78BFD384624B0BDE8F087FC820B0040
:105FEC00FE820B00F0B58DB0CDE90023129D044666
:105FFC0015B9194B1D682DB1184B2846196801F0BD
:10600C0043FE38B9DDE900232046FFF745FF204663
:10601C000DB0F0BD124E0099124FD6E900325B184C
:10602C00019942EB0102D7E900011B1842EB010276
:10603C00CDE900320021242203A801F0EFFD03A9D1
:10604C006846FFF797FB32683B6803A91344204668
:10605C002A46FFF75DFFDAE7A8E6032018DD0320E8
:10606C00D8E60320D0E6032010B50020FFF764F932
:10607C000446A0B9FFF74AFA012810D12046FFF7D1
:10608C006DFA60B9FFF7DAFE10B9FFF7EBFAF9E732
:10609C00FFF7D4FEBDE810400020FFF74DB92046B5
:1060AC0010BD1FB5FFF7E0FF10220021684601F07C
:1060BC00B5FD00216846FFF747F9009805B05DF87B
:1060CC0004FB000008B5FFF7ECFFC117FFF780FEDB
:1060DC00014B986808BD00BFACE6032008B5FFF77C
:1060EC00E0FFC117FFF774FE014B586808BD00BFF5
:1060FC00ACE60320024B1A68024B1A60704700BFD3
:10610C0018DD0320A8E603200021FFF70FBA0000DA
:10611C00014B00229A607047E8E60320014B18609F
:10612C00704700BF20DD032008B50B4B43B100F0D6
:10613C00FFFB03681B699847002801DDAFF3008063
:10614C00064B43B100F014FE03681B699847002806
:10615C0001DDAFF3008008BD00000000000000006E
:10616C0008B5FFF7E1FFFFF7DFF8014B186008BD3A
:10617C0040E703200548064A064908B5121A01F003
:10618C003FFD054B054A1A6008BD00BF00F4032013
:10619C0004F403209C860B0000F403201E1C279A99
:1061AC0007B5002300931A466FF07701FFF7F0F95B
:1061BC0003B05DF804FB000007B543880A2B08D038
:1061CC00502B0BD1094B1B684BB103B05DF804EBA2
:1061DC001847FFF7E5FF03B05DF804FB00230093BD
:1061EC001A466FF07701FFF7D3F9F4E7FCE60320CA
:1061FC0010B512480021FFF7ADFA114B1A68114B7C
:10620C009A42114B0CBF012200221A7001D0FFF7E9
:10621C00B1FFFFF781F8044601F008FD0B4B13B1F9
:10622C002046AFF3008000210848FFF743FABDE891
:10623C00104007480021FFF7A1B900BF29610B00EE
:10624C0000F403201E1C279AF8E60320000000002F
:10625C00C5610B0070470020704710B51021044633
:10626C00FDF715FF204610BD08B5FFF7F6FF08BD7A
:10627C0030B500224FF69C74026084808D888C802F
:10628C000C68858004600A6030BD10B50446006857
:10629C00FFF720FA204610BD38B5C468F4B1237856
:1062AC00022B03D104F10C00FFF7EFFF656835B149
:1062BC002846FFF702FD10212846FDF7E8FEA568E9
:1062CC0035B12846FFF7F9FC10212846FDF7DFFE13
:1062DC0020461421BDE83840FDF7D9BE38BD0B6807
:1062EC0003604B68436013B15A6801325A607047BF
:1062FC0037B5044668460D46FFF7F1FF009B019A3F
:10630C0023606260002301A801930093FEF732F82A
:10631C0035B1281DFEF72EF808212846FDF7B7FEEB
:10632C00204603B030BD826810B50AB900F086FD76
:10633C00BDE81040C368184708B5006800F11001AB
:10634C00FFF7F1FF08BD826810B50AB900F076FDC1
:10635C00BDE81040C368184708B5006800F110018B
:10636C00FFF7F1FF08BD000038B5002304460360B9
:10637C0010200D46FDF787FE28B10123C0E901333B
:10638C00024B0360C5602060204638BD30830B0093
:10639C0038B5002383608B6804460D462BB102226E
:1063AC009847EB68E360AB68A360204638BD0000FB
:1063BC00F0B589B004686846FFF75AFF4FF0020346
:1063CC00D4E84F2F002A03D1C4E8413F0029F7D16C
:1063DC0025D104F10C0569462846FFF749FFBFF3A8
:1063EC005B8F01236370002004F10803BFF35B8F04
:1063FC0053E8006F43E80002002AF9D1BFF35B8F2A
:10640C006EB1FFF79BF878B129463046FFF78BFF4A
:10641C003046FFF752FC10213046FDF738FE684637
:10642C00FFF733FF09B0F0BD314602A8FFF7B0FF0C
:10643C00E068B4F9105008B101F038FC0690102057
:10644C00ADF81C50FDF71FFE0546E8B1002787602C
:10645C001820FDF718FE044688B10146876002A893
:10646C00FFF734FC049BA268A360059B049206A969
:10647C00E268E36004F110000592FFF7F9FE084BA7
:10648C00EB60084B2C60AB6006A8FFF7FEFE02A881
:10649C00FFF713FC002229460348FFF757F8B7E72C
:1064AC0045630B00C9650B002D6A0B002DE9F04FFD
:1064BC008BB005469DF850A00F4690469946FFF7C5
:1064CC00D9F807AE834638BB4FF62E73059005A955
:1064DC003046ADF81830FFF7CBFE1420FDF7D3FD96
:1064EC00044648B1022303700123C0E901BB437089
:1064FC0031460C30FFF7BCFE2846214640F8044BD1
:10650C00FFF732FF3046FFF7C0FE05A8FFF7BDFED0
:10651C0028460BB0BDE8F08F0C2300241420CDE9E5
:10652C0008440793FDF7AFFD014618B1C0E90144DB
:10653C000470447004A80391FFF716FF1E4B0893D8
:10654C000820FDF7A0FD044610B103A9FFF7C7FE14
:10655C0000965FFA8AF34A46414638460994FFF79B
:10656C0091F8B8B9039B5B7803F0FF0293B94FF62F
:10657C009C7305A903A80592ADF81830FFF718FF16
:10658C0005A8FFF782FE05A80999FFF7B1FE06A83A
:10659C00FDF7F0FE03A905A8FFF7A1FE059B069ADF
:1065AC002B606A60002306A806930593FDF7E2FEB4
:1065BC0004A8FDF7DFFEABE745660B00012AF8B532
:1065CC00054603D10B6803600020F8BD022A10D0E9
:1065DC00032AF9D10468002CF6D004F11000FFF75F
:1065EC0054FE2046FFF769FB18212046FDF74FFDAE
:1065FC00EAE718200E68FDF746FD044650B1314617
:10660C00FFF7C6FE3069B6F9147008B101F04EFB05
:10661C002061A7822C60D7E738B5002383608B6894
:10662C0004460D462BB102229847EB68E360AB6839
:10663C00A360204638BD0000F0B589B004460D4675
:10664C0001A81146FFF754FEA4B124B21DB128468F
:10665C0001F02CFB054601A803A90395ADF81040E9
:10666C00FFF7A6FE03A8FFF710FE02A8FDF782FEB7
:10667C0009B0F0BD019D0123D5E84F2F002A03D1AD
:10668C00C5E8413F0029F7D1EFD12B73BFF35B8FE6
:10669C006B702B1DBFF35B8F53E8006F43E8004218
:1066AC00002AF9D1BFF35B8F002EDED02046FEF717
:1066BC0045FF074660B105F10C013046FFF743FE7C
:1066CC003046FFF7FAFA10213046FDF7E0FCCCE734
:1066DC00314603A8FFF7A0FF2B7B8DF81C30102050
:1066EC00FDF7D1FC0546D0B187601420FDF7CBFC3B
:1066FC00044678B18760014603A8FFF7E7FA059BCB
:10670C00A268A360069B0592E268E3609DF81C30CA
:10671C0006922374064BEB60064B2C60AB6003A80F
:10672C00FFF7CBFA002229460348FEF70FFFC7E715
:10673C0065630B0049670B002D6A0B00012A70B5CD
:10674C00044603D10B680360002070BD022A0CD0F4
:10675C00032AF9D10468002CF6D02046FFF7ADFAD5
:10676C0014212046FDF793FCEEE714200E68FDF78C
:10677C008AFC054620B13146FFF74EFF337C2B7463
:10678C002560E1E7704710B518210446FDF77FFC42
:10679C00204610BDF0B5037D062B8DB00E4600F1E2
:1067AC0004074FF0000412D000F1080515F8011D84
:1067BC000A223046FFF7E5FAAF42044419D0002C08
:1067CC00F4D02E213046FFF7C3FA0444EEE72F2312
:1067DC006A4639460A208DF80040FEF7C5FD68462A
:1067EC0001F081FA33680246DB6869463046984707
:1067FC00044620460DB0F0BD10B5054B04461122E1
:10680C0040F8043B002101F009FA204610BD00BFFE
:10681C004C830B000346074A10B543F8042B01F1D7
:10682C00100251F8044B43F8044B9142F9D10A7809
:10683C001A7010BD4C830B0010B59DF8084044EA4B
:10684C00032343EA024242EA0161042341600375D7
:10685C0010BD000007B5064B0360CB7800938B7816
:10686C004A780978FFF7E8FF03B05DF804FB00BF36
:10687C004C830B00417470477047704708B500217A
:10688C00007CFEF721FE40EAE07008BD08B501214E
:10689C00007CFEF719FE40EAE07008BD08B5007CEC
:1068AC00FEF70AFE20EAE07008BD08B5007CFEF792
:1068BC00FBFD20EAE07008BD13B50446007C019195
:1068CC00FEF7FAFD0028019901DC607C20B1207CE8
:1068DC00FEF702FE20EAE07002B010BD007CFEF76D
:1068EC0003BE10B514210446FDF7D1FB204610BDA4
:1068FC0010B54FF47A73044608460021C4E901131D
:10690C00044B23600123207463741146FEF7BCFD15
:10691C00204610BD60830B00007C0022FEF7BCBD3E
:10692C0010B514220446002101F078F9204610BD60
:10693C0010B50F4C88B003A8FFF7F2FF2178BFF316
:10694C005B8F11F001010FD120460191FDF7A1FBE6
:10695C00019948B103AA0748FFF7CAFF2046FDF783
:10696C009DFB054801F02EF9024808B010BD00BF90
:10697C0000E7032004E7032085680B00704741748F
:10698C00704708B5007CFEF71FFD20EAE07008BDDB
:10699C0008B5007CFEF7F8FC20EAE07008BD08B5ED
:1069AC00007CFEF701FD40EAE07008BD08B5007CF4
:1069BC00FEF7F2FC40EAE07008BD007CFEF7FCBC80
:1069CC0037B5457C04462DB1207C03B0BDE8304082
:1069DC00FEF7D2BC007C0191FEF7F6FC0028019971
:1069EC00F2DC284603B030BD10B514210446FDF787
:1069FC004EFB204610BD000010B54FF47A730446D0
:106A0C00084611460022C4E90123044B23600123EC
:106A1C0020746374FEF7E0FC204610BD90830B00DD
:106A2C0010B5836804460BB900F008FAC3689847A0
:106A3C00A3681BB10322214620469847204610210B
:106A4C00BDE81040FDF723BB7047F8B50646154668
:106A5C000C468F18BC4206D0336814F8011B9B6897
:106A6C0030469847F6E72846F8BD007C0022FEF732
:106A7C00D3BC007C0021FEF7D7BC007C0021FEF7C4
:106A8C00DBBC007C0021FEF7DFBC007C0021FEF7A4
:106A9C00E3BC10B514210446FDF7F9FA204610BDED
:106AAC0038B5044615464FF47A730022C4E9012325
:106ABC00094B2174084623602946FEF7D5FCBF30EC
:106ACC0008D16B69DB0705D56868FEF703FEE8683B
:106ADC00FEF700FE204638BDC0830B000023007C6F
:106AEC001A461946FEF780BC7FB500221423CDE967
:106AFC000122ADF804300B788DF808304B68039305
:106B0C00CB680493007C0B7A059301A9FEF7B4FCC7
:106B1C0007B05DF804FB1FB5003B8DF800104FF07B
:106B2C006401039118BF0123694601928DF8083066
:106B3C00FFF7DAFF05B05DF804FB0123FFF7EBBFAD
:106B4C00007C0022FEF758BC007C0022FEF75CBCE7
:106B5C000121FFF7F9BF002240681146FEF73ABD4C
:106B6C00002240681146FEF755BD002240681146D0
:106B7C00FEF760BD40680022FEF754BD406800225D
:106B8C0081F00101FEF73EBD002340681A4619460C
:106B9C00FEF730BD002340681A461946FEF722BDA9
:106BAC00002240681146FEF705BD40680022022114
:106BBC00FEF708BD002340681A46FEF7F3BC000040
:106BCC00024B04225A60024A1A60704718E70320ED
:106BDC00E8830B00002340681A46FEF7E3BC4068CC
:106BEC0000220221FEF7EEBC002240681146FEF79F
:106BFC00E1BC002240681146FEF7ECBC0023406863
:106C0C001A461946FEF7EEBC002340681A46194690
:106C1C00FEF7F0BC40680021FEF714BD406800216F
:106C2C00FEF718BD4068002281F00101FEF7EABCB6
:106C3C0040680022FEF7F6BC002240681146FEF7C1
:106C4C00F9BC002240681146FEF7E4BC2DE9F04384
:106C5C0095B014460D460746FFF7CEFD00211C22C9
:106C6C000DA8009100F0DAFF40230C9320466B46F0
:106C7C000CAA0021FEF748FB044600284BD1024623
:106C8C0001216868FEF7A6FC02218046224668684E
:106C9C00FEF7A0FC009E81462146002E3BD0002929
:106CAC0039D17368022B03D00A2B11D0F669F4E7A3
:106CBC00B8F1000FFAD0716906A8043107ADFFF7DF
:106CCC00C9FD0FCD3C1D0FC42B6823704146EDE769
:106CDC00B9F1000FEAD07469102201A800F09EFFF0
:106CEC0006238DF8143001AD04F10803183418682C
:106CFC0059682A4603C20833A3421546F7D101A9A5
:106D0C0006A807ADFFF786FD0FCD3C1D0FC42B6801
:106D1C0023704946CAE70098FEF7EEFA384615B0DC
:106D2C00BDE8F083024B034A1A6000225A60704798
:106D3C0020E7032024840B007047000038B504467C
:106D4C0014252A46002100F069FF258040250749BB
:106D5C0025812846258200F06FF80449606028469A
:106D6C0000F06AF8E060204638BD00BF58840B0084
:106D7C0030B50E4D2978BFF35B8F11F0010487B04D
:106D8C0011D12846FDF785F968B101A8FFF7D6FFA8
:106D9C0001AA21460648FFF72FFE2846FDF77EF98B
:106DAC00044800F00FFF024807B030BD28E703206D
:106DBC002CE70320456D0B007047000038B50A4BDB
:106DCC0003600123044643610849202000F034F895
:106DDC00202560600549A560284600F02DF8C4E91F
:106DEC000305204638BD00BF1800010058840B0075
:106DFC0030B50E4D2978BFF35B8F11F0010487B0CD
:106E0C0011D12846FDF745F968B16846FFF7D6FF62
:106E1C006A4621460648FFF743FE2846FDF73EF931
:106E2C00044800F0CFFE024807B030BD44E7032011
:106E3C0048E70320C56D0B00FDF727B908B5FEF731
:106E4C0069FC000081F0004102E000BF83F00043C8
:106E5C0030B54FEA41044FEA430594EA050F08BFE9
:106E6C0090EA020F1FBF54EA000C55EA020C7FEAAD
:106E7C00645C7FEA655C00F0E2804FEA5454D4EB2A
:106E8C005555B8BF6D420CDD2C4480EA020281EAF4
:106E9C00030382EA000083EA010180EA020281EA2C
:106EAC000303362D88BF30BD11F0004F4FEA01317E
:106EBC004FF4801C4CEA113102D0404261EB41018D
:106ECC0013F0004F4FEA03334CEA133302D0524213
:106EDC0063EB430394EA050F00F0A780A4F10104CF
:106EEC00D5F1200E0DDB02FA0EFC22FA05F2801809
:106EFC0041F1000103FA0EF2801843FA05F35941EF
:106F0C000EE0A5F120050EF1200E012A03FA0EFC6D
:106F1C0028BF4CF0020C43FA05F3C01851EBE37197
:106F2C0001F0004507D54FF0000EDCF1000C7EEBB4
:106F3C0000006EEB0101B1F5801F1BD3B1F5001FF2
:106F4C000CD349085FEA30004FEA3C0C04F1010411
:106F5C004FEA445212F5800F80F09A80BCF1004F3A
:106F6C0008BF5FEA500C50F1000041EB045141EABC
:106F7C00050130BD5FEA4C0C404141EB0101013C85
:106F8C0028BFB1F5801FE9D291F0000F04BF014674
:106F9C000020B1FA81F308BF2033A3F10B03B3F146
:106FAC0020020CDA0C3208DD02F1140CC2F10C02D6
:106FBC0001FA0CF021FA02F10CE002F11402D8BF34
:106FCC00C2F1200C01FA02F120FA0CFCDCBF41EA00
:106FDC000C019040E41AA2BF01EB0451294330BDCF
:106FEC006FEA04041F3C1CDA0C340EDC04F11404AC
:106FFC00C4F1200220FA04F001FA02F340EA030083
:10700C0021FA04F345EA030130BDC4F10C04C4F1C8
:10701C00200220FA02F001FA04F340EA03002946A8
:10702C0030BD21FA04F0294630BD94F0000F83F4F2
:10703C00801306BF81F480110134013D4EE77FEAD5
:10704C00645C18BF7FEA655C29D094EA050F08BF21
:10705C0090EA020F05D054EA000C04BF1946104602
:10706C0030BD91EA030F1EBF0021002030BD5FEA46
:10707C00545C05D14000494128BF41F0004130BD6E
:10708C0014F580043CBF01F5801130BD01F00045C2
:10709C0045F0FE4141F470014FF0000030BD7FEA35
:1070AC00645C1ABF194610467FEA655C1CBF0B4630
:1070BC00024650EA013406BF52EA033591EA030F47
:1070CC0041F4002130BD00BF90F0000F04BF00213F
:1070DC00704730B54FF4806404F132044FF0000572
:1070EC004FF0000150E700BF90F0000F04BF0021EB
:1070FC00704730B54FF4806404F1320410F0004551
:10710C0048BF40424FF000013EE700BF42004FEA4B
:10711C00E2014FEA31014FEA02701FBF12F07F43C8
:10712C0093F07F4F81F06051704732F07F4208BF7F
:10713C00704793F07F4F04BF41F40021704730B586
:10714C004FF4607401F0004521F000411CE700BFD2
:10715C0050EA010208BF704730B54FF000050AE055
:10716C0050EA010208BF704730B511F0004502D556
:10717C00404261EB41014FF4806404F132045FEA58
:10718C00915C3FF4D8AE4FF003025FEADC0C18BF01
:10719C0003325FEADC0C18BF033202EBDC02C2F1F3
:1071AC00200300FA03FC20FA02F001FA03FE40EA85
:1071BC000E0021FA02F11444BDE600BF70B54FF089
:1071CC00FF0C4CF4E06C1CEA11541DBF1CEA135567
:1071DC0094EA0C0F95EA0C0F00F0DEF82C4481EACF
:1071EC00030621EA4C5123EA4C5350EA013518BFEF
:1071FC0052EA033541F4801143F4801338D0A0FBDC
:10720C0002CE4FF00005E1FB02E506F00042E0FB88
:10721C0003E54FF00006E1FB03569CF0000F18BF8E
:10722C004EF0010EA4F1FF04B6F5007F64F5407436
:10723C0004D25FEA4E0E6D4146EB060642EAC621C9
:10724C0041EA55514FEAC52040EA5E504FEACE2E36
:10725C00B4F1FD0C88BFBCF5E06F1ED8BEF1004F39
:10726C0008BF5FEA500E50F1000041EB045170BDB5
:10727C0006F0004646EA010140EA020081EA0301F9
:10728C00B4EB5C04C2BFD4EB0C0541EA045170BDF5
:10729C0041F480114FF0000E013C00F3AB8014F16F
:1072AC00360FDEBF002001F0004170BDC4F10004B8
:1072BC00203C35DA0C341BDC04F11404C4F1200539
:1072CC0000FA05F320FA04F001FA05F240EA020094
:1072DC0001F0004221F0004110EBD37021FA04F6CA
:1072EC0042EB06015EEA430E08BF20EAD37070BD84
:1072FC00C4F10C04C4F1200500FA04F320FA05F0E3
:10730C0001FA04F240EA020001F0004110EBD370E4
:10731C0041F100015EEA430E08BF20EAD37070BD54
:10732C00C4F1200500FA05F24EEA020E20FA04F32D
:10733C0001FA05F243EA020321FA04F001F00041DC
:10734C0021FA04F220EA020000EBD3705EEA430E4D
:10735C0008BF20EAD37070BD94F0000F0FD101F07C
:10736C000046400041EB010111F4801F08BF013CB5
:10737C00F7D041EA060195F0000F18BF704703F0F3
:10738C000046520043EB030313F4801F08BF013D7A
:10739C00F7D043EA0603704794EA0C0F0CEA135536
:1073AC0018BF95EA0C0F0CD050EA410618BF52EAF0
:1073BC004306D1D181EA030101F000414FF00000F6
:1073CC0070BD50EA410606BF1046194652EA430604
:1073DC0019D094EA0C0F02D150EA013613D195EA78
:1073EC000C0F05D152EA03361CBF104619460AD1C0
:1073FC0081EA030101F0004141F0FE4141F47001CA
:10740C004FF0000070BD41F0FE4141F4780170BDB9
:10741C0070B54FF0FF0C4CF4E06C1CEA11541DBF1E
:10742C001CEA135594EA0C0F95EA0C0F00F0A7F820
:10743C00A4EB050481EA030E52EA03354FEA01314D
:10744C0000F088804FEA03334FF0805545EA131360
:10745C0043EA12634FEA022245EA111545EA106528
:10746C004FEA00260EF000419D4208BF964244F1BF
:10747C00FD0404F5407402D25B084FEA3202B61ADE
:10748C0065EB03055B084FEA32024FF480104FF4B2
:10749C00002CB6EB020E75EB030E22BFB61A754626
:1074AC0040EA0C005B084FEA3202B6EB020E75EBB9
:1074BC00030E22BFB61A754640EA5C005B084FEA21
:1074CC003202B6EB020E75EB030E22BFB61A7546EE
:1074DC0040EA9C005B084FEA3202B6EB020E75EBF9
:1074EC00030E22BFB61A754640EADC0055EA060EBA
:1074FC0018D04FEA051545EA16754FEA06164FEAFD
:10750C00C30343EA52734FEAC2025FEA1C1CC0D1A8
:10751C0011F4801F0BD141EA00014FF000004FF035
:10752C00004CB6E711F4801F04BF01430020B4F1F6
:10753C00FD0C88BFBCF5E06F3FF6AFAEB5EB030CAE
:10754C0004BFB6EB020C5FEA500C50F1000041EBAB
:10755C00045170BD0EF0004E4EEA113114EB5C0478
:10756C00C2BFD4EB0C0541EA045170BD41F480114B
:10757C004FF0000E013C90E645EA060E8DE60CEA53
:10758C00135594EA0C0F08BF95EA0C0F3FF43BAF70
:10759C0094EA0C0F0AD150EA01347FF434AF95EA27
:1075AC000C0F7FF425AF104619462CE795EA0C0F0B
:1075BC0006D152EA03353FF4FDAE1046194622E7D8
:1075CC0050EA410618BF52EA43067FF4C5AE50EAB2
:1075DC0041047FF40DAF52EA43057FF4EBAE12E7A2
:1075EC004FF0FF3C06E000BF4FF0010C02E000BF83
:1075FC004FF0010C4DF804CD4FEA410C7FEA6C5C66
:10760C004FEA430C18BF7FEA6C5C1BD001B050EA08
:10761C00410C0CBF52EA430C91EA030F02BF90EAF3
:10762C00020F0020704710F1000F91EA030F58BFB2
:10763C00994208BF90422CBFD8176FEAE37040F014
:10764C00010070474FEA410C7FEA6C5C02D150EAB2
:10765C00013C07D14FEA430C7FEA6C5CD6D152EA6D
:10766C00033CD3D05DF8040B704700BF8446104632
:10767C0062468C461946634600E000BF01B5FFF731
:10768C00B7FF002848BF10F1000F01BD4DF808ED01
:10769C00FFF7F4FF0CBF012000205DF808FB00BFD2
:1076AC004DF808EDFFF7EAFF34BF012000205DF82C
:1076BC0008FB00BF4DF808EDFFF7E0FF94BF012079
:1076CC0000205DF808FB00BF4DF808EDFFF7CEFF7A
:1076DC0094BF012000205DF808FB00BF4DF808EDB9
:1076EC00FFF7C4FF34BF012000205DF808FB00BF8A
:1076FC004A0011D212F5001211D20DD56FF4787325
:10770C00B3EB62520ED44FEAC12343F0004343EA79
:10771C00505323FA02F070474FF00000704750EAC4
:10772C00013002D14FF0FF3070474FF0000070472E
:10773C004FEA4102B2F1E04324BFB3F5001CDCF187
:10774C00FE5C0DD901F0004C4FEAC0024CEA5070BF
:10775C00B2F1004F40EB830008BF20F001007047EE
:10776C0011F0804F21D113F13872BCBF01F00040F1
:10777C00704741F480114FEA5252C2F11802C2F123
:10778C00200C10FA0CF320FA02F018BF40F00100A4
:10779C004FEAC1234FEAD32303FA0CFC40EA0C0056
:1077AC0023FA02F34FEA4303CCE77FEA625307D193
:1077BC0050EA01331EBF4FF0FE4040F440007047CA
:1077CC0001F0004040F0FE4040F40000704700BF64
:1077DC0053B94AB9002908BF00281CBF4FF0FF312C
:1077EC004FF0FF3000F0C6B9ADF1080C6DE904CED6
:1077FC0000F058F8DDF804E0DDE9022304B070472E
:10780C0007EE900AF5EEC07AF1EE10FA01D400F012
:10781C000BB8F1EE677A08B517EE900A00F004F891
:10782C00404261EB410108BDD0B5FFF76FFC0C4B3A
:10783C00002206460F46FFF7C1FCFFF759FF04462E
:10784C00FFF742FC074B0022FFF7B8FC02460B4641
:10785C0030463946FFF7FAFAFFF74AFF2146D0BD0A
:10786C000000F03D0000F041D0B50C4B0022064664
:10787C000F46FFF7A3FCFFF73BFF0446FFF724FC82
:10788C00074B0022FFF79AFC02460B46304639465E
:10789C00FFF7DCFAFFF72CFF2146D0BD0000F03DCE
:1078AC000000F0412DE9F047089D04468E46002B60
:1078BC004DD18A42944669D9B2FA82F252B101FA98
:1078CC0002F3C2F1200120FA01F10CFA02FC41EAA8
:1078DC00030E94404FEA1C48210CBEFBF8F61FFA2D
:1078EC008CF708FB16E341EA034306FB07F19942C8
:1078FC000AD91CEB030306F1FF3080F01F8199427B
:10790C0040F21C81023E63445B1AA4B2B3FBF8F054
:10791C0008FB103344EA034400FB07F7A7420AD9DB
:10792C001CEB040400F1FF3380F00A81A74240F203
:10793C0007816444023840EA0640E41B00261DB16E
:10794C00D4400023C5E900433146BDE8F0878B42A3
:10795C0009D9002D00F0EF800026C5E90001304662
:10796C003146BDE8F087B3FA83F6002E4AD18B423C
:10797C0002D3824200F2F980841A61EB03030120E6
:10798C009E46002DE0D0C5E9004EDDE702B9FFDED2
:10799C00B2FA82F2002A40F09280A1EB0C014FEA7D
:1079AC001C471FFA8CFE0126200CB1FBF7F307FBDA
:1079BC00131140EA01410EFB03F0884208D91CEB7D
:1079CC00010103F1FF3802D2884200F2CB8043461A
:1079DC00091AA4B2B1FBF7F007FB101144EA0144F9
:1079EC000EFB00FEA64508D91CEB040400F1FF3188
:1079FC0002D2A64500F2BB800846A4EB0E0440EA76
:107A0C0003409CE7C6F12007B34022FA07FC4CEA7E
:107A1C00030C20FA07F401FA06F31C43F9404FEA71
:107A2C001C4900FA06F3B1FBF9F8200C1FFA8CFE86
:107A3C0009FB181140EA014108FB0EF0884202FADA
:107A4C0006F20BD91CEB010108F1FF3A80F088809B
:107A5C00884240F28580A8F102086144091AA4B258
:107A6C00B1FBF9F009FB101144EA014100FB0EFED9
:107A7C008E4508D91CEB010100F1FF346CD28E4508
:107A8C006AD90238614440EA0840A0FB0294A1EB99
:107A9C000E01A142C846A64656D353D05DB1B3EBF6
:107AAC00080261EB0E0101FA07F722FA06F3F14026
:107ABC001F43C5E9007100263146BDE8F087C2F1CD
:107ACC002003D8400CFA02FC21FA03F39140014345
:107ADC004FEA1C471FFA8CFEB3FBF7F007FB10367E
:107AEC000B0C43EA064300FB0EF69E4204FA02F42A
:107AFC0008D91CEB030300F1FF382FD29E422DD97D
:107B0C00023863449B1B89B2B3FBF7F607FB1633B1
:107B1C0041EA034106FB0EF38B4208D91CEB010131
:107B2C0006F1FF3816D28B4214D9023E6144C91AB1
:107B3C0046EA004638E72E46284605E70646E3E6C1
:107B4C001846F8E64B45A9D2B9EB020864EB0C0ECB
:107B5C000138A3E74646EAE7204694E74046D1E7DA
:107B6C00D0467BE7023B614432E7304609E7644488
:107B7C00023842E7704700BF10B50C4641690369F3
:107B8C00826986B001F26C710491016803914168BD
:107B9C00029181680191C1680091074903EB43038D
:107BAC000B44064902EB42020A4420460449FDF705
:107BBC00A1FD204606B010BD8E840B0079840B000D
:107BCC0059840B00002301461A46184600F032B9BE
:107BDC000A22002100F024B9002910B591FBF2F41F
:107BEC0002FB141306DB002B01DA01349B1AC0E9EB
:107BFC00004310BD002BC4BF04F1FF349B18F6E703
:107C0C000A44914200F1FF3300D1704710B511F8CE
:107C1C00014B03F8014F9142F9D110BD02440346C8
:107C2C00934200D1704703F8011BF9E738B5104BAC
:107C3C001D68AB6B0446B3B91820FDF743FD024633
:107C4C00A86320B90B4B0C484221FDF77BFD0B4977
:107C5C000B4BC0E900130B4B83600B23838100217A
:107C6C000120C2E90401AB6B00221C615A6138BDD2
:107C7C0020DD0320B2840B00C9840B000E33CDAB86
:107C8C0034126DE6ECDE050010F8012B11F8013B07
:107C9C00012A28BF9A42F7D0D01A7047034611F830
:107CAC00012B03F8012B002AF9D17047024B014636
:107CBC00186800F003B800BF20DD032037B5044678
:107CCC0008460D4600F00FF8421C11462046019262
:107CDC00FDF728FD044618B1019A2946FFF790FFDD
:107CEC00204603B030BD034613F8012B002AFBD10C
:107CFC00181A0138704710B50139034632B111F822
:107D0C00014F03F8014B013A002CF7D11A44002122
:107D1C00934200D110BD03F8011BF9E7012B2DE9AB
:107D2C00F04701D0242B06D9FDF704FD1623036080
:107D3C000020BDE8F087DFF8E4C00D462E4615F8AC
:107D4C00014B14F80C7017F00807F7D12D2C32D119
:107D5C002C780127B51C002B5BD0102B09D1302CB3
:107D6C0007D12C7804F0DF04582C4DD16C781023FB
:107D7C00023507F1004808F1FF384FF0000CB8FB52
:107D8C00F3F9664603FB198AA4F1300EBEF1090F14
:107D9C0016D87446A34224DDBCF1000F1EDBB1459E
:107DAC001CD301D1A24519DB06FB03464FF0010C95
:107DBC0015F8014BE8E72B2C04BF2C78B51CCAE74F
:107DCC00A4F1410EBEF1190F01D8373CE2E7A4F142
:107DDC00610EBEF1190F04D8573CDBE74FF0FF3CA6
:107DEC00E6E7BCF1000F05DA22230360464642B9F0
:107DFC0030469EE707B17642002AF9D0BCF1000F5D
:107E0C0000D0691E1160F3E73024002BB1D1082398
:107E1C00AFE7302CA5D00A23ABE700BF47850B009A
:107E2C0013460A46014602480068FFF777BF00BFB9
:107E3C0020DD03202DE9F843DFF8B8800646D8F89A
:107E4C0000001F460D46914600F056F8254B1C6865
:107E5C0034B9254C1C60254B13B11B68C4F8883011
:107E6C0063681F2B07DDD8F8000000F047F84FF0CF
:107E7C00FF30BDE8F8834EB3D4F8880088B91C4BAA
:107E8C0023B9D8F8000000F038F8F0E74FF484700C
:107E9C00FDF718FC0028F4D00023C0E94033C4F8E7
:107EAC008800636840F8239001229A4000EB83011C
:107EBC00D0F800311343C0F80031022EC1F88070A5
:107ECC0002BFD0F804311343C0F804316368D8F80A
:107EDC0000005A1C0233626044F8235000F00EF884
:107EEC000020C6E7E8E703205CE703200000000061
:107EFC00D1560B0084DD032070477047704700009B
:107F0C001D400B0059400B0081400B0085400B00BD
:107F1C0000000000557064617465642064656C61D8
:107F2C00792074696D6520746F3A20005570646116
:107F3C007465642073746172742072616E6765205D
:107F4C00746F3A2000557064617465642072616EC0
:107F5C00676520656E6420746F3A2000456E746509
:107F6C0072696E672073657475702066756E6374C4
:107F7C00696F6E2E0053657475702066696E697337
:107F8C006865642100686F6F6B2D726573706F6E1E
:107F9C0073652F55706461746500686F6F6B2D721B
:107FAC006573706F6E73652F52656164696E6700DF
:107FBC00436F6E646974696F6E73206D65742C20E9
:107FCC00707265706172696E6720746F2074616B7A
:107FDC00652061206D6561737572656D656E7421C8
:107FEC000057616974696E6720666F722061206D3D
:107FFC006561737572656D656E742C206275742085
:10800C006974206861736E2774206265656E206CDC
:10801C006F6E6720656E6F756768207965742E00CA
:10802C0064756D6D795F6461746100576169746921
:10803C006E6720666F722061206D65617375726565
:10804C006D656E742C206275742069742773206EB4
:10805C006F7420696E207468652061636365707449
:10806C0061626C652074696D65206672616D652E48
:10807C002043757272656E742074696D653A2000C8
:10808C0052657175657374696E672061206D6561E9
:10809C00737572656D656E74202D20706C616365EF
:1080AC002066696E676572206F6E2073656E736FE4
:1080BC00722E0046696E6765722064657465637420
:1080CC006564206F6E2073656E736F722E00456E43
:1080DC00746572696E67206D6561737572656D6527
:1080EC006E74206C6F6F700056616C6964206D65E6
:1080FC0061737572656D656E742C2073656E646941
:10810C006E6720646174612E004E6F74206120765E
:10811C00616C6964206D6561737572656D656E74F3
:10812C002E2048523A002053504F323A20007B20E8
:10813C002262656174223A2022002C20226F782260
:10814C003A20002C202274696D65223A20007D00B3
:10815C0044617461207375636365737366756C6CCD
:10816C00792073656E742E0053656E642073746F82
:10817C0072656420706F696E743A200053746F726C
:10818C006564206461746120706F696E7420746F13
:10819C006F206F6C64202D206E6F742073656E746D
:1081AC002E00416C6C2073746F7265642064617472
:1081BC006120706F696E74732073656E742E004E3F
:1081CC006F20696E7465726E6574202D20736176F4
:1081DC00696E67206461746120666F72206C6174D3
:1081EC0065722E000000000000000000C5400B006E
:1081FC00E1400B00AF400B005F5F5F60606061614E
:10820C00616161626262626263636363636363633D
:10821C006464646464646464646464646464646412
:10822C006464646463636363636363636262626212
:10823C00626261616161606060605F5F5F5E5E5E33
:10824C005D5D5D5C5C5C5B5B5A5A5959595858577B
:10825C0057565655555454535252515150504F4EE7
:10826C004E4D4C4C4B4A4A49484847464545444379
:10827C00424241403F3E3E3D3C3B3A39383837362E
:10828C003534333231302F2E2D2C2B2A292827260A
:10829C0025242322211F1E1D1C1B1A191716151409
:1082AC001311100F0E0C0B0A09070605030201002F
:1082BC000000000000000000EF570B00E5570B001A
:1082CC00DB570B00D1570B00C5570B00B9570B00F0
:1082DC00216C0B00296C0B00AD570B00A5570B0044
:1082EC009B570B0091570B00596C0B006170700081
:1082FC005A00252B3033643A253032750025592D20
:10830C00256D2D25645425483A254D3A2553257A5B
:10831C000061736374696D6500000000000000006B
:10832C000000000061620B0067620B00A5620B008D
:10833C0075620B0063620B0000000000000000007F
:10834C00A1670B0091670B0093670B000000000006
:10835C000000000087680B00EF680B00C5680B007D
:10836C000D5D0B00B7680B0089680B0099680B005A
:10837C00E9680B00A9680B0081680B000000000085
:10838C000000000089690B00F5690B00CD690B003A
:10839C000D5D0B009D690B00B9690B00AB690B00FF
:1083AC00C7690B008B690B008F690B000000000084
:1083BC0000000000556A0B009F6A0B00776A0B00E7
:1083CC00576A0B007F6A0B00876A0B008F6A0B00E1
:1083DC00976A0B000000000000000000C16B0B004E
:1083EC00B76B0B00AD6B0B00636B0B00A16B0B0041
:1083FC00956B0B00216C0B00296C0B00896B0B002F
:10840C00816B0B00776B0B006D6B0B00596C0B00C9
:10841C000000000000000000E16B0B00EB6B0B0098
:10842C00F56B0B00FF6B0B00096C0B00156C0B0054
:10843C00216C0B00296C0B00316C0B003D6C0B009C
:10844C00456C0B004F6C0B00596C0B0000252E3348
:10845C007320252E337325336420252E32643A2560
:10846C002E32643A252E32642025640A0053756E30
:10847C004D6F6E54756557656454687546726953D3
:10848C0061744A616E4665624D61724170724D61F4
:10849C00794A756E4A756C4175675365704F637494
:1084AC004E6F764465635245454E54206D616C6C3D
:1084BC006F6320737563636565646564002F6D6E0F
:1084CC00742F776F726B73706163652F776F726B3C
:1084DC0073706163652F4743432D31302D70697084
:1084EC00656C696E652F6A656E6B696E732D47439B
:1084FC00432D31302D706970656C696E652D343883
:10850C005F32303230313132345F313630363138DF
:10851C00303634312F7372632F6E65776C69622F2E
:10852C006E65776C69622F6C6962632F7374646C0F
:10853C0069622F72616E642E63000020202020205F
:10854C0020202020282828282820202020202020F7
:10855C0020202020202020202020208810101010E7
:10856C00101010101010101010101004040404043B
:10857C000404040404101010101010104141414167
:10858C00414101010101010101010101010101014F
:10859C000101010101011010101010104242424261
:1085AC00424202020202020202020202020202021F
:1085BC000202020202021010101020000000000043
:1085CC00000000000000000000000000000000009F
:1085DC00000000000000000000000000000000008F
:1085EC00000000000000000000000000000000007F
:1085FC00000000000000000000000000000000006F
:10860C00000000000000000000000000000000005E
:10861C00000000000000000000000000000000004E
:10862C00000000000000000000000000000000003E
:10863C000000000000000000000000008D490B004D
:10864C00F9570B005D580B00FD5C0B00CD5D0B006A
:10865C0001610B001D610B00CD6B0B00316D0B002C
:04866C00000000000A
:10867000040000001400000003000000474E5500F5
:108680008EB07EC88E029774AB06A8F008780AED0B
:0486900084D907275B
:088694001CF2FF7F0100000051
:04869C0000000000DA
:1086A0000000C0400000B04140771B001D830B005C
:1086B00009830B0024DD03200000000000000000FF
:1086C00000000000000000000000000000000000AA
:1086D000000000000000000000000000000000009A
:1086E000000000000000000000000000000000008A
:1086F000000000000000000000000000000000007A
:108700000000000000000000000000000000000069
:0C8710000000000000000000ECE7032067
:10871C00FFFFFFFF00000102030405060708090A1A
:10872C000B0C0D0E0F101112131415161718191A15
:08873C001B1C1D1E1F2028005C
:04874400785634121D
:04000003B000401CED
:00000001FF
