:02000002B0004C
:1040000000400B00FC680B00000006000C000502DD
:084010000401A50F00000000EF
:04401800E8640B004D
:10401C0009480A49884208B505D0094A824202D0AB
:10402C00121A02F068F90748074A0021121A02F026
:10403C008AF9014808BD00BF44E1032068680B0001
:10404C00B0E10320B0E10320EDE7032070B5074E8B
:10405C00074C01F00DFBA41BA4080025AC4200D1B9
:10406C0070BD56F8043B98470135F7E710680B0014
:10407C0034680B0000F016B808B500F03BF8BDE84A
:10408C00084001F0ADBA00F0ADBF00F0ABBF00F0DE
:10409C00B1BF0078B0FA80F040097047012303707B
:1040AC00704700001FB5124C01F082FE4FF4E13155
:1040BC0001F072FE204600F0ABFA40F29B134FF475
:1040CC008052CDE901324FF4C873009304220323CC
:1040DC0020461F2100F056FB20460A2100F0C2FAB0
:1040EC000021204604B0BDE8104000F0C5BA00BF66
:1040FC0098E203202DE9F04F8B4E8C4DDFF840A257
:10410C00DFF84492642399B0336000273168FCB225
:10411C008C4232DA284600F047F918B9284600F0EC
:10412C008BF9F7E7284600F04BFA2AF814002846DA
:10413C0000F054FA29F81400284600F03FF901F079
:10414C0037FE7B4901F0D5F901F032FE0A223AF82C
:10415C00141001F0E8F901F02BFE764901F0C9F9D1
:10416C0001F026FE39F8141080460A2201F0DBF922
:10417C00404601F0C2F90137C8E76F4B6F4DDFF8CD
:10418C00F08102936E4A6F4B6F480195CDF8008019
:10419C0000F056FCDFF8DCB1DFF8DC916848634FC7
:1041AC00DFF8A4A19622594602F0B3F8664896228D
:1041BC00494602F0AEF84B24384600F0F5F818B931
:1041CC00384600F039F9F7E7384600F0F9F95C4B5E
:1041DC0023F81400384600F001FA2AF81400384687
:1041EC00013400F0EBF8642CE6D1534BDFF854A10A
:1041FC00534A31685448CDF80080CDE901535346F9
:10420C0000F01EFC514B1B6840F6B832B3FBF2F1C8
:10421C0002FB1133002B5AD14D4908A801F045F887
:10422C0008A910A801F064F80A2229680CA801F06A
:10423C008FF80CA910A801F0C6F8464901F0CFF888
:10424C00454901F0CCF80A220446DAF8001014A80B
:10425C0001F07EF814A9204601F0B5F83F4901F0B1
:10426C00BEF8014604A801F043F814A800F0D2FFF0
:10427C000CA800F0CFFF10A800F0CCFF08A800F0AD
:10428C00C9FF04A914A801F033F8354B149A1B7814
:10429C008DF8003033493C2310A801F047FB119CEA
:1042AC007CB16368013B63605BB9236820469B6803
:1042BC009847A368013BA3601BB923682046DB68C1
:1042CC00984714A800F0A6FF04A800F0A3FF01F083
:1042DC006FFD1E4B0A221968044601F024F9204692
:1042EC0001F00BF901F064FD1F49044610A800F021
:1042FC00DCFF10A914A800F0FBFF296814A801F03A
:10430C0083F81A4901F06BF8DAF8001001F07CF828
:10431C000168204601F0FDF814A800F07BFF10A8FE
:10432C0000F078FF3AE700BFB4E1032098E20320E5
:10433C00FC640B0001650B006CE30320C8E1032057
:10434C00A0E2032068E30320CCE1032094E20320E5
:10435C0007650B0011650B0013650B001C650B004A
:10436C00B0E103201E650B0026650B002A650B00CF
:10437C006DE30320D2E20320FEE1032008B5064BD7
:10438C00064801221A7000F00DF80A22BDE8084018
:10439C000348114600F0C9BFB0E1032098E20320A6
:1043AC00B8E1032070470000034B93F8300093F8FA
:1043BC003130C01AC0B2704770E30320064A92F83D
:1043CC00313092F8301099421EBF013303F00303D1
:1043DC0082F83130704700BF70E3032038B50C46CB
:1043EC00154601F045FF214601F0EAFD01F040FFC2
:1043FC00036829469B68984701F03AFF01F0E8FDF5
:10440C0001F036FF0122214601F0D7FD01F030FF0B
:10441C0003681B69984728B101F02AFF03685B69A0
:10442C009847C0B238BD04225721FFF7D7BF0622E8
:10443C005721FFF7D3BF00002DE9F7430746FFF7DD
:10444C00F6FF04463846FFF7EEFF844200F09B80EF
:10445C00041B48BF20347E79DFF8348101F008FF5B
:10446C00572101F0ADFD01F003FF036807219B68A4
:10447C00984701F0FDFE01F0ABFD664306EB4606E6
:10448C00002E40F38180202EC3BF7D7905EB4503C0
:10449C0020253546C4BFB5FBF3F55D4301F0E8FEBE
:1044AC002A46572101F089FD761B4FF00009002D9B
:1044BC00E6DD98F830308DF80790013303F00303F4
:1044CC0088F8303001F0D4FE03685B6998478DF8AA
:1044DC00060001F0CDFE03685B6998478DF8050076
:1044EC0001F0C6FE03685B6998478DF80400019BD8
:1044FC0098F83020C3F3110348F822307B79012B54
:10450C001CD901F0B5FE03685B6998478DF806006D
:10451C0001F0AEFE03685B6998478DF8050001F069
:10452C00A7FE03685B69984798F830308DF8040053
:10453C00019A0433C2F3110248F823207B79022B31
:10454C001CD901F095FE03685B6998478DF806004D
:10455C0001F08EFE03685B6998478DF8050001F049
:10456C0087FE03685B69984798F830308DF8040033
:10457C00019A0833C2F3110248F823207B79A3EB8C
:10458C0083031D4493E70024A0B203B0BDE8F0837D
:10459C0070E3032070B505460E4600F09FFB044601
:1045AC0000F09CFB001BB04208D82846FFF744FFE4
:1045BC00012804D0012000F0E7FFF1E7002070BDD6
:1045CC0008B5FA21FFF7E6FF20B1034B93F8302032
:1045DC0053F8220008BD00BF70E3032008B5FA2190
:1045EC00FFF7D8FF28B1034A92F83030043352F861
:1045FC00230008BD70E30320FF225721FFF7EEBE16
:10460C0010B5FE2257210446FFF7E8FEA07110BD3D
:10461C0010B5044601F02CFE01F0A0FC2046FFF77B
:10462C00EBFF2046FFF7ECFF012010BD37B5154618
:10463C001C46019101F01CFE019901F0C1FC01F036
:10464C0017FE036829469B68984701F011FE036822
:10465C0021469B68984701F00BFE03B0BDE8304043
:10466C0001F0B6BC0B460C225721FFF7DFBF0B46FF
:10467C000D225721FFF7DABF0B460E225721FFF709
:10468C00D5BF0B4610225721FFF7D0BF10B5002322
:10469C00044604225721FFF7C9FF204600230522B8
:1046AC005721FFF7C3FF20460023BDE81040062228
:1046BC005721FFF7BBBF2DE9F0410C4617460A46C0
:1046CC00572105461E46FFF789FE384046EA00038F
:1046DC00224628465721BDE8F041FFF7A7BF38B561
:1046EC00BF22402309210546FFF7E5FF00F0F6FA4B
:1046FC00044600F0F3FA001B63280AD8092257215C
:10470C002846FFF76BFE430603D5012000F03CFF63
:10471C00EFE738BD0B46F8220921FFF7CCBF0B465B
:10472C009F220A21FFF7C7BF0B46E3220A21FFF79E
:10473C00C2BF0B46FC220A21FFF7BDBF013913464D
:10474C00032914D8DFE801F002060B0EF822112120
:10475C00FFF7B1BF1B0103F0F0038F22F7E7F8223C
:10476C001221F5E71B0103F0F0038F22F8E77047E5
:10477C000B461F220821FFF79EBF1023EF220821B2
:10478C00FFF799BF2DE9F0471546DDE90879DDF80B
:10479C0028A0044688461E46FFF7A1FF012D49D1EB
:1047AC0000212046FFF7E4FF2046FFF7E6FF032E2B
:1047BC0054D107212046FFF7ADFFBAF5805F667133
:1047CC0051DA00212046FFF7AAFF632F58DC0021A5
:1047DC002046FFF7A9FFB9F1750F71DC00212046C7
:1047EC00FFF7A7FF41462046FFF73CFF4146204616
:1047FC00FFF73DFF41462046FFF73EFF414620466E
:10480C00FFF73FFF012211462046FFF797FF012ECD
:10481C000BD9022211462046FFF790FF022E04D03E
:10482C00032211462046FFF789FF2046BDE8F047DA
:10483C00FFF72CBF022D01D12021B2E7042D01D1AD
:10484C004021AEE7082D01D16021AAE7102D01D13E
:10485C008021A6E7202DF3D1A021A2E7022E0CBFC8
:10486C0003210221A6E7BAF5005F01DA2021A9E7AE
:10487C00BAF5804F01DA4021A4E7A2D16021A1E76B
:10488C00C72F01DC0421A3E7B7F5C87F01DA0821A3
:10489C009EE7B7F5487F01DA0C2199E7B7F57A7FE7
:1048AC0001DA102194E7B7F5C86F01DA14218FE70C
:1048BC00B7F5486F01DA18218AE788D11C2187E700
:1048CC00B9F1D60F01DC012189E7B9F5CD7F01DC07
:1048DC00022184E740F29B1399457FF47FAF0321BB
:1048EC007DE72DE9F04100240C6003F1FF38012431
:1048FC00A04527DD069D52F824C0AC454FEA84063E
:10490C0004F101051CDD164456F8046CB44517DDA2
:10491C002E469E4252F82670A6EB040E354603D066
:10492C00BC4506F10106F4D0BC4509DD0E680E2E1F
:10493C0006DC751C0D600EF1010540F8264025447F
:10494C002C46D5E7BDE8F081F0B5012304468B4237
:10495C000FDA54F8046F1A46254655F8047CB74212
:10496C0003DD013A45F80479F7D140F822600133B0
:10497C00EDE7F0BD2DE9F043012390460D4643458C
:10498C0016DA55F8046F1C4600EB8609AC46D9F8CC
:10499C0000205CF8047C964650F82720964503DDF1
:1049AC00013C4CF80479F2D141F824600133E6E77C
:1049BC00BDE8F0832DE9F04104461F4610460D4634
:1049CC000A682146FFF7D6FF4FF0FF32C7F1000E01
:1049DC00296891421DDD531C1E462B60B14216D036
:1049EC00501C18BF54F8220054F826C008BF1046BB
:1049FC00ACEB0000B84201DC864506DD286800F10E
:104A0C000108C5F8008044F820C00136E6E71A46D4
:104A1C00DEE72046BDE8F041FFF796BF37B5069DAF
:104A2C000095FFF75EFF0C46079BFFF7C3FF22685C
:104A3C00089B9A42D4BF2260236003B030BD0000B3
:104A4C002DE9F04F9DB0DDE92798164600229B46D4
:104A5C0005460C461346A24204DA35F81210013210
:104A6C000B44F8E78D4FB3FBF4F338460022A24217
:104A7C0006DA35F81210591A40F8041B0132F6E721
:104A8C00864A0021136852F8040F0344506803440B
:104A9C0090681B1848BF033301319B10602942F802
:104AAC00043CEFD100237D4A9A4652F8041B0AF1CC
:104ABC00010ABAF1640F0B44F7D140F6B7329342B6
:104ACC004FDD93FBFAFABAF13C0FA8BF4FF03C0A4A
:104ADC003C2200210DA801F036FC04230F22CDE965
:104AEC000132CDF800A06D4A642307A90DA8FFF789
:104AFC0095FF079B012B4FF0000235DD0DA94FF000
:104B0C00010C0846D1F804E000680CF1010CAEEB86
:104B1C000000634501F104010244F2D1591E92FBDD
:104B2C00F1F240F2DC5191FBF2F2C9F800200122C3
:104B3C005B4988F800200022A24219DB0022CDE953
:104B4C000822CDE90A220DAE0C92314693421BDDB0
:104B5C0051F8040B642815DD524BCBF800300023C0
:104B6C0092E04FF01E0AB3E74E49C9F80010DFE798
:104B7C0035F8120047F8040B36F8120041F8040B14
:104B8C000132D9E70132E1E70024013B434FDFF862
:104B9C0010C10494254621460593DDE90423934274
:104BAC0056DDD6F8048056F8040B1346A8EB000922
:104BBC000133B9F1030F0493EFDD4FF07F4E034641
:104BCC00F24698450EDD57F823207245C8BF96462D
:104BDC005CF82320C8BF1C465245C4BF1D469246F4
:104BEC000133EEE757F8202057F828309B1A221A89
:104BFC00534357F8202093FBF9F3134457F825201F
:104C0C00D21A0AFB02F24FEAE21ABAF1000FC4DD23
:104C1C000429C2DC5CF820305CF82820281AD21A4F
:104C2C00504390FBF9F018445CF825301B1A0EFB2E
:104C3C0003FE5FEAEE1EB0D01CAB03EB81086423CD
:104C4C0003FB0EF2013192FBFAF248F8502CA4E768
:104C5C0008A8FFF779FE4A1003294FEA820318DDF2
:104C6C001CA901EB820151F8543C51F8502C13440F
:104C7C0003EBD3735B10DA1EB42A3FF66DAF0A4A0E
:104C8C00D35CCBF800300123269A13701DB0BDE81D
:104C9C00F08F1CAA134453F8503CECE7A4E3032018
:104CAC0034E5032019FCFFFF31650B0008B5024BFE
:104CBC001B689B68019308BD6802030008B5024B92
:104CCC001B68DB68019308BD6802030008B5024B42
:104CDC001B685B68019308BD1802030008B5024B02
:104CEC001B685B69019308BD1802030008B5024BF1
:104CFC001B685B6C019308BD4802030008B5024BAE
:104D0C001B685B69019308BD6402030008B5024B84
:104D1C001B68DB68019308BD3C02030008B5024B1D
:104D2C001B681B69019308BD3C02030008B5024BCC
:104D3C001B685B69019308BD3C02030008B5024B7C
:104D4C001B689B69019308BD3C02030008B5024B2C
:104D5C001B68DB69019308BD3C02030008B5024BDC
:104D6C001B689B6A019308BD3C02030008B5024B0B
:104D7C001B681B6C019308BD3C02030008B5024B79
:104D8C001B68DB68019308BD2802030008B5024BC1
:104D9C001B689B69019308BD2802030008B5024BF0
:104DAC001B68DB69019308BD2802030008B5024BA0
:104DBC001B681B6A019308BD2802030008B5024B4F
:104DCC001B685B6A019308BD2802030008B5024BFF
:104DDC001B689B6A019308BD2802030008B5024BAF
:104DEC001B68DB6A019308BD2802030008B5024B5F
:104DFC001B681B6B019308BD2802030008B5024B0E
:104E0C001B681B6C019308BD2802030008B5024BFC
:104E1C001B681B6D019308BD2802030008B5024BEB
:104E2C001B681B68019308BD4C02030008B5024BBC
:104E3C001B685B68019308BD4C02030008B5024B6C
:104E4C001B681B69019308BD4C02030008B5024B9B
:104E5C001B685B69019308BD4C02030008B5024B4B
:104E6C001B689B69019308BD4C02030008B5024BFB
:104E7C001B68DB69019308BD4C02030008B5024BAB
:104E8C001B681B6A019308BD4C02030008B5024B5A
:104E9C001B685B68019308BD2002030008B5024B38
:104EAC001B685B69019308BD2002030008B5024B27
:104EBC001B68DB6C019308BD2002030008B5024B94
:104ECC001B685B6D019308BD2002030008B5034B02
:104EDC001B68D3F88830019308BD00002002030042
:104EEC0008B5034B1B68D3F89430019308BD000040
:104EFC002002030008B5024B1B685B68019308BDD8
:104F0C004002030008B5024B1B689B68019308BD67
:104F1C004002030008B5024B1B68DB68019308BD17
:104F2C004002030008B5024B1B681B69019308BDC6
:104F3C004002030008B5024B1B685B69019308BD76
:104F4C004002030008B5024B1B689B69019308BD26
:104F5C004002030008B5024B1B68DB69019308BDD6
:104F6C004002030008B5024B1B681B6A019308BD85
:104F7C004002030008B5024B1B681B6B019308BD74
:104F8C004002030008B5024B1B685B6B019308BD24
:104F9C004002030008B5024B1B681B6C019308BD53
:104FAC004002030008B5024B1B685B6C019308BD03
:104FBC004002030008B5024B1B685B69019308BDF6
:104FCC004402030008B5024B1B681B6A019308BD21
:104FDC004402030008B5024B1B68DB6B019308BD50
:104FEC004402030008B5024B1B681B68019308BD03
:104FFC001C02030008B5024B1B685B68019308BDDB
:10500C001C02030008B5024B1B689B68019308BD8A
:10501C001C02030008B5024B1B68DB6A019308BD38
:10502C001C02030008B5024B1B681B6B019308BDE7
:10503C001C02030008B5024B1B681B6C019308BDD6
:10504C001C02030008B5024B1B685B6C019308BD86
:10505C001C020300002240681146FFF783BF0022A8
:10506C0040681146FFF78EBF40680022FFF782BFF1
:10507C004068002281F00101FFF76CBF00234068FB
:10508C001A461946FFF75EBF002340681A461946B8
:10509C00FFF750BF002240681146FFF743BF0022C4
:1050AC0040681146FFF72EBF406800220221FFF72F
:1050BC0031BF002340681A46FFF71CBF024B032286
:1050CC005A60024A1A607047C4E60320F4650B006C
:1050DC00054B02221A60054B054A9A600020C3E971
:1050EC000000FFF7D3BE00BFD8E60320CCE60320B8
:1050FC000000FFFF10B5044601F081F901382318B8
:10510C002046834206D90278197800F8011B03F86F
:10511C000129F6E710BD2DE9F041931E8CB0222B2E
:10512C004FF000030D4614468DF82C3027D900287B
:10513C002ADA2E462D2306F8013B40420A240DF1B3
:10514C002B074FF001082246014601A801F0BFF8D9
:10515C00029B0198092BCCBF3722302252FA83F3E1
:10516C0007F8013908F101080028ECD14246791CF6
:10517C00304601F0C0F828460CB0BDE8F0810A2A90
:10518C00D5D018B12E46DAE70A24FAE730238DF889
:10519C002B302E460DF12A074FF00208E6E770B5CA
:1051AC000C46911E22291DD8254630B923443022A5
:1051BC009D4210D205F8012BFAE7B0FBF2F602FB88
:1051CC001600C1B2092894BF30315731C9B205F865
:1051DC00011B3046E9E7002320462B70FFF78AFFBE
:1051EC00204670BD0020FCE738B5031E0C46154662
:1051FC000EDAB3F1004F4FF02D0214BF584218468F
:10520C0001230A702A461944FFF7C9FF204638BD0E
:10521C000123F9E710B504460068FFF7EBFE2046C2
:10522C0010BD10B50446006808B1FFF7E3FE00237B
:10523C00C4E90133236010BD38B504460D4600683F
:10524C000131FFF7DFFE10B1C4E90005012038BDC4
:10525C0010B50368044623B143688B4201D3012087
:10526C0010BD2046FFF7E8FF0028F9D0A368002BFB
:10527C00F5D122681370F2E737B50D46114601924D
:10528C000446FFF7E5FF019A28B92046FFF7C9FF4E
:10529C00204603B030BDA2602946206801F02BF8EF
:1052AC002268A3680021D154F2E7002313B5C0E9AA
:1052BC00003304468360037341B10846019101F049
:1052CC009EF8019902462046FFF7D6FF204602B011
:1052DC0010BD884210B5044605D00B682BB18A6806
:1052EC001946FFF7C9FF204610BDFFF79AFFFAE7F2
:1052FC0010B500230446C0E9003383600373FFF745
:10530C00E8FF204610BD13B5044659B1084601917B
:10531C0001F075F8019902462046FFF7ADFF2046D3
:10532C0002B010BDFFF77DFFF9E710B504468AB057
:10533C000023C4E90033A3602373084601A9FFF7D7
:10534C0053FF01A92046FFF7DEFF20460AB010BD2F
:10535C0010B504468AB00023C4E90033A36023735C
:10536C00084601A9FFF7D7FE01A92046FFF7CBFF9E
:10537C0020460AB010BD70B505460E4609B900208E
:10538C0070BD6AB1846814442146FFF761FF0028A0
:10539C00F5D02868AB683146184401F00BF8AC60C6
:1053AC000120EDE71FB504460A22084601A9FFF7C4
:1053BC00B2FE01A801F023F801A902462046FFF72E
:1053CC00DAFF04B010BD10B58A6809680446FFF70F
:1053DC00D2FF10B92046FFF724FF204610BD13B5AD
:1053EC00044629B92046FFF71CFF204602B010BD29
:1053FC000846019101F003F8019902462046FFF797
:10540C00BAFF0028EED0F0E710B50446FFF7CAFF4C
:10541C0010B92046FFF705FF204610BD10B5836874
:10542C00044613B1032201469847204610BD10B51F
:10543C004368013B0446436063B903689B68984723
:10544C00A368013BA3602BB923682046DB68BDE849
:10545C001040184710BD10B50446006808B1FFF79E
:10546C00E6FF204610BD13B50B460246D0E90001FD
:10547C006C4684E8030093E8030082E8030094E898
:10548C00030083E8030002B010BD000002480023B3
:10549C000360FFF72BBC00BFDCE60320F8B5064623
:1054AC000D468F180024BD420CD0336815F8011B33
:1054BC009B6830469847031E01DB1C44F3E7002C25
:1054CC0008BF1C462046F8BD13B50446084659B122
:1054DC00019100F094FF23680199DB680246204695
:1054EC0002B0BDE81040184702B010BD03689B68BD
:1054FC00184708B5FFF7E8FF08BD38B50D2105467C
:10550C00FFF7F4FF0A2104462846FFF7EFFF20447B
:10551C0038BD38B50546FFF7D7FF04462846FFF7D8
:10552C00ECFF204438BD30B58BB00023012A8DF838
:10553C00243098BF0A2209AC0D46B1FBF2F101FBF5
:10554C00125303F0FF03092B94BF30333733DBB214
:10555C00AA4204F8013DEFD92146FFF7B5FF0BB085
:10556C0030BD0000014B024A1A607047E0E6032090
:10557C0028660B00024B1A68024B1A60704700BF7A
:10558C0044E10320E4E603200021FFF787BC000080
:10559C00014B00229A607047E8E60320014B18602B
:1055AC00704700BF48E1032008B50B4B43B100F036
:1055BC00FFFB03681B699847002801DDAFF30080EF
:1055CC00064B43B100F014FE03681B699847002892
:1055DC0001DDAFF3008008BD0000000000000000FA
:1055EC0008B5FFF7E1FFFFF779FB014B186008BD29
:1055FC0040E703200548064A064908B5121A00F090
:10560C007AFE054B054A1A6008BD00BF00F4032062
:10561C0004F4032064680B0000F403201E1C279A7A
:10562C0007B5002300931A466FF07701FFF758FC7B
:10563C0003B05DF804FB000007B543880A2B08D0C3
:10564C00502B0BD1094B1B684BB103B05DF804EB2D
:10565C001847FFF7E5FF03B05DF804FB0023009348
:10566C001A466FF07701FFF73BFCF4E7FCE60320EA
:10567C0010B512480021FFF7E5FC114B1A68114BCD
:10568C009A42114B0CBF012200221A7001D0FFF775
:10569C00B1FFFFF71BFB044600F05EFE0B4B13B192
:1056AC002046AFF3008000210848FFF793FCBDE8CB
:1056BC00104007480021FFF709BC00BFA9550B009B
:1056CC0000F403201E1C279AF8E6032000000000BB
:1056DC0045560B0070470020704710B5102104464A
:1056EC00FEF7D5FC204610BD08B5FFF7F6FF08BD48
:1056FC0030B500224FF69C74026084808D888C80BB
:10570C000C68858004600A6030BD10B504460068E2
:10571C00FFF770FC204610BD38B5C468F4B123788F
:10572C00022B03D104F10C00FFF7EFFF656835B1D4
:10573C002846FFF773FE10212846FEF7A8FCA56843
:10574C0035B12846FFF76AFE10212846FEF79FFC6C
:10575C0020461421BDE83840FEF799BC38BD0B68D3
:10576C0003604B68436013B15A6801325A6070474A
:10577C0037B5044668460D46FFF7F1FF009B019ACA
:10578C0023606260002301A801930093FFF763FE7E
:10579C0035B1281DFFF75FFE08212846FEF777FC80
:1057AC00204603B030BD826810B50AB900F086FD02
:1057BC00BDE81040C368184708B5006800F1100137
:1057CC00FFF7F1FF08BD826810B50AB900F076FD4D
:1057DC00BDE81040C368184708B5006800F1100117
:1057EC00FFF7F1FF08BD000038B500230446036045
:1057FC0010200D46FEF747FC28B10123C0E9013308
:10580C00024B0360C5602060204638BD50660B001B
:10581C0038B5002383608B6804460D462BB10222F9
:10582C009847EB68E360AB68A360204638BD000086
:10583C00F0B589B004686846FFF75AFF4FF00203D1
:10584C00D4E84F2F002A03D1C4E8413F0029F7D1F7
:10585C0025D104F10C0569462846FFF749FFBFF333
:10586C005B8F01236370002004F10803BFF35B8F8F
:10587C0053E8006F43E80002002AF9D1BFF35B8FB5
:10588C006EB1FFF713FB78B129463046FFF78BFF5B
:10589C003046FFF7C3FD10213046FEF7F8FB684693
:1058AC00FFF733FF09B0F0BD314602A8FFF7B0FF98
:1058BC00E068B4F9105008B100F084FD0690102097
:1058CC00ADF81C50FEF7DFFB0546E8B100278760FA
:1058DC001820FEF7D8FB044688B10146876002A861
:1058EC00FFF7C1FD049BA268A360059B049206A967
:1058FC00E268E36004F110000592FFF7F9FE084B33
:10590C00EB60084B2C60AB6006A8FFF7FEFE02A80C
:10591C00FFF784FD002229460348FFF7CFFAB7E7CB
:10592C00C5570B00495A0B00AD5E0B002DE9F04F2B
:10593C008BB005469DF850A00F4690469946FFF750
:10594C0039FB07AE834638BB4FF62E73059005A97D
:10595C003046ADF81830FFF7CBFE1420FEF793FB62
:10596C00044648B1022303700123C0E901BB437014
:10597C0031460C30FFF7BCFE2846214640F8044B5C
:10598C00FFF732FF3046FFF7C0FE05A8FFF7BDFE5C
:10599C0028460BB0BDE8F08F0C2300241420CDE971
:1059AC0008440793FEF76FFB014618B1C0E90144A8
:1059BC000470447004A80391FFF716FF1E4B089364
:1059CC000820FEF760FB044610B103A9FFF7C7FEE1
:1059DC0000965FFA8AF34A46414638460994FFF727
:1059EC00F1FAB8B9039B5B7803F0FF0293B94FF659
:1059FC009C7305A903A80592ADF81830FFF718FFA2
:105A0C0005A8FFF782FE05A80999FFF7B1FE06A8C5
:105A1C00FFF721FD03A905A8FFF7A1FE059B069A38
:105A2C002B606A60002306A806930593FFF713FD0D
:105A3C0004A8FFF710FDABE7C55A0B00012AF8B517
:105A4C00054603D10B6803600020F8BD022A10D074
:105A5C00032AF9D10468002CF6D004F11000FFF7EA
:105A6C0054FE2046FFF7DAFC18212046FEF70FFB08
:105A7C00EAE718200E68FEF706FB044650B13146E3
:105A8C00FFF7C6FE3069B6F9147008B100F09AFC45
:105A9C002061A7822C60D7E738B5002383608B6820
:105AAC0004460D462BB102229847EB68E360AB68C5
:105ABC00A360204638BD0000F0B589B004460D4601
:105ACC0001A81146FFF754FEA4B124B21DB128461B
:105ADC0000F078FC054601A803A90395ADF8104029
:105AEC00FFF7A6FE03A8FFF710FE02A8FFF7B3FC12
:105AFC0009B0F0BD019D0123D5E84F2F002A03D139
:105B0C00C5E8413F0029F7D1EFD12B73BFF35B8F71
:105B1C006B702B1DBFF35B8F53E8006F43E80042A3
:105B2C00002AF9D1BFF35B8F002EDED02046FFF7A1
:105B3C00BDF9074660B105F10C013046FFF743FE95
:105B4C003046FFF76BFC10213046FEF7A0FACCE78D
:105B5C00314603A8FFF7A0FF2B7B8DF81C301020DB
:105B6C00FEF791FA0546D0B187601420FEF78BFA48
:105B7C00044678B18760014603A8FFF774FC059BC7
:105B8C00A268A360069B0592E268E3609DF81C3056
:105B9C0006922374064BEB60064B2C60AB6003A89B
:105BAC00FFF73CFC002229460348FFF787F9C7E7BB
:105BBC00E5570B00C95B0B00AD5E0B00012A70B5FD
:105BCC00044603D10B680360002070BD022A0CD080
:105BDC00032AF9D10468002CF6D02046FFF71EFCEE
:105BEC0014212046FEF753FAEEE714200E68FEF758
:105BFC004AFA054620B13146FFF74EFF337C2B7431
:105C0C002560E1E7704710B518210446FEF73FFA0E
:105C1C00204610BDF0B5037D062B8DB00E4600F16D
:105C2C0004074FF0000412D000F1080515F8011D0F
:105C3C000A223046FFF777FCAF42044419D0002CFF
:105C4C00F4D02E213046FFF751FC0444EEE72F230D
:105C5C006A4639460A208DF80040FFF74FF868462F
:105C6C0000F0CDFB33680246DB6869463046984746
:105C7C00044620460DB0F0BD10B5054B044611226C
:105C8C0040F8043B002100F05EFB204610BD00BF35
:105C9C006C660B000346074A10B543F8042B01F160
:105CAC00100251F8044B43F8044B9142F9D10A7895
:105CBC001A7010BD6C660B0010B59DF8084044EAD4
:105CCC00032343EA024242EA016104234160037563
:105CDC0010BD000007B5064B0360CB7800938B78A2
:105CEC004A780978FFF7E8FF03B05DF804FB00BFC2
:105CFC006C660B00417470477047704708B5002103
:105D0C00007CFFF7ABF840EAE07008BD08B5012154
:105D1C00007CFFF7A3F840EAE07008BD08B5007CF2
:105D2C00FFF794F820EAE07008BD08B5007CFFF797
:105D3C0085F820EAE07008BD13B50446007C01919B
:105D4C00FFF784F80028019901DC607C20B1207CED
:105D5C00FFF78CF820EAE07002B010BD007CFFF772
:105D6C008DB810B514210446FEF791F9204610BDEC
:105D7C0010B54FF47A73044608460021C4E90113A8
:105D8C00044B23600123207463741146FFF746F81B
:105D9C00204610BD80660B00007C0022FFF746B841
:105DAC0010B514220446002100F0CDFA204610BD97
:105DBC0010B50F4C88B003A8FFF7F2FF2178BFF3A2
:105DCC005B8F11F001010FD120460191FEF761F9B3
:105DDC00019948B103AA0748FFF7CAFF2046FEF70E
:105DEC005DF9054800F06DFA024808B010BD00BF1F
:105DFC0000E7032004E70320055D0B0070474174A6
:105E0C00704708B5007CFEF7A9FF20EAE07008BDDA
:105E1C0008B5007CFEF782FF20EAE07008BD08B5EB
:105E2C00007CFEF78BFF40EAE07008BD08B5007CF3
:105E3C00FEF77CFF40EAE07008BD007CFEF786BFF1
:105E4C0037B5457C04462DB1207C03B0BDE830400D
:105E5C00FEF75CBF007C0191FEF780FF00280199E2
:105E6C00F2DC284603B030BD10B514210446FEF711
:105E7C000EF9204610BD000010B54FF47A7304469D
:105E8C00084611460022C4E90123044B2360012378
:105E9C0020746374FEF76AFF204610BDB0660B00D9
:105EAC0010B5836804460BB900F008FAC36898472C
:105EBC00A3681BB103222146204698472046102197
:105ECC00BDE81040FEF7E3B87047F8B50646154636
:105EDC000C468F18BC4206D0336814F8011B9B6823
:105EEC0030469847F6E72846F8BD007C0022FEF7BE
:105EFC005DBF007C0021FEF761BF007C0021FEF736
:105F0C0065BF007C0021FEF769BF007C0021FEF715
:105F1C006DBF10B514210446FEF7B9F8204610BD2C
:105F2C0038B5044615464FF47A730022C4E90123B0
:105F3C00094B2174084623602946FEF75FFFBF30EA
:105F4C0008D16B69DB0705D56868FFF753F8E8687B
:105F5C00FFF750F8204638BDE0660B000023007CAC
:105F6C001A461946FEF70ABF7FB500221423CDE965
:105F7C000122ADF804300B788DF808304B68039390
:105F8C00CB680493007C0B7A059301A9FEF73EFFC6
:105F9C0007B05DF804FB1FB5003B8DF800104FF007
:105FAC006401039118BF0123694601928DF80830F2
:105FBC00FFF7DAFF05B05DF804FB0123FFF7EBBF39
:105FCC00007C0022FEF7E2BE007C0022FEF7E6BE5B
:105FDC000121FFF7F9BF002240681146FEF7A2BF6E
:105FEC00002240681146FEF7BDBF002240681146F2
:105FFC00FEF7C8BF40680022FEF7BCBF4068002215
:10600C0081F00101FEF7A6BF002340681A4619462D
:10601C00FEF798BF002340681A461946FEF78ABF60
:10602C00002240681146FEF76DBF40680022022135
:10603C00FEF770BF002340681A46FEF75BBF0000F6
:10604C00024B04225A60024A1A60704718E7032078
:10605C0008670B00002340681A46FEF74BBF4068E8
:10606C0000220221FEF756BF002240681146FEF7BF
:10607C0049BF002240681146FEF754BF0023406818
:10608C001A461946FEF756BF002340681A461946B1
:10609C00FEF758BF40680021FEF77CBF4068002126
:1060AC00FEF780BF4068002281F00101FEF752BF6D
:1060BC0040680022FEF75EBF002240681146FEF7E2
:1060CC0061BF002240681146FEF74CBF2DE9F0433A
:1060DC0095B014460D460746FFF7CEFD00211C2255
:1060EC000DA8009100F02FF940230C9320466B462D
:1060FC000CAA0021FEF7E2FD044600284BD1024613
:10610C0001216868FEF70EFF02218046224668686E
:10611C00FEF708FF009E81462146002E3BD0002949
:10612C0039D17368022B03D00A2B11D0F669F4E72E
:10613C00B8F1000FFAD0716906A8043107ADFFF76A
:10614C00C9FD0FCD3C1D0FC42B6823704146EDE7F4
:10615C00B9F1000FEAD07469102201A800F0F3F82D
:10616C0006238DF8143001AD04F1080318341868B7
:10617C0059682A4603C20833A3421546F7D101A930
:10618C0006A807ADFFF786FD0FCD3C1D0FC42B688D
:10619C0023704946CAE70098FEF788FD384615B0CB
:1061AC00BDE8F083024B034A1A6000225A60704724
:1061BC0020E7032044670B007047000038B5044605
:1061CC0014252A46002100F0BEF8258040250749F9
:1061DC0025812846258200F06FF804496060284626
:1061EC0000F06AF8E060204638BD00BF78670B000D
:1061FC0030B50E4D2978BFF35B8F11F0010487B0D9
:10620C0011D12846FDF745FF68B101A8FFF7D6FF6D
:10621C0001AA21460648FFF72FFE2846FDF73EFF50
:10622C00044800F04EF8024807B030BD28E70320C0
:10623C002CE70320C5610B007047000038B50A4BF2
:10624C0003600123044643610849202000F034F820
:10625C00202560600549A560284600F02DF8C4E9AA
:10626C000305204638BD00BF1800010078670B00FD
:10627C0030B50E4D2978BFF35B8F11F0010487B058
:10628C0011D12846FDF705FF68B16846FFF7D6FF28
:10629C006A4621460648FFF743FE2846FDF7FEFEF8
:1062AC00044800F00EF8024807B030BD44E7032064
:1062BC0048E7032045620B00FDF7E7BE08B5FEF783
:1062CC00A9FE002301461A46184600F0A1B8002981
:1062DC0010B591FBF2F402FB141306DB002B01DA70
:1062EC0001349B1AC0E9004310BD002BC4BF04F15C
:1062FC00FF349B18F6E70A44914200F1FF3300D1BA
:10630C00704710B511F8014B03F8014F9142F9D1C8
:10631C0010BD884210B501EB020402D98442234619
:10632C0007D8431EA14208D011F8012B03F8012F06
:10633C00F8E7024401468A4200D110BD13F8014D22
:10634C0002F8014DF7E702440346934200D170472F
:10635C0003F8011BF9E7000038B5104B1D68AB6B57
:10636C000446B3B91820FEF73DFE0246A86320B9D7
:10637C000B4B0C484221FEF75DFE0B490B4BC0E961
:10638C0000130B4B83600B23838100210120C2E996
:10639C000401AB6B00221C615A6138BD48E103203B
:1063AC0079670B0090670B000E33CDAB34126DE6A2
:1063BC00ECDE0500034611F8012B03F8012B002A33
:1063CC00F9D17047024B0146186800F003B800BFC2
:1063DC0048E1032037B5044608460D4600F00FF897
:1063EC00421C114620460192FEF71CFE044618B1D1
:1063FC00019A2946FFF77FFF204603B030BD0346C4
:10640C0013F8012B002AFBD1181A01387047000031
:10641C002DE9F843DFF8B8800646D8F800001F468F
:10642C000D46914600F056F8254B1C6834B9254CA6
:10643C001C60254B13B11B68C4F8883063681F2B94
:10644C0007DDD8F8000000F047F84FF0FF30BDE84A
:10645C00F8834EB3D4F8880088B91C4B23B9D8F80C
:10646C00000000F038F8F0E74FF48470FEF7BAFD46
:10647C000028F4D00023C0E94033C4F888006368D6
:10648C0040F8239001229A4000EB8301D0F80031B0
:10649C001343C0F80031022EC1F8807002BFD0F84F
:1064AC0004311343C0F804316368D8F800005A1C57
:1064BC000233626044F8235000F00EF80020C6E767
:1064CC00E8E703205CE7032000000000F14F0B001D
:1064DC00ACE1032070477047704700001D400B0073
:1064EC0059400B0081400B0085400B000000000060
:1064FC007265643D002C2069723D007B2022626530
:10650C006174223A2022002C20226F78223A20003B
:10651C007D0052656164696E670048523A002C2018
:10652C004F323A20005F5F5F606060616161616162
:10653C006262626262636363636363636364646421
:10654C0064646464646464646464646464646464FF
:10655C006463636363636363636262626262626106
:10656C00616161606060605F5F5F5E5E5E5D5D5D2E
:10657C005C5C5C5B5B5A5A5959595858575756567C
:10658C0055555454535252515150504F4E4E4D4CF0
:10659C004C4B4A4A49484847464545444342424188
:1065AC00403F3E3E3D3C3B3A393838373635343344
:1065BC003231302F2E2D2C2B2A2928272625242327
:1065CC0022211F1E1D1C1B1A19171615141311102E
:1065DC000F0E0C0B0A090706050302010000000050
:1065EC000000000000000000BF500B00B5500B0075
:1065FC00AB500B00A1500B0095500B0089500B00B9
:10660C00A1600B00A9600B007D500B0075500B00B6
:10661C006B500B0061500B00D9600B006170700067
:10662C0025592D256D2D25645425483A254D3A259F
:10663C0053257A0061736374696D65000000000076
:10664C0000000000E1560B00E7560B0025570B002D
:10665C00F5560B00E3560B00000000000000000094
:10666C00215C0B00115C0B00135C0B0000000000A4
:10667C0000000000075D0B006F5D0B00455D0B001B
:10668C00A9540B00375D0B00095D0B00195D0B0065
:10669C00695D0B00295D0B00015D0B000000000023
:1066AC0000000000095E0B00755E0B004D5E0B00D8
:1066BC00A9540B001D5E0B00395E0B002B5E0B000A
:1066CC00475E0B000B5E0B000F5E0B000000000022
:1066DC0000000000D55E0B001F5F0B00F75E0B0087
:1066EC00D75E0B00FF5E0B00075F0B000F5F0B000C
:1066FC00175F0B00000000000000000041600B0061
:10670C0037600B002D600B00E35F0B0021600B006A
:10671C0015600B00A1600B00A9600B0009600B0059
:10672C0001600B00F75F0B00ED5F0B00D9600B00F5
:10673C00000000000000000061600B006B600B00AB
:10674C0075600B007F600B0089600B0095600B007F
:10675C00A1600B00A9600B00B1600B00BD600B00C9
:10676C00C5600B00CF600B00D9600B000052454593
:10677C004E54206D616C6C6F63207375636365653B
:10678C00646564002F6D6E742F776F726B7370611C
:10679C0063652F776F726B73706163652F4743432B
:1067AC002D31302D706970656C696E652F6A656E60
:1067BC006B696E732D4743432D31302D70697065B5
:1067CC006C696E652D34385F323032303131323491
:1067DC005F313630363138303634312F7372632FA7
:1067EC006E65776C69622F6E65776C69622F6C6968
:1067FC0062632F7374646C69622F72616E642E63B2
:10680C000000000089430B00C9500B00DD500B0049
:10681C0099540B0071550B0081550B009D550B00C5
:10682C004D600B00B1610B00000000000000000087
:04683C000000000058
:10684000040000001400000003000000474E550043
:1068500082AEF4757FB2C69D9A58FA1B82F1E7D8D2
:04686000F2861B524F
:046864000000000030
:1068680040660B004CE1032000000000000000001F
:106878000000000000000000000000000000000010
:106888000000000000000000000000000000000000
:1068980000000000000000000000000000000000F0
:1068A80000000000000000000000000000000000E0
:1068B80000000000000000000000000000000000D0
:0C68C8000000000000000000ECE70320CE
:1068D400FFFFFFFF00000102030405060708090A81
:1068E4000B0C0D0E0F101112131415161718191A7C
:0868F4001B1C1D1E1F202800C3
:0468FC007856341284
:04000003B000401CED
:00000001FF
